:020000040800F2
:1000000000110020FDD4000831D4000833D40008CA
:1000100039D500083DD5000841D500080000000092
:1000200000000000000000000000000045D50008AE
:1000300035D400080000000049D5000837D4000876
:100040004DD5000851D5000855D5000859D50008F0
:100050005DD5000861D5000865D5000869D50008A0
:100060006DD5000871D5000875D5000879D5000850
:100070007DD5000881D5000885D5000889D5000800
:100080008DD5000891D5000895D5000899D50008B0
:100090009DD50008A1D50008A5D50008A9D5000860
:1000A00000000000ADD50008B1D50008B5D50008A6
:1000B000B9D50008BDD50008C1D50008C5D50008D0
:1000C000C9D50008CDD50008D1D50008D5D5000880
:1000D000D9D50008DDD50008E1D50008E5D5000830
:1000E0003FD40008E9D50008EDD50008F1D5000897
:1000F000F5D5000800000000F9D50008FDD500087E
:1001000001D6000805D6000809D600080DD600085B
:1001100011D6000815D6000819D600080000000006
:100120001DD6000870B582B0040000A8DFF8DC1905
:100130000A680260A5682E68200000F05CFD0128B6
:1001400001D1012035E00421200001F056FE0028F5
:1001500001D101202DE04021200001F071FE002896
:1001600001D1012025E00021200001F0E5FC00285C
:1001700001D101201DE0DFF8940B30600021200048
:1001800001F067FD002801D1012012E000212000CC
:1001900000F0CDF9012801D101200AE000A92000DA
:1001A00000F043FA012801D1012002E00120E070B3
:1001B000002076BD70B50400A5682E68200000F010
:1001C0001AFD012801D101203CE0200000F0D2FFFF
:1001D000012801D1012035E0200001F093FB012826
:1001E00001D101202EE0200001F048F8012801D1C2
:1001F000012027E0200001F0E9F9012801D10120C8
:1002000020E0200001F09EFA012801D1012019E030
:10021000200001F0D2F8012801D1012012E02000D5
:1002200001F03AF9012801D101200BE0200000F093
:100230001FF8012801D1012004E0002030600020D7
:10024000E070002070BD70B50400A5682E682079AC
:10025000012801D100200AE03168200000F058FD9B
:10026000012801D1012002E001202071002070BD91
:1002700070B50400A5682E682079002801D10020FF
:1002800012E03100200000F097F8012801D1012090
:100290000AE00021200001F0DCFC002801D101204F
:1002A00002E000202071002070BD38B504000D0070
:1002B0002900200000F092FC32BD10B5040020009F
:1002C00000F099FC10BD3EB504000D000020009028
:1002D00001A9200000F0A6FC012801D1012026E0A0
:1002E00000A9200000F03BF8012801D101201EE008
:1002F000BDF9040002F03CFC009902F053FC02F04E
:10030000BDFC2860BDF9060002F032FC009902F045
:1003100049FC02F0B3FC6860BDF9080002F028FC5B
:10032000009902F03FFC02F0A9FCA86000203EBD4D
:1003300030B583B004000D0000A9200000F072FC6D
:10034000012801D1012009E0BDF800002880BDF896
:1003500002006880BDF80400A88000203EBD38B5CA
:1003600004000D0000A9200001F061FC002801D16B
:10037000012020E09DF80000002806D0042810D0BD
:10038000082806D00C2808D00FE0DFF8440A2860BF
:1003900010E0DFF8400A28600CE0DFF83C0A286033
:1003A00008E0DFF8380A286004E0DFF8E80A28608F
:1003B000012000E0002032BD38B504000D0000A986
:1003C000200001F069FC002801D101204FE09DF8D8
:1003D0000000002816D0102817D0202819D0302867
:1003E0001BD040281DD050281FD0602821D0702855
:1003F00023D0802825D0902827D0A02829D0B02825
:100400002BD02EE00020286030E0DFF88C0A286036
:100410002CE0DFF8880A286028E0DFF8840A2860EA
:1004200024E0DFF8E808286020E0DFF8780A286098
:100430001CE0DFF8740A286018E0DFF8700A286012
:1004400014E0DFF86C0A286010E0DFF8680A286022
:100450000CE0DFF8640A286008E0DFF8600A286032
:1004600004E0DFF8300A2860012000E0002032BDFF
:1004700038B504000D002079012808D12900C9B23F
:10048000200000F0F7FB01280AD1012009E0290033
:10049000C9B2200000F017FC012801D1012000E0C2
:1004A000002032BD38B504000D002079012807D1A5
:1004B0002900200000F02CFC012809D1012008E0CF
:1004C0002900200000F08CFC012801D1012000E06F
:1004D000002032BD38B504000D0000A9200001F055
:1004E000A6FB002801D1012020E09DF80000002893
:1004F00006D0042810D0082806D00C2808D00FE019
:100500005FF08040286010E05FF0814028600CE0E0
:100510005FF08240286008E05FF08340286004E0DC
:10052000DFF870092860012000E0002032BD70B5BE
:1005300004000D00EDB2002D03D0022D07D003D32F
:1005400008E00020060007E00820060004E00C2078
:10055000060001E0012009E03100C9B2200001F0ED
:1005600043FB002801D1012000E0002070BD70B5E0
:1005700004000D002800DFF8CC1A02F0A1FB01D224
:10058000002610E02800DFF8C01A02F099FB01D223
:10059000082608E02800DFF8D81B02F091FB01D202
:1005A0000C2600E004263100C9B2200001F01CFB3B
:1005B000002801D1012000E0002070BD38B5040002
:1005C0000D000DF10201200001F080FC002801D196
:1005D000012029E00DF10101200001F0ACFC002810
:1005E00001D1012020E000A9200001F0D9FC002861
:1005F00001D1012018E09DF80200082801D1012056
:1006000000E0002028709DF80100102801D1012091
:1006100000E0002068709DF80000202801D1012032
:1006200000E00020A870002032BD38B504000D00A5
:100630002878012801D1082100E00021C9B220005A
:1006400001F021FC002801D101201CE0687801287C
:1006500001D1102100E00021C9B2200001F048FCC6
:10066000002801D101200EE0A878012801D1202125
:1006700000E00021C9B2200001F06FFC002801D188
:10068000012000E0002032BD70B582B0040000A857
:10069000DFF84C1A0A680260A5682E68200000F096
:1006A000AAFA012801D1012035E00421200001F03F
:1006B000A4FB002801D101202DE04021200001F001
:1006C000BFFB002801D1012025E00021200001F01E
:1006D00033FA002801D101201DE0DFF8E407306083
:1006E0000021200001F054FB002801D1012012E07C
:1006F0000221200000F0ACF9012801D101200AE01C
:1007000000A9200000F03BFA012801D1012002E0FD
:100710000120E070002076BD70B50400A5682E6849
:10072000200000F068FA012801D101200BE0200030
:1007300000F01FF8012801D1012004E00020306002
:100740000020E070002070BD70B50400A5682E6820
:100750002079012801D100200AE03168200000F052
:1007600029FC012801D1012002E001202071002094
:1007700070BD70B50400A5682E682079002801D1ED
:10078000002012E03100200000F0A8F8012801D17B
:1007900001200AE00021200001F0FAFA002801D12E
:1007A000012002E000202071002070BD38B5040057
:1007B0000D002900200000F011FA32BD10B5040030
:1007C000200000F018FA10BD3EB504000D00002016
:1007D000009001A9200000F075FB012801D1012043
:1007E00026E000A9200000F03BF8012801D10120FB
:1007F0001EE0BDF9040002F0BBF9009902F0D2F945
:1008000002F03CFA2860BDF9060002F0B1F9009947
:1008100002F0C8F902F032FA6860BDF9080002F08F
:10082000A7F9009902F0BEF902F028FAA8600020AA
:100830003EBD30B583B004000D0000A9200000F0DB
:1008400041FB012801D1012009E0BDF8000028800A
:10085000BDF802006880BDF80400A88000203EBDFD
:1008600038B504000D000DF10101200001F049FA36
:10087000002801D1012030E09DF80100022803D1B9
:10088000DFF8E409286027E000A9200001F06EFAF3
:10089000002801D1012020E09DF80000002806D0AA
:1008A000042808D008280AD00C280CD00FE0DFF864
:1008B000BC09286010E0DFF8B80928600CE0DFF818
:1008C000B409286008E0DFF8B009286004E0DFF828
:1008D000C4052860012000E0002032BD38B50400C6
:1008E0000D0000A9200001F076FA002801D10120B6
:1008F0003DE09DF80000002810D0102811D02028DD
:1009000013D0302815D0402817D0502819D060288F
:100910001BD070281DD080281FD022E00020286026
:1009200024E0DFF87405286020E0DFF87005286017
:100930001CE0DFF86C05286018E0DFF8D0032860C1
:1009400014E0DFF86005286010E0DFF85C0528603F
:100950000CE0DFF85805286008E0DFF8540528604F
:1009600004E0DFF830052860012000E0002032BDFF
:1009700038B504000D002079012808D12900C9B23A
:10098000200000F0C7FA01280AD1012009E029005F
:10099000C9B2200000F0E7FA012801D1012000E0EF
:1009A000002032BD38B504000D002079012807D1A0
:1009B0002900200000F0FEFA012809D1012008E0FA
:1009C0002900200000F042FB012801D1012000E0B5
:1009D000002032BD38B504000D0000A9200001F050
:1009E00090F9002801D1012031E00DF10101200032
:1009F00001F0BCF9002801D1012028E09DF8000099
:100A0000022803D1DFF87C0A28601FE09DF801006E
:100A1000002806D0042808D008280AD00C280CD0BA
:100A20000FE0DFF8640A286010E0DFF8600A286051
:100A30000CE0DFF85C0A286008E0DFF8580A28605C
:100A400004E0DFF850042860012000E0002032BDFF
:100A500070B504000D00EDB2002D03D0022D07D0BB
:100A600003D308E00020060007E00420060004E0AD
:100A70000C20060001E0012009E03100C9B220008D
:100A800001F051F9002801D1012000E0002070BDE3
:100A900070B504000D002800DFF8201B02F010F9EB
:100AA00007D20221200001F009F900282BD10120F2
:100AB0002AE02800DFF8081B02F002F901D2002624
:100AC00010E02800DFF8FC1A02F0FAF801D2042640
:100AD00008E02800DFF8F01A02F0F2F801D2082648
:100AE00000E00C260021200001F0E8F8002801D1E8
:100AF000012009E03100C9B2200001F014F90028FA
:100B000001D1012000E0002070BD00002CD50008BC
:100B100038B504000D000DF10201200001F098FA33
:100B2000002801D1012029E00DF10101200001F090
:100B3000C4FA002801D1012020E000A9200001F022
:100B4000F1FA002801D1012018E09DF802000828E0
:100B500001D1012000E0002028709DF8010010283C
:100B600001D1012000E0002068709DF800002028DD
:100B700001D1012000E00020A870002032BD38B56E
:100B800004000D002878012801D1082100E000218F
:100B9000C9B2200001F039FA002801D101201CE07F
:100BA0006878012801D1102100E00021C9B220009D
:100BB00001F060FA002801D101200EE0A878012898
:100BC00001D1202100E00021C9B2200001F087FA04
:100BD000002801D1012000E0002032BD38B504001A
:100BE0000D002900200000F0EDFF002801D10120B8
:100BF00000E0002032BD10B582B0040000208DF866
:100C0000000000A92000FFF7E9FF012801D1012021
:100C100007E09DF800002178884201D0012000E023
:100C2000002016BD30B583B004000D0000A80021DF
:100C3000002206C0083800A9200001F01DFF00288E
:100C400001D1012015E09DF801009DF8001011EB85
:100C5000002028809DF803009DF8021011EB002071
:100C600068809DF805009DF8041011EB0020A88015
:100C700000203EBD70B504000D00EDB2002D06D081
:100C8000022D0AD006D3042D0DD009D30EE010207A
:100C900006000DE0102006000AE02020060007E014
:100CA0003020060004E04020060001E0012009E0B9
:100CB0003100C9B2200000F0CCFF002801D1012092
:100CC00000E0002070BD10B4020093681C68C9B237
:100CD000002906D002290AD006D304290DD009D351
:100CE0000FE06D4820600EE06B4820600BE06B4821
:100CF000206008E06A48206005E0DFF8D00B206043
:100D000001E0012000E0002010BC70470000D0424C
:100D100070B504000D002800DFF8181A01F0D0FFAC
:100D200001D2102648E02800DFF80C1A01F0C8FFB5
:100D300001D2202640E02800DFF8001A01F0C0FFB1
:100D400001D2302638E02800DFF8F41901F0B8FFAE
:100D500001D2402630E02800DFF8741B01F0B0FF1C
:100D600001D2502628E02800DFF8681B01F0A8FF18
:100D700001D2602620E02800DFF85C1B01F0A0FF14
:100D800001D2702618E02800DFF8501B01F098FF10
:100D900001D2802610E02800DFF8441B01F090FF0C
:100DA00001D2902608E02800DFF8381B01F088FF08
:100DB00001D2A02600E0B0263100C9B2200000F028
:100DC00048FF002801D1012000E0002070BD000094
:100DD00023DB793D23DBF93D23DB793E23DBF93E41
:100DE00038B502000B00946825681800DFF8441934
:100DF00001F066FF01D2284848E01800DFF83819F2
:100E000001F05EFF01D2254840E01800DFF82C1900
:100E100001F056FF01D2224838E01800DFF820190F
:100E200001F04EFF01D2264830E01800DFF8A01A8A
:100E300001F046FF01D21B4828E01800DFF8941AA1
:100E400001F03EFF01D2184820E01800DFF8881AB0
:100E500001F036FF01D2154818E01800DFF87C1ABF
:100E600001F02EFF01D2124810E01800DFF8701ACE
:100E700001F026FF01D20F4808E01800DFF8641ADD
:100E800001F01EFF01D20C4800E00C482860002051
:100E900032BD0000000080BF000050410000D04182
:100EA00000005042000050430000D0430040504436
:100EB0000080CF44002050450020D04500485046D7
:100EC0000000D04230B583B004000D0000A800211E
:100ED000002206C0083800A9200001F0A2FD002869
:100EE00001D1012015E09DF801009DF8001011EBE3
:100EF000002028809DF803009DF8021011EB0020CF
:100F000068809DF805009DF8041011EB0020A88072
:100F100000203EBD70B504000D00EDB2002D06D0DE
:100F2000022D0AD006D3042D0DD009D30EE01020D7
:100F300006000DE0102006000AE02020060007E071
:100F40003020060004E04020060001E0012009E016
:100F50003100C9B2200000F01BFF002801D10120A0
:100F600000E0002070BD10B4020093681C68C9B294
:100F7000002906D002290CD007D3042911D00CD3A4
:100F800013E0DFF86409206011E0DFF85C092060FD
:100F90000DE0DFF85809206009E0DFF8540920600F
:100FA00005E0DFF82809206001E0012000E00020D2
:100FB00010BC704770B504000D002800DFF87417EE
:100FC00001F07EFE01D2102630E02800DFF868171D
:100FD00001F076FE01D2202628E02800DFF85C1719
:100FE00001F06EFE01D2302620E02800DFF8501715
:100FF00001F066FE01D2402618E02800DFF8D01884
:1010000001F05EFE01D2502610E02800DFF8C4187F
:1010100001F056FE01D2602608E02800DFF8B8187B
:1010200001F04EFE01D2702600E080263100C9B2E8
:10103000200000F0ADFE002801D1012000E00020DA
:1010400070BD0000010000400100804038B5020082
:101050000B00946825681800DFF8D81601F030FE00
:1010600002D2DFF8840837E01800DFF8CC1601F070
:1010700027FE02D2DFF874082EE01800DFF8BC1655
:1010800001F01EFE02D2DFF8680825E01800DFF844
:10109000B01601F015FE02D2DFF830081CE018008F
:1010A000DFF82C1801F00CFE02D2DFF8480813E03C
:1010B0001800DFF8201801F003FE02D2DFF838082C
:1010C0000AE01800DFF8101801F0FAFD02D2DFF88C
:1010D0002C0801E0DFF828082860002032BD00005D
:1010E00030D5000810B50400DFF80C182000FFF719
:1010F000D9F9012801D1012038E00021200000F0B9
:1011000073FD002801D1012030E00621200001F00C
:1011100069FB002801D1012028E00021200001F016
:1011200018FB002801D1012020E00021200001F05F
:10113000EDFA002801D1012018E00021200001F083
:10114000C0FA002801D1012010E00321200000F0A6
:1011500048F8012801D1012008E01021200001F009
:10116000F7FB002801D1012000E0002010BD0000A5
:101170000100004110B504000021200001F0E8FB4F
:10118000002801D1012010E00021200001F02AFBFD
:10119000002801D1012008E00021200001F0FFFA21
:1011A000002801D1012000E0002010BD38B5040066
:1011B0000D0000A9200000F0FCFF002801D1012053
:1011C0000EE09DF80000002804D0202805D1012061
:1011D000287004E00020287001E0012000E00020D9
:1011E00032BD38B504000D002900C9B2200001F05D
:1011F000D6FA002801D1012000E0002032BD10B550
:101200000400DFF8E8162000FFF74CF9012801D1AF
:10121000012028E00021200000F0E6FC002801D198
:10122000012020E01721200000F08CF8012801D1D6
:10123000012018E00421200000F086FF002801D1E1
:10124000012010E04021200001F017F9002801D111
:10125000012008E08021200000F091FC002801D14D
:10126000012000E0002010BD00008C4000000C4177
:1012700000008C4100000C4200008C4210B50400BC
:101280000021200000F07BFC002801D1012018E0A3
:101290000021200001F0F1F8002801D1012010E028
:1012A0000021200000F050FF002801D1012008E0BB
:1012B0000021200000F046F8012801D1012000E0C3
:1012C000002010BD38B504000D0000A9200001F079
:1012D00024F8002801D101200EE09DF8000000282C
:1012E00004D0102805D10120287004E000202870C7
:1012F00001E0012000E0002032BD38B504000D00FF
:101300002900200001F0E3FB002801D1012000E0CA
:10131000002032BD10B504000221200000F052FE72
:10132000002801D1012000E0002010BD10B504000C
:101330000021200000F046FE002801D1012000E03D
:10134000002010BD38B504000D002900C9B22000EE
:1013500001F0E8FB002801D1012000E0002032BDAF
:1013600010B50400DFF884152000FFF79BF8012872
:1013700001D1012020E00021200000F035FC0028F0
:1013800001D1012018E00421200000F0DDFE00283A
:1013900001D1012010E02021200001F04BF80028AD
:1013A00001D1012008E00221200001F068FA0028A4
:1013B00001D1012000E0002010BD10B50400002183
:1013C000200001F05CFA002801D1012010E000218A
:1013D000200001F02FF8002801D1012008E00021B1
:1013E000200000F0B1FE002801D1012000E0002023
:1013F00010BD38B504000D0000A9200000F09FFFCB
:10140000002801D101200EE09DF80000002804D042
:10141000202805D10120287004E00020287001E078
:10142000012000E0002032BD10B50400DFF8C81430
:101430002000FFF737F8012801D1012020E000212A
:10144000200000F0D1FB002801D1012018E000218C
:10145000200001F07EF9002801D1012010E00221D6
:10146000200001F0E6F8002801D1012008E0202149
:10147000200001F090FA002801D1012000E00020B6
:1014800010BD00000000FA42000075430000FA435E
:1014900000007A440000FA4410B504000021200046
:1014A00001F079FA002801D1012010E0002120008C
:1014B00001F04FF9002801D1012008E000212000AF
:1014C00001F0B7F8002801D1012000E0002010BD94
:1014D00038B504000D0000A9200000F058FE0028D7
:1014E00001D101200EE09DF80000002804D008285A
:1014F00005D10120287004E00020287001E00120BF
:1015000000E0002032BD38B504000D002900C9B24A
:10151000200001F08EF8002801D1012000E0002019
:1015200032BD10B50400DFF8D0132000FEF7BAFF7B
:10153000012801D1012040E00021200000F054FBEF
:10154000002801D1012038E00821200000F04FFFE1
:10155000002801D1012030E00421200000F024FF08
:10156000002801D1012028E00221200000F0F9FE2E
:10157000002801D1012020E00821200000F049F9D5
:10158000012801D1012018E00221200000F04FF9CC
:10159000012801D1012010E00121200000F055F9BF
:1015A000012801D1012008E04021200001F016FAB5
:1015B000002801D1012000E0002010BD0100FA4206
:1015C000010075430100FA4301007A4410B504009C
:1015D0000021200001F002FA002801D1012030E0B2
:1015E0000021200000F015F9012801D1012028E098
:1015F0000021200000F01BF9012801D1012020E08A
:101600000021200000F021F9012801D1012018E07B
:101610000021200000F0A5FE002801D1012010E0EB
:101620000021200000F0C0FE002801D1012008E0C8
:101630000021200000F0DBFE002801D1012000E0A5
:10164000002010BD38B504000D0000A9200000F0F6
:10165000D4FD002801D101200EE09DF800000028F3
:1016600004D0202805D10120287004E00020287033
:1016700001E0012000E0002032BD10B504009E49C9
:101680002000FEF70FFF012801D1012050E00021CA
:10169000200000F0A9FA002801D1012048E008212B
:1016A000200000F0A4FE002801D1012040E0042128
:1016B000200000F079FE002801D1012038E002214D
:1016C000200000F04EFE002801D1012030E008216A
:1016D000200000F09EF8012801D1012028E003211C
:1016E000200000F0A4F8012801D1012020E003210E
:1016F000200000F0AAF8012801D1012018E00821FB
:10170000200000F0B0F8012801D1012010E0802174
:10171000200000F0B3FF002801D1012008E00821DB
:10172000200001F0F2F8002801D1012000E00020A3
:1017300010BD0000010050410100D04101005042A5
:101740000100D04210B504000021200001F0DDF8B6
:10175000002801D1012040E00021200000F059F8CC
:10176000012801D1012038E00021200000F05FF8BD
:10177000012801D1012030E00021200000F065F8AF
:10178000012801D1012028E00021200000F06BF8A1
:10179000012801D1012020E00021200000F06EFF8F
:1017A000002801D1012018E00021200000F0D9FD1F
:1017B000002801D1012010E00021200000F0F4FDFC
:1017C000002801D1012008E00021200000F00FFED8
:1017D000002801D1012000E0002010BD38B5040030
:1017E0000D0000A9200000F0F6FC002801D1012026
:1017F0000EE09DF80000002804D0102805D101203B
:10180000287004E00020287001E0012000E00020A2
:1018100032BD38B504000D002900C9B2200000F027
:101820004FFE002801D1012000E0002032BD38B574
:1018300004000D002900C9B2200000F089FE002834
:1018400001D1012000E0002032BD38B504000D00B8
:101850002900C9B2200000F0A0FE002801D101201B
:1018600000E0002032BD38B504000D002900C9B2E7
:10187000200000F0B8FE002801D1012000E0002087
:1018800032BD10B504001C492000FEF70BFE0128F4
:1018900001D1012018E00021200000F0A5F9002866
:1018A00001D1012010E04021200000F02EFE002890
:1018B00001D1012008E00421200001F003F80028F4
:1018C00001D1012000E0002010BD00000000D04246
:1018D000010050430100D043014050440180CF44F7
:1018E000012050450120D045000050410000D0416A
:1018F00000005042000050430000D04300405044DC
:101900000080CF4410B504000021200000F0DAFF71
:10191000002801D1012008E00021200000F0F5FDA1
:10192000002801D1012000E0002010BD38B50400DE
:101930000D0000A9200000F0DEFC002801D10120EC
:101940000EE09DF80000002804D0402805D10120B9
:10195000287004E00020287001E0012000E0002051
:1019600032BD38B504000D0000A9200000F057FC7E
:10197000002801D101200EE09DF80000002804D0CD
:10198000012805D10120287004E00020287001E022
:10199000012000E0002032BD38B504000D0000A990
:1019A000200000F04EFC002801D101200EE09DF83F
:1019B0000000002804D0022805D10120287004E08E
:1019C0000020287001E0012000E0002032BD38B581
:1019D00004000D0000A9200000F045FC002801D102
:1019E00001200EE09DF80000002804D0042805D155
:1019F0000120287004E00020287001E0012000E0B0
:101A0000002032BD38B504000D0000A9200000F010
:101A10003CFC002801D101200EE09DF800000028C8
:101A200004D0082805D10120287004E00020287087
:101A300001E0012000E0002032BD38B504000D00B7
:101A400000A9200000F033FC002801D101200EE0A5
:101A50009DF80000002804D0102805D1012028702E
:101A600004E00020287001E0012000E0002032BDE9
:101A700038B504000D0000A9200000F02AFC002861
:101A800001D101200EE09DF80000002804D020289C
:101A900005D10120287004E00020287001E0012019
:101AA00000E0002032BD0268531C036011707047D3
:101AB00070B504000D001600012332002900C9B2E0
:101AC000200001F076F9002801D0002000E001207C
:101AD00070BD34B504000D00012300AA2900C9B26D
:101AE000200001F04FF9002801D0002000E0012083
:101AF00032BD38B504000D0000AA01212000FFF717
:101B0000D7FF002801D1002015E09DF8000010F05B
:101B10007F008DF800009DF8000028438DF800003C
:101B20009DF8002001212000FFF7D3FF002801D1FC
:101B3000002000E0012032BD38B504000D0000AAED
:101B40000A212000FFF7B4FF002801D1002015E092
:101B50009DF8000010F0F8008DF800009DF80000DE
:101B600028438DF800009DF800200A212000FFF78F
:101B7000B0FF002801D1002000E0012032BD38B5BF
:101B800004000D0000AA0D212000FFF791FF00289E
:101B900001D1002015E09DF8000010F07F008DF8C5
:101BA00000009DF8000028438DF800009DF80020FB
:101BB0000D212000FFF78DFF002801D1002000E05B
:101BC000012032BD38B504000D002A000F2120008D
:101BD000FFF76EFF002801D1002004E0287828706C
:101BE00028782870012032BD38B504000D0000AA05
:101BF00010212000FFF75CFF002801D1002015E034
:101C00009DF8000010F0F3008DF800009DF8000032
:101C100028438DF800009DF8002010212000FFF7D8
:101C200058FF002801D1002000E0012032BD38B566
:101C300004000D002A0010212000FFF739FF0028C2
:101C400001D1002004E0287810F00C002870012059
:101C500032BD38B504000D0000AA10212000FFF7A6
:101C600027FF002801D1002015E09DF8000010F0AA
:101C70000F008DF800009DF8000028438DF800004B
:101C80009DF8002010212000FFF723FF002801D13C
:101C9000002000E0012032BD38B504000D002A000C
:101CA00010212000FFF704FF002801D1002004E0EC
:101CB000287810F0F0002870012032BD38B50400FB
:101CC0000D0000AA11212000FFF7F2FE002801D12B
:101CD000002015E09DF8000010F0FD008DF80000D8
:101CE0009DF8000028438DF800009DF80020112188
:101CF0002000FFF7EEFE002801D1002000E00120C7
:101D000032BD38B504000D002A0011212000FFF774
:101D1000CFFE002801D1002004E0287810F0020056
:101D20002870012032BD38B504000D0000AA112131
:101D30002000FFF7BDFE002801D1002015E09DF82E
:101D4000000010F0F3008DF800009DF8000028431B
:101D50008DF800009DF8002011212000FFF7B9FE4A
:101D6000002801D1002000E0012032BD38B5040078
:101D70000D002A0011212000FFF79AFE002801D152
:101D8000002004E0287810F00C002870012032BDFB
:101D900038B504000D0000AA11212000FFF788FECD
:101DA000002801D1002015E09DF8000010F00F0080
:101DB0008DF800009DF8000028438DF800009DF884
:101DC000002011212000FFF784FE002801D100200F
:101DD00000E0012032BD38B504000D002A001121B9
:101DE0002000FFF765FE002801D1002004E02878DC
:101DF00010F0F0002870012032BD38B504000D004D
:101E000000AA12212000FFF753FE002801D1002074
:101E100015E09DF8000010F0FB008DF800009DF823
:101E2000000028438DF800009DF8002012212000BA
:101E3000FFF74FFE002801D1002000E0012032BD55
:101E400038B504000D0000AA12212000FFF730FE73
:101E5000002801D1002015E09DF8000010F0BF001F
:101E60008DF800009DF8000028438DF800009DF8D3
:101E7000002012212000FFF72CFE002801D10020B5
:101E800000E0012032BD38B504000D0000AA182181
:101E90002000FFF70DFE002801D1002015E09DF87D
:101EA000000010F0F7008DF800009DF800002843B6
:101EB0008DF800009DF8002018212000FFF709FE92
:101EC000002801D1002000E0012032BD38B5040017
:101ED0000D002A0018212000FFF7EAFD002801D19B
:101EE000002004E0287810F008002870012032BD9E
:101EF00038B504000D0000AA18212000FFF7D8FD16
:101F0000002801D1002015E09DF8000010F0EF003E
:101F10008DF800009DF8000028438DF800009DF822
:101F2000002018212000FFF7D4FD002801D1002057
:101F300000E0012032BD38B504000D002A00182150
:101F40002000FFF7B5FD002801D1002004E028782B
:101F500010F010002870012032BD38B504000D00CB
:101F600000AA18212000FFF7A3FD002801D10020BE
:101F700015E09DF8000010F0DF008DF800009DF8DE
:101F8000000028438DF800009DF800201821200053
:101F9000FFF79FFD002801D1002000E0012032BDA5
:101FA00038B504000D002A0018212000FFF780FD3D
:101FB000002801D1002004E0287810F020002870CB
:101FC000012032BD38B504000D0000AA19212000FF
:101FD000FFF76EFD002801D1002015E09DF80000FC
:101FE00010F0FD008DF800009DF8000028438DF8EA
:101FF00000009DF8002019212000FFF76AFD00284D
:1020000001D1002000E0012032BD38B504000D00F0
:1020100000AA19212000FFF74BFD002801D1002064
:1020200015E09DF8000010F0F7008DF800009DF815
:10203000000028438DF800009DF8002019212000A1
:10204000FFF747FD002801D1002000E0012032BD4C
:1020500038B504000D002A0019212000FFF728FDE3
:10206000002801D1002004E0287810F00800287032
:10207000012032BD38B504000D0000AA192120004E
:10208000FFF716FD002801D1002015E09DF80000A3
:1020900010F0EF008DF800009DF8000028438DF847
:1020A00000009DF8002019212000FFF712FD0028F4
:1020B00001D1002000E0012032BD38B504000D0040
:1020C0002A0019212000FFF7F3FC002801D100208D
:1020D00004E0287810F010002870012032BD38B5D7
:1020E00004000D0000AA19212000FFF7E1FC0028E0
:1020F00001D1002015E09DF8000010F0DF008DF800
:1021000000009DF8000028438DF800009DF8002095
:1021100019212000FFF7DDFC002801D1002000E09C
:10212000012032BD38B504000D002A00192120001D
:10213000FFF7BEFC002801D1002004E0287810F051
:1021400020002870012032BD38B504000D0000AA1F
:1021500019212000FFF7ACFC002801D1002015E078
:102160009DF8000010F0FB008DF800009DF80000C5
:1021700028438DF800009DF8002019212000FFF76A
:10218000A8FC002801D1002000E0012032BD38B5B4
:1021900004000D002A001B212000FFF789FC002805
:1021A00001D1002004E0287810F0080028700120F8
:1021B00032BD38B504000D002A001B212000FFF7B6
:1021C00077FC002801D1002004E0287810F02000DE
:1021D0002870012032BD38B504000D002A001C21F2
:1021E0002000FFF765FC002801D1002004E02878DA
:1021F00010F010002870012032BD38B504000D0029
:102200002A001C212000FFF753FC002801D10020E8
:1022100004E0287810F020002870012032BD38B585
:1022200004000D002A001D212000FFF741FC0028BA
:1022300001D1002004E0287810F00100287001206E
:1022400032BD38B504000D002A001D212000FFF723
:102250002FFC002801D1002004E0287810F00200B3
:102260002870012032BD38B504000D002A001D2160
:102270002000FFF71DFC002801D1002004E0287891
:1022800010F004002870012032BD38B504000D00A4
:102290002A001D212000FFF70BFC002801D100209F
:1022A00004E0287810F008002870012032BD38B50D
:1022B00004000D002A001D212000FFF7F9FB002873
:1022C00001D1002004E0287810F0100028700120CF
:1022D00032BD38B504000D002A001D212000FFF793
:1022E000E7FB002801D1002004E0287810F020004E
:1022F0002870012032BD38B504000D002A001D21D0
:102300002000FFF7D5FB002801D1002004E0287849
:1023100010F040002870012032BD38B504000D00D7
:102320002A0053212000FFF7C3FB002801D1002021
:1023300004E0287810F010002870012032BD38B574
:1023400004000D002A0053212000FFF7B1FB0028F4
:1023500001D1002004E0287810F02000287001202E
:1023600032BD38B504000D0000AA58212000FFF747
:102370009FFB002801D1002015E09DF8000010F01F
:10238000FD008DF800009DF8000028438DF8000046
:102390009DF8002058212000FFF79BFB002801D169
:1023A000002000E0012032BD38B504000D0000AA75
:1023B00058212000FFF77CFB002801D1002015E008
:1023C0009DF8000010F0FB008DF800009DF8000063
:1023D00028438DF800009DF8002058212000FFF7C9
:1023E00078FB002801D1002000E0012032BD38B583
:1023F00004000D0000AA58212000FFF759FB002817
:1024000001D1002015E09DF8000010F0F7008DF8D4
:1024100000009DF8000028438DF800009DF8002082
:1024200058212000FFF755FB002801D1002000E0D3
:10243000012032BD38B504000D0000AA582120004B
:10244000FFF736FB002801D1002015E09DF80000C1
:1024500010F0DF008DF800009DF8000028438DF893
:1024600000009DF8002058212000FFF732FB0028D3
:1024700001D1002000E0012032BD38B504000D007C
:1024800000AA58212000FFF713FB002801D10020EB
:1024900015E09DF8000010F0BF008DF800009DF8D9
:1024A000000028438DF800009DF8002058212000EE
:1024B000FFF70FFB002801D1002000E0012032BD12
:1024C00038B504000D0015F01F0500AA59212000A1
:1024D000FFF7EEFA002801D1002015E09DF800007A
:1024E00010F0E0008DF800009DF8000028438DF802
:1024F00000009DF8002059212000FFF7EAFA00288B
:1025000001D1002000E0012032BD38B504000D00EB
:1025100000AA59212000FFF7CBFA002801D10020A2
:1025200015E09DF8000010F09F008DF800009DF868
:10253000000028438DF800009DF80020592120005C
:10254000FFF7C7FA002801D1002000E0012032BDCA
:1025500038B504000D0015F0030500AA5A2120002B
:10256000FFF7A6FA002801D1002015E09DF8000031
:1025700010F0FC008DF800009DF8000028438DF855
:1025800000009DF800205A212000FFF7A2FA002841
:1025900001D1002000E0012032BD38B504000D005B
:1025A000AD0015F00C0500AA5A212000FFF780FAB3
:1025B000002801D1002015E09DF8000010F0F30084
:1025C0008DF800009DF8000028438DF800009DF86C
:1025D00000205A212000FFF77CFA002801D10020BA
:1025E00000E0012032BD38B504000D002D0115F0CA
:1025F000F00500AA5A212000FFF75AFA002801D15D
:10260000002015E09DF8000010F00F008DF800008C
:102610009DF8000028438DF800009DF800205A2105
:102620002000FFF756FA002801D1002000E0012029
:1026300032BD38B504000D0015F03F0500AA5B213E
:102640002000FFF735FA002801D1002015E09DF8A1
:10265000000010F0C0008DF800009DF80000284335
:102660008DF800009DF800205B212000FFF731FA73
:10267000002801D1002000E0012032BD38B504005F
:102680000D0000AA5B212000FFF712FA002801D1FB
:10269000002015E09DF8000010F07F008DF800008C
:1026A0009DF8000028438DF800009DF800205B2174
:1026B0002000FFF70EFA002801D1002000E00120E1
:1026C00032BD38B504000D0015F00F0500AA5C21DD
:1026D0002000FFF7EDF9002801D1002015E09DF85A
:1026E000000010F0F0008DF800009DF80000284375
:1026F0008DF800009DF800205C212000FFF7E9F92B
:10270000002801D1002000E0012032BD38B50400CE
:102710000D0000AA5C212000FFF7CAF9002801D1B2
:10272000002015E09DF8000010F0EF008DF800008B
:102730009DF8000028438DF800009DF800205C21E2
:102740002000FFF7C6F9002801D1002000E0012099
:1027500032BD38B504000D006D0115F0600500AA0A
:102760005C212000FFF7A4F9002801D1002015E02A
:102770009DF8000010F09F008DF800009DF800000B
:1027800028438DF800009DF800205C212000FFF711
:10279000A0F9002801D1002000E0012032BD38B5A9
:1027A00004000D0000AA5D212000FFF781F9002838
:1027B00001D1002015E09DF8000010F0F8008DF820
:1027C00000009DF8000028438DF800009DF80020CF
:1027D0005D212000FFF77DF9002801D1002000E0F5
:1027E000012032BDF8B504000D0015F01F000700F0
:1027F000C5F340100600FF0017F0F80700AA5D219E
:102800002000FFF755F9002801D1002036E09DF89F
:10281000000010F007008DF800009DF8000038431C
:102820008DF800009DF800205D212000FFF751F990
:10283000002801D1002021E0F60116F0800600AA50
:102840005C212000FFF734F9002801D1002015E0B9
:102850009DF8000010F07F008DF800009DF800004A
:1028600030438DF800009DF800205C212000FFF728
:1028700030F9002801D1002000E00120F2BD38B578
:1028800004000D0000AA5E212000FFF711F90028C6
:1028900001D1002015E09DF8000010F0FD008DF83A
:1028A00000009DF8000028438DF800009DF80020EE
:1028B0005E212000FFF70DF9002801D1002000E083
:1028C000012032BD38B504000D0000AA5E212000B1
:1028D000FFF7EEF8002801D1002015E09DF8000078
:1028E00010F0FB008DF800009DF8000028438DF8E3
:1028F00000009DF800205E212000FFF7EAF8002884
:1029000001D1002000E0012032BD38B504000D00E7
:1029100000AA5E212000FFF7CBF8002801D100209B
:1029200015E09DF8000010F0F7008DF800009DF80C
:10293000000028438DF800009DF800205E21200053
:10294000FFF7C7F8002801D1002000E0012032BDC8
:1029500038B504000D0000AA5E212000FFF7A8F89A
:10296000002801D1002015E09DF8000010F0EF00D4
:102970008DF800009DF8000028438DF800009DF8B8
:1029800000205E212000FFF7A4F8002801D10020DC
:1029900000E0012032BD38B504000D0000AA5E2120
:1029A0002000FFF785F8002801D1002015E09DF8F0
:1029B000000010F0DF008DF800009DF800002843B3
:1029C0008DF800009DF800205E212000FFF781F8BF
:1029D000002801D1002000E0012032BD38B50400FC
:1029E0000D0000AA5E212000FFF762F8002801D147
:1029F000002015E09DF8000010F0BF008DF80000E9
:102A00009DF8000028438DF800009DF800205E210D
:102A10002000FFF75EF8002801D1002000E001202F
:102A200032BD2DE9F84304000D000220814600204C
:102A3000804600200600F6B2032E1ADA00200700B6
:102A4000FFB25FFA89F94F4511D25FFA88F818EBA7
:102A5000050218F12201C9B22000FFF729F8002869
:102A600001D1002006E018F101087F1CE8E7761C80
:102A7000E1E70120BDE8F2832DE9F84304000D00F1
:102A8000022081460020804600200600F6B2032E78
:102A90001ADA00200700FFB25FFA89F94F4511D218
:102AA0005FFA88F818EB050218F12801C9B2200076
:102AB000FEF7FEFF002801D1002006E018F1010812
:102AC0007F1CE8E7761CE1E70120BDE8F2832DE9F1
:102AD000F84304000D0002208146002080460020BB
:102AE0000600F6B2002E1AD100200700FFB25FFAEE
:102AF00089F94F4511D25FFA88F818EB050218F1F1
:102B00004B01C9B22000FEF7D3FF002801D10020FD
:102B100006E018F101087F1CE8E7761CE1E70120D8
:102B2000BDE8F28338B504000D0080212000FEF7D7
:102B3000E0FF00AA0F212000FEF7BAFF9DF8000079
:102B400010F0E0008DF800009DF8000015F01F0166
:102B500008438DF800009DF800200F212000FEF7AB
:102B6000B8FF00212000FEF7C4FF012032BD200085
:102B7000002840F10980F446404200F005F850F08A
:102B800000406047002800BF0AD0B0FA80F18840BA
:102B9000D1F19D01C905020672F1004241EB1020FE
:102BA00070470020FF2212EAD05C1DBF12EAD15309
:102BB000944593422BE09C44D30780EA01021A40DB
:102BC00043EA002043EA0121A1FB0030410038BF65
:102BD00040007CF17F010BDBFE294ADA5B0842EA08
:102BE000C15153EA006373F1004C51EB1020704760
:102BF000D1F1080CDCF120012FDB5B0810FA01F1A8
:102C00000B4373F1004120FA0CF05041704794459A
:102C10001CBF02EAD153934280EA010202F0004253
:102C20001DD0400019D0490017D05BB9634514D0BE
:102C30000902B1FA81F39940BCEB030CC00140F0EA
:102C40000040C1E70002B0FA80FC10FA0CF0B3EBD0
:102C50000C0CC90141F00041B6E71000704740007C
:102C60000AD0490008D010F1807F94BF11F1807F15
:102C700002E042F0FF407047D04370474100090E28
:102C80007F3915D4D1F11F0114D4400007D2C001FF
:102C900040F00040C84048BF6FF000407047C0019E
:102CA00040F00040C8404CBF4FF0004040427047E9
:102CB0000020704700424FF0004058BFC0437047AB
:102CC0004FF0807C1CEB400F94BF1CEB410F05E0E4
:102CD00040EA010C5FEA4C0C01D28842704718BFF1
:102CE0008142704780B500F07BF8002801D00120B8
:102CF00000E0002002BD0020704700B58BB09C486A
:102D0000006850F001009A4908609948006810F086
:102D1000010000900098102006909648079002202D
:102D200009900020089006A9934800F035F9002288
:102D300000210A2000F0C4FA0A2000F0D4FA8C48DE
:102D4000006850F002008A4908608948006810F065
:102D50000200009000980120019086480290022015
:102D600004900020039001A9844800F015F9002286
:102D70000021062000F0A4FA062000F0B4FA00209A
:102D80000BB000BD2DE9F04104000D0016001F003E
:102D9000A0463B009BB232002900C9B298F801005E
:102DA00000F042F8002801D0012000E00020BDE83A
:102DB000F0812DE9F04104000D0016001F00A0462F
:102DC0003B009BB232002900C9B298F8010000F024
:102DD00055F8002801D0012000E00020BDE8F08176
:102DE00080B5674800F036FD002814D16548644975
:102DF000486000206249886033206149C8604FF410
:102E000080405F49086160485D49086000F068F8EB
:102E10005B4800F085FA5A4800F01CFD012801D1FA
:102E2000002000E0012002BD2DE9F04184B0040043
:102E30000D0016001F005FF0000854480068029063
:102E4000380080B2019000960123EDB22A0092B2C0
:102E5000E4B2210089B24A4800F040FB80465FFAA4
:102E600088F8B8F1000F05D02000C0B200F030F8AB
:102E7000012000E0002004B0BDE8F0812DE9F04120
:102E800084B004000D0016001F005FF000083F48EA
:102E900000680290380080B2019000960123EDB2E4
:102EA0002A0092B2E4B2210089B2354800F0A8FBB2
:102EB00080465FFA88F8B8F1000F05D02000C0B254
:102EC00000F006F8012000E0002004B0BDE8F08129
:102ED00010B504002A4800F0D8FAFFF781FF10BDB2
:102EE00000B587B02248006850F002002049086011
:102EF0001F48006810F00200009000984FF44070E6
:102F000001901220029002200490002003900420DF
:102F1000059001A9194800F03FF81D48006850F4D9
:102F200000101B4908601A48006810F40010009057
:102F300000981848006850F40010164908601548B9
:102F4000006830F4001013490860002200211F209F
:102F500000F0B6F91F2000F0C6F900220021202061
:102F600000F0AEF9202000F0BEF907B000BD00006F
:102F70001C38024000001110000002400004024012
:102F8000700A0020801A060000540040040400204B
:102F9000243802401838024078B40022002300246C
:102FA0000D682E00D640002E00F0DE800D68012650
:102FB000964035402B00002B00F0D4804D68022D48
:102FC00002D04D68122D16D1D50810EB85052D6A5B
:102FD0002C000F2512F00706F6B2B600B540AC4340
:102FE0000D6912F00706F6B2B600B5402C43D508BD
:102FF00010EB85052C6205682C0003251600F6B23F
:103000007600B540AC430D7915F003051600F6B215
:103010007600B5402C4304604D68012D08D04D6802
:10302000022D05D04D68112D02D04D68122D19D1F9
:1030300085682C0003251600F6B27600B540AC4337
:10304000CD681600F6B27600B5402C438460456822
:103050002C0001259540AC434D68C5F30015954003
:103060002C434460C5682C0003251600F6B2760098
:10307000B540AC438D681600F6B27600B5402C43DF
:10308000C4604D68ED006DD5484D2D6855F00105C3
:10309000464E3560454D2D6815F001050095009DA3
:1030A000434D960855F826502C000F2512F00306C4
:1030B000F6B2B600B540AC433E4DA84201D1002562
:1030C0001EE03D4DA84201D1012519E03B4DA8422B
:1030D00001D1022514E03A4DA84201D103250FE0A9
:1030E000384DA84201D104250AE0374DA84201D14C
:1030F000052505E0354DA84201D1062500E007254C
:1031000012F00306F6B2B600B5402C43284D9608DF
:1031100045F826402E4D2D682C009C434D68ED034C
:1031200000D51C432A4D2C602A4D2D682C009C4351
:103130004D68AD0300D51C43264D2C60264D2D68EF
:103140002C009C434D68ED0200D51C43224D2C60A1
:10315000224D2D682C009C434D68AD0200D51C43C8
:103160001E4D2C60521C1BE771BC7047D2B2002A66
:1031700002D089B2816102E089B20B048361704799
:10318000426989B24A404261704710B50400144850
:103190000068A4B2204206D0A4B211480460200006
:1031A00080B201F0AAF810BD0000000020380240F3
:1031B00008000140000002400004024000080240F4
:1031C000000C0240001002400014024000180240AF
:1031D0000004014004040140080401400C040140C3
:1031E0001404014010F00702454B1B6819004FF60C
:1031F000FF031940434B53EA02231943404B196024
:1032000070473F480068C0F302207047012110F06A
:103210001F0291403C4A40B2430942F823107047D4
:1032200010B440B2002808D50A01384B40B210F063
:103230000F04E31803F8042C03E00A01344B40B2F6
:10324000C25410BC704770B4030013F00704D4F1EB
:103250000706052E01D3042001E0D4F10700261D46
:10326000072E01D2002500E0E51E012616FA00F027
:10327000401E0840A8400121A940491E11400843B2
:1032800070BC704710B50400601EB0F1807F01D3A0
:1032900001200EE0601E1F4908600F215FF0FF3023
:1032A000FFF7BEFF00201C49086007201B4908608B
:1032B000002010BD10B504002000FFF793FF10BDE3
:1032C000F8B504000D0016000027FFF79AFF07006D
:1032D000320029003800FFF7B6FF0100200040B29D
:1032E000FFF79EFFF1BD10B50400200040B2FFF7CC
:1032F0008DFF10BD10B504002000FFF7C3FF10BD07
:103300000CED00E00000FA0500E100E018ED00E03F
:1033100000E400E014E000E018E000E010E000E06D
:1033200070B5040000250026002C01D10120ABE07F
:1033300094F83500002805D1002084F834002000DE
:1033400000F0BFF801F0A0FF0600DFF87C01864224
:1033500001D2012098E0022084F83500206800683E
:103360004008400021680860DFF86001B6FBF0F01B
:103370000500206840688009800128432168486072
:103380002068006A6168DFF84821914201D2691C17
:1033900008E04FF4967101FB05F14FF47A72B1FB2E
:1033A000F2F1491C80098001084321680862206805
:1033B000C0696168DFF8182191420ED26168490046
:1033C000B6FBF1F10905090D042901D204212AE017
:1033D00061684900B6FBF1F125E0A168002905D13B
:1033E000616803225143B6FBF1F106E061681922DE
:1033F0005143B6FBF1F151F48041090501D101219E
:1034000011E0A168002905D1616803225143B6FB90
:10341000F1F106E0616819225143B6FBF1F151F474
:10342000804151F40041DFF8AC201040084321688E
:10343000C8612068006830F0C000E1690843216A73
:1034400008432168086020688068DFF88C10084015
:1034500021690843E1680843216888602068C068E2
:10346000000A0002A1696269114308432168C8602B
:103470002068006850F00100216808600020A06307
:10348000012084F83500002070BD10B50400002C28
:1034900001D1012014E0022084F835002068006882
:1034A0004008400021680860200000F00BF8002070
:1034B000A063002084F83500002084F83400002048
:1034C00010BD70477047000080841E0040420F000E
:1034D000A18601000030FFFF007CFFFF2DE9F047CF
:1034E00082B005000E0017009846DDF828900B9C6E
:1034F000DDF830A095F8350001287CD1B9F1000F36
:1035000002D0A4B2002C01D1012075E042F2107368
:1035100001225FF00211280000F08EFA002801D08D
:10352000022069E095F83400012801D1022063E00F
:10353000012085F834002868006830F400602968AC
:103540000860322085F835000020A863CDF800A07F
:1035500043469BB23A0092B2310089B2280000F093
:103560007CF900280CD0A86B042804D1002085F831
:103570003400012040E0002085F8340003203BE0C7
:10358000A4B2002C1FD0534600221C49280000F092
:1035900053FA002801D003202EE099F80000296892
:1035A000086119F10109641E286840694007E7D5E0
:1035B000A4B2002CE4D099F800002968086119F140
:1035C0000109641EDCE7534600220C49280000F084
:1035D00033FA002801D003200EE02868006850F478
:1035E000007029680860012085F83500002085F802
:1035F0003400002000E00220BDE8F68780000100D2
:103600002DE9F04782B005000E0017009846DDF85E
:1036100028900B9CDDF830A095F83500012840F08B
:103620001281B9F1000F02D0A4B2002C01D1012007
:103630000AE142F2107301225FF00211280000F04B
:10364000FBF9002801D00220FEE095F834000128A3
:1036500001D10220F8E0012085F8340028680068D4
:1036600030F4006029680860422085F835000020A9
:10367000A863CDF800A043469BB23A0092B2310055
:1036800089B2280000F044F900280CD0A86B042867
:1036900004D1002085F834000120D5E0002085F811
:1036A00034000320D0E0A4B2012C13D128680068B4
:1036B00030F48060296808602868406900902868B4
:1036C0008069009000982868006850F400702968AC
:1036D00008601DE0A4B2022C13D12868006830F401
:1036E0008060296808602868006850F400602968D4
:1036F00008602868406900902868806900900098F8
:1037000006E0286840690090286880690090009869
:10371000A4B2002C00F08F80A4B2042C6DDAA4B205
:10372000012C12D153460022DFF82411280000F0AA
:1037300083F9002801D0032086E02868006989F811
:10374000000019F10109641EE2E7A4B2022C1ED1A7
:10375000534600223D49280000F06EF9002801D0B0
:10376000032071E02868006850F400702968086040
:103770002868006989F8000019F10109641E2868A9
:10378000006989F8000019F10109641EC0E7534679
:1037900000222E49280000F04FF9002801D0032014
:1037A00052E02868006830F4806029680860286862
:1037B000006989F8000019F10109641E53460022CE
:1037C0002249280000F038F9002801D003203BE00E
:1037D0002868006850F4007029680860286800694B
:1037E00089F8000019F10109641E2868006989F848
:1037F000000019F10109641E8AE7534600221449AA
:10380000280000F019F9002801D003201CE02868E6
:10381000006989F8000019F10109641E28684069EF
:1038200040077FF575AF2868006989F8000019F135
:103830000109641E6CE7012085F83500002085F839
:103840003400002000E00220BDE8F68704000100FB
:103850004000010090F8350070472DE9F04182B03A
:1038600004000D0016001F00DDF8208020680068AD
:1038700050F4807021680860434600225FF0011117
:10388000200000F0D9F8002801D003203EE015F018
:10389000FE002168086142466549200000F039F9C0
:1038A000002806D0A06B042801D101202EE00320BF
:1038B0002CE02068406900902068806900900098A2
:1038C000434600225B49200000F0B6F8002801D0F2
:1038D00003201BE0BFB2012F04D13000C0B2216829
:1038E000086112E0B6B2300AC0B2216808614346EE
:1038F00000225049200000F09FF8002801D003204A
:1039000004E03000C0B2216808610020BDE8F68103
:103910002DE9F04182B004000D0016001F00DDF813
:1039200020802068006850F480602168086020686A
:10393000006850F4807021680860434600225FF000
:103940000111200000F078F8002801D003206CE07D
:1039500015F0FE002168086142463549200000F05C
:10396000D8F8002806D0A06B042801D101205CE023
:1039700003205AE020684069009020688069009028
:103980000098434600222B49200000F055F80028FB
:1039900001D0032049E0BFB2012F04D13000C0B2F2
:1039A0002168086112E0B6B2300AC0B2216808612D
:1039B000434600221F49200000F03EF8002801D0B5
:1039C000032032E03000C0B2216808614346002283
:1039D0001849200000F030F8002801D0032024E02E
:1039E0002068006850F48070216808604346002217
:1039F0005FF00111200000F01FF8002801D0032023
:103A000013E055F00100C0B2216808614246084940
:103A1000200000F07EF8002806D0A06B042801D119
:103A2000012002E0032000E00020BDE8F681000054
:103A300002000100800001002DE9F04104000D00AA
:103A400016001F005FF0000801F0DAFC8046F6B2B5
:103A5000002E2DD1280CC0B201280AD1206840695F
:103A6000284080B2A9B2884201D101200BE0002099
:103A700009E020688069284080B2A9B2884201D15B
:103A8000012000E00020002840D117F1010FE1D013
:103A9000002F05D001F0B4FCB0EB08008742D9D26A
:103AA000012084F83500002084F8340003202EE043
:103AB000280CC0B201280AD120684069284080B291
:103AC000A9B2884201D101200BE0002009E0206862
:103AD0008069284080B2A9B2884201D1012000E06B
:103AE0000020002812D017F1010FE1D0002F05D0DF
:103AF00001F086FCB0EB08008742D9D2012084F89F
:103B00003500002084F83400032000E00020BDE8E8
:103B1000F081F8B504000D001600002701F070FCDC
:103B20000700280CC0B201280AD12068406928404B
:103B300080B2A9B2884201D101200BE0002009E047
:103B400020688069284080B2A9B2884201D1012052
:103B500000E00020002829D120684069400513D5E5
:103B60002068006850F40070216808607FF480606D
:103B7000216848610420A063012084F835000020FA
:103B800084F83400012012E016F1010FC9D0002E94
:103B900004D001F035FCC01B8642C2D2012084F85B
:103BA0003500002084F83400032000E00020F2BD3E
:103BB00000B5C1B001F0F4FB01F036FC002001F0CB
:103BC00059FD002001F092FD0121002001F0ADFD22
:103BD00001F0F1FE00F040FB00F05DFB00F059F851
:103BE00000F07AF800A801F00BFE00280FD09DF835
:103BF000040032280BD100A801F07CFFDFF8B407E5
:103C00000078002803D00020DFF8AC17087000A867
:103C100000F0BCF800A800F046FA00A800F08CFA0A
:103C200000A800F0D1FA00A800F008F900A800F000
:103C30006CF900A800F0D0F9DFF8780700780028C8
:103C400004D1DFF874070078002803D0002001F0C9
:103C50005DFD02E0002001F049FDDFF85807007823
:103C600000280CD000A801F03BFF3320009000A8F2
:103C700001F080FEDFF84407006801F0C4FBDFF8C4
:103C8000380700780028ADD04FF4FA7001F0BBFB84
:103C9000A8E780B5DFF828175FF0FF3002F06EF874
:103CA000DFF820175FF0FF3002F0A6F9DFF81817F1
:103CB000002002F0E7FADFF81417002002F0A2FB60
:103CC000DFF80C17002002F063FCDFF808175FF044
:103CD000FF3002F0EDFD01BD80B5DFF8E4060068BD
:103CE00002F046F9DFF8DC06006802F079FADFF846
:103CF000D806006802F042FBDFF8D006006802F048
:103D000003FCDFF8CC06006802F08EFDDFF8C40685
:103D1000006802F09BFE01BD2DE9F84306000F008C
:103D2000914698463000FEF7A9FF38603000002128
:103D300002F0DEFE08D83868FEF71AFF01003000F6
:103D400002F0E8FE060006E03868FEF711FF3100D9
:103D500002F0E0FE0600404602F050FF02000B00B9
:103D60000020DFF8741603F0A2F904000D00300003
:103D700003F0B6FB22002B0003F0DAFB03F0A9FCF2
:103D800003F0B0FCC9F80000BDE8F18330B589B09C
:103D900004000025DFF81C060078002804D1DFF8B5
:103DA00018060078002815D0002203A9DFF82C0699
:103DB00003F0BEFC002202A9DFF8200603F06BFE30
:103DC0000498D0F598706421484340F2311190FB7B
:103DD000F1F00500DFF8DC05007800280AD09DF836
:103DE0000C00E0719DF80D0020729DF80E006072CD
:103DF000A57221E0DFF8C005007800281CD0EDB2E4
:103E000001959DF80E0000909DF80D309DF80C2056
:103E1000DFF8CC15DFF8CC0503F09EFEDFF8C40513
:103E200003F0B4FE41F28833020092B2DFF8B41519
:103E3000DFF8B40503F0FFFE09B030BD10B588B05F
:103E4000040000208DF8040001A9DFF87405006863
:103E500002F0A6F8002856D19DF80400012852D19E
:103E6000DFF88815DFF85805006802F0A7F8DFF8DA
:103E70004405007800281DD0DFF874050068C006EE
:103E800041D50422DFF86405016814F1130004F041
:103E9000C7F90422DFF85405416814F1170004F053
:103EA000BFF90422DFF84405816814F11B0004F017
:103EB000B7F928E0DFF800050078002823D0DFF804
:103EC0002C0500680290DFF8240540680390DFF8B5
:103ED0001C058068049004980090039B029ADFF808
:103EE0001415DFF8000503F037FEDFF8F80403F0DF
:103EF0004DFE41F28833020092B2DFF8E814DFF899
:103F0000E80403F098FE08B010BD10B588B00400B6
:103F100000208DF8040001A9DFF8A804006802F071
:103F200077F9002856D19DF80400012852D1DFF816
:103F3000C814DFF89004006802F086F9DFF8740412
:103F4000007800281DD0DFF8A8040068800641D55D
:103F50000422DFF8A404016814F11F0004F060F9E2
:103F60000422DFF89404416814F1230004F058F9A6
:103F70000422DFF88404816814F1270004F050F96A
:103F800028E0DFF834040078002823D0DFF8680444
:103F900000680590DFF8600440680690DFF8580478
:103FA0008068079007980090069B059ADFF84C14EC
:103FB000DFF8300403F0D0FDDFF8280403F0E6FD5D
:103FC00041F28833020092B2DFF81814DFF81804C7
:103FD00003F031FE08B010BD10B586B0040000201B
:103FE0008DF8040001A9DFF8E003006802F0DEF9B3
:103FF000002856D19DF80400012852D1DFF80014A2
:10400000DFF8C403006802F0DFF9DFF8A8030078E6
:1040100000281DD0DFF8D8030068400641D50422EF
:10402000DFF8DC03016814F12B0004F0F9F8042236
:10403000DFF8CC03416814F12F0004F0F1F80422FA
:10404000DFF8BC03816814F1330004F0E9F828E0DC
:10405000DFF864030078002823D0DFF8A4030068A9
:104060000290DFF89C0340680390DFF894038068B7
:10407000049004980090039B029ADFF88813DFF8FD
:10408000640303F069FDDFF85C0303F07FFD41F298
:104090008833020092B2DFF84C13DFF84C0303F0D0
:1040A000CAFD06B010BD10B584B0040000208DF824
:1040B000000000A9C748006802F0E0FC00283AD1DF
:1040C0009DF80000012836D1DFF83C13C148006894
:1040D00002F0F0FC022301AA02A9CB480068FFF716
:1040E0001BFEB4480078002810D0C1480068C00703
:1040F00021D50222029914F10B0004F07AF8022271
:10410000019914F10D0004F074F814E0AA48007845
:10411000002810D0019B029ABC49B24803F01CFD54
:10412000B04803F033FD41F28833020092B2AD494A
:10413000AD4803F080FD1FBD10B584B00400002021
:104140008DF8000000A9A148006802F0F5F90028E8
:1041500039D19DF80000012835D1AD499B48006850
:1041600002F0F8F9022301AA02A9A9480068FFF7A2
:10417000D3FD90480078002810D09D480068400783
:1041800021D50122029914F1110004F032F8012224
:10419000019914F1120004F02CF814E0864800781C
:1041A000002810D0019B029A9A498E4803F0D4FC53
:1041B0008C4803F0EBFC41F28833020092B289494B
:1041C000894803F038FD1FBD10B584B004000020FD
:1041D0008DF8000000A97E48006802F03DFB002831
:1041E00039D19DF80000012835D18B497848006805
:1041F00002F040FB022301AA02A987480068FFF7EA
:104200008BFD6C480078002810D079480068800742
:1042100021D50122029914F10F0003F0EAFF0122D7
:10422000019914F1100003F0E4FF14E062480078F3
:10423000002810D0019B029A78496A4803F08CFC50
:10424000684803F0A3FC41F28833020092B265494A
:10425000654803F0F0FC1FBD80B571485F490860F8
:1042600040205E4948607F205C4988604FF4987028
:104270005A49C860002059490861002057494861DF
:10428000002056498861554803F0A6FA002801D05D
:1042900000F0CCF801BD00B587B014208DF8030004
:1042A00002208DF8010018208DF8020002208DF800
:1042B0000000012200A9494803F06FFB002801D04B
:1042C00000F0B4F808208DF8040010208DF80500E7
:1042D00000208DF8060000208DF8070000200490D3
:1042E00000200590012201A93C4803F0CBFA0028E8
:1042F00001D000F09BF807B000BD70B50400A4B277
:10430000B4F5005F35D100254648006800280AD181
:1043100045480068002806D100F089F84149086046
:104320000120050012E000F082F83F4908603E4895
:10433000006806003B480068301AB0F5967F05D942
:10434000394800683749086001200500002D10D069
:1043500018480078002803D000201749087008E0AA
:1043600015480078002801D0002000E00120124903
:10437000087070BD70B586B004000D0016000020F6
:104380008DF803008DF800408DF801508DF8026023
:10439000002001900020039000200490002200A93A
:1043A0000E4803F06FFA002801D000F03FF806B085
:1043B00070BD0000FC0C0020FE0C0020F403002067
:1043C000B80C0020BC0C0020C00C0020C40C002045
:1043D000C80C0020CC0C002000002440980B0020CA
:1043E00080D4000810080020300A0020380C00207B
:1043F000A00C002098D30008440C0020BCD3000877
:10440000500C0020E0D30008A40C0020BCD400080D
:10441000A80C0020CCD40008AC0C0020DCD4000890
:1044200000280040B00C0020B40C0020FEE780B54E
:1044300000F0E6FF02BD280038B504000025207812
:10444000C00740F10781DFF8F808006810F00C00A1
:1044500008280BD0DFF8E808006810F00C000C28E2
:1044600028D1DFF8DC080068C00323D54FF4804072
:10447000B0FA80F050F02000C0B24009C0B201286C
:1044800003D1DFF8B808006802E0DFF8180D006813
:104490004FF48041B1FA81F111F01F010200CA40CE
:1044A000D00740F1D7806068002840F0D380012019
:1044B00000F042BCDFF88408006830F48030DFF898
:1044C0007C180860DFF87408006830F48020DFF89A
:1044D0006C18086000F094FF05004FF48040B0FABB
:1044E00080F050F02000C0B24009C0B2012803D1D2
:1044F000DFF84808006802E0DFF8A80C00684FF415
:104500008041B1FA81F111F01F010200CA40D007C9
:1045100009D500F075FF401B41F289318842DCD398
:10452000032000F009BC6068012808D1DFF80C08FE
:10453000006850F48030DFF80418086037E06068E5
:10454000002810D1DFF8F407006830F48030DFF87D
:10455000EC170860DFF8E407006830F48020DFF82B
:10456000DC17086023E06068052810D1DFF8CC076D
:10457000006850F48020DFF8C4170860DFF8BC073B
:10458000006850F48030DFF8B41708600FE0DFF8FF
:10459000AC07006830F48030DFF8A0170860DFF85F
:1045A0009C07006830F48020DFF89017086060688E
:1045B000002827D000F024FF05004FF48040B0FA17
:1045C00080F050F02000C0B24009C0B2012803D1F1
:1045D000DFF86807006802E0DFF8C80B00684FF4F6
:1045E0008041B1FA81F111F01F010200CA40D007E9
:1045F00030D400F005FF401B41F289318842DCD302
:10460000032099E300F0FCFE05004FF48040B0FA6F
:1046100080F050F02000C0B24009C0B2012803D1A0
:10462000DFF81807006802E0DFF8780B00684FF445
:104630008041B1FA81F111F01F010200CA40D00798
:1046400008D500F0DDFE401B41F289318842DCD301
:10465000032071E32078800740F1B780DFF8E0069F
:10466000006810F00C0004280BD0DFF8D4060068B6
:1046700010F00C000C2836D1DFF8C4060068C00327
:1046800031D45FF08040B0FA80F050F02000C0B22A
:104690004009C0B2012803D1DFF8A006006802E09B
:1046A000DFF8000B00685FF08041B1FA81F111F092
:1046B0001F010200CA40D00704D5E068012801D0DC
:1046C000012039E3DFF87C0600685FF47801B1FA75
:1046D00081F130F4F850226912FA01F10843DFF851
:1046E0006416086071E0E06800283FD001205FF0A8
:1046F0000041B1FA81F1DFF8DC2B42F8210000F033
:104700007FFE05005FF08040B0FA80F050F020009E
:10471000C0B24009C0B2012803D1DFF8200600680A
:1047200002E0DFF8800A00685FF08041B1FA81F1B1
:1047300011F01F010200CA40D00706D400F060FE4D
:10474000401B6528DED30320F6E2DFF8F805006899
:104750005FF47801B1FA81F130F4F850226912FA6D
:1047600001F10843DFF8DC1508602EE000205FF05F
:104770000041B1FA81F1DFF85C2B42F8210000F032
:104780003FFE05005FF08040B0FA80F050F020005E
:10479000C0B24009C0B2012803D1DFF8A00500680B
:1047A00002E0DFF8000A00685FF08041B1FA81F1B1
:1047B00011F01F010200CA40D00706D500F020FE0C
:1047C000401B6528DED30320B6E22078C00640F106
:1047D000EF80DFF86C05006810F00C0F6DD15FF40E
:1047E0008000B0FA80F050F02000C0B24009C0B2A2
:1047F000012803D1DFF84405006802E0DFF8A409CE
:1048000000685FF48001B1FA81F111F01F0102002C
:10481000CA40D00704D5A069002801D101208BE24D
:10482000DFF82005006810F46040216A884220D239
:10483000206A00F051FD002801D001207CE2DFF861
:104840000405006830F46040216A0843DFF8F4147E
:104850000860DFF8F0040068FF21B1FA81F100027E
:10486000000AE26912FA01F10843DFF8D81408607F
:104870001FE0DFF8D004006830F46040216A08438C
:10488000DFF8C0140860DFF8BC040068FF21B1FA4B
:1048900081F10002000AE26912FA01F10843DFF82F
:1048A000A4140860206A00F017FD002801D0012040
:1048B00042E20F2000F08CFD7AE0A069002848D089
:1048C00001205FF40001B1FA81F1DFF8082A42F813
:1048D000210000F095FD05005FF48000B0FA80F043
:1048E00050F02000C0B24009C0B2012803D1DFF867
:1048F0004C04006802E0DFF8AC0800685FF4800157
:10490000B1FA81F111F01F010200CA40D00706D4AC
:1049100000F076FD401B6528DED303200CE2DFF8B3
:104920002404006830F46040216A0843DFF814145E
:104930000860DFF810040068FF21B1FA81F100027D
:10494000000AE26912FA01F10843DFF8F81308607F
:104950002EE000205FF40001B1FA81F1DFF8742944
:1049600042F8210000F04CFD05005FF48000B0FA31
:1049700080F050F02000C0B24009C0B2012803D13D
:10498000DFF8B803006802E0DFF8180800685FF499
:104990008001B1FA81F111F01F010200CA40D00775
:1049A00006D500F02DFD401B6528DED30320C3E1B2
:1049B000207800074AD56069002823D001205FF0E5
:1049C0000041B1FA81F1DFF8A42942F8210000F09A
:1049D00017FD05005FF08040B0FA80F0DFF8C407F3
:1049E00000685FF08041B1FA81F111F01F0102000F
:1049F000CA40D0072AD400F003FD401B6528E9D344
:104A0000032099E100205FF00041B1FA81F1DFF865
:104A10005C2942F8210000F0F3FC05005FF08040C3
:104A2000B0FA80F0DFF87C0700685FF08041B1FAEF
:104A300081F111F01F010200CA40D00706D500F035
:104A4000DFFC401B6528E9D3032075E1207840078F
:104A500040F1D480DFF81809006850F08050DFF88A
:104A600010190860DFF80809006810F08050009005
:104A70000098DFF80009006850F48070DFF8F4183F
:104A8000086000F0BDFC0500DFF8E8080068C0051C
:104A900006D400F0B5FC401B6528F5D303204BE19C
:104AA000DFF80007006830F48070DFF8F81608605F
:104AB000DFF8F006006830F48060DFF8E816086080
:104AC00000F09EFC05005FF48000B0FA80F0DFF893
:104AD000D40600685FF48001B1FA81F111F01F0182
:104AE0000200CA40D00708D500F08AFC401B41F202
:104AF00089318842E7D303201EE1A068012808D14C
:104B0000DFF8A006006850F48070DFF8981608609F
:104B100037E0A068002810D1DFF88806006830F47C
:104B20008070DFF880160860DFF87806006830F4DF
:104B30008060DFF87016086023E0A068052810D1B7
:104B4000DFF86006006850F48060DFF858160860EF
:104B5000DFF85006006850F48070DFF848160860EF
:104B60000FE0DFF84006006830F48070DFF834169C
:104B70000860DFF83006006830F48060DFF8241643
:104B80000860A06800281CD000F03AFC05005FF423
:104B90008000B0FA80F0DFF80C0600685FF4800156
:104BA000B1FA81F111F01F010200CA40D00725D4EB
:104BB00000F026FC401B41F289318842E7D30320F4
:104BC000BAE000F01DFC05005FF48000B0FA80F050
:104BD000DFF8D00500685FF48001B1FA81F111F0CF
:104BE0001F010200CA40D00708D500F009FC401B95
:104BF00041F289318842E7D303209DE0606A0028B2
:104C000000F099804E48006810F00C000C2800F06D
:104C10009080606A022861D100208021B1FA81F180
:104C2000DFF8B02642F8210000F0EAFB0500402042
:104C3000B0FA80F050F02000C0B24009C0B20128A4
:104C400002D13E48006802E0DFF8580500684021C4
:104C5000B1FA81F111F01F010200CA40D00706D558
:104C600000F0CEFB401B6528E1D3032064E034480C
:104C7000006830F47D00A16A0843E16A0843216BB3
:104C800008432F49086001208021B1FA81F1DFF843
:104C9000442642F8210000F0B3FB05004020B0FAA2
:104CA00080F050F02000C0B24009C0B2012802D10B
:104CB0002248006802E0DFF8EC0400684021B1FA05
:104CC00081F111F01F010200CA40D00733D400F077
:104CD00097FB401B6528E1D303202DE000208021B5
:104CE000B1FA81F1DFF8EC2542F8210000F088FBF1
:104CF00005004020B0FA80F050F02000C0B240091A
:104D0000C0B2012802D10D48006802E0DFF8940427
:104D100000684021B1FA81F111F01F010200CA4080
:104D2000D00708D500F06CFB401B6528E1D30320B9
:104D300002E0012000E0002032BD00000038024007
:104D4000083802400438024070B504000D00002607
:104D5000DFF82406006810F00100A84280F0058109
:104D6000012D07D1DFF81006006850F00400DFF8CD
:104D700008160860DFF80006006840084000284375
:104D8000DFF8F4150860DFF8F005006810F00100A6
:104D9000A84201D0012004E22078800709D5DFF87D
:104DA000DC05006830F0F000A1680843DFF8CC159E
:104DB00008602078C00740F1D581606802281DD1C5
:104DC0004FF48040B0FA80F050F02000C0B24009AB
:104DD000C0B2012803D1DFF8A805006802E0DFF8BF
:104DE000C40300684FF48041B1FA81F111F01F0152
:104DF0000200CA40D0075FD40120D2E160680328D6
:104E00001BD14020B0FA80F050F02000C0B2400921
:104E1000C0B2012803D1DFF86805006802E0DFF8BE
:104E2000840300684021B1FA81F111F01F010200F2
:104E3000CA40D00740D40120B3E1606801281DD1E9
:104E40005FF08040B0FA80F050F02000C0B240091E
:104E5000C0B2012803D1DFF82805006802E0DFF8BE
:104E6000440300685FF08041B1FA81F111F01F0145
:104E70000200CA40D0071FD4012092E15FF48000F5
:104E8000B0FA80F050F02000C0B24009C0B2012852
:104E900003D1DFF8EC04006802E0DFF808030068E3
:104EA0005FF48001B1FA81F111F01F010200CA40E4
:104EB000D00701D4012074E1DFF8C0040068800845
:104EC000800061680843DFF8B414086000F098FAC5
:104ED00006006068022810D1DFF8A004006810F016
:104EE0000C00082800F03E8100F08AFA801B41F295
:104EF00089318842F0D3032053E16068032810D140
:104F0000DFF87804006810F00C000C2800F02A810B
:104F100000F076FA801B41F289318842F0D30320F9
:104F20003FE16068012810D1DFF85004006810F0FC
:104F30000C00042800F0168100F062FA801B41F298
:104F400089318842F0D303202BE1DFF83004006878
:104F500010F00C0F00F0068100F052FA801B41F2B5
:104F600089318842F1D303201BE12078800709D5DD
:104F7000DFF80804006830F0F000A1680843DFF8AB
:104F8000FC1308602078C00740F1D08060680228D8
:104F90001CD14FF48040B0FA80F050F02000C0B235
:104FA0004009C0B2012803D1DFF8D403006801E052
:104FB0007C4800684FF48041B1FA81F111F01F0183
:104FC0000200CA40D0075CD40120EAE060680328F0
:104FD0001AD14020B0FA80F050F02000C0B2400951
:104FE000C0B2012803D1DFF89803006801E06D48E2
:104FF00000684021B1FA81F111F01F010200CA409E
:10500000D0073ED40120CCE0606801281CD15FF0BD
:105010008040B0FA80F050F02000C0B24009C0B229
:10502000012803D1DFF85803006801E05D480068FB
:105030005FF08041B1FA81F111F01F010200CA4016
:10504000D0071ED40120ACE05FF48000B0FA80F0FD
:1050500050F02000C0B24009C0B2012803D1DFF8EF
:105060002003006801E04F4800685FF48001B1FA56
:1050700081F111F01F010200CA40D00701D40120C4
:105080008FE0DFF8F802006880088000616808435C
:10509000DFF8E812086000F0B3F906006068022843
:1050A0000FD1DFF8D802006810F00C0008283DD0BE
:1050B00000F0A6F9801B41F289318842F1D3032028
:1050C0006FE0606803280FD1DFF8B002006810F0CD
:1050D0000C000C282AD000F093F9801B41F2893192
:1050E0008842F1D303205CE0606801280FD1DFF82B
:1050F0008C02006810F00C00042817D000F080F932
:10510000801B41F289318842F1D3032049E0DFF866
:105110006C02006810F00C0F08D000F071F9801BD1
:1051200041F289318842F2D303203AE0012D07D1C0
:10513000DFF84402006850F00400DFF83C12086019
:10514000DFF834020068400840002843DFF82812E6
:105150000860DFF82402006810F00100A84201D0C6
:1051600001201EE02078400709D5DFF81002006812
:1051700030F4E060E1680843DFF80012086020784E
:1051800000070AD5DFF8F401006830F460502169A7
:1051900050EAC100DFF8E41108600F2000F018F9B0
:1051A000002070BD34380240F0B5002100220023F9
:1051B000002400250020714E3668310011F00C06E5
:1051C000042E04D0082E05D00C2E06D032E06D4EF1
:1051D000300042E06C4E30003FE04FF47056B6FABB
:1051E00086F66A4F11F4701CE6463EFA06FE1EF87B
:1051F000076032004FF44076B6FA86F6644F11F439
:10520000400CE6463EFA06FE1EF8076033005B4E91
:105210003668F60306D55C4E06FB02F6B6FBF3F6DF
:10522000340005E0574E06FB02F6B6FBF3F63400F9
:10523000200012E0574E366816F460465FF4E0270F
:10524000B7FA87F7B4463CFA07FC654601266F1C9F
:10525000BE404FF400477E433000F0BD10B5FFF76D
:10526000A3FF464909685FF07062B2FA82F24A4BC6
:1052700011F0F0010C00D440E15C0200CA40474844
:1052800002604648006810BD10B5FFF7E7FF010057
:105290003A4800685FF46002B2FA82F23E4B10F4C2
:1052A000E0600400D440E25C0800D04010BD10B5BE
:1052B000FFF7D4FF0100314800685FF4E012B2FA52
:1052C00082F2354B10F460500400D440E25C0800D8
:1052D000D04010BD0000474270B582B004000025E8
:1052E00000262648006810F0F00F24D120480068FE
:1052F000C00003D502F0A0FF050014E01C480068C0
:1053000050F080501A4908601948006810F0805029
:105310000090009802F090FF05001548006830F0FA
:10532000805013490860B5F5C05F04D1B4F5404F13
:1053300001D101200600012E05D10F48006850F070
:1053400004000D4908600C480068400840003043E4
:10535000094908600848006810F00100B04201D017
:10536000012000E0002076BD0000000080064742DA
:105370002438024000700040003C024008380240DF
:10538000003802400024F40000127A000CD5000816
:1053900034D5000804380240ECD400080004002092
:1053A00080B51F48006850F004001D4908601C4883
:1053B000006850F002001A4908600320FDF77AFFE8
:1053C0000F2000F005F800F002F8002002BD704741
:1053D00010B50400FFF742FF4FF47A71B0FBF1F013
:1053E000FDF788FF002221005FF0FF30FDF768FF26
:1053F000002010BD0B480068401C0A490860704737
:1054000008480068704711B581B00024FFF7F8FF25
:105410000400FFF7F5FF001B01998842F9D313BD83
:10542000003C0240D00C002000B593B001A814212C
:1054300002F00AFF06A8342102F006FF02200690BF
:105440000120099010200A9002200F900020109057
:105450005FF4002011905FF40000129006A8FEF7A0
:10546000EBFF002801D0FEF7E1FF7148006850F023
:1054700080506F4908606E48006810F080500090BE
:1054800000986C48006830F4C05050F400606949DE
:10549000086069480068C006FBD40F200190032013
:1054A000029000200390002004900020059001212C
:1054B00001A8FFF749FC002801D0FEF7B7FF13B0A1
:1054C00000BD01685D4A91424ED35D49096802689A
:1054D0005C4B9A4201D1082044E002685A4B9A4240
:1054E00001D180203EE00268584B9A4202D14FF42D
:1054F000006037E00268564B9A4202D14FF40040F8
:1055000030E00268534B9A4202D15FF4002029E058
:105510000268514B9A4202D15FF4000022E0026817
:105520004E4B9A4202D15FF000601BE002684C4B88
:105530009A4201D1082015E002684A4B9A4201D1F3
:1055400080200FE00268484B9A4202D14FF400607D
:1055500008E00068454A904202D14FF4004001E063
:105560005FF4002008404DE0414909680268354B6E
:105570009A4201D1082044E00268334B9A4201D19B
:1055800080203EE00268314B9A4202D14FF4006025
:1055900037E002682E4B9A4202D14FF4004030E0CF
:1055A00002682C4B9A4202D15FF4002029E0026885
:1055B000294B9A4202D15FF4000022E00268274B97
:1055C0009A4202D15FF000601BE00268244B9A42CD
:1055D00001D1082015E00268224B9A4201D18020B7
:1055E0000FE00268204B9A4202D14FF4006008E0BD
:1055F00000681E4A904202D14FF4004001E05FF47F
:1056000000200840704700684068704712490160F8
:1056100000214160002181608021C1600021016181
:1056200000214161202181614FF48051C1617047A7
:105630002438024000700040047000408160024045
:1056400000640240086002401C600240306002407A
:1056500044600240586002406C600240806002403A
:10566000086402401C64024030640240446402400A
:105670000060024010B586B0040001A8142102F0B9
:10568000E3FDE4B2002C0ED1DFF85801006850F0C1
:105690000100DFF850110860DFF84801006810F0E1
:1056A000010000900098DFF84001E4B230F81400E7
:1056B000019001200290002003900320049001A992
:1056C000DFF82801E4B250F82400FDF765FC002261
:1056D000DFF81401E4B230F81410DFF81001E4B27E
:1056E00050F82400FDF742FD06B010BD10B50400CF
:1056F0000022DFF8F400E4B230F81410DFF8EC0018
:10570000E4B250F82400FDF731FD10BD10B50400DF
:10571000DFF8D400E4B230F81410DFF8D000E4B2BF
:1057200050F82400FDF72CFD10BD30B587B0040003
:105730000D0001A8142102F087FDE4B2002C0ED167
:10574000DFF8A000006850F00400DFF8981008604F
:10575000DFF89000006810F0040000900098EDB2AF
:10576000002D13D1DFF88800E4B230F81400019066
:1057700000200290002003900220049001A9DFF88D
:105780007400E4B250F82400FDF706FCEDB2012DE0
:1057900026D1DFF85C00E4B230F81400019000205C
:1057A000039002200490DFF85000029001A9DFF876
:1057B0004400E4B250F82400FDF7EEFB00220F2174
:1057C000DFF83800E4B230F8140040B2FDF778FD9D
:1057D000DFF82800E4B230F8140040B2FDF783FD92
:1057E00007B030BD1C3802406E2B0008F8030020C3
:1057F000A22B0008FC030020000021103644000802
:105800002DE9F04F83B004005FF000085FF000095D
:10581000A548FFF756FE002840F0A980A248FFF7F0
:10582000F2FED0F50070ADF80200BDF802009F490D
:105830008988884207D3BDF802009C498988401AAC
:10584000ADF8040008E0BDF8020010F500709749BB
:105850008988401AADF80400944880888246002068
:105860000600BDF80400B6B2864277D290481FFA0F
:105870008AFA1AF800008DF806001AF1010A1FFAD8
:105880008AFABAF5007F01DB002082469DF8060007
:10589000F02861D185488088824600200500ADB29D
:1058A000B6B2B54240D21FFA8AFA1AF101004FF49B
:1058B000007190FBF1F202FB110217007C481FFA05
:1058C0008AFA1AF800008DF801007948BFB2385CF6
:1058D0008DF800001FFA88F818EB0400001D8346BD
:1058E0005A469DF800109DF8010002F044FC8146E4
:1058F0005FFA89F9B9F1000F03D16C488780002065
:1059000036E01FFA8AFA5FFA89F919EB0A004FF4B8
:10591000007190FBF1FA0AFB110A18F101085FFA15
:1059200089F919EB0505BAE71FFA88F8C4F8008071
:105930001FFA8AFA1AF101004FF4007190FBF1FA94
:105940000AFB110A5948A0F804A0200002F03BFC11
:10595000002801D001200BE0761C82E7BDF804008E
:10596000B0F5807F03DDBDF802005049888000203B
:10597000BDE8FE8F38B50400200002F013FC2100C2
:105980004C4802F0E0FB050041F288332A0092B255
:105990004849494802F04FF931BD80B54248FFF708
:1059A00035FE414802F054FC3F48434948634248B1
:1059B0003D49486201BD00B587B04048006850F0DD
:1059C00001003E4908603D48006810F00100009069
:1059D00000983A48006850F001003849086037489C
:1059E000006810F00100009000983548006850F4FD
:1059F0000030334908603248006810F400300090ED
:105A000000982E48006850F080702C4908602B48A0
:105A1000006810F08070009000980420019002202F
:105A2000029000200390022004900720059001A915
:105A30002448FDF7B1FA082001900720059001A93C
:105A40002048FDF7A9FA20481B4908601F48006854
:105A50001949486000201849886000201649C8602C
:105A60000020154908610020134988610C20124963
:105A70004861114802F0A6F8002800D0FEE7FFF7C1
:105A80008CFF0B480C4988624FF400700A498885E6
:105A900000200949C8634FF400720549064802F026
:105AA00048F907B000BD0000E80A00205C0C0020A7
:105AB0001004002010060020300A00201C3802408C
:105AC000243802400000024000440040F00300205F
:105AD0004179017132214171817980398171704739
