:020000040800F2
:10000000D00500200D5500087154000873540008F5
:1000100041550008455500084955000800000000FA
:100020000000000000000000000000004D55000826
:10003000755400080000000051550008775400086E
:1000400055550008595500085D55000861550008D0
:1000500065550008695500086D5500087155000880
:1000600075550008795500087F5400087D55000833
:100070008155000885550008895500088D550008F0
:100080009155000895550008995500089D550008A0
:10009000A1550008A5550008A9550008AD55000850
:1000A00000000000B1550008B5550008B95500081A
:1000B000BD550008C1550008C5550008C9550008C0
:1000C000CD550008D1550008D5550008D955000870
:1000D000DD550008E1550008E5550008E955000820
:1000E00089540008ED550008F1550008F555000841
:1000F000F955000800000000FD55000801560008F1
:1001000005560008095600080D560008115600084B
:1001100015560008195600081D560008000000007A
:100120002156000870B582B0040000A8DFF8581509
:100130000A680260A5682E68200000F0B4FA012861
:1001400001D1012035E00421200001F0D9F9002877
:1001500001D101202DE04021200001F0F4F9002818
:1001600001D1012025E00021200001F007F900283D
:1001700001D101201DE0DFF844063060002120009D
:1001800001F089F9002801D1012012E000212000AE
:1001900000F0CDF9012801D101200AE000A92000DA
:1001A00000F043FA012801D1012002E00120E070B3
:1001B000002076BD70B50400A5682E68200000F010
:1001C00072FA012801D101203CE0200000F01EFC61
:1001D000012801D1012035E0200000F0B9FF0128FD
:1001E00001D101202EE0200000F08AFC012801D17D
:1001F000012027E0200000F019FE012801D1012094
:1002000020E0200000F0CEFE012801D1012019E0FD
:10021000200000F014FD012801D1012012E020008F
:1002200000F072FD012801D101200BE0200000F058
:100230001FF8012801D1012004E0002030600020D7
:10024000E070002070BD70B50400A5682E682079AC
:10025000012801D100200AE03168200000F0B0FA46
:10026000012801D1012002E001202071002070BD91
:1002700070B50400A5682E682079002801D10020FF
:1002800012E03100200000F097F8012801D1012090
:100290000AE00021200001F0FEF8002801D1012031
:1002A00002E000202071002070BD38B504000D0070
:1002B0002900200000F0EAF932BD10B5040020004A
:1002C00000F0F1F910BD3EB504000D0000200090D3
:1002D00001A9200000F0FEF9012801D1012026E04B
:1002E00000A9200000F03BF8012801D101201EE008
:1002F000BDF9040001F0F4FE009901F009FF01F0DE
:1003000073FF2860BDF9060001F0EAFE009901F0D4
:10031000FFFE01F069FF6860BDF9080001F0E0FE32
:10032000009901F0F5FE01F05FFFA86000203EBDDE
:1003300030B583B004000D0000A9200000F0CAF918
:10034000012801D1012009E0BDF800002880BDF896
:1003500002006880BDF80400A88000203EBD38B5CA
:1003600004000D0000A9200001F083F8002801D14D
:10037000012020E09DF80000002806D0042810D0BD
:10038000082806D00C2808D00FE0DFF8F404286015
:1003900010E0DFF8F00428600CE0DFF8EC042860DF
:1003A00008E0DFF8E804286004E0DFF8980528603A
:1003B000012000E0002032BD38B504000D0000A986
:1003C000200001F08BF8002801D101204FE09DF8BA
:1003D0000000002816D0102817D0202819D0302867
:1003E0001BD040281DD050281FD0602821D0702855
:1003F00023D0802825D0902827D0A02829D0B02825
:100400002BD02EE00020286030E0DFF83C0528608B
:100410002CE0DFF83805286028E0DFF83405286094
:1004200024E0DFF89803286020E0DFF82805286042
:100430001CE0DFF82405286018E0DFF820052860BC
:1004400014E0DFF81C05286010E0DFF818052860CC
:100450000CE0DFF81405286008E0DFF810052860DC
:1004600004E0DFF8E0042860012000E0002032BD55
:1004700038B504000D002079012808D12900C9B23F
:10048000200000F04FF901280AD1012009E02900DD
:10049000C9B2200000F06FF9012801D1012000E06D
:1004A000002032BD38B504000D002079012807D1A5
:1004B0002900200000F084F9012809D1012008E07A
:1004C0002900200000F0E4F9012801D1012000E01A
:1004D000002032BD38B504000D0000A9200000F056
:1004E000C8FF002801D1012020E09DF8000000286D
:1004F00006D0042810D0082806D00C2808D00FE019
:100500005FF08040286010E05FF0814028600CE0E0
:100510005FF08240286008E05FF08340286004E0DC
:10052000DFF820042860012000E0002032BD70B513
:1005300004000D00EDB2002D03D0022D07D003D32F
:1005400008E00020060007E00820060004E00C2078
:10055000060001E0012009E03100C9B2200000F0EE
:1005600065FF002801D1012000E0002070BD70B5BA
:1005700004000D002800DFF8FC1301F057FE01D243
:10058000002610E02800DFF8F01301F04FFE01D242
:10059000082608E02800DFF8701401F047FE01D2B9
:1005A0000C2600E004263100C9B2200000F03EFF16
:1005B000002801D1012000E0002070BD38B5040002
:1005C0000D000DF10201200001F003F8002801D117
:1005D000012029E00DF10101200001F02FF8002891
:1005E00001D1012020E000A9200001F05CF80028E2
:1005F00001D1012018E09DF80200082801D1012056
:1006000000E0002028709DF80100102801D1012091
:1006100000E0002068709DF80000202801D1012032
:1006200000E00020A870002032BD38B504000D00A5
:100630002878012801D1082100E00021C9B220005A
:1006400000F0A4FF002801D101201CE068780128F7
:1006500001D1102100E00021C9B2200000F0CBFF41
:10066000002801D101200EE0A878012801D1202125
:1006700000E00021C9B2200000F0F2FF002801D103
:10068000012000E0002032BD3855000838B50400D4
:100690000D002900200000F0B7FE002801D1012044
:1006A00000E0002032BD10B582B0040000208DF8BB
:1006B000000000A92000FFF7E9FF012801D1012077
:1006C00007E09DF800002178884201D0012000E079
:1006D000002016BD30B583B004000D0000A8002135
:1006E000002206C0083800A9200001F07EFC002886
:1006F00001D1012015E09DF801009DF8001011EBDB
:10070000002028809DF803009DF8021011EB0020C6
:1007100068809DF805009DF8041011EB0020A8806A
:1007200000203EBD70B504000D00EDB2002D06D0D6
:10073000022D0AD006D3042D0DD009D30EE01020CF
:1007400006000DE0102006000AE02020060007E069
:100750003020060004E04020060001E0012009E00E
:100760003100C9B2200000F096FE002801D101201E
:1007700000E0002070BD10B4020093681C68C9B28C
:10078000002906D002290AD006D304290DD009D3A6
:100790000FE06D4820600EE06B4820600BE06B4876
:1007A000206008E06A48206005E0DFF880092060EA
:1007B00001E0012000E0002010BC70470000D042A2
:1007C00070B504000D002800DFF8C81701F02EFDF9
:1007D00001D2102648E02800DFF8BC1701F026FD02
:1007E00001D2202640E02800DFF8B01701F01EFDFE
:1007F00001D2302638E02800DFF8A41701F016FDFA
:1008000001D2402630E02800DFF8241901F00EFD67
:1008100001D2502628E02800DFF8181901F006FD63
:1008200001D2602620E02800DFF80C1901F0FEFC60
:1008300001D2702618E02800DFF8001901F0F6FC5C
:1008400001D2802610E02800DFF8F41801F0EEFC59
:1008500001D2902608E02800DFF8E81801F0E6FC55
:1008600001D2A02600E0B0263100C9B2200000F07D
:1008700012FE002801D1012000E0002070BD000020
:1008800023DB793D23DBF93D23DB793E23DBF93E96
:1008900038B502000B00946825681800DFF8F416DC
:1008A00001F0C4FC01D2284848E01800DFF8E8163F
:1008B00001F0BCFC01D2254840E01800DFF8DC164E
:1008C00001F0B4FC01D2224838E01800DFF8D0165D
:1008D00001F0ACFC01D2264830E01800DFF85018D7
:1008E00001F0A4FC01D21B4828E01800DFF84418EE
:1008F00001F09CFC01D2184820E01800DFF83818FD
:1009000001F094FC01D2154818E01800DFF82C180B
:1009100001F08CFC01D2124810E01800DFF820181A
:1009200001F084FC01D20F4808E01800DFF8141829
:1009300001F07CFC01D20C4800E00C48286000204B
:1009400032BD0000000080BF000050410000D041D7
:1009500000005042000050430000D043004050448B
:100960000080CF44002050450020D045004850462C
:100970000000D042010000400100804010B504009A
:10098000DFF8C8172000FFF78DFD012801D10120F5
:1009900038E00021200000F049FD002801D10120AD
:1009A00030E00621200001F001FA002801D10120E9
:1009B00028E00021200001F0B0F9002801D1012039
:1009C00020E00021200001F085F9002801D101205C
:1009D00018E00021200001F058F9002801D1012081
:1009E00010E00321200000F048F8012801D1012087
:1009F00008E01021200001F08FFA002801D1012029
:100A000000E0002010BD00000100004110B504000E
:100A10000021200001F080FA002801D1012010E01F
:100A20000021200001F0C2F9002801D1012008E0D6
:100A30000021200001F097F9002801D1012000E0F9
:100A4000002010BD38B504000D0000A9200000F002
:100A500094FE002801D101200EE09DF8000000283E
:100A600004D0202805D10120287004E0002028703F
:100A700001E0012000E0002032BD38B504000D0087
:100A80002900C9B2200001F06EF9002801D101202F
:100A900000E0002032BD10B50400DFF8AC162000E5
:100AA000FFF700FD012801D1012028E000212000EE
:100AB00000F0BCFC002801D1012020E0172120001B
:100AC00000F082F8012801D1012018E00421200063
:100AD00000F01EFE002801D1012010E0402120007E
:100AE00000F0AFFF002801D1012008E080212000A4
:100AF00000F067FC002801D1012000E0002010BDBB
:100B000010B504000021200000F05BFC002801D19A
:100B1000012018E00021200000F093FF002801D1FF
:100B2000012010E00021200000F0F2FD002801D19A
:100B3000012008E00021200000F046F8012801D142
:100B4000012000E0002010BD38B504000D0000A910
:100B5000200000F0C6FE002801D101200EE09DF823
:100B60000000002804D0102805D10120287004E0DE
:100B70000020287001E0012000E0002032BD38B5DF
:100B800004000D002900200001F05AFA002801D1CC
:100B9000012000E0002032BD10B504000221200039
:100BA00000F093FD002801D1012000E0002010BDDD
:100BB00010B504000021200000F087FD002801D1BD
:100BC000012000E0002010BD38B504000D00290010
:100BD000C9B2200001F05FFA002801D1012000E035
:100BE000002032BD10B50400DFF85C152000FFF7CF
:100BF00059FC012801D1012020E00021200000F053
:100C000015FC002801D1012018E00421200000F08B
:100C10007FFD002801D1012010E02021200000F0FC
:100C2000EDFE002801D1012008E00221200001F0A2
:100C30000AF9002801D1012000E0002010BD10B504
:100C400004000021200001F0FEF8002801D101205D
:100C500010E00021200000F0D1FE002801D1012089
:100C600008E00021200000F053FD002801D1012000
:100C700000E0002010BD38B504000D0000A92000E0
:100C800000F041FE002801D101200EE09DF8000097
:100C9000002804D0202805D10120287004E000207D
:100CA000287001E0012000E0002032BD10B50400F2
:100CB000DFF898142000FFF7F5FB012801D101208F
:100CC00020E00021200000F0B1FB002801D101202C
:100CD00018E00021200001F020F8002801D10120B7
:100CE00010E00221200000F088FF002801D101203F
:100CF00008E02021200001F032F9002801D1012074
:100D000000E0002010BD000010B50400002120000C
:100D100001F025F9002801D1012010E00021200078
:100D200000F0FBFF002801D1012008E00021200095
:100D300000F063FF002801D1012000E0002010BD79
:100D400038B504000D0000A9200000F004FD0028C3
:100D500001D101200EE09DF80000002804D00828F1
:100D600005D10120287004E00020287001E0012056
:100D700000E0002032BD38B504000D002900C9B2E2
:100D8000200000F03AFF002801D1012000E00020FF
:100D900032BD10B50400DFF8B4132000FFF782FB6A
:100DA000012801D1012040E00021200000F03EFB9D
:100DB000002801D1012038E00821200000F0FBFDCF
:100DC000002801D1012030E00421200000F0D0FDF6
:100DD000002801D1012028E00221200000F0A5FD1B
:100DE000002801D1012020E00821200000F041F975
:100DF000012801D1012018E00221200000F047F96C
:100E0000012801D1012010E00121200000F04DF95E
:100E1000012801D1012008E04021200001F0C2F8A2
:100E2000002801D1012000E0002010BD10B5040011
:100E30000021200001F0B6F8002801D1012030E0A7
:100E40000021200000F015F9012801D1012028E03F
:100E50000021200000F01BF9012801D1012020E031
:100E60000021200000F021F9012801D1012018E023
:100E70000021200000F059FD002801D1012010E0E0
:100E80000021200000F074FD002801D1012008E0BD
:100E90000021200000F08FFD002801D1012000E09A
:100EA000002010BD38B504000D0000A9200000F09E
:100EB00088FC002801D101200EE09DF800000028E8
:100EC00004D0202805D10120287004E000202870DB
:100ED00001E0012000E0002032BD10B504009B4974
:100EE0002000FFF7DFFA012801D1012050E00021A6
:100EF000200000F09BFA002801D1012048E00821E1
:100F0000200000F058FD002801D1012040E004211C
:100F1000200000F02DFD002801D1012038E0022141
:100F2000200000F002FD002801D1012030E008215E
:100F3000200000F09EF8012801D1012028E00321C3
:100F4000200000F0A4F8012801D1012020E00321B5
:100F5000200000F0AAF8012801D1012018E00821A2
:100F6000200000F0B0F8012801D1012010E080211C
:100F7000200000F067FE002801D1012008E00821D0
:100F8000200000F0A6FF002801D1012000E0002091
:100F900010BD0000010050410100D041010050424D
:100FA0000100D04210B504000021200000F091FFA4
:100FB000002801D1012040E00021200000F059F874
:100FC000012801D1012038E00021200000F05FF865
:100FD000012801D1012030E00021200000F065F857
:100FE000012801D1012028E00021200000F06BF849
:100FF000012801D1012020E00021200000F022FE84
:10100000002801D1012018E00021200000F08DFC13
:10101000002801D1012010E00021200000F0A8FCF0
:10102000002801D1012008E00021200000F0C3FCCD
:10103000002801D1012000E0002010BD38B50400D7
:101040000D0000A9200000F0AAFB002801D101201A
:101050000EE09DF80000002804D0102805D10120E2
:10106000287004E00020287001E0012000E000204A
:1010700032BD38B504000D002900C9B2200000F0CF
:1010800003FD002801D1012000E0002032BD38B569
:1010900004000D002900C9B2200000F03DFD002829
:1010A00001D1012000E0002032BD38B504000D0060
:1010B0002900C9B2200000F054FD002801D1012010
:1010C00000E0002032BD38B504000D002900C9B28F
:1010D000200000F06CFD002801D1012000E000207C
:1010E00032BD10B5040019492000FFF7DBF90128D3
:1010F00001D1012018E00021200000F097F900281C
:1011000001D1012010E04021200000F0E2FC002885
:1011100001D1012008E00421200000F0B7FE0028E2
:1011200001D1012000E0002010BD00000000D042ED
:10113000010050430100D043014050440180CF449E
:10114000012050450120D0450000D0410000D0438F
:1011500010B504000021200000F098FE002801D105
:10116000012008E00021200000F0B3FC002801D19C
:10117000012000E0002010BD38B504000D0000A9DA
:10118000200000F09CFB002801D101200EE09DF81A
:101190000000002804D0402805D10120287004E078
:1011A0000020287001E0012000E0002032BD38B5A9
:1011B00004000D0000A9200000F015FB002801D15B
:1011C00001200EE09DF80000002804D0012805D180
:1011D0000120287004E00020287001E0012000E0D8
:1011E000002032BD38B504000D0000A9200000F039
:1011F0000CFB002801D101200EE09DF80000002822
:1012000004D0022805D10120287004E000202870B5
:1012100001E0012000E0002032BD38B504000D00DF
:1012200000A9200000F003FB002801D101200EE0FE
:101230009DF80000002804D0042805D10120287062
:1012400004E00020287001E0012000E0002032BD11
:1012500038B504000D0000A9200000F0FAFA0028BB
:1012600001D101200EE09DF80000002804D00828DC
:1012700005D10120287004E00020287001E0012041
:1012800000E0002032BD38B504000D0000A92000A8
:1012900000F0F1FA002801D101200EE09DF80000D5
:1012A000002804D0102805D10120287004E0002077
:1012B000287001E0012000E0002032BD38B50400B4
:1012C0000D0000A9200000F0E8FA002801D101205B
:1012D0000EE09DF80000002804D0202805D1012050
:1012E000287004E00020287001E0012000E00020C8
:1012F00032BD200070B504000D001600012332003D
:101300002900C9B2200001F00AF8002801D000200D
:1013100000E0012070BD34B504000D00012300AAD7
:101320002900C9B2200000F0E3FF002801D000200E
:1013300000E0012032BD38B504000D0000AA0121F3
:101340002000FFF7D7FF002801D1002015E09DF80D
:10135000000010F07F008DF800009DF80000284389
:101360008DF800009DF8002001212000FFF7D3FF39
:10137000002801D1002000E0012032BD38B5040072
:101380000D0000AA0A212000FFF7B4FF002801D1B8
:10139000002015E09DF8000010F0F8008DF8000026
:1013A0009DF8000028438DF800009DF800200A21D8
:1013B0002000FFF7B0FF002801D1002000E001204D
:1013C00032BD38B504000D0000AA0D212000FFF742
:1013D00091FF002801D1002015E09DF8000010F0D9
:1013E0007F008DF800009DF8000028438DF8000074
:1013F0009DF800200D212000FFF78DFF002801D16E
:10140000002000E0012032BD38B504000D002A00A4
:101410000F212000FFF76EFF002801D1002004E01B
:101420002878287028782870012032BD38B504004B
:101430000D0000AA10212000FFF75CFF002801D159
:10144000002015E09DF8000010F0F3008DF800007A
:101450009DF8000028438DF800009DF80020102121
:101460002000FFF758FF002801D1002000E00120F4
:1014700032BD38B504000D002A0010212000FFF70E
:1014800039FF002801D1002004E0287810F00C007A
:101490002870012032BD38B504000D0000AA1021CB
:1014A0002000FFF727FF002801D1002015E09DF85C
:1014B000000010F00F008DF800009DF80000284398
:1014C0008DF800009DF8002010212000FFF723FF79
:1014D000002801D1002000E0012032BD38B5040011
:1014E0000D002A0010212000FFF704FF002801D181
:1014F000002004E0287810F0F0002870012032BDB0
:1015000038B504000D0000AA12212000FFF7F2FEFA
:10151000002801D1002015E09DF8000010F0FB002C
:101520008DF800009DF8000028438DF800009DF81C
:10153000002012212000FFF7EEFE002801D100203C
:1015400000E0012032BD38B504000D0000AA1221D0
:101550002000FFF7CFFE002801D1002015E09DF804
:10156000000010F0BF008DF800009DF80000284337
:101570008DF800009DF8002012212000FFF7CBFE1F
:10158000002801D1002000E0012032BD38B5040060
:101590000D0000AA18212000FFF7ACFE002801D1A1
:1015A000002015E09DF8000010F0F7008DF8000015
:1015B0009DF8000028438DF800009DF800201821B8
:1015C0002000FFF7A8FE002801D1002000E0012044
:1015D00032BD38B504000D002A0018212000FFF7A5
:1015E00089FE002801D1002004E0287810F00800CE
:1015F0002870012032BD38B504000D0000AA182162
:101600002000FFF777FE002801D1002015E09DF8AB
:10161000000010F0EF008DF800009DF80000284356
:101620008DF800009DF8002018212000FFF773FEC0
:10163000002801D1002000E0012032BD38B50400AF
:101640000D002A0018212000FFF754FE002801D1C8
:10165000002004E0287810F010002870012032BD2E
:1016600038B504000D0000AA18212000FFF742FE43
:10167000002801D1002015E09DF8000010F0DF00E7
:101680008DF800009DF8000028438DF800009DF8BB
:10169000002018212000FFF73EFE002801D1002085
:1016A00000E0012032BD38B504000D002A001821E9
:1016B0002000FFF71FFE002801D1002004E0287859
:1016C00010F020002870012032BD38B504000D0054
:1016D00000AA19212000FFF70DFE002801D10020EB
:1016E00015E09DF8000010F0FD008DF800009DF859
:1016F000000028438DF800009DF8002019212000EB
:10170000FFF709FE002801D1002000E0012032BDD2
:1017100038B504000D0000AA19212000FFF7EAFDEA
:10172000002801D1002015E09DF8000010F0FB001A
:101730008DF800009DF8000028438DF800009DF80A
:10174000002019212000FFF7E6FD002801D100202C
:1017500000E0012032BD38B504000D002A001B2135
:101760002000FFF7C7FD002801D1002004E0287801
:1017700010F008002870012032BD38B504000D00BB
:101780002A001B212000FFF7B5FD002801D1002011
:1017900004E0287810F020002870012032BD38B510
:1017A00004000D002A001C212000FFF7A3FD0028E3
:1017B00001D1002004E0287810F0100028700120EA
:1017C00032BD38B504000D002A001C212000FFF7AF
:1017D00091FD002801D1002004E0287810F02000BD
:1017E0002870012032BD38B504000D002A001D21EB
:1017F0002000FFF77FFD002801D1002004E02878B9
:1018000010F001002870012032BD38B504000D0031
:101810002A001D212000FFF76DFD002801D10020C6
:1018200004E0287810F002002870012032BD38B59D
:1018300004000D002A001D212000FFF75BFD002899
:1018400001D1002004E0287810F004002870012065
:1018500032BD38B504000D002A001D212000FFF71D
:1018600049FD002801D1002004E0287810F008008C
:101870002870012032BD38B504000D002A001D215A
:101880002000FFF737FD002801D1002004E0287870
:1018900010F010002870012032BD38B504000D0092
:1018A0002A001D212000FFF725FD002801D100207E
:1018B00004E0287810F020002870012032BD38B5EF
:1018C00004000D002A001D212000FFF713FD002851
:1018D00001D1002004E0287810F040002870012099
:1018E00032BD38B504000D002A0053212000FFF757
:1018F00001FD002801D1002004E0287810F010003C
:101900002870012032BD38B504000D002A00532193
:101910002000FFF7EFFC002801D1002004E0287828
:1019200010F020002870012032BD38B504000D00F1
:1019300000AA58212000FFF7DDFC002801D100207B
:1019400015E09DF8000010F0FD008DF800009DF8F6
:10195000000028438DF800009DF800205821200049
:10196000FFF7D9FC002801D1002000E0012032BDA2
:1019700038B504000D0000AA58212000FFF7BAFC7A
:10198000002801D1002015E09DF8000010F0FB00B8
:101990008DF800009DF8000028438DF800009DF8A8
:1019A000002058212000FFF7B6FC002801D10020BC
:1019B00000E0012032BD38B504000D0000AA582116
:1019C0002000FFF797FC002801D1002015E09DF8CA
:1019D000000010F0F7008DF800009DF8000028438B
:1019E0008DF800009DF8002058212000FFF793FC9F
:1019F000002801D1002000E0012032BD38B50400EC
:101A00000D0000AA58212000FFF774FC002801D126
:101A1000002015E09DF8000010F0DF008DF80000B8
:101A20009DF8000028438DF800009DF80020582103
:101A30002000FFF770FC002801D1002000E0012009
:101A400032BD38B504000D0000AA58212000FFF770
:101A500051FC002801D1002015E09DF8000010F095
:101A6000BF008DF800009DF8000028438DF80000AD
:101A70009DF8002058212000FFF74DFC002801D1DF
:101A8000002000E0012032BD38B504000D0015F043
:101A90001F0500AA59212000FFF72CFC002801D1C6
:101AA000002015E09DF8000010F0E0008DF8000027
:101AB0009DF8000028438DF800009DF80020592172
:101AC0002000FFF728FC002801D1002000E00120C1
:101AD00032BD38B504000D0000AA59212000FFF7DF
:101AE00009FC002801D1002015E09DF8000010F04D
:101AF0009F008DF800009DF8000028438DF800003D
:101B00009DF8002059212000FFF705FC002801D195
:101B1000002000E0012032BD38B504000D0015F0B2
:101B2000030500AA5A212000FFF7E4FB002801D199
:101B3000002015E09DF8000010F0FC008DF800007A
:101B40009DF8000028438DF800009DF800205A21E0
:101B50002000FFF7E0FB002801D1002000E0012079
:101B600032BD38B504000D00AD0015F00C0500AA1B
:101B70005A212000FFF7BEFB002801D1002015E00C
:101B80009DF8000010F0F3008DF800009DF80000B3
:101B900028438DF800009DF800205A212000FFF70F
:101BA000BAFB002801D1002000E0012032BD38B589
:101BB00004000D002D0115F0F00500AA5A212000A7
:101BC000FFF798FB002801D1002015E09DF80000E8
:101BD00010F00F008DF800009DF8000028438DF8EC
:101BE00000009DF800205A212000FFF794FB0028F8
:101BF00001D1002000E0012032BD38B504000D0005
:101C000015F03F0500AA5B212000FFF773FB0028B9
:101C100001D1002015E09DF8000010F0C0008DF803
:101C200000009DF8000028438DF800009DF800207A
:101C30005B212000FFF76FFB002801D1002000E0AE
:101C4000012032BD38B504000D0000AA5B21200040
:101C5000FFF750FB002801D1002015E09DF800009F
:101C600010F07F008DF800009DF8000028438DF8EB
:101C700000009DF800205B212000FFF74CFB0028AE
:101C800001D1002000E0012032BD38B504000D0074
:101C900015F00F0500AA5C212000FFF72BFB0028A0
:101CA00001D1002015E09DF8000010F0F0008DF843
:101CB00000009DF8000028438DF800009DF80020EA
:101CC0005C212000FFF727FB002801D1002000E065
:101CD000012032BD38B504000D0000AA5C212000AF
:101CE000FFF708FB002801D1002015E09DF8000057
:101CF00010F0EF008DF800009DF8000028438DF8EB
:101D000000009DF800205C212000FFF704FB002864
:101D100001D1002000E0012032BD38B504000D00E3
:101D20006D0115F0600500AA5C212000FFF7E2FAC2
:101D3000002801D1002015E09DF8000010F09F0060
:101D40008DF800009DF8000028438DF800009DF8F4
:101D500000205C212000FFF7DEFA002801D10020DE
:101D600000E0012032BD38B504000D0000AA5D215D
:101D70002000FFF7BFFA002801D1002015E09DF8F0
:101D8000000010F0F8008DF800009DF800002843D6
:101D90008DF800009DF800205D212000FFF7BBFAC0
:101DA000002801D1002000E0012032BDF8B5040078
:101DB0000D0015F01F000700C5F340100600FF00DE
:101DC00017F0F80700AA5D212000FFF793FA00281A
:101DD00001D1002036E09DF8000010F007008DF8DA
:101DE00000009DF8000038438DF800009DF80020A9
:101DF0005D212000FFF78FFA002801D1002021E0AB
:101E0000F60116F0800600AA5C212000FFF772FAA6
:101E1000002801D1002015E09DF8000010F07F009F
:101E20008DF800009DF8000030438DF800009DF80B
:101E300000205C212000FFF76EFA002801D100206D
:101E400000E00120F2BD38B504000D0000AA5E21BB
:101E50002000FFF74FFA002801D1002015E09DF87F
:101E6000000010F0FD008DF800009DF800002843F0
:101E70008DF800009DF800205E212000FFF74BFA4E
:101E8000002801D1002000E0012032BD38B5040057
:101E90000D0000AA5E212000FFF72CFA002801D1D6
:101EA000002015E09DF8000010F0FB008DF8000008
:101EB0009DF8000028438DF800009DF800205E2169
:101EC0002000FFF728FA002801D1002000E00120BF
:101ED00032BD38B504000D0000AA5E212000FFF7D6
:101EE00009FA002801D1002015E09DF8000010F04B
:101EF000F7008DF800009DF8000028438DF80000E1
:101F00009DF800205E212000FFF705FA002801D18E
:101F1000002000E0012032BD38B504000D0000AA09
:101F20005E212000FFF7E6F9002801D1002015E02E
:101F30009DF8000010F0EF008DF800009DF8000003
:101F400028438DF800009DF800205E212000FFF757
:101F5000E2F9002801D1002000E0012032BD38B5AF
:101F600004000D0000AA5E212000FFF7C3F900283D
:101F700001D1002015E09DF8000010F0DF008DF881
:101F800000009DF8000028438DF800009DF8002017
:101F90005E212000FFF7BFF9002801D1002000E0FA
:101FA000012032BD38B504000D0000AA5E212000DA
:101FB000FFF7A0F9002801D1002015E09DF80000EE
:101FC00010F0BF008DF800009DF8000028438DF848
:101FD00000009DF800205E212000FFF79CF90028FA
:101FE00001D1002000E0012032BD2DE9F8430400BA
:101FF0000D00022081460020804600200600F6B237
:10200000032E1ADA00200700FFB25FFA89F94F4564
:1020100011D25FFA88F818EB050218F12801C9B24D
:102020002000FFF767F9002801D1002006E018F131
:1020300001087F1CE8E7761CE1E70120BDE8F28398
:102040002DE9F84304000D0002208146002080465F
:1020500000200600F6B2002E1AD100200700FFB2C1
:102060005FFA89F94F4511D25FFA88F818EB05023B
:1020700018F14B01C9B22000FFF73CF9002801D14B
:10208000002006E018F101087F1CE8E7761CE1E774
:102090000120BDE8F28338B504000D008021200046
:1020A000FFF749F900AA0F212000FFF723F99DF857
:1020B000000010F0E0008DF800009DF8000015F021
:1020C0001F0108438DF800009DF800200F2120001B
:1020D000FFF721F900212000FFF72DF9012032BD83
:1020E000002840F10780F446404200F003F850F029
:1020F000004060470AD0B0FA80F18840D1F19D01DC
:10210000C905020672F1004241EB10207047002021
:10211000FF2212EAD05C1DBF12EAD15394459342CC
:102120002BE09C44D30780EA01021A4043EA0020D6
:1021300043EA0121A1FB0030410038BF40007CF19F
:102140007F010BDBFE294ADA5B0842EAC15153EA00
:10215000006373F1004C51EB10207047D1F1080C73
:10216000DCF120012FDB5B0810FA01F10B4373F166
:10217000004120FA0CF05041704794451CBF02EA20
:10218000D153934280EA010202F000421DD0400088
:1021900019D0490017D05BB9634514D00902B1FAD0
:1021A00081F39940BCEB030CC00140F00040C1E753
:1021B0000002B0FA80FC10FA0CF0B3EB0C0CC90171
:1021C00041F00041B6E71000704740000AD04900D6
:1021D00008D010F1807F94BF11F1807F02E042F0BF
:1021E000FF407047D04370474100090E7F3915D436
:1021F000D1F11F0114D4400007D2C00140F00040CB
:10220000C84048BF6FF000407047C00140F0004038
:10221000C8404CBF4FF0004040427047002070471C
:1022200000424FF0004058BFC04370474FF0807CE1
:102230001CEB400F94BF1CEB410F05E040EA010C82
:102240005FEA4C0C01D28842704718BF8142704748
:1022500080B500F07BF8002801D0012000E00020CC
:1022600002BD0020704700B58BB09C48006850F05C
:1022700001009A4908609948006810F00100009038
:1022800000981020069096480790022009900020A0
:10229000089006A9934800F035F9002200210A2091
:1022A00000F0CAFA0A2000F0DAFA8C48006850F010
:1022B00002008A4908608948006810F00200009016
:1022C000009801200190864802900220049000208E
:1022D000039001A9844800F015F90022002106208E
:1022E00000F0AAFA062000F0BAFA00200BB000BDF8
:1022F0002DE9F04104000D0016001F00A0463B0030
:102300009BB232002900C9B298F8010000F042F8EF
:10231000002801D0012000E00020BDE8F0812DE977
:10232000F04104000D0016001F00A0463B009BB2C8
:1023300032002900C9B298F8010000F055F80028D1
:1023400001D0012000E00020BDE8F08180B56748A1
:1023500000F03CFD002814D1654864494860002025
:102360006249886033206149C8604FF480405F490A
:10237000086160485D49086000F068F85B4800F05B
:102380008BFA5A4800F022FD012801D1002000E01C
:10239000012002BD2DE9F04184B004000D001600BB
:1023A0001F005FF00008544800680290380080B2B7
:1023B000019000960123EDB22A0092B2E4B221000E
:1023C00089B24A4800F046FB80465FFA88F8B8F1C7
:1023D000000F05D02000C0B200F030F8012000E06E
:1023E000002004B0BDE8F0812DE9F04184B0040084
:1023F0000D0016001F005FF000083F4800680290C3
:10240000380080B2019000960123EDB22A0092B20A
:10241000E4B2210089B2354800F0AEFB80465FFA95
:1024200088F8B8F1000F05D02000C0B200F006F81F
:10243000012000E0002004B0BDE8F08110B50400E8
:102440002A4800F0DEFAFFF781FF10BD00B587B023
:102450002248006850F00200204908601F480068C8
:1024600010F00200009000984FF44070019012208C
:10247000029002200490002003900420059001A9FE
:10248000194800F03FF81D48006850F400101B493F
:1024900008601A48006810F400100090009818486E
:1024A000006850F40010164908601548006830F4C0
:1024B000001013490860002200211F2000F0BCF921
:1024C0001F2000F0CCF900220021202000F0B4F9F8
:1024D000202000F0C4F907B000BD00001C38024005
:1024E00000001110000002400004024038010020EA
:1024F000801A0600005400403001002024380240B9
:102500001838024078B40022002300240D682E0001
:10251000D640002E00F0DE800D6801269640354042
:102520002B00002B00F0D4804D68022D02D04D68A6
:10253000122D16D1D50810EB85052D6A2C000F251C
:1025400012F00706F6B2B600B540AC430D6912F0C2
:102550000706F6B2B600B5402C43D50810EB85054A
:102560002C6205682C0003251600F6B27600B540F3
:10257000AC430D7915F003051600F6B27600B540B0
:102580002C4304604D68012D08D04D68022D05D004
:102590004D68112D02D04D68122D19D185682C007F
:1025A00003251600F6B27600B540AC43CD681600A0
:1025B000F6B27600B5402C43846045682C000125B6
:1025C0009540AC434D68C5F3001595402C434460DD
:1025D000C5682C0003251600F6B27600B540AC4362
:1025E0008D681600F6B27600B5402C43C4604D6885
:1025F000ED006DD54B4D2D6855F00105494E356008
:10260000484D2D6815F001050095009D464D960832
:1026100055F826502C000F2512F00306F6B2B6002E
:10262000B540AC43414DA84201D100251EE0404DCC
:10263000A84201D1012519E03E4DA84201D1022551
:1026400014E03D4DA84201D103250FE03B4DA842C7
:1026500001D104250AE03A4DA84201D1052505E043
:10266000384DA84201D1062500E0072512F00306E7
:10267000F6B2B600B5402C432B4D960845F82640DF
:10268000314D2D682C009C434D68ED0300D51C4353
:102690002D4D2C602D4D2D682C009C434D68AD03B5
:1026A00000D51C43294D2C60294D2D682C009C43DE
:1026B0004D68ED0200D51C43254D2C60254D2D683D
:1026C0002C009C434D68AD0200D51C43214D2C606D
:1026D000521C1BE771BC70470200136989B20B42A0
:1026E00002D00123180001E000231800C0B2704797
:1026F000D2B2002A02D089B2816102E089B20B0411
:102700008361704710B5040013480068A4B22042EA
:1027100006D0A4B210480460200080B200F0AAFDE8
:1027200010BD0000203802400800014000000240B7
:102730000004024000080240000C02400010024069
:10274000001402400018024000040140040401404B
:10275000080401400C0401401404014010F0070279
:10276000454B1B6819004FF6FF031940434B53EAD2
:1027700002231943404B196070473F480068C0F37B
:1027800002207047012110F01F0291403C4A40B2E4
:10279000430942F82310704710B440B2002808D50E
:1027A0000A01384B40B210F00F04E31803F8042C70
:1027B00003E00A01344B40B2C25410BC704770B4FD
:1027C000030013F00704D4F10706052E01D30420FB
:1027D00001E0D4F10700261D072E01D2002500E0FC
:1027E000E51E012616FA00F0401E0840A84001210F
:1027F000A940491E1140084370BC704710B5040041
:10280000601EB0F1807F01D301200EE0601E1F49E1
:1028100008600F215FF0FF30FFF7BEFF00201C496A
:10282000086007201B490860002010BD10B5040097
:102830002000FFF793FF10BDF8B504000D0016004F
:102840000027FFF79AFF0700320029003800FFF742
:10285000B6FF0100200040B2FFF79EFFF1BD10B5AA
:102860000400200040B2FFF78DFF10BD10B504003A
:102870002000FFF7C3FF10BD0CED00E00000FA05DB
:1028800000E100E018ED00E000E400E014E000E00A
:1028900018E000E010E000E070B50400002500261C
:1028A000002C01D10120ABE094F83500002805D1BF
:1028B000002084F83400200000F0BFF801F040FC54
:1028C0000600DFF87C01864201D2012098E0022058
:1028D00084F83500206800684008400021680860DE
:1028E000DFF86001B6FBF0F0050020684068800961
:1028F00080012843216848602068006A6168DFF829
:102900004821914201D2691C08E04FF4967101FB05
:1029100005F14FF47A72B1FBF2F1491C8009800194
:102920000843216808622068C0696168DFF81821DF
:1029300091420ED261684900B6FBF1F10905090D1B
:10294000042901D204212AE061684900B6FBF1F1B3
:1029500025E0A168002905D1616803225143B6FB37
:10296000F1F106E0616819225143B6FBF1F151F42F
:102970008041090501D1012111E0A168002905D19B
:10298000616803225143B6FBF1F106E06168192248
:102990005143B6FBF1F151F4804151F40041DFF8AD
:1029A000AC20104008432168C8612068006830F0FE
:1029B000C000E1690843216A084321680860206873
:1029C0008068DFF88C10084021690843E1680843FB
:1029D000216888602068C068000A0002A1696269F5
:1029E000114308432168C8602068006850F0010066
:1029F000216808600020A063012084F835000020D1
:102A000070BD10B50400002C01D1012014E002209B
:102A100084F835002068006840084000216808609C
:102A2000200000F00BF80020A063002084F835009F
:102A3000002084F83400002010BD7047704700006B
:102A400080841E0040420F00A18601000030FFFF7D
:102A5000007CFFFF2DE9F04782B005000E00170053
:102A60009846DDF828900B9CDDF830A095F83500ED
:102A700001287CD1B9F1000F02D0A4B2002C01D101
:102A8000012075E042F2107301225FF0021128006C
:102A900000F08EFA002801D0022069E095F8340099
:102AA000012801D1022063E0012085F83400286864
:102AB000006830F4006029680860322085F835002D
:102AC0000020A863CDF800A043469BB23A0092B222
:102AD000310089B2280000F07CF900280CD0A86BE6
:102AE000042804D1002085F83400012040E00020B3
:102AF00085F8340003203BE0A4B2002C1FD05346DD
:102B000000221C49280000F053FA002801D00320BD
:102B10002EE099F800002968086119F10109641E86
:102B2000286840694007E7D5A4B2002CE4D099F8A2
:102B300000002968086119F10109641EDCE75346A9
:102B400000220C49280000F033FA002801D00320AD
:102B50000EE02868006850F40070296808600120C1
:102B600085F83500002085F83400002000E00220C0
:102B7000BDE8F687800001002DE9F04782B005002E
:102B80000E0017009846DDF828900B9CDDF830A069
:102B900095F83500012840F01281B9F1000F02D0FC
:102BA000A4B2002C01D101200AE142F210730122EB
:102BB0005FF00211280000F0FBF9002801D002208C
:102BC000FEE095F83400012801D10220F8E0012050
:102BD00085F834002868006830F4006029680860CF
:102BE000422085F835000020A863CDF800A04346B8
:102BF0009BB23A0092B2310089B2280000F044F949
:102C000000280CD0A86B042804D1002085F83400DB
:102C10000120D5E0002085F834000320D0E0A4B2E4
:102C2000012C13D12868006830F48060296808609E
:102C3000286840690090286880690090009828689A
:102C4000006850F40070296808601DE0A4B2022CEE
:102C500013D12868006830F480602968086028680B
:102C6000006850F400602968086028684069009096
:102C7000286880690090009806E028684069009004
:102C80002868806900900098A4B2002C00F08F8022
:102C9000A4B2042C6DDAA4B2012C12D15346002246
:102CA000DFF82411280000F083F9002801D0032068
:102CB00086E02868006989F8000019F10109641E9E
:102CC000E2E7A4B2022C1ED1534600223D4928005F
:102CD00000F06EF9002801D0032071E02868006838
:102CE00050F40070296808602868006989F80000BD
:102CF00019F10109641E2868006989F8000019F1BA
:102D00000109641EC0E7534600222E49280000F046
:102D10004FF9002801D0032052E02868006830F401
:102D20008060296808602868006989F8000019F146
:102D30000109641E534600222249280000F038F998
:102D4000002801D003203BE02868006850F40070A0
:102D5000296808602868006989F8000019F10109EC
:102D6000641E2868006989F8000019F10109641ED1
:102D70008AE7534600221449280000F019F9002878
:102D800001D003201CE02868006989F8000019F1CF
:102D90000109641E2868406940077FF575AF2868FF
:102DA000006989F8000019F10109641E6CE701202F
:102DB00085F83500002085F83400002000E002206E
:102DC000BDE8F687040001004000010090F83500DE
:102DD00070472DE9F04182B004000D0016001F007D
:102DE000DDF820802068006850F480702168086059
:102DF000434600225FF00111200000F0D9F80028BE
:102E000001D003203EE015F0FE0021680861424633
:102E10006549200000F039F9002806D0A06B04288D
:102E200001D101202EE003202CE0206840690090B1
:102E30002068806900900098434600225B4920008A
:102E400000F0B6F8002801D003201BE0BFB2012F2C
:102E500004D13000C0B22168086112E0B6B2300A75
:102E6000C0B221680861434600225049200000F0AA
:102E70009FF8002801D0032004E03000C0B2216890
:102E800008610020BDE8F6812DE9F04182B0040020
:102E90000D0016001F00DDF820802068006850F447
:102EA0008060216808602068006850F480702168A4
:102EB0000860434600225FF00111200000F078F81E
:102EC000002801D003206CE015F0FE0021680861A5
:102ED00042463549200000F0D8F8002806D0A06B03
:102EE000042801D101205CE003205AE020684069F9
:102EF00000902068806900900098434600222B498A
:102F0000200000F055F8002801D0032049E0BFB2AE
:102F1000012F04D13000C0B22168086112E0B6B2BE
:102F2000300AC0B221680861434600221F492000D0
:102F300000F03EF8002801D0032032E03000C0B29B
:102F400021680861434600221849200000F030F84B
:102F5000002801D0032024E02068006850F480702D
:102F600021680860434600225FF00111200000F054
:102F70001FF8002801D0032013E055F00100C0B273
:102F80002168086142460849200000F07EF80028C8
:102F900006D0A06B042801D1012002E0032000E04C
:102FA0000020BDE8F6810000020001008000010061
:102FB0002DE9F04104000D0016001F005FF000082D
:102FC00001F068F98046F6B2002E2DD1280CC0B26F
:102FD00001280AD120684069284080B2A9B28842FD
:102FE00001D101200BE0002009E020688069284021
:102FF00080B2A9B2884201D1012000E0002000285F
:1030000040D117F1010FE1D0002F05D001F042F9B6
:10301000B0EB08008742D9D2012084F835000020A7
:1030200084F8340003202EE0280CC0B201280AD115
:1030300020684069284080B2A9B2884201D10120AD
:103040000BE0002009E020688069284080B2A9B226
:10305000884201D1012000E00020002812D017F1A1
:10306000010FE1D0002F05D001F014F9B0EB0800FA
:103070008742D9D2012084F83500002084F834003A
:10308000032000E00020BDE8F081F8B504000D0049
:103090001600002701F0FEF80700280CC0B2012836
:1030A0000AD120684069284080B2A9B2884201D183
:1030B00001200BE0002009E020688069284080B2F0
:1030C000A9B2884201D1012000E00020002829D1C6
:1030D00020684069400513D52068006850F40070EE
:1030E000216808607FF48060216848610420A06343
:1030F000012084F83500002084F83400012012E01B
:1031000016F1010FC9D0002E04D001F0C3F8C01B86
:103110008642C2D2012084F83500002084F83400B1
:10312000032000E00020F2BD80B500208DF80000F3
:1031300001F080F801F0C2F8002001F00BF9012144
:10314000002001F063F900F083F800F08DF8614889
:103150000078012845D160480078012817D100A9DE
:103160005E48006801F014FB002837D19DF800008C
:10317000002833D0002001F029F9642001F08DF8F7
:10318000002001F033F9642001F087F826E052486E
:103190000078022822D100A95048006801F04FFBB6
:1031A00000281BD19DF80000002817D0002001F056
:1031B0000DF9642001F071F8002001F017F9642086
:1031C00001F06BF8002001F001F9642001F065F8CE
:1031D000002001F00BF9642001F05FF800203D4968
:1031E00008703F48007801280BD13C48006801F086
:1031F00099FA002805D10120374908700020384984
:10320000087038480078012811D13448006801F06E
:10321000A4FA00280BD13148006801F0DAFA00283E
:1032200005D102202C49087000202E4908702E4834
:10323000007801288BD12948006801F0E5FA0028C0
:1032400085D10020244908700020274908707EE7B6
:1032500080B52249012001F053F9012803D1002053
:1032600001F0B4F8FEE701BD80B51C48006801F02C
:1032700041FA01BD10B50400A4B2B4F5005F1FD13E
:10328000002001F020F9002823D1134800780028FD
:1032900003D10120124908701BE00F480078012873
:1032A00003D101200F49087013E00B480078022871
:1032B00003D101200C4908700BE000F017F808E07A
:1032C000A4B2102C03D101200249087001E000F0E3
:1032D0000DF810BDC8010020CB010020BC0100206A
:1032E00034010020C9010020CA010020FEE72800A7
:1032F00038B5040000252078C00740F10781DFF8C9
:10330000F808006810F00C0008280BD0DFF8E80877
:10331000006810F00C000C2828D1DFF8DC080068E9
:10332000C00323D54FF48040B0FA80F050F0200065
:10333000C0B24009C0B2012803D1DFF8B808006864
:1033400002E0DFF8180D00684FF48041B1FA81F116
:1033500011F01F010200CA40D00740F1D780606819
:10336000002840F0D380012000F042BCDFF8840840
:10337000006830F48030DFF87C180860DFF87408EB
:10338000006830F48020DFF86C18086000F082FFDD
:1033900005004FF48040B0FA80F050F02000C0B239
:1033A0004009C0B2012803D1DFF84808006802E0F4
:1033B000DFF8A80C00684FF48041B1FA81F111F0F8
:1033C0001F010200CA40D00709D500F063FF401B6F
:1033D00041F289318842DCD3032000F009BC6068E7
:1033E000012808D1DFF80C08006850F48030DFF8BD
:1033F0000418086037E06068002810D1DFF8F4078F
:10340000006830F48030DFF8EC170860DFF8E4077C
:10341000006830F48020DFF8DC17086023E0606883
:10342000052810D1DFF8CC07006850F48020DFF8C1
:10343000C4170860DFF8BC07006850F48030DFF87C
:10344000B41708600FE0DFF8AC07006830F4803094
:10345000DFF8A0170860DFF89C07006830F48020D0
:10346000DFF8901708606068002827D000F012FF8E
:1034700005004FF48040B0FA80F050F02000C0B258
:103480004009C0B2012803D1DFF86807006802E0F4
:10349000DFF8C80B00684FF48041B1FA81F111F0F8
:1034A0001F010200CA40D00730D400F0F3FE401BD9
:1034B00041F289318842DCD3032099E300F0EAFE2F
:1034C00005004FF48040B0FA80F050F02000C0B208
:1034D0004009C0B2012803D1DFF81807006802E0F4
:1034E000DFF8780B00684FF48041B1FA81F111F0F8
:1034F0001F010200CA40D00708D500F0CBFE401BD8
:1035000041F289318842DCD3032071E320788007BF
:1035100040F1B780DFF8E006006810F00C000428E6
:103520000BD0DFF8D406006810F00C000C2836D160
:10353000DFF8C4060068C00331D45FF08040B0FA01
:1035400080F050F02000C0B24009C0B2012803D181
:10355000DFF8A006006802E0DFF8000B00685FF00B
:103560008041B1FA81F111F01F010200CA40D00779
:1035700004D5E068012801D0012039E3DFF87C069A
:1035800000685FF47801B1FA81F130F4F8502269F3
:1035900012FA01F10843DFF86416086071E0E06890
:1035A00000283FD001205FF00041B1FA81F1DFF83F
:1035B000B82B42F8210000F06DFE05005FF080405E
:1035C000B0FA80F050F02000C0B24009C0B201282B
:1035D00003D1DFF82006006802E0DFF8800A006807
:1035E0005FF08041B1FA81F111F01F010200CA4081
:1035F000D00706D400F04EFE401B6528DED3032022
:10360000F6E2DFF8F80500685FF47801B1FA81F1BD
:1036100030F4F850226912FA01F10843DFF8DC15A2
:1036200008602EE000205FF00041B1FA81F1DFF880
:10363000382B42F8210000F02DFE05005FF080409D
:10364000B0FA80F050F02000C0B24009C0B20128AA
:1036500003D1DFF8A005006802E0DFF8000A006887
:103660005FF08041B1FA81F111F01F010200CA4000
:10367000D00706D500F00EFE401B6528DED30320E0
:10368000B6E22078C00640F1EF80DFF86C050068F4
:1036900010F00C0F6DD15FF48000B0FA80F050F0A4
:1036A0002000C0B24009C0B2012803D1DFF84405B0
:1036B000006802E0DFF8A40900685FF48001B1FA55
:1036C00081F111F01F010200CA40D00704D5A069A2
:1036D000002801D101208BE2DFF82005006810F4FA
:1036E0006040216A884220D2206A00F03FFD002815
:1036F00001D001207CE2DFF80405006830F460406E
:10370000216A0843DFF8F4140860DFF8F004006869
:10371000FF21B1FA81F10002000AE26912FA01F117
:103720000843DFF8D81408601FE0DFF8D004006811
:1037300030F46040216A0843DFF8C0140860DFF805
:10374000BC040068FF21B1FA81F10002000AE269BD
:1037500012FA01F10843DFF8A4140860206A00F0AF
:1037600005FD002801D0012042E20F2000F07AFD83
:103770007AE0A069002848D001205FF40001B1FA86
:1037800081F1DFF8E42942F8210000F083FD050013
:103790005FF48000B0FA80F050F02000C0B2400921
:1037A000C0B2012803D1DFF84C04006802E0DFF862
:1037B000AC0800685FF48001B1FA81F111F01F01DB
:1037C0000200CA40D00706D400F064FD401B652803
:1037D000DED303200CE2DFF82404006830F46040FC
:1037E000216A0843DFF814140860DFF81004006849
:1037F000FF21B1FA81F10002000AE26912FA01F137
:103800000843DFF8F81308602EE000205FF40001A1
:10381000B1FA81F1DFF8502942F8210000F03AFDB9
:1038200005005FF48000B0FA80F050F02000C0B2D4
:103830004009C0B2012803D1DFF8B803006802E0F4
:10384000DFF8180800685FF48001B1FA81F111F027
:103850001F010200CA40D00706D500F01BFD401B27
:103860006528DED30320C3E1207800074AD56069CC
:10387000002823D001205FF00041B1FA81F1DFF888
:10388000802942F8210000F005FD05005FF080402E
:10389000B0FA80F0DFF8C40700685FF08041B1FA49
:1038A00081F111F01F010200CA40D0072AD400F0B4
:1038B000F1FC401B6528E9D3032099E100205FF06B
:1038C0000041B1FA81F1DFF8382942F8210000F017
:1038D000E1FC05005FF08040B0FA80F0DFF87C0783
:1038E00000685FF08041B1FA81F111F01F01020020
:1038F000CA40D00706D500F0CDFC401B6528E9D3AF
:10390000032075E12078400740F1D480DFF8F40807
:10391000006850F08050DFF8EC180860DFF8E40829
:10392000006810F0805000900098DFF8DC08006814
:1039300050F48070DFF8D018086000F0ABFC050090
:10394000DFF8C4080068C00506D400F0A3FC401BE3
:103950006528F5D303204BE1DFF80007006830F459
:103960008070DFF8F8160860DFF8F006006830F4C1
:103970008060DFF8E816086000F08CFC05005FF45A
:103980008000B0FA80F0DFF8D40600685FF48001B0
:10399000B1FA81F111F01F010200CA40D00708D529
:1039A00000F078FC401B41F289318842E7D30320C4
:1039B0001EE1A068012808D1DFF8A006006850F4D5
:1039C0008070DFF89816086037E0A068002810D1F2
:1039D000DFF88806006830F48070DFF88016086031
:1039E000DFF87806006830F48060DFF87016086051
:1039F00023E0A068052810D1DFF86006006850F4C5
:103A00008060DFF858160860DFF85006006850F450
:103A10008070DFF8481608600FE0DFF840060068A5
:103A200030F48070DFF834160860DFF83006006884
:103A300030F48060DFF824160860A06800281CD0ED
:103A400000F028FC05005FF48000B0FA80F0DFF899
:103A50000C0600685FF48001B1FA81F111F01F01DA
:103A60000200CA40D00725D400F014FC401B41F2EC
:103A700089318842E7D30320BAE000F00BFC05004F
:103A80005FF48000B0FA80F0DFF8D00500685FF4E2
:103A90008001B1FA81F111F01F010200CA40D00784
:103AA00008D500F0F7FB401B41F289318842E7D38B
:103AB00003209DE0606A002800F099804E4800686D
:103AC00010F00C000C2800F09080606A022861D190
:103AD00000208021B1FA81F1DFF88C2642F8210024
:103AE00000F0D8FB05004020B0FA80F050F0200034
:103AF000C0B24009C0B2012802D13E48006802E0CD
:103B0000DFF8580500684021B1FA81F111F01F017A
:103B10000200CA40D00706D500F0BCFB401B652858
:103B2000E1D3032064E03448006830F47D00A16AEA
:103B30000843E16A0843216B08432F4908600120CC
:103B40008021B1FA81F1DFF8202642F8210000F04F
:103B5000A1FB05004020B0FA80F050F02000C0B278
:103B60004009C0B2012802D12248006802E0DFF813
:103B7000EC0400684021B1FA81F111F01F0102004C
:103B8000CA40D00733D400F085FB401B6528E1D341
:103B900003202DE000208021B1FA81F1DFF8C82553
:103BA00042F8210000F076FB05004020B0FA80F0DA
:103BB00050F02000C0B24009C0B2012802D10D4827
:103BC000006802E0DFF8940400684021B1FA81F156
:103BD00011F01F010200CA40D00708D500F05AFBBF
:103BE000401B6528E1D3032002E0012000E0002013
:103BF00032BD00000038024008380240043802405C
:103C000070B504000D000026DFF80006006810F013
:103C10000100A84280F00581012D07D1DFF8EC05F5
:103C2000006850F00400DFF8E4150860DFF8DC05F8
:103C30000068400840002843DFF8D0150860DFF82E
:103C4000CC05006810F00100A84201D0012004E278
:103C50002078800709D5DFF8B805006830F0F0005B
:103C6000A1680843DFF8A81508602078C00740F174
:103C7000D581606802281DD14FF48040B0FA80F0F1
:103C800050F02000C0B24009C0B2012803D1DFF8D3
:103C90008405006802E0DFF8C40300684FF4804147
:103CA000B1FA81F111F01F010200CA40D0075FD4C0
:103CB0000120D2E1606803281BD14020B0FA80F0D7
:103CC00050F02000C0B24009C0B2012803D1DFF893
:103CD0004405006802E0DFF8840300684021B1FA7F
:103CE00081F111F01F010200CA40D00740D4012029
:103CF000B3E1606801281DD15FF08040B0FA80F028
:103D000050F02000C0B24009C0B2012803D1DFF852
:103D10000405006802E0DFF8440300685FF08041BA
:103D2000B1FA81F111F01F010200CA40D0071FD47F
:103D3000012092E15FF48000B0FA80F050F02000A2
:103D4000C0B24009C0B2012803D1DFF8C80400683E
:103D500002E0DFF8080300685FF48001B1FA81F146
:103D600011F01F010200CA40D00701D4012074E104
:103D7000DFF89C0400688008800061680843DFF871
:103D80009014086000F086FA06006068022810D1DE
:103D9000DFF87C04006810F00C00082800F03E8179
:103DA00000F078FA801B41F289318842F0D3032079
:103DB00053E16068032810D1DFF85404006810F064
:103DC0000C000C2800F02A8100F064FA801B41F2FC
:103DD00089318842F0D303203FE16068012810D187
:103DE000DFF82C04006810F00C00042800F01681A5
:103DF00000F050FA801B41F289318842F0D3032051
:103E00002BE1DFF80C04006810F00C0F00F00681C5
:103E100000F040FA801B41F289318842F1D303203F
:103E20001BE12078800709D5DFF8E403006830F053
:103E3000F000A1680843DFF8D81308602078C007B5
:103E400040F1D080606802281CD14FF48040B0FA65
:103E500080F050F02000C0B24009C0B2012803D168
:103E6000DFF8B003006801E07C4800684FF480414F
:103E7000B1FA81F111F01F010200CA40D0075CD4F1
:103E80000120EAE0606803281AD14020B0FA80F0EF
:103E900050F02000C0B24009C0B2012803D1DFF8C1
:103EA0007403006801E06D4800684021B1FA81F1B7
:103EB00011F01F010200CA40D0073ED40120CCE01F
:103EC000606801281CD15FF08040B0FA80F050F0AB
:103ED0002000C0B24009C0B2012803D1DFF834038A
:103EE000006801E05D4800685FF08041B1FA81F14F
:103EF00011F01F010200CA40D0071ED40120ACE01F
:103F00005FF48000B0FA80F050F02000C0B24009A9
:103F1000C0B2012803D1DFF8FC02006801E04F487D
:103F200000685FF48001B1FA81F111F01F01020015
:103F3000CA40D00701D401208FE0DFF8D402006826
:103F40008008800061680843DFF8C412086000F050
:103F5000A1F90600606802280FD1DFF8B4020068FA
:103F600010F00C0008283DD000F094F9801B41F2BD
:103F700089318842F1D303206FE0606803280FD1B4
:103F8000DFF88C02006810F00C000C282AD000F03A
:103F900081F9801B41F289318842F1D303205CE032
:103FA000606801280FD1DFF86802006810F00C008B
:103FB000042817D000F06EF9801B41F28931884245
:103FC000F1D3032049E0DFF84802006810F00C0F3D
:103FD00008D000F05FF9801B41F289318842F2D3AA
:103FE00003203AE0012D07D1DFF82002006850F0ED
:103FF0000400DFF818120860DFF8100200684008BB
:1040000040002843DFF804120860DFF8000200686F
:1040100010F00100A84201D001201EE020784007E6
:1040200009D5DFF8EC01006830F4E060E16808438E
:10403000DFF8DC110860207800070AD5DFF8D0012E
:10404000006830F46050216950EAC100DFF8C01107
:1040500008600F2000F006F9002070BD34380240DF
:10406000F0B5002100220023002400250020684E26
:104070003668310011F00C06042E04D0082E05D04D
:104080000C2E06D032E0644E300042E0634E300029
:104090003FE04FF47056B6FA86F6614F11F4701C8B
:1040A000E6463EFA06FE1EF8076032004FF4407600
:1040B000B6FA86F65B4F11F4400CE6463EFA06FE71
:1040C0001EF807603300524E3668F60306D5534E8D
:1040D00006FB02F6B6FBF3F6340005E04E4E06FB97
:1040E00002F6B6FBF3F63400200012E04E4E3668BE
:1040F00016F460465FF4E027B7FA87F7B4463CFA57
:1041000007FC654601266F1CBE404FF400477E4306
:104110003000F0BD10B5FFF7A3FF3D4909685FF01F
:104120007062B2FA82F2414B11F0F0010C00D440FF
:10413000E15C0200CA403E4802603D48006810BD94
:1041400010B5FFF7E7FF0100314800685FF4600237
:10415000B2FA82F2354B10F4E0600400D440E25C25
:104160000800D04010BD00000000474270B582B08A
:104170000400002500262648006810F0F00F24D126
:1041800020480068C00003D500F07AFB050014E069
:104190001C48006850F080501A49086019480068AF
:1041A00010F080500090009800F06AFB0500154860
:1041B000006830F0805013490860B5F5C05F04D145
:1041C000B4F5404F01D101200600012E05D10F4862
:1041D000006850F004000D4908600C480068400871
:1041E00040003043094908600848006810F00100A9
:1041F000B04201D0012000E0002076BD00000000A8
:10420000800647422438024000700040003C0240D3
:1042100008380240003802400024F40000127A00FE
:104220001C5500083C55000804380240FC540008A6
:104230002C01002080B51F48006850F004001D4983
:1042400008601C48006850F002001A49086003200A
:10425000FEF7ECFA0F2000F005F800F002F800205D
:1042600002BD704710B50400FFF754FF4FF47A7198
:10427000B0FBF1F0FEF7FAFA002221005FF0FF3008
:10428000FEF7DAFA002010BD0B480068401C0A490E
:104290000860704708480068704711B581B0002475
:1042A000FFF7F8FF0400FFF7F5FF001B01998842B4
:1042B000F9D313BD003C0240C001002000B593B00B
:1042C0002148006850F080501F4908601E4800686F
:1042D00010F08050009000981C48006830F4C050E6
:1042E00050F40060194908600220069001200990EE
:1042F00010200A9002200F90002010905FF4002000
:1043000011905FF40000129006A8FEF7F1FF00285C
:1043100001D0FEF7EBFF0E480068C006FBD40F206B
:1043200001900320029000200390002004900020C0
:104330000590012101A8FFF763FC002801D0FEF7DA
:10434000D5FF13B000BD00BF24380240007000400C
:104350000470004010B586B0040001A8142100F0DC
:1043600097FAE4B2002C0ED1DFF87801006850F023
:104370000100DFF870110860DFF86801006810F0D4
:10438000010000900098DFF86001E4B230F81400FA
:10439000019001200290002003900320049001A9C5
:1043A000DFF84801E4B250F82400FEF7ABF8002231
:1043B000DFF83401E4B230F81410DFF83001E4B271
:1043C00050F82400FEF794F906B010BD10B50400B3
:1043D0000122DFF81401E4B230F81410DFF80C0108
:1043E000E4B250F82400FEF783F910BD10B50400C4
:1043F0000022DFF8F400E4B230F81410DFF8EC002B
:10440000E4B250F82400FEF773F910BD30B587B060
:1044100004000D0001A8142100F03AFAE4B2002CC7
:104420000ED1DFF8C000006850F00400DFF8B410CF
:104430000860DFF8B000006810F0040000900098F9
:10444000EDB2002D13D1DFF8A800E4B230F814006B
:10445000019000200290002003900220049001A906
:10446000DFF89000E4B250F82400FEF74BF8EDB20C
:10447000012D26D1DFF87800E4B230F81400019065
:104480000020039002200490DFF86C00029001A944
:10449000DFF86000E4B250F82400FEF733F80022A1
:1044A0000F21DFF85800E4B230F8140040B2FEF7F4
:1044B000C3F9DFF84800E4B230F8140040B2FEF768
:1044C000CEF907B030BD10B50400DFF82400E4B227
:1044D00030F81410DFF81C00E4B250F82400FEF7A6
:1044E000FBF810BD1C380240F21200082401002025
:1044F0000E2100082801002000002110EE320008E3
:1045000038B504000D000020286064B2002C0ED0E5
:10451000012C14D0280000F07BF8012806D12800D7
:1045200000F016F8012801D1012010E00EE028006B
:1045300000F00EF8012801D1012008E006E0280073
:1045400000F066F8012801D1012000E0002032BD12
:104550002DE9F041040000255C48C078012801D114
:10456000012053E0FDF774FE012801D101204DE048
:10457000682056490870D620544948700020534995
:10458000887000205149C8700020504908710120EE
:104590004E4948714E484D4988604E484B49C86065
:1045A00000204A4908614C484C4948604B484849FA
:1045B0000860002046494860444820602068C06880
:1045C0000500286800280CD114260027D4F80080A4
:1045D0003A003100404600F05FF9002020600120E1
:1045E00014E020682968884701280CD11426002788
:1045F000D4F800803A003100404600F04DF9002028
:104600002060012002E0FDF72CFE0020BDE8F081D3
:104610002DE9F041040000252C48C07D012801D17E
:10462000012050E0FDF714FE012801D101204AE0ED
:10463000692026490875D42024494875012023495A
:10464000887500202149C87500202049087601207E
:104650001E49487622481D49C86122481B49086204
:1046600021481A49486221481949886000201849A0
:10467000C8601F4820602068C068050028680028BE
:104680000CD114260027D4F800803A0031004046AF
:1046900000F002F900202060012014E02068296861
:1046A000884701280CD114260027D4F800803A004E
:1046B0003100404600F0F0F800202060012002E0C8
:1046C000FDF7D1FD0020BDE8F0810000740100205D
:1046D0009C01002094000020AC010020B4010020C7
:1046E000A4010020D800002000000020C401002008
:1046F0008801002070B5040025000026002D01D19E
:1047000001200EE0E8680600B068002801D1012011
:1047100007E02800B1688847012801D1012000E0A6
:10472000002070BD70B504002500002D01D10120CE
:1047300012E02869002801D101200DE028786928BD
:1047400009D12E69B06C002801D1012004E02800B5
:10475000B16C884700E0012070BD70B504002500F1
:10476000002D01D1012012E02869002801D101208B
:104770000DE02878692809D12E69F06C002801D154
:10478000012004E02800F16C884700E0012070BDA2
:10479000F8B504000D002600002E01D1012017E01D
:1047A0003069002801D1012012E0002D01D1012043
:1047B0000EE0307869280AD13769386D002801D1B8
:1047C000012005E0290030003A6D904700E001200B
:1047D000F2BD70B504002500002D01D1012012E0CA
:1047E0002869002801D101200DE02878692809D125
:1047F0002E69706D002801D1012004E02800716D40
:10480000884700E0012070BD70B504002500002D30
:1048100001D1012012E02869002801D101200DE01A
:104820002878692809D12E69B06D002801D10120AE
:1048300004E02800B16D884700E0012070BDF8B5A4
:1048400004000D002600002E01D1012017E0306980
:10485000002801D1012012E0002D01D101200EE03D
:10486000307869280AD13769F86D002801D1012014
:1048700005E029003000FA6D904700E00120F2BD0C
:104880000248006810F4C0507047000000700040FB
:10489000002200F035B8000062F30F2262F31F42DD
:1048A000401810F0030308D0C91A1FD3DB0748BF14
:1048B00000F8012D28BF20F8022D130030B4144653
:1048C0001546103928BF20E93C00FAD8490728BF0F
:1048D00020E90C0048BF40F8042D890028BF20F8CB
:1048E000022D48BF00F8012D30BC7047C91818BF11
:1048F00000F8012DCB0728BF00F8012D70470000FC
:1049000000B500BF130096469446103928BFA0E8B2
:104910000C50FAD85FEA417C28BF0CC048BF40F871
:10492000042BC90728BF20F8022B48BF00F8012B31
:1049300000BD000070B582B0040000A8DFF89C162E
:104940000A680260A5682E68200000F058FA012865
:1049500001D1012025E0DFF88806306040212000E9
:1049600000F0A0FC002801D101201AE00021200065
:1049700000F063FC002801D1012012E0002120009A
:1049800000F083F9012801D101200AE000A92000EC
:1049900000F0F9F9012801D1012002E00120E070C6
:1049A000002076BD70B50400A5682E68200000F0D8
:1049B00026FA012801D101200BE0200000F01FF8A9
:1049C000012801D1012004E0002030600020E070C7
:1049D000002070BD70B50400A5682E6820790128FC
:1049E00001D100200AE03168200000F093FA01288C
:1049F00001D1012002E001202071002070BD70B5BE
:104A00000400A5682E682079002801D1002012E05A
:104A10003100200000F091F8012801D101200AE0C6
:104A20000021200000F009FC002801D1012002E053
:104A300000202071002070BD38B504000D00290051
:104A4000200000F0CFF932BD10B50400200000F0C6
:104A5000D6F910BD3EB504000D000020009001A95C
:104A6000200000F0E3F9012801D1012026E000A98F
:104A7000200000F03BF8012801D101201EE0BDF923
:104A80000400FDF72DFB0099FDF742FBFDF7ACFBA1
:104A90002860BDF90600FDF723FB0099FDF738FB00
:104AA000FDF7A2FB6860BDF90800FDF719FB00994E
:104AB000FDF72EFBFDF798FBA86000203EBD30B54A
:104AC00083B004000D0000A9200000F0AFF9012818
:104AD00001D1012009E0BDF800002880BDF80200E6
:104AE0006880BDF80400A88000203EBD38B50400F1
:104AF0000D0000A9200000F08EFB002801D101204C
:104B00001AE09DF80000002804D0102806D01828CC
:104B100008D00BE0DFF8CC0428600CE0DFF8C80414
:104B2000286008E0DFF8C404286004E0DFF8C0046F
:104B30002860012000E0002032BDF8B504000D001F
:104B4000A668376878680078012804D178684068DA
:104B50002860002039E000A9200000F091FB002827
:104B600001D1012031E09DF8000000280CD0202860
:104B70000DD040280FD0602811D0802813D0A02855
:104B800015D0C02817D01AE0002028601CE0DFF8FC
:104B90006404286018E0DFF86004286014E0DFF89F
:104BA0004004286010E0DFF8540428600CE0DFF8CF
:104BB0005004286008E0DFF84C04286004E0DFF8C7
:104BC00030042860012000E00020F2BD38B5040068
:104BD0000D002079012808D12900C9B2200000F079
:104BE0004DF901280AD1012009E02900C9B22000AD
:104BF00000F06DF9012801D1012000E0002032BD54
:104C000038B504000D002079012807D129002000C3
:104C100000F080F9012809D1012008E029002000D6
:104C200000F0AFF9012801D1012000E0002032BDE1
:104C300038B504000D0000A9200000F0ECFA0028AF
:104C400001D1012020E09DF80000002806D00828AE
:104C500010D0102806D0182808D00FE05FF0804050
:104C6000286010E05FF0814028600CE05FF0824037
:104C7000286008E05FF08340286004E0DFF87003FC
:104C80002860012000E0002032BD70B504000D0056
:104C9000EDB2002D03D0022D07D003D308E0002091
:104CA000060007E01020060004E01820060001E0DE
:104CB000012009E03100C9B2200000F089FA002883
:104CC00001D1012000E0002070BD70B504000D008E
:104CD0002800DFF83413FDF7A9FA01D2002610E00E
:104CE0002800DFF82813FDF7A1FA01D2102608E00A
:104CF0002800DFF81C13FDF799FA01D2182600E00E
:104D000008263100C9B2200000F062FA002801D163
:104D1000012000E0002070BD38B504000D000DF149
:104D20000201200000F0D8F9002801D1012029E07B
:104D30000DF10101200000F004FA002801D101204A
:104D400020E000A9200000F031FA002801D1012064
:104D500018E09DF80200082801D1012000E00020A1
:104D600028709DF80100102801D1012000E00020EA
:104D700068709DF80000202801D1012000E000208B
:104D8000A870002032BD38B504000D002878012835
:104D900001D1082100E00021C9B2200000F079F91A
:104DA000002801D101201CE06878012801D11021E0
:104DB00000E00021C9B2200000F0A0F9002801D1D4
:104DC00001200EE0A878012801D1202100E0002177
:104DD000C9B2200000F0C7F9002801D1012000E08D
:104DE000002032BD38B504000D002900200000F07D
:104DF0003EF9002801D1012000E0002032BD10B5AD
:104E000082B0040000208DF8000000A92000FFF708
:104E1000E9FF012801D1012007E09DF80000217879
:104E2000884201D0012000E0002016BD30B583B0DB
:104E300004000D0000A80021002206C0083800A9C7
:104E4000200000F052FA002801D1012015E09DF861
:104E500001009DF8001011EB002028809DF8030050
:104E60009DF8021011EB002068809DF805009DF868
:104E7000041011EB0020A88000203EBD70B5040096
:104E80000D00EDB2002D06D0022D0AD006D3042D60
:104E90000DD009D30EE0202006000DE020200600F2
:104EA0000AE04020060007E04020060004E0602001
:104EB000060001E0012009E03100C9B2200000F045
:104EC000BCF9002801D1012000E0002070BD10B421
:104ED000020093681C68C9B2002906D002290AD0D2
:104EE00006D304290DD009D30FE0424820600EE01C
:104EF000404820600BE04048206008E03E482060C9
:104F000005E0DFF81001206001E0012000E0002052
:104F100010BC704770B504000D002800DFF8F810D1
:104F2000FDF784F901D2202620E02800DFF8EC10FC
:104F3000FDF77CF901D2402618E02800DFF8E010E8
:104F4000FDF774F901D2602610E02800DFF8D410D4
:104F5000FDF76CF901D2802608E02800DFF8C810C0
:104F6000FDF764F901D2A02600E0C0263100C9B2E5
:104F7000200000F062F9002801D1012000E00020AB
:104F800070BD38B502000B00946825681800DFF882
:104F90008810FDF74BF901D216481CE018001F4994
:104FA000FDF744F901D2144815E018001C49FDF73B
:104FB0003DF901D20A480EE018001A49FDF736F90A
:104FC00001D20E4807E018001749FDF72FF901D26A
:104FD0000B4800E00B482860002032BD3455000823
:104FE0000000EE4223DB793D23DBF93D23DB793EF4
:104FF000000080BF000020410000484200006E43D6
:105000000000EE4300006E440100004001008040BB
:10501000010000410000EE42010020410100484231
:105020000100EE4201006E430100EE4370B5040042
:105030000D001600012332002900C9B22000FDF73F
:105040006EF9002801D0002000E0012070BD34B5C9
:1050500004000D00012300AA2900C9B22000FDF7B9
:1050600047F9002801D0002000E0012032BD38B50A
:1050700004000D002A000F212000FFF7D7FF0028B1
:1050800001D1002004E028782870287828700120B9
:1050900032BD38B504000D0000AA1F212000FFF723
:1050A000C5FF002801D1002015E09DF8000010F098
:1050B000F7008DF800009DF8000028438DF80000EF
:1050C0009DF800201F212000FFF7C1FF002801D11B
:1050D000002000E0012032BD38B504000D002A0098
:1050E0001F212000FFF7A2FF002801D1002004E0CB
:1050F000287810F008002870012032BD38B504006F
:105100000D0000AA1F212000FFF790FF002801D109
:10511000002015E09DF8000010F0EF008DF8000071
:105120009DF8000028438DF800009DF800201F2105
:105130002000FFF78CFF002801D1002000E00120B3
:1051400032BD38B504000D002A001F212000FFF7F2
:105150006DFF002801D1002004E0287810F0100035
:105160002870012032BD38B504000D0000AA1F21AF
:105170002000FFF75BFF002801D1002015E09DF81B
:10518000000010F0DF008DF800009DF800002843BB
:105190008DF800009DF800201F212000FFF757FF29
:1051A000002801D1002000E0012032BD38B5040004
:1051B0000D002A001F212000FFF738FF002801D131
:1051C000002004E0287810F020002870012032BD73
:1051D00038B504000D0000AA20212000FFF726FFAB
:1051E000002801D1002015E09DF8000010F0E70034
:1051F0008DF800009DF8000028438DF800009DF810
:10520000002020212000FFF722FF002801D10020EC
:1052100000E0012032BD38B504000D002A00202135
:105220002000FFF703FF002801D1002004E02878C8
:1052300010F018002870012032BD38B504000D00B0
:1052400000AA20212000FFF7F1FE002801D1002054
:1052500015E09DF8000010F01F008DF800009DF88B
:10526000000028438DF800009DF800202021200038
:10527000FFF7EDFE002801D1002000E0012032BD43
:1052800038B504000D002A0020212000FFF7CEFED3
:10529000002801D1002004E0287810F0E0002870F8
:1052A000012032BD38B504000D0000AA22212000E3
:1052B000FFF7BCFE002801D1002015E09DF800009A
:1052C00010F0BF008DF800009DF8000028438DF815
:1052D00000009DF8002022212000FFF7B8FE0028E2
:1052E00001D1002000E0012032BD2DE9F843040087
:1052F0000D00022081460020804600200600F6B204
:10530000032E1ADA00200700FFB25FFA89F94F4531
:1053100011D25FFA88F818EB050218F12801C9B21A
:105320002000FFF783FE002801D1002006E018F1DD
:1053300001087F1CE8E7761CE1E70120BDE8F28365
:105340001248006850F480701049086010480068E6
:10535000104908400E4908600C4800680E49084092
:105360000A4908600948006830F48020074908604D
:105370000748006830F47D000549086000200749AF
:1053800008605FF00060064908607047003802401E
:10539000083802400CC0FF88FEFFFEEE0C380240C9
:1053A00008ED00E019E050F8041BCB0744BFA9F159
:1053B00001035918121F0023042A41F8043BF9D2B3
:1053C0005FEA827C0B4604D54FF0000CA1F800C0C8
:1053D0009B1CD10744BF0021197050F8042B002AF0
:1053E000E1D1704780B500F015F802000023DB43DF
:1053F0001068984204D011000220ABBE002010605B
:105400005068984204D0111D0220ABBE00205060AD
:1054100001BD0000004870471C01002010B450F886
:10542000041B79B10268436812180830DC0744BFD6
:10543000A9F10104E31852F8044B43F8044B091F87
:10544000F9D1ECE710BC704710B507497944183121
:10545000064C7C44163404E00A68081D511888473D
:105460000146A142F8D110BD2C0000004C00000004
:105470007047FEE7704780B5FEF706FF01BD80B5B7
:105480001020FDF73FF901BD80B54FF40050FDF746
:1054900039F901BD11FFFFFF940000003801002021
:1054A0000000000079FFFFFF3801000078010000D4
:1054B000000000200000000000F00BF8002801D0E0
:1054C000FFF7C2FF0020C046C046FDF72DFE00F0EA
:1054D00002F80120704700F001B800000746384686
:1054E00000F002F8FBE7000080B5FFF77BFF024AFF
:1054F00011001820ABBEFBE72600020000000000F0
:105500000102030401020304060708090148804759
:1055100001480047415300082955000803040608C4
:105520000C10182030000000C046C046C046C046DF
:10553000FFF7C2FF010101000101010001020304A4
:10554000FFF7FEBFFFF7FEBFFFF7FEBFFFF7FEBF8F
:10555000FFF7FEBFFFF7FEBFFFF7FEBFFFF7FEBF7F
:10556000FFF7FEBFFFF7FEBFFFF7FEBFFFF7FEBF6F
:10557000FFF7FEBFFFF7FEBFFFF7FEBFFFF7FEBF5F
:10558000FFF7FEBFFFF7FEBFFFF7FEBFFFF7FEBF4F
:10559000FFF7FEBFFFF7FEBFFFF7FEBFFFF7FEBF3F
:1055A000FFF7FEBFFFF7FEBFFFF7FEBFFFF7FEBF2F
:1055B000FFF7FEBFFFF7FEBFFFF7FEBFFFF7FEBF1F
:1055C000FFF7FEBFFFF7FEBFFFF7FEBFFFF7FEBF0F
:1055D000FFF7FEBFFFF7FEBFFFF7FEBFFFF7FEBFFF
:1055E000FFF7FEBFFFF7FEBFFFF7FEBFFFF7FEBFEF
:1055F000FFF7FEBFFFF7FEBFFFF7FEBFFFF7FEBFDF
:10560000FFF7FEBFFFF7FEBFFFF7FEBFFFF7FEBFCE
:10561000FFF7FEBFFFF7FEBFFFF7FEBFFFF7FEBFBE
:10562000FFF7FEBF7D0900080D0A0008450A0008C3
:105630007B0A0008970A0008010B0008490B0008C4
:105640007F0B0008990B0008B10B0008C90B00087C
:10565000E50B00083F0C0008770C0008AD0C0008B3
:10566000090D0008410D0008770D0008930D000892
:105670002D0E0008A50E0008DB0E0008A50F00087F
:105680003D100008731000088F100008AB100008D0
:10569000C7100008E3100008511100087911000834
:1056A000AF110008E51100081B1200085112000894
:1056B00087120008BD12000835490008A5490008F6
:1056C000D5490008FF490008394A0008494A00083E
:1056D000554A0008BF4A0008ED4A00083B4B000845
:1056E000CD4B0008014C0008314C00088B4C0008E1
:1056F000CB4C0008194D0008874D00082501000813
:10570000B50100084702000871020008AB0200085A
:10571000BB020008C7020008310300085F0300084D
:10572000B903000871040008A5040008D5040008A6
:105730002F0500086F050008BD0500082B060008AE
:10574000FFFFFFFFFFFFFFFF0000024000080240D5
:0C5750000048E80100100000010000000B
:0400000508000000EF
:00000001FF
