:020000040800F2
:10000000C805002051360008393600083B36000884
:100010006D360008713600087536000800000000D3
:100020000000000000000000000000007936000819
:100030003D360008000000007D3600083F3600080D
:100040008136000885360008893600088D3600089C
:100050009136000895360008993600089D3600084C
:10006000A1360008A536000843360008A936000866
:10007000AD360008B1360008B5360008B9360008BC
:10008000BD360008C1360008C5360008C93600086C
:10009000CD360008D1360008D5360008D93600081C
:1000A000DD360008E1360008E5360008E9360008CC
:1000B000ED360008F1360008F5360008F93600087C
:1000C000FD36000801370008053700080937000829
:1000D0000D370008113700081537000819370008D8
:1000E000493600081D370008213700082537000869
:1000F000293700082D370008313700083537000848
:10010000393700083D3700084137000845370008F7
:10011000493700084D3700085137000855370008A7
:10012000593700085D370008613700086537000857
:10013000693700086D370008713700087537000807
:10014000793700087D3700088137000885370008B7
:10015000893700088D370008913700089537000867
:10016000993700089D370008A1370008A537000817
:10017000A9370008AD370008B137000800000000BB
:10018000B5370008B937000838B50FF2500100F054
:1001900027F8012821D00421204600F012FF70B179
:1001A0004021204600F01FFF48B10021204600F00A
:1001B0005EFE20B100F036FA00F0CEFE08B9012054
:1001C00032BD0021204600F0B9F9012805D000A970
:1001D000204600F007FA00F03BFA32BD01010100B1
:1001E0000A68044600A80260A0680568204600F07E
:1001F000ABBA38B50446FFF7F7FF012827D02046F1
:1002000000F065FB012822D0204600F08BFD01287C
:100210001DD0204600F0A5FB012818D0204600F094
:10022000ADFC012813D0204600F014FD01280ED0AB
:10023000204600F0F6FB012809D0204600F036FCED
:10024000012804D0204600F012F800F007FA32BD71
:1002500010B504462079012807D000F005FA00F017
:1002600091FA012802D001202071002010BD10B5A4
:100270000446207978B1A0680168204600F046F86D
:10028000012808D00021204600F066FE08B90120B0
:1002900010BD0020207110BD00F052BA00F054BA19
:1002A0003EB500F015FA00F064FA012805D000A967
:1002B000204600F009F800F0DDF93EBD1CB50C4603
:1002C00000A900F056FA0AE210B582B00C4600A967
:1002D00000F03DFEB8B19DF8000030B104280DD00B
:1002E000082805D00C2806D00BE09FED860A57E0C1
:1002F0009FED850AFBE79FED850AF8E79FED840AED
:10030000F5E700F0FAF8012016BD000010B582B044
:100310000C4600A900F02CFE08B9012016BD9DF87E
:100320000000B0B1102817D0202818D0302819D0DC
:1003300040281AD050281BD060281CD070281DD00F
:1003400080281ED090281FD0A02820D0B02821D0EF
:1003500023E09FED700A23E0B2EE0A0AFBE7B3EE5A
:100360000A0AF8E79FED6C0AF5E79FED6C0AF2E7E1
:100370009FED6B0AEFE79FED6B0AECE79FED6A0AD2
:10038000E9E79FED6A0AE6E79FED690AE3E79FED7B
:10039000690AE0E79FED680ADDE700F0AEF8BCE728
:1003A00084ED000A002016BD80B50279012A13D120
:1003B00061B1022908D009D3042901D002D309E090
:1003C000402104E0302102E0202100E0102100F073
:1003D000C3FDA8B9012002BD8068006869B1022987
:1003E00008D00AD3042901D002D3F3E74B4906E031
:1003F000494904E0DFF8801401E0DFF87417016078
:10040000002002BD80B50179012904D100F0BAF9BC
:1004100001284FD102BD00F075F948BFB2EE0A0ABB
:1004200046D400F079F948BFB3EE0A0A40D4DFEDB4
:10043000800A00F073F948BF9FED370A38D4DFED2A
:100440007D0A00F06BF948BF9FED340A30D4DFED30
:100450007A0A00F063F948BF9FED310A28D4DFED36
:10046000770A00F05BF948BF9FED2E0A20D4DFED3C
:10047000740A00F053F948BF9FED2B0A18D4DFED42
:10048000710A00F04BF948BF9FED280A10D4DFED48
:100490006E0A00F043F948BF9FED250A08D4DFED4E
:1004A0006B0A00F03BF94CBF9FED220A9FED220A38
:1004B00080ED000A002002BD10B582B00C4600A9F4
:1004C00000F045FDB8B19DF8000030B104280DD012
:1004D000082805D00C2806D00BE0B0EE000A5FE734
:1004E000B1EE000AFBE7B2EE000AF8E7B3EE000A4D
:1004F000F5E700F002F8012016BDDFF8780620606D
:100500007047000023DB793D23DBF93D23DB793E97
:1005100023DBF93E00000000000050420000D04202
:10052000000050430000D043004050440080CF44BE
:10053000002050450020D0450048504680B519B1F4
:10054000022904D001D304E01CE00821FCE70C21BF
:10055000FAE7012002BD0000DFED670A80B500F078
:10056000DDF848BF00210DD4DFED640A00F0D6F8B5
:1005700048BF082106D4DFED620A00F0CFF84CBF77
:100580000C21042100F0D2FC401E8041C00F02BDAE
:1005900038B50D4604460DF1020100F064FD50B17E
:1005A0000DF10101204600F077FD20B100A92046A1
:1005B00000F089FD08B9012032BD9DF8020008282D
:1005C0000CBF0120002028709DF8010010280CBFEE
:1005D0000120002068709DF8000020280CBF012039
:1005E0000020A3E038B50D460446287801280CBF4A
:1005F00008210021204600F021FD40B16878012843
:100600000CBF10210021204600F031FD08B9012067
:1006100032BDA87801280CBF20210021204600F01F
:1006200040FD86E0DFF80001286000212046704789
:10063000010050420100D042010050430100D0436C
:10064000014050440180CF44012050450120D04555
:10065000012802D00120E07000207047012802D05C
:1006600000202860E0707047A068006890ED000AE4
:100670002046704701282AD0BDF90400DDED000AAC
:1006800000EE100AB8EEC00A20EE200ABDEEC00A45
:1006900085ED000ABDF90600DDED000A00EE100A46
:1006A000B8EEC00A20EE200ABDEEC00A85ED010AB0
:1006B000BDF90800DDED000A00EE100AB8EEC00A30
:1006C00020EE200ABDEEC00A85ED020A0020704728
:1006D0000446002000900D4601A9204670470128DD
:1006E00008D0BDF80000208000A841886180808883
:1006F000A080002016BD00000100004001008040E5
:100700000100004180680068DFED420AB4EE600A33
:10071000F1EE10FA70470000DFED4E0AB4EE600A09
:10072000F1EE10FA704700000000D042A8700020DF
:1007300032BD00F001F832BD401E8041C00F70474D
:1007400080B500F0EBFB1FE710B582B00446002037
:100750008DF8000000A92046FFF7F2FF012807D01E
:100760009DF800002178884201D0012016BD0020AC
:1007700016BD1CB500F066F800F0C0FE08B90120F7
:1007800016BD49E0DFED230A80B5FFF7C7FF48BF7C
:1007900010213CD4FFF7C0FF48BF202137D4DFED44
:1007A0002E0AFFF7BBFF48BF302130D4DFED2B0A04
:1007B000FFF7B4FF48BF402129D4DFED290AFFF736
:1007C000ADFF48BF502122D4DFED260AFFF7A6FF78
:1007D00048BF60211BD4DFED240AFFF79FFF48BF0D
:1007E000702114D4DFED210AFFF798FF48BF802164
:1007F0000DD4DFED1F0AFFF791FF48BF902106D40B
:10080000DFED1C0AFFF78AFF4CBFA021B02100F0EA
:10081000A3FBB9E60100504100A841789DF80020F3
:10082000090251FA82F1218082789DF8031002EBCF
:100830000121618000799DF8051000EB0120A08066
:10084000002016BD0C4600A9002200230CC100A9FF
:10085000704700000100D041010050420100D04229
:10086000010050430100D043014050440180CF4477
:10087000012050450120D0450000D04110B500F0C6
:1008800071F9012822D000F00DF988B10621204627
:1008900000F0B9FD60B100F001F948B10021204637
:1008A00000F07CFD20B10021204600F06AFD08B96F
:1008B000012010BD0321204600F02BF8012805D0AF
:1008C0001021204600F0F0FDFFF736FF10BD10B5F7
:1008D0000446002100F0E8FD20B10021204600F090
:1008E00092FD08B9012010BD0021204600F07CFDDA
:1008F000A7E010B582B00C4600A900F025FC30B18D
:100900009DF8000010B1202801D1012052E0012003
:1009100016BD80B500F068FDFFF736BE10B500F0DB
:100920007BF8012818D000F0BDF868B117212046E7
:1009300000F054F801280FD000F00FF820B140214A
:10094000204600F08DFC08B9012010BD8021204612
:1009500000F0BEFAFFF7F0FE10BD0421204600F0C3
:10096000DFBB10B50446002100F0B2FA40B100210F
:10097000204600F075FC18B10021FFF7EFFF08B921
:10098000012010BD0021204600F028F8012818BFE2
:10099000002010BD10B582B00C4600A900F01CFC70
:1009A00030B19DF8000010B1102801D1012001E004
:1009B000012016BD2070002016BD80B500F0BDFDE1
:1009C000FFF7E2BD80B5022100F08FFBFFF7DCBD31
:1009D00080B5002100F089FBFFF7D6BD80B500F09F
:1009E000BCFDFFF7D1BD10B500F016F8012812D0FC
:1009F00000F058F838B1FFF7B0FF20B120212046B1
:100A000000F01CFC08B9012010BD0221204600F0B6
:100A100027FDFFF791FE10BD0446B3EE0A0AFFF76B
:100A2000F1BC10B50446002100F01AFD20B10021F0
:100A3000204600F003FC08B9012010BD0021FFF79B
:100A40008DFF401E8041C00F10BD10B582B00C4616
:100A500000A900F0CAFB30B19DF8000010B12028B9
:100A600001D10120A6E7012016BD10B500F07AF8EB
:100A7000012812D000F016F838B100F00FF820B1BC
:100A80000221204600F05AFC08B9012010BD2021A7
:100A9000204600F01BFDFFF74FFE10BD0021204651
:100AA00000F08EBC0021204600F040BA10B504468C
:100AB000002100F00BFD10B1FFF7F0FF08B9012095
:100AC00010BD0021204600F039FCBAE710B582B015
:100AD0000C4600A900F030FB30B19DF8000010B1C9
:100AE000082801D1012065E7012016BD80B500F07E
:100AF00025FCFFF749BD10B500F034F8012821D0DE
:100B0000FFF7D0FF40B100F029F828B100F022F83B
:100B100010B100F01BF808B9012010BD00F013F867
:100B200001280FD0022100F050F801280AD001213D
:100B300000F048F8012805D04021204600F0D2FC02
:100B4000FFF7FAFD10BD08212046C1E00221204632
:100B500000F050BB0421204600F058BB082120467D
:100B600000F060BB04469FED040AFFF74BBC000099
:100B700000005041000080BF0000D04310B5044683
:100B8000002100F0AFFCA0B10021FFF7DDFF01283C
:100B900016D000F019F8012812D000F012F8012840
:100BA0000ED00021FFF7D3FF18B10021FFF7D3FFCC
:100BB00008B9012010BD0021FFF7D1FFFFF7BCFDF0
:100BC00010BD002120468DE00021204685E010B5B3
:100BD00082B00C4600A900F0C5FA30B19DF80000C3
:100BE00010B1202801D10120E4E6012016BD10B586
:100BF000FFF7B8FF01282CD0FFF754FF08B3FFF729
:100C0000ADFFF0B1FFF7A6FFD8B1FFF79FFFC0B16E
:100C1000FFF799FF01281CD00321FFF7D6FF012819
:100C200017D00321FFF7CEFF012812D0082120465C
:100C300000F05DF801280CD08021204600F095FBE3
:100C400008B9012010BD0821204600F021FCFFF763
:100C500073FD10BD10B50446002100F019FCF8B179
:100C60000021FFF771FF012821D0FFF7ADFF012818
:100C70001DD0FFF7A6FF012819D00021204600F063
:100C800036F8012813D00021204600F06EFB38B161
:100C90000021FFF75CFF18B10021FFF75CFF08B9E6
:100CA000012010BD0021FFF75AFFFFF745FD10BDE1
:100CB00010B582B00C4600A900F04FFA30B19DF893
:100CC000000010B1102801D1012073E6012016BDEB
:100CD00080B500F0D1FAFFF757BC80B500F0F3FA09
:100CE000FFF752BC80B500F0FBFAFFF74DBC80B5B2
:100CF00000F010FBFFF748BC10B5FFF733FF0128E9
:100D00000FD0FFF7CFFE20B14021204600F0C0FAFF
:100D100008B9012010BD0421204600F0ADFBFFF70B
:100D20000BFD10BD10B50446002100F0A5FB08B96D
:100D3000012010BD0021204600F0AAFA81E610B57E
:100D400082B00C4600A900F033FA30B19DF80000E3
:100D500010B1402801D101202CE6012016BD10B5AC
:100D600082B00C4600A900F002FA30B19DF80000F4
:100D7000002818BF012800D11CE6012016BD10B5BF
:100D800082B00C4600A900F0F7F930B19DF80000E0
:100D900010B1022801D101200CE6012016BD10B5CA
:100DA00082B00C4600A900F0ECF930B19DF80000CB
:100DB00010B1042801D10120FCE5012016BD10B5B9
:100DC00082B00C4600A900F0E1F930B19DF80000B6
:100DD00010B1082801D10120ECE5012016BD10B5A5
:100DE00082B00C4600A900F0D9F930B19DF800009E
:100DF00010B1102801D10120DCE5012016BD10B58D
:100E000082B00C4600A900F0CEF930B19DF8000088
:100E100010B1202801D10120CCE5012016BD000031
:100E200080B5012305E004B5012300AA00F004FC0D
:100E300001E000F009FC401E8041C00F02BD38B542
:100E400000F0BBF90121FFF7EBFF30B100F0E9F84A
:100E5000012100F0F0F800B1012032BDFFF7E0FF02
:100E600020B1207800F040002070012010BD38B57E
:100E700000F012F830B100F006F80A2100F0DBF8BB
:100E800000B1012032BD9DF8000000F0F8002843B9
:100E90008DF80000024670470D46044600AA0A215C
:100EA000BEE70D46044600AA0D21B9E7FFF7B8FFDB
:100EB00020B1207800F010002070012010BDFFF755
:100EC000AFFF20B1207800F020002070012010BD7D
:100ED00038B5FFF7E6FF28B100F0A3F800F0AAF854
:100EE00000B1012032BDFFF79BFF20B1207800F058
:100EF00001002070012010BDFFF792FF20B1207883
:100F000000F002002070012010BDFFF789FF20B122
:100F1000207800F004002070012010BD80B50A4642
:100F20000F21FFF77DFF00B1012002BD38B500F0B1
:100F300009F830B100F021F8102100F07CF800B180
:100F4000012032BD0D46044600AA102168E710B505
:100F50000C462246102119E038B5FFF7F3FF30B1F7
:100F600000F01DF8102100F066F800B1012032BD3C
:100F700010B50C46224610211AE09DF8000000F042
:100F8000F30028438DF8000002467047FFF748FF42
:100F900020B1207800F00C002070012010BD9DF8D9
:100FA000000000F00F0028438DF800000246704753
:100FB000FFF736FF20B1207800F0F000207001200C
:100FC00010BD38B500F009F830B100F085F81221F5
:100FD00000F031F800B1012032BD0D46044600AAF0
:100FE0001221FFF71DBF38B5FFF7F7FF30B100F052
:100FF0000FF8122100F01FF800B1012032BD9DF85A
:10100000000000F0DF0028438DF800000246704722
:101010009DF8000000F0BF0028438DF80000024654
:1010200070479DF8000000F07F0028438DF8000015
:10103000024670470D212046FFF7F5BE38B500F097
:101040003CF830B100F006F81821FFF7F4FF00B1CA
:10105000012032BD9DF8000000F0F70028438DF814
:1010600000000246704710B500F032F8ABE038B52A
:1010700000F023F830B100F006F81821FFF7DBFF8D
:1010800000B1012032BD9DF8000000F0EF002843C0
:101090008DF800000246704710B500F019F8FFF710
:1010A00005BF38B500F009F830B1FFF7A8FF1821E7
:1010B000FFF7C1FF00B1012032BD0D46044600AA72
:1010C0001821FFF7ADBE10B500F002F8FFF7F7BE2C
:1010D0000C462246182170479DF8000000F0FB00E6
:1010E00028438DF800000246704738B500F012F82A
:1010F00030B100F006F81921FFF79DFF00B1012083
:1011000032BD9DF8000000F0FD0028438DF800007E
:10111000024670470D46044600AA1921FFF780BE1B
:1011200038B5FFF7F7FF30B1FFF7D6FF1921FFF70A
:1011300082FF00B1012032BD10B500F001F842E09D
:101140000C4622461B21704710B5FFF7F9FFFFF749
:10115000B6BE0C4622461C21704710B5FFF7F9FFBA
:10116000FFF7A4BE10B5FFF7F4FFFFF7A8BE10B558
:1011700000F010F8FFF7B7BE10B500F00BF8FFF75E
:10118000BBBE10B500F006F8FFF7BFBE10B500F00B
:1011900001F818E00C4622461D21704710B5FFF7F4
:1011A000F9FFFFF783BE10B5FFF7F4FFFFF787BE27
:1011B00010B5FFF7EFFFFFF751BE0D46044600AA3A
:1011C000704700F00EF8FFF72BFE20B1207800F0FA
:1011D00008002070012010BD10B500F002F8FFF7E4
:1011E00065BE0C4622465321704710B5FFF7F9FF44
:1011F000FFF765BE38B500F02DF830B1FFF781FF7D
:101200005821FFF718FF00B1012032BD38B500F0BA
:1012100021F830B1FFF760FF5821FFF70CFF00B154
:10122000012032BD38B500F015F830B1FFF712FFDC
:101230005821FFF700FF00B1012032BD38B500F0A2
:1012400009F830B1FFF7DBFE5821FFF7F4FE00B1DB
:10125000012032BD0D46044600AA5821FFF7E0BD2B
:1012600038B5FFF7F7FF30B1FFF7D2FE5821FFF78F
:10127000E2FE00B1012032BD38B500F01EF830B1F9
:1012800000F078F95921FFF7D6FE00B1012032BDF8
:1012900038B500F012F830B100F006F85921FFF728
:1012A000CAFE00B1012032BD9DF8000000F09F0091
:1012B00028438DF80000024670470D46044600AAF8
:1012C0005921FFF7ADBD38B500F01EF838B19DF8D3
:1012D000000065F3010000F010F800B1012032BDFC
:1012E00038B500F011F838B19DF8000065F38300BF
:1012F00000F003F800B1012032BD8DF80000024675
:101300005A212046FFF78FBD0D46044600AA5A21F8
:10131000FFF786BD38B5FFF7F7FF70B19DF8000005
:1013200000F00F0040EA05108DF800005A219DF8EA
:101330000020FFF780FE00B1012032BD38B500F07B
:101340000EF858B19DF8000065F305008DF8000017
:1013500002465B21FFF76FFE00B1012032BD0D4652
:10136000044600AA5B21FFF75BBD38B5FFF7F7FF26
:1013700030B1FFF756FE5B21FFF75DFE00B10120A3
:1013800032BD38B500F016F838B19DF8000065F3AD
:10139000030000F022F800B1012032BD38B500F0A2
:1013A00009F830B1FFF76FFE5C21FFF744FE00B192
:1013B000012032BD0D46044600AA5C21FFF730BD76
:1013C00038B5FFF7F7FF38B19DF8000065F3461018
:1013D00000F003F800B1012032BD8DF80000024694
:1013E0005C212046FFF71FBD38B5FFF7E6FE5D2103
:1013F000FFF716FD30B1FFF746FD5D21FFF71BFE3D
:1014000000B1012032BD70B582B0044600AA0E467C
:101410005D21FFF705FD750908B39DF8000000F098
:10142000070040EAC6008DF800005D219DF800200D
:10143000FFF701FE98B100AA5C2100F0A4F870B19A
:101440009DF8000000F07F0040EAC5108DF8000014
:101450005C219DF80020FFF7EEFD00B1012076BD74
:1014600038B500F02DF830B1FFF74BFE5E21FFF7E5
:10147000E2FD00B1012032BD38B500F021F830B1F5
:10148000FFF72AFE5E21FFF7D6FD00B1012032BD35
:1014900038B500F015F830B1FFF7DCFD5E21FFF73D
:1014A000CAFD00B1012032BD38B500F009F830B1F5
:1014B000FFF7E9FD5E21FFF7BEFD00B1012032BD5F
:1014C0000D46044600AA5E21FFF7AABC38B5FFF717
:1014D000F7FF30B1FFF793FD5E21FFF7ACFD00B1E0
:1014E000012032BD38B5FFF7EBFF30B1FFF790FDBB
:1014F0005E21FFF7A0FD00B1012032BD2DE9F041D2
:1015000080460D46002603270224F6B206F1280184
:1015100000F009F828B1761C641EF6D17F1EF3D1C5
:101520000120BDE8F0817219C9B24046FFF778BCCE
:101530007219C9B22046FFF773BCF8B504460D46D0
:1015400000260227F6B206F14B01FFF7F1FF18B1B2
:10155000761C7F1EF6D10120F2BD38B500F01AF8D6
:1015600000AA0F2100F00FF800F004F80F21FFF798
:1015700062FD0BE09DF8000065F304008DF80000AB
:101580000246704707212046FFF74ABC00F007F8E3
:10159000012032BD0D4604468021FFF750BC0021DA
:1015A0002046FFF74CBC000080B500F065F800B1A4
:1015B000012002BD0020704730B55E4C5E4D8BB0FF
:1015C000206840F00100206006A9206800F00100BA
:1015D00000900098079510200690022009900020A6
:1015E00008904FF0904000F0B3F8002200210A204C
:1015F00000F0D0F90A2000F0EAF9206840F002007B
:10160000206001A9206800F0020000900098029577
:10161000012001900220049000200390474800F030
:1016200097F800221146062000F0B4F9062000F0D9
:10163000CEF900200BB030BD10B5447884B000F076
:1016400011F800F067FA06E010B5447884B000F0B5
:1016500009F800F0C4FA18B1204600F063F8012040
:1016600004B010BD4FF480500092029001930A46DE
:10167000012321463248704730B5314C87B02046AF
:1016800000F035FB002844D12E482F4D606001A9A1
:101690003320A0600120E0602C482060686940F0A1
:1016A00002006861686900F00200009000984FF441
:1016B00040700190122002900220049000200390BC
:1016C000042005901D4800F043F8286A40F40010FB
:1016D00028620022286A00F400100090002100987F
:1016E000286840F400102860286820F40010286062
:1016F0001F2000F04FF91F2000F069F90022114669
:10170000202000F047F9202000F061F9204600F089
:1017100089F9204600F0EBFA01280CBF00200120D7
:1017200007B030BD80B5064800F0CAF9BDE80140F9
:10173000A2E700004C100240000011100004004815
:101740007C010020280ED0003810024000540040D8
:101750002DE9F8470022784BDFF8E081DFF8E091CF
:101760004FF00F0A30E005FA0EFE4EEA040448F886
:101770002C406FEA070C1C680CEA040E4C68E4036A
:1017800048BF47EA0E0EC3F800E05C680CEA040E9E
:101790004C68A40348BF47EA0E0EC3F804E09C68F7
:1017A0000CEA040E4C68E40248BF47EA0E0EC3F888
:1017B00008E0DC680CEA040C4C68A40248BF47EA65
:1017C0000C0CC3F80CC0521C0F6837FA02F400F07E
:1017D0009B804FF0010C0CFA02F42740F3D04D68C7
:1017E000022D18BF122D11D1D50800EB850C02F087
:1017F0000706DCF820504FEA860E0AFA0EF6B543CB
:101800000E6906FA0EF63543CCF820504FEA420C2A
:101810000326056806FA0CF66FEA060E0E7906F046
:1018200003060EEA050506FA0CF635430560E443A7
:101830004D68012D18BF022D03D0112D18BF122D98
:101840000FD18568CE680EEA050506FA0CF6354319
:10185000856045684E68C6F30016254096403543BE
:1018600045604D6805F00306032E06D1C66AC5F330
:10187000C005344095402C43C462C4680EEA040E8F
:101880008C6804FA0CF444EA0E04C4604C68E4006A
:1018900099D5D9F8004044F00104C9F800404FEA56
:1018A000920CD9F8004004F00104009402F0030502
:1018B000009C58F82C404FEA850E0AFA0EF5AC430E
:1018C000B0F1904F08BF00251DD01E4DA84208BFA3
:1018D000012518D01C4DA84208BF022513D01B4D6E
:1018E000A84208BF03250ED0194DA84208BF042501
:1018F00009D0184DA84208BF052504D0164DA842AE
:101900000CBF062507252EE7BDE8F18700690840D2
:1019100018BF0120C0B270470AB18161704781626F
:1019200070470E4A1368034200D1704780B51060BB
:1019300000F060FB01BD0000000401400800014010
:10194000601002400004004800080048000C0048F5
:10195000001000480014004800180048140401401A
:101960000901002806D5294A00F00F00801800F868
:10197000041C7047264A8154704726490A684FF66E
:10198000FF031A4000F0070042EA0020224A1043F9
:101990000860704770B51F4B1B68C3F30223012416
:1019A000C3F10705052D2EBF0F2504FA05F56D1EA1
:1019B0001E1D072E34BF0023DB1E2940994004FA68
:1019C00003F3BDE870405B1E1A401143C8E70121D4
:1019D00000F01F029140114AFFE7400942F8201031
:1019E000704710B5401EB0F1807F01D3012010BDBB
:1019F0000B4C60600F214FF0FF30FFF7B1FF00206C
:101A0000A06007202060002010BD000018ED00E05D
:101A100000E400E00CED00E00000FA0500E100E069
:101A200010E000E038B5050001D1012032BD05F11C
:101A30003404607818B92070284600F055F8022068
:101A40006070286801684908490001606868296871
:101A500020F0706008612868816821F4004181608D
:101A6000A86840B1E968012929680CBF40F400402A
:101A700040F404408860E868022803D129684FF4E4
:101A8000006048602868416841F0007100F038F853
:101A9000286969690843A96940EA01202968C86082
:101AA000E869296A0843296808602868016841F0E4
:101AB000010101600020606001206070002032BDE3
:101AC00010B508B9012010BD00F134040221617085
:101AD00001680A68520852000A6000F006F8002007
:101AE00060606070207010BD7047704719212846F3
:101AF00000F0B9B92868806900047047206841681F
:101B000041F400414160704753460022802128463D
:101B100000F058B92DE9F84F00F0C4F855D10A9FEC
:101B2000002F1CBF0B9C002C50D0FFF7E3FF4CD4C0
:101B30003078012849D001203070522000F0CAF8D6
:101B400000F0DDF840B17068042802D10020307048
:101B500034E00020307033E0FF2C4FF0FF0A00909B
:101B600006DD00F035F8494600F036F8D34606E0C9
:101B70004FF00073E2B2494600F02EF8A34600F0A1
:101B8000B2F8C0B9296817F8010BABF1010B641E5C
:101B9000BBF1000F8862A4B208D14CB14346FFF7F5
:101BA000B4FF68B9FF2C0090E2DDDAE7002CE6D143
:101BB000FFF79CFF30B17068042801D1012005E0D7
:101BC000032003E000F075F800E00220BDE8F28F8A
:101BD0004FF08073FF227047284600F0AEB92DE920
:101BE000F84F00F05FF85AD10A9F002F1CBF0B9CE2
:101BF000002C55D0FFF77EFF51D4307801284ED00D
:101C000001203070622000F065F800F09EF840B1CD
:101C10007068042802D10020307039E00020307054
:101C200038E0FF2C4FF410504FF0FF0A009006DD13
:101C3000FFF7CEFF4946FFF7CFFFD34606E04FF050
:101C40000073E2B24946FFF7C7FFA34643460022AE
:101C50000421FFF75CFFE8B92868ABF1010B406A8B
:101C600007F8010B641EBBF1000FA4B208D14CB100
:101C70004346FFF74AFF68B9FF2C0090DFDDD7E746
:101C8000002CE3D1FFF732FF30B17068042801D196
:101C9000012005E0032003E000F00BF800E0022043
:101CA000BDE8F28F054605F13406894670780128B3
:101CB00070472968064A2020C86128684168114099
:101CC00041600120707000203070704700000000FB
:101CD00000E800FE7070002070602846DDF830805B
:101CE000CDF8008070474146284600F0A1B890F832
:101CF00035007047416841F4804141607047F8B554
:101D000000F04FF84FF08073F2B200F048F800F0A6
:101D100018F818B1A06B042811D107E0012E07D0E4
:101D200000F036F820B1A06B042808D10120F2BDE4
:101D30002068EDB285623B4600F040F800B1032018
:101D4000F2BD069F3946204672E0F8B500F029F84A
:101D50000023F2B200F023F8FFF7F3FF18B1A06BF5
:101D6000042813D107E0012E07D000F011F820B1AC
:101D7000A06B04280AD10120F2BD2068EDB2856273
:101D80003B460022402100F016F800B10320F2BDCE
:101D90002168280A88623946204649E029462046BB
:101DA000CBE004464FF40050009015461E467047A5
:101DB00001224FF40041204604E019230022802133
:101DC0002046FFE72DE9F04104460D4690461E46A9
:101DD00000F052F9B8F1000F07460CD100F01FF8DF
:101DE0001AD016F1010FF9D08EB100F045F9C01BE1
:101DF0008642F3D20BE000F012F80DD116F1010F7C
:101E0000F9D026B100F038F9C01B8642F3D204F1B4
:101E1000340000F04DF800E00020BDE8F0812068BB
:101E200080692840C003C00BE903B0EBD13F704785
:101E300070B500F030F8064620688069800710D43D
:101E40002946204600F03AF808B1012070BD15F18E
:101E5000010FF1D025B100F00FF9801B8542EBD2C4
:101E60001DE0002070BD70B500F015F80646206832
:101E7000806980060DD42946204600F01FF808B17D
:101E8000012070BD25B100F0F7F8801B8542EED22D
:101E900005E0002070BD04460D4600F0EDB804F1E9
:101EA0003400416841F02001416000F001F870BD4C
:101EB000012141700021017003207047F8B5FFF740
:101EC000EAFF064620688169C9062FD504F1340768
:101ED000797812291FBF797852297978622904D13B
:101EE0004168890101D4FFF705FF206881698906EF
:101EF0000CD415F1010FF8D025B100F0BDF8801B0E
:101F00008542F2D200F014F80320F2BD1021C16125
:101F100020202168114AC861206841681140416051
:101F20000420786000F004F80120F2BD0020F2BD2A
:101F30000120787000203870704730B50068084D77
:101F400044682C40890554EA915141EA0241039AC0
:101F500019431143416030BD0000000000E800FE5D
:101F6000009800FC10B582B000208DF8000000F051
:101F70005BF800F093F8002000F0EAF8012100205F
:101F800000F020F9264C211D012000F07FF90128E6
:101F900003D1002000F000F9FEE7606800F018FAB5
:101FA000207890B1606800A900F03BFA58B99DF81C
:101FB000000040B1002000F0EFF8642000F05FF86E
:101FC000002000F0F4F800202070607838B16068DC
:101FD00000F00BFA18B90120E07000206070A078C2
:101FE0000028DDD0606800F00EFA0028D8D1E0703B
:101FF000A070D5E710B5B0F5005F094C0BD10020FB
:1020000000F020F958B9E078002819BF0120A0702D
:102010000120607010BD102804BF0120207010BD89
:102020001C010020FEE7000080B51A48016841F459
:10203000807101600320FFF7A0FC0F2000F005F87D
:1020400000F002F8002002BD704710B5044600F011
:1020500073FD4FF47A71B0FBF1F0FFF7C2FC002280
:1020600021464FF0FF30FFF795FC002010BD0A48D5
:102070000168491C0160704707480068704738B51F
:102080000446FFF7F9FF0546FFF7F6FF401BA042A5
:10209000FAD331BD00200240C001002000B595B048
:1020A00000A8142100F0AEFD0FF2640105A891EC28
:1020B000100B80EC100B1020059001200B9060207D
:1020C0000D9000200C9002200E9001200F90109097
:1020D00028201190022014900720129004201390C1
:1020E00005A800F0ADF908B1FFF79CFF0F200090A4
:1020F000042103200190002002900390049000A886
:1021000000F0B4FB08B1FFF78DFF15B000BD000073
:1021100000000000000000000000000000000000BF
:1021200000000000000000000000000000000000AF
:10213000000000000000000000000000000000009F
:10214000000000000000000000000000000000008F
:1021500010B586B0044600F086F83CB9DFF81001EF
:10216000016841F00101016000F010F80FF2101059
:1021700030F8140000F070F802200490DFF8F4004A
:1021800050F82400FFF7E4FA06B010BD006800F034
:1021900001000090009870470FF2E401DFF8D4309E
:1021A00031F8101053F820000122FFF7B5BB0FF2F1
:1021B000D001DFF8C03031F8101053F820000022B1
:1021C000FFF7AABB30B587B004460D4600F04BF8C8
:1021D00054B9DFF89C00016841F004010160006817
:1021E00000F0040000900098DFF88C000FF29401DA
:1021F0003DB931F8141001910021029100F01AF854
:1022000016E0012D14D131F814100191DFF86C1093
:102210000291002100F00EF80FF26C0030F814402B
:1022200000220F2160B2FFF7B5FB60B2FFF7CFFBD2
:1022300007B030BD03910221049101A950F8240098
:10224000FFF786BA0FF23C01DFF82C2031F81010AE
:1022500052F82000FFF75ABB019001A9012002901B
:1022600000200390704701A8142100F0CBBC0000AF
:102270004C1002402C0100203001002000002110F1
:1022800020000000002000002800000010B50C46CF
:102290000021216068B10128204610D000F04DF8DF
:1022A000012804D1204600F010F801280BD00020AE
:1022B00010BD204600F009F80128F8D103E000F035
:1022C0003CF80128F3D1012010BD38B5394D044642
:1022D000E878012830D0FFF767F901282CD0682072
:1022E0002870D620687000206880287101206871ED
:1022F00005F12800A8603048E860002028612F48D8
:10230000E86305F13800A8620020E8622560E8680B
:102310000168080004D11421284600F073FC07E08E
:1023200028468847012804D12068142100F06EFC5B
:102330004AE0FFF73FF9002032BD38B51D4D044695
:10234000E87D012834D0FFF72FF9012830D069202B
:102350002875D42068750120A8750020E8752876B6
:102360000120687605F13000E861154828621548BB
:10237000686205F1400028630020686305F11400DD
:102380002060286A0168080005D1142105F11400B5
:1023900000F038FC08E005F114008847012804D15A
:1023A0002068142100F032FC0EE0FFF705F9002050
:1023B00032BD00003801002094000020B801002048
:1023C000D80000200000002000202060012032BD45
:1023D00080B518B1C16889680A0001D1012002BD29
:1023E0008847012818BF002002BD00281CBF0169D2
:1023F000002906D00278692A03D109680A0018BFAB
:1024000008470120704700281CBF0169002906D039
:102410000278692A03D149680A0018BF08470120D9
:10242000704700281CBF0269002A07D031B1037829
:10243000692B03D19268130018BF10470120704721
:102440002DE9F047044682B02078DFF88857DFF89E
:102450008067C00625D5B06810F00C0F3AD13068FF
:10246000C0F3400010B1A069002831D030680007E7
:102470004EBF30686868000900F0F001206A8142B0
:1024800006D200F068FB002822D100F0DDF905E05B
:1024900000F0DAF9206A00F05EFBC8B90F20FFF700
:1024A000D4FD2078C00741F2893876D500F0D7FAFC
:1024B00007D000F0D9FA02BFF06800F0030003284B
:1024C0002ED100F0BDF9002867D06068002864D1E3
:1024D0000120A3E1A0690028306811D040F001007C
:1024E00000F0A5F907463068C0F3400028B9FFF7AF
:1024F000C3FDC01B6528F6D38DE100F0A5F9D0E738
:102500004008400000F093F907463068C0F34000EF
:102510000028C6D0FFF7B0FDC01B6528F5D37AE1CF
:1025200000F088F920F4802000F081F9074600F0DF
:1025300087F928B1FFF7A0FDC01B4045F7D36AE13A
:102540006068B0F5803F07D0B0F5A02F00F072F9B9
:1025500006D140F480203060306840F4803001E0E3
:1025600020F480203060606858B1FFF785FD074691
:1025700000F066F988B9FFF77FFDC01B4045F7D32F
:1025800049E1FFF779FD074600F05AF928B1FFF756
:1025900073FDC01B4045F7D33DE12078800718D577
:1025A00000F058FA07D000F05FFA02BFF06800F0C0
:1025B0000300022825D13068C0F3802010B1E06804
:1025C000002885D07068216920F0F85040EA016049
:1025D00070602078000748D560690028686834D0AA
:1025E00040F001006860FFF747FD07466868C0F3E8
:1025F0004000002839D1FFF73FFDC01B6528F5D307
:1026000009E1E068002830680FD040F4807000F0E5
:102610000EF907463068C0F380200028D2D1FFF7BA
:102620002BFDC01B6528F5D3F5E020F4807000F089
:10263000FEF807463068C0F380200028C9D0FFF7B5
:102640001BFDC01B6528F5D3E5E04008400068602D
:10265000FFF712FD07466868C0F3400028B1FFF796
:102660000BFDC01B6528F6D3D5E02078400773D555
:10267000B06DC0004FF000090AD4B06D40F080503A
:10268000B0654FF00109B06D00F0805000900098E7
:10269000DFF844A5DAF80000C00512D4DAF800002B
:1026A00040F48070CAF80000FFF7E6FC0746DAF84D
:1026B0000000C00505D4FFF7DFFCC01B6528F6D37A
:1026C000A9E0286800F0ACF82860FFF7D5FC0746C1
:1026D0002868C0F3400028B1FFF7CEFCC01B40457E
:1026E000F6D398E0A06801280CD008B928680DE05E
:1026F000052828680AD1400840002860286840F072
:1027000004002860286840F0010001E000F088F82B
:102710002860A06860B1FFF7AFFC07462868C0F3E7
:10272000400090B9FFF7A8FCC01B4045F6D372E00B
:10273000FFF7A2FC07462868C0F3400028B1FFF766
:102740009BFCC01B4045F6D365E0B9F1000F03D0F8
:10275000B06D20F08050B065606A00285DD0B1682F
:1027600001F00C010C293FF4B3AE0228306820F0D0
:10277000807030603AD1FFF77FFC07463068C0F3C5
:10278000406028B1FFF778FCC01B6528F6D342E013
:10279000E06A216B401E090241EA0010616B0909E1
:1027A00040EA4140A16A0843A16B891E0905490D11
:1027B00040EA4150E16B891E090601F07E41084361
:1027C000F060306840F080703060F06840F08070F9
:1027D000F060FFF751FC07463068C0F34060E0B995
:1027E000FFF74AFCC01B6528F6D314E0F068DFF859
:1027F000EC1380088000F060F0680840F060FFF79C
:102800003BFC07463068C0F3406030B1FFF734FC52
:10281000C01B6528F6D3032000E00020BDE8F68742
:10282000400840002860286820F0040070473060AD
:10283000FFF722BC306820F4803030603068704789
:102840003068C0F340407047306840F008003060A6
:102850003068216A20F0F000084330607068E16958
:1028600020F47F4040EA0120706070472DE9F84372
:10287000DFF86C53DFF85863044628680F4600F011
:102880000700B84241F289385BD2002F18BF012FF0
:1028900004D0022F1CBF032F042F04D12868C008C6
:1028A00047EAC00000E0286800F0C7F816D100F041
:1028B000E0F840F1A9806068022803D13168C1F3D3
:1028C00040410AE0032803D13168C1F3406104E0CC
:1028D0000028316803D1C1F3400121B992E0C1F36E
:1028E00080210029FAD000F0AEF805466068022881
:1028F00008D100F0B4F809D0FFF7BEFB401B4045FB
:10290000F7D36BE0032808D100F0AEF87CD0FFF7D6
:10291000B3FB401B4045F7D360E048B9B06810F006
:102920000C0F71D0FFF7A8FB401B4045F6D355E0D4
:1029300000F090F868D0FFF79FFB401B4045F7D3AD
:102940004CE000F096F84BD56068022803D131685E
:10295000C1F3404109E018B93168C1F3400104E016
:102960000328316803D1C1F3406121B94AE0C1F3C2
:102970008021002946D000F066F881466068022870
:1029800009D100F06CF82BD0FFF776FBA0EB090023
:102990004045F6D322E0032809D100F065F81FD0A6
:1029A000FFF76AFBA0EB09004045F6D316E060B9DB
:1029B000B06810F00C0F13D0FFF75EFBA0EB09001E
:1029C00041F288318842F3D308E000F043F807D0A1
:1029D000FFF752FBA0EB09004045F6D303202AE0A5
:1029E000002F18BF012F04D0022F1CBF032F042F6C
:1029F00004D12868C00847EAC00000E0286800F059
:102A00001CF801D0012016E02078400705D5B068F9
:102A1000E16820F4E0600843B0602078000706D544
:102A2000B068216920F4605040EAC100B0600F2016
:102A3000FFF70BFB0020BDE8F2832860286800F058
:102A40000700B8427047B168890840EA8100B06069
:102A5000FFF712BBB06800F00C0004287047B068A4
:102A600000F00C0008287047B06800F00C000C283B
:102A700070472078800705D5B068A16820F0F00085
:102A80000843B0602078C007704751498B68002226
:102A9000002003F00C03042B08BF534827D08B6899
:102AA00003F00C03082B08BF504820D08B6813F0AC
:102AB0000C0F09D08B6803F00C030C2B02BFCB6802
:102AC00003F00303012B12D10A68120704D4484A09
:102AD0001268C2F3032202E00A68C2F30312454BF4
:102AE00053F822208B6813F00C0F08BF10468B6838
:102AF00003F00C030C2B1ED1C868CB68C3F3021380
:102B00005B1C00F00300022802D0032802D005E07D
:102B1000354800E03548B0FBF3F001E0B2FBF3F0DC
:102B2000CA68C968C1F34161C2F30622491C504317
:102B30004900B0FBF1F0704780B5FFF7A6FF294BC5
:102B40002D4A1B682D49C3F303139A5C20FA02F344
:102B50000B60086802BD70B5294E82B0054630682A
:102B60000024C00002D500F055F80EE0306840F0B7
:102B700080503060306800F080500090009800F085
:102B800049F8316821F080513160B0F5007F04D1FF
:102B9000812D0DD3A12D06D209E0812D28BF03245C
:102BA00006D2802D01D1022402E0702D00D1012433
:102BB0000B480168C90844EAC1010160006800F0DF
:102BC0000700A04201D0012076BD002076BD0000A4
:102BD000001002409010024000700040FFFFEEFE27
:102BE00000200240081002400024F40000127A0085
:102BF00094100240B0340008A034000834010020D2
:102C000058100240002200F00DB80000002200F031
:102C100023B80000DFF80800006800F4C0607047C7
:102C20000070004000B500BF13009646944610396E
:102C300028BFA0E80C50FAD85FEA417C28BF0CC03E
:102C400048BF40F8042BC90728BF20F8022B48BF13
:102C500000F8012B00BD0000401810F0030308D05D
:102C6000C91A1FD3DB0748BF00F8012D28BF20F881
:102C7000022D130030B414461546103928BF20E940
:102C80003C00FAD8490728BF20E90C0048BF40F8AB
:102C9000042D890028BF20F8022D48BF00F8012D1F
:102CA00030BC7047C91818BF00F8012DCB0728BFEA
:102CB00000F8012D7047000038B50FF27C5100F08C
:102CC0001EF801281AD0DFF874042860402120463D
:102CD00000F091FB20B10021204600F061FB08B913
:102CE000012032BD0021204600F041F9012805D025
:102CF00000A9204600F08EF900F0C0F932BD0A6844
:102D0000044600A80260A0680568204600F023BAC7
:102D100038B50446FFF7F7FF012804D0204600F03D
:102D200015F800F0B1F932BD10B50446207901283C
:102D30000AD0A068006890ED000A204600F02AFA48
:102D4000012802D001202071002010BD10B50446DA
:102D5000207978B1A0680168204600F041F8012888
:102D600008D00021204600F01BFB08B9012010BD4F
:102D70000020207110BD00F0EAB900F0ECB93EB5BA
:102D800000F0B6F900F0FCF9012805D000A92046B2
:102D900000F00AF800F07EF93EBD1CB50C4600A913
:102DA00000F0EEF9ABE1000010B582B00C4600A9CE
:102DB00000F0E6FA90B19DF8000020B1102805D08F
:102DC000182806D008E09FED540ACCE09FED530A86
:102DD000FBE79FED530AF8E700F09EF9012016BDCE
:102DE00010B50C46816882B0096849680A78012AE2
:102DF00002D14868206019E000A900F0EAFA08B999
:102E0000012016BD9DF8000060B1202810D0402898
:102E100011D0602812D0802813D0A02814D0C02848
:102E200015D017E09FED8B0A84ED000A002016BD37
:102E3000B2EE040AF8E79FED880AF5E79FED870AEE
:102E4000F2E79FED870AEFE79FED860AECE79FED3B
:102E5000860AE9E700F060F9D2E780B50279012A35
:102E600011D151B1022906D007D3042901D002D3D0
:102E700007E0602102E0402100E0202100F090FA0C
:102E800090B9012002BD8068006851B1022906D0C6
:102E900007D3042901D002D3F3E7704903E06E4958
:102EA00001E0DFF88C130160002002BD80B50179DC
:102EB000012904D100F06EF901282BD102BD8068F0
:102EC0000068DFED6A0A00F033F948BFB2EE040A89
:102ED0001ED4DFED670A00F02BF948BF9FED5E0AB4
:102EE00016D400F023F948BF9FED5C0A10D4DFED43
:102EF000610A00F01DF948BF9FED590A08D4DFEDC3
:102F00005E0A00F015F94CBF9FED560A9FED560A78
:102F100080ED000A002002BD23DB793D23DBF93D73
:102F200023DB793E10B582B00C4600A900F028FAE8
:102F3000B8B19DF8000030B108280DD0102805D098
:102F4000182806D00BE0B0EE000A0CE0B1EE000A43
:102F5000FBE7B2EE000AF8E7B3EE000AF5E700F08F
:102F6000DBF8012016BD84ED000A002016BD80B5F7
:102F700019B1022904D001D304E01BE01021FCE7C1
:102F80001821FAE7012002BDDFED650A80B500F0E7
:102F9000CFF848BF00210DD4DFED620A00F0C8F879
:102FA00048BF102106D4DFED600A00F0C1F84CBF25
:102FB0001821082100F0C9F9401E8041C00F02BD50
:102FC00038B50D4604460DF1020100F087F950B105
:102FD0000DF10101204600F09AF920B100A9204628
:102FE00000F0ABF908B9012032BD9DF802000828B5
:102FF0000CBF0120002028709DF8010010280CBF94
:103000000120002068709DF8000020280CBF0120DE
:10301000002095E038B50D460446287801280CBFFD
:1030200008210021204600F044F940B168780128C9
:103030000CBF10210021204600F054F908B90120EE
:1030400032BDA87801280CBF20210021204600F0C5
:1030500062F978E000000000000048420000EE4203
:1030600000006E430000EE4300006E44010020416A
:103070000100484201006E430100EE43012802D0E6
:103080000120E07000207047012802D00020286055
:10309000E070704701282AD0BDF90400DDED000A78
:1030A00000EE100AB8EEC00A20EE200ABDEEC00AFB
:1030B00085ED000ABDF90600DDED000A00EE100AFC
:1030C000B8EEC00A20EE200ABDEEC00A85ED010A66
:1030D000BDF90800DDED000A00EE100AB8EEC00AE6
:1030E00020EE200ABDEEC00A85ED020A00207047DE
:1030F0000446002000900D4601A920467047012893
:1031000008D0BDF80000208000A841886180808838
:10311000A080002016BD0000DFF818012060704775
:10312000010000400100804001000041DFED2E0A57
:10313000B4EE600AF1EE10FA704700000000EE42B3
:10314000A870002032BD401E8041C00F32BD80B546
:1031500000F0A2F830E710B582B0044600208DF8E8
:10316000000000A92046FFF7F2FF012807D09DF8D4
:1031700000002178884201D0012016BD002016BD34
:103180001CB500F049F800F050F908B9012016BD4F
:103190002CE00000DFED240A80B5FFF7C9FF48BF2F
:1031A000202119D4DFED210AFFF7C2FF48BF4021DB
:1031B00012D4FFF7BBFF48BF60210DD4DFED090A31
:1031C000FFF7B6FF48BF802106D4DFED050AFFF701
:1031D000AFFF4CBFA021C02100F0E2F8ECE60000F8
:1031E0000100EE4301006E430100EE4200A8417869
:1031F0009DF80020090251FA82F1218082789DF821
:10320000031002EB0121618000799DF8051000EBAD
:103210000120A080002016BD0C4600A9002200233A
:103220000CC100A970470000010020410100484284
:1032300000002041000080BF0101010080B5012392
:10324000FEF702FA04E004B5012300AAFEF7F4F940
:10325000401E8041C00F02BDFFF7F0FF00B101200A
:1032600002BDFFF7EBFF20B1207800F008002070CE
:10327000012010BDFFF7E2FF20B1207800F0100020
:103280002070012010BDFFF7D9FF20B1207800F099
:1032900020002070012010BD80B50A460F21DBE719
:1032A0009DF8000000F0DF0028438DF80000024682
:1032B000704738B500F03BF830B100F006F81F2138
:1032C00000F07BF800B1012032BD9DF8000000F055
:1032D000F70028438DF800000246704710B500F053
:1032E00030F8BEE738B500F022F830B100F006F84B
:1032F0001F2100F062F800B1012032BD9DF80000EE
:1033000000F0EF0028438DF800000246704710B52A
:1033100000F017F8AEE738B500F009F830B1FFF764
:10332000BFFF1F2100F049F800B1012032BD0D465A
:10333000044600AA1F21FFF781BF10B500F001F875
:10334000A1E70C4622461F21704738B500F012F85D
:1033500030B100F006F8202100F02FF800B1012074
:1033600032BD9DF8000000F0E70028438DF8000012
:10337000024670470D46044600AA2021FFF75EBFB3
:1033800010B500F009F8FFF759FF20B1207800F0E0
:1033900018002070012010BD0C46224620217047E5
:1033A00038B5FFF7E7FF30B100F00AF8202100F050
:1033B00004F800B1012032BD06212046FFF743BFCB
:1033C0009DF8000000F01F0028438DF80000024621
:1033D000704710B5FFF7E0FFFFF730FF20B120780E
:1033E00000F0E0002070012010BD0D46044600AA48
:1033F0002221FFF723BF38B5FFF7F7FF30B100F008
:1034000006F82221FFF7D9FF00B1012032BD9DF857
:10341000000000F0BF0028438DF80000024670470E
:103420007219C9B24046FFF709BF2DE9F041804645
:103430000D46002603270224F6B206F12801FFF705
:10344000EFFF28B1761C641EF6D17F1EF3D1012058
:10345000BDE8F0810E480F4A016841F47001016037
:103460000D48016841F0010101600021816001689F
:10347000114001604FF40061C160016821F48021B6
:103480000160002181614FF00060044908607047CD
:1034900088ED00E0FFFFF6EA0010024008ED00E0D2
:1034A00000000000000000000102030406070809F4
:1034B000A0860100400D0300801A060000350C00B4
:1034C00040420F0080841E0000093D0000127A0077
:1034D0000024F40000366E010048E801006CDC02B4
:1034E00019E050F8041BCB0744BFA9F10103591898
:1034F000121F0023042A41F8043BF9D25FEA827CC0
:103500000B4604D54FF0000CA1F800C09B1CD1075E
:1035100044BF0021197050F8042B002AE1D17047F4
:1035200080B500F015F802000023DB4310689842D4
:1035300004D011000220ABBE0020106050689842F9
:1035400004D0111D0220ABBE0020506001BD000060
:10355000004870472401002010B450F8041B79B1D2
:103560000268436812180830DC0744BFA9F101045F
:10357000E31852F8044B43F8044B091FF9D1ECE768
:1035800010BC704710B5074979441831064C7C448B
:10359000163404E00A68081D511888470146A14204
:1035A000F8D110BD2C0000004C0000004EF68851F0
:1035B000CEF20001086840F470000860BFF34F8F3E
:1035C000BFF36F8F4FF00070E1EE100A70470000FC
:1035D00011FFFFFF8C0000003801002000000000F8
:1035E00079FFFFFF38010000D40100000000002037
:1035F0000000000000F00BF8002801D0FFF7C2FF28
:103600000020C046C046FEF7ADFC00F002F80120E5
:10361000704700F001B800000746384600F002F895
:10362000FBE7000080B5FFF77BFF024A110018207E
:10363000ABBEFBE7260002007047FEE77047FEF7CF
:1036400016BD1020FEF76DB94FF40050FEF769B9B2
:10365000014880470148004755340008613600089A
:10366000C046C046FFF7A2FFFFF7C4FFFFF7FEBF4B
:10367000FFF7FEBFFFF7FEBFFFF7FEBFFFF7FEBF7E
:10368000FFF7FEBFFFF7FEBFFFF7FEBFFFF7FEBF6E
:10369000FFF7FEBFFFF7FEBFFFF7FEBFFFF7FEBF5E
:1036A000FFF7FEBFFFF7FEBFFFF7FEBFFFF7FEBF4E
:1036B000FFF7FEBFFFF7FEBFFFF7FEBFFFF7FEBF3E
:1036C000FFF7FEBFFFF7FEBFFFF7FEBFFFF7FEBF2E
:1036D000FFF7FEBFFFF7FEBFFFF7FEBFFFF7FEBF1E
:1036E000FFF7FEBFFFF7FEBFFFF7FEBFFFF7FEBF0E
:1036F000FFF7FEBFFFF7FEBFFFF7FEBFFFF7FEBFFE
:10370000FFF7FEBFFFF7FEBFFFF7FEBFFFF7FEBFED
:10371000FFF7FEBFFFF7FEBFFFF7FEBFFFF7FEBFDD
:10372000FFF7FEBFFFF7FEBFFFF7FEBFFFF7FEBFCD
:10373000FFF7FEBFFFF7FEBFFFF7FEBFFFF7FEBFBD
:10374000FFF7FEBFFFF7FEBFFFF7FEBFFFF7FEBFAD
:10375000FFF7FEBFFFF7FEBFFFF7FEBFFFF7FEBF9D
:10376000FFF7FEBFFFF7FEBFFFF7FEBFFFF7FEBF8D
:10377000FFF7FEBFFFF7FEBFFFF7FEBFFFF7FEBF7D
:10378000FFF7FEBFFFF7FEBFFFF7FEBFFFF7FEBF6D
:10379000FFF7FEBFFFF7FEBFFFF7FEBFFFF7FEBF5D
:1037A000FFF7FEBFFFF7FEBFFFF7FEBFFFF7FEBF4D
:1037B000FFF7FEBFFFF7FEBFFFF7FEBF7D08000863
:1037C000CF080008F3080008130900081D090008C5
:1037D0006309000895090008BB090008C50900082D
:1037E000D1090008DD090008E7090008230A0008DC
:1037F0004B0A00086B0A0008AD0A0008CD0A000851
:10380000ED0A0008F70A00087D0B0008CF0B00083E
:10381000EF0B0008550C0008B10C0008D10C000893
:10382000DB0C0008E50C0008EF0C0008F90C0008A0
:10383000250D00083F0D00085F0D00087F0D0008F2
:103840009F0D0008BF0D0008DF0D0008FF0D0008E8
:10385000B92C0008112D0008292D00084D2D000855
:10386000772D00087B2D00087F2D00089B2D000878
:10387000A92D0008E12D00085B2E0008AD2E0008E0
:10388000252F00086F2F0008892F0008C12F00087E
:103890001530000889010008F301000851020008F2
:1038A0006F020008990200089D020008A1020008AA
:1038B000BD020008C90200080D030008A9030008A2
:1038C00005040008B90400083D0500085905000872
:1038D00091050008E5050008000100000000000057
:1038E000FFFFFFFFFFFFFFFF000000480008004848
:0438F00000093D008E
:0400000508000000EF
:00000001FF
