:020000040800F2
:10000000A808002049640008796300087B630008A1
:10001000716400087564000879640008000000003D
:100020000000000000000000000000007D640008E7
:100030007D63000800000000816400087F63000801
:1000400085640008896400088D64000891640008D4
:1000500095640008996400089D640008A164000884
:10006000A5640008A964000887630008AD6400085F
:10007000B1640008B5640008B9640008BD640008F4
:10008000C1640008C5640008C964000800000000DD
:10009000000000000000000000000000CD64000827
:1000A000D1640008D5640008D9640008DD64000844
:1000B000E1640008E5640008E9640008ED640008F4
:1000C000F1640008F5640008F9640008FD640008A4
:1000D00001650008056500080965000800000000CA
:1000E000916300080D65000811650008000000001C
:1000F000000000000000000000000000156500087E
:1001000000000000196500081D6500082165000851
:1001100000000000000000000000000000000000DF
:1001200025650008296500082D650008316500086F
:10013000356500080000000000000000000000001D
:100140000000000000000000000000003965000809
:100150003D650008416500084565000849650008DF
:100160004D65000851650008000000000000000017
:10017000000000000000000000000000000000007F
:1001800000000000556500080000000000000000AD
:100190005965000870B582B0040000A8DFF8A0150A
:1001A0000A680260A5682E68200000F0D8FA0128CD
:1001B00001D1012035E00421200001F027FA0028B8
:1001C00001D101202DE04021200001F042FA002859
:1001D00001D1012025E00021200001F055F900287F
:1001E00001D101201DE0DFF89406306000212000DD
:1001F00001F0D7F9002801D1012012E000212000F0
:1002000000F0E1F9012801D101200AE000A9200055
:1002100000F060FA012801D1012002E00120E07025
:10022000002076BD70B50400A5682E68200000F09F
:1002300096FA012801D101203CE0200000F07AFC70
:10024000012801D1012035E0200001F003F8012848
:1002500001D101202EE0200000F0E6FC012801D1B0
:10026000012027E0200000F076FE012801D10120C6
:1002700020E0200000F026FF012801D1012019E034
:10028000200000F070FD012801D1012012E02000C3
:1002900000F0CEFD012801D101200BE0200000F08C
:1002A00020F8012801D1012004E000203060002066
:1002B000E070002070BD70B50400A5682E6820793C
:1002C000012801D100200BE096ED000A200000F08B
:1002D000D7FA012801D1012002E00120207100207D
:1002E00070BD70B50400A5682E682079002801D182
:1002F000002012E03100200000F0A3F8012801D115
:1003000001200AE00021200001F04BF9002801D172
:10031000012002E000202071002070BD38B50400EB
:100320000D002900200000F00DFA32BD10B50400C8
:10033000200000F014FA10BD3EB504000D000020AE
:10034000009001A9200000F021FA012801D101202C
:1003500032E000A9200000F047F8012801D1012077
:100360002AE0BDF9040000EE100AB8EEC00ADDED87
:10037000000A20EE200ABDEEC00A85ED000ABDF994
:10038000060000EE100AB8EEC00ADDED000A20EE0D
:10039000200ABDEEC00A85ED010ABDF9080000EE95
:1003A000100AB8EEC00ADDED000A20EE200ABDEE0C
:1003B000C00A85ED020A00203EBD30B583B00400BE
:1003C0000D0000A9200000F0E1F9012801D1012071
:1003D00009E0BDF800002880BDF802006880BDF883
:1003E0000400A88000203EBD38B504000D0000A91F
:1003F000200001F0C4F8002801D1012020E09DF880
:100400000000002806D0042810D0082806D00C28A8
:1004100008D00FE0DFF84405286010E0DFF8400561
:1004200028600CE0DFF83C05286008E0DFF83805BC
:10043000286004E0DFF810062860012000E00020BA
:1004400032BD38B504000D0000A9200001F0CCF841
:10045000002801D101204FE09DF80000002816D0AF
:10046000102817D0202819D030281BD040281DD0A4
:1004700050281FD0602821D0702823D0802825D074
:10048000902827D0A02829D0B0282BD02EE00020FB
:10049000286030E0DFF8B40528602CE0DFF8B00514
:1004A000286028E0DFF8AC05286024E0DFF8CC0302
:1004B000286020E0DFF8A00528601CE0DFF89C053C
:1004C000286018E0DFF89805286014E0DFF8980548
:1004D000286010E0DFF8940528600CE0DFF8940550
:1004E000286008E0DFF89005286004E0DFF8580590
:1004F0002860012000E0002032BD38B504000D0066
:100500002079012808D12900C9B2200000F069F93A
:1005100001280AD1012009E02900C9B2200000F019
:1005200089F9012801D1012000E0002032BD10B579
:100530002DED028B0400B0EE408A2079012808D10D
:10054000B0EE480A200000F09BF901280AD10120F2
:1005500009E0B0EE480A200000F008FA012801D1B5
:10056000012000E00020BDEC028B10BD38B5040076
:100570000D0000A9200001F002F8002801D101209F
:1005800020E09DF80000002806D0042810D008289C
:1005900006D00C2808D00FE05FF08040286010E003
:1005A0005FF0814028600CE05FF08240286008E046
:1005B0005FF08340286004E0DFF88C0428600120AD
:1005C00000E0002032BD70B504000D00EDB2002D3A
:1005D00003D0022D07D003D308E00020060007E077
:1005E0000820060004E00C20060001E0012009E0DC
:1005F0003100C9B2200000F09FFF002801D1012086
:1006000000E0002070BD000038B52DED028B040025
:10061000B0EE408A9FED470AB4EE408AF1EE10FA40
:1006200001D5002512E09FED440AB4EE408AF1EEB8
:1006300010FA01D5082509E09FED400AB4EE408A82
:10064000F1EE10FA01D50C2500E004252900C9B20D
:10065000200000F071FF002801D1012000E00020FF
:10066000BDEC028B32BD38B504000D000DF1020166
:10067000200001F034F8002801D1012029E00DF11B
:100680000101200001F060F8002801D1012020E0E4
:1006900000A9200001F08DF8002801D1012018E008
:1006A0009DF80200082801D1012000E000202870F8
:1006B0009DF80100102801D1012000E000206870A1
:1006C0009DF80000202801D1012000E00020A87042
:1006D000002032BD38B504000D002878012801D172
:1006E000082100E00021C9B2200000F0D5FF002859
:1006F00001D101201CE06878012801D1102100E01F
:100700000021C9B2200000F0FCFF002801D1012027
:100710000EE0A878012801D1202100E00021C9B213
:10072000200001F023F8002801D1012000E0002082
:1007300032BD000001000040010080400100004186
:100740006C64000838B504000D002900200000F09A
:10075000E1FE002801D1012000E0002032BD10B5EB
:1007600082B0040000208DF8000000A92000FFF7EF
:10077000E9FF012801D1012007E09DF80000217860
:10078000884201D0012000E0002016BD30B583B0C2
:1007900004000D0000A80021002206C0083800A9AE
:1007A000200001F0A8FC002801D1012018E09DF8EC
:1007B000010000029DF8001050FA81F028809DF899
:1007C000030000029DF8021050FA81F068809DF845
:1007D000050000029DF8041050FA81F0A880002066
:1007E0003EBD70B504000D00EDB2002D06D0022D07
:1007F0000AD006D3042D0DD009D30EE01020060038
:100800000DE0102006000AE02020060007E030205E
:10081000060004E04020060001E0012009E031006C
:10082000C9B2200000F0BDFE002801D1012000E087
:10083000002070BD10B4020093681C68C9B2002982
:1008400006D002290AD006D304290DD009D30FE01F
:100850007E4820600EE07D4820600BE07C482060F0
:1008600008E07C48206005E0DFF8C002206001E07D
:10087000012000E0002010BC704700000000D042C2
:1008800038B52DED028B0400B0EE408A9FED750A5D
:10089000B4EE408AF1EE10FA01D5102551E09FED3B
:1008A000740AB4EE408AF1EE10FA01D5202548E032
:1008B0009FED720AB4EE408AF1EE10FA01D53025B0
:1008C0003FE09FED6F0AB4EE408AF1EE10FA01D5D9
:1008D000402536E09FED6B0AB4EE408AF1EE10FA47
:1008E00001D550252DE09FED690AB4EE408AF1EE66
:1008F00010FA01D5602524E09FED650AB4EE408A28
:10090000F1EE10FA01D570251BE09FED620AB4EEFE
:10091000408AF1EE10FA01D5802512E09FED5E0AC3
:10092000B4EE408AF1EE10FA01D5902509E09FED72
:100930005B0AB4EE408AF1EE10FA01D5A02500E082
:10094000B0252900C9B2200000F02BFE002801D1FB
:10095000012000E00020BDEC028B32BD23DB793D9D
:1009600023DBF93D23DB793E23DBF93E01008A6876
:100970001368DFED3C0AB4EE600AF1EE10FA02D51E
:10098000F2EE0A0A5BE0DFED3A0AB4EE600AF1EE3D
:1009900010FA02D5F3EE0A0A51E0DFED380AB4EEA0
:1009A000600AF1EE10FA02D5DFED2A0A47E0DFED2A
:1009B000340AB4EE600AF1EE10FA02D5DFED320A25
:1009C0003DE0DFED300AB4EE600AF1EE10FA02D538
:1009D000DFED210A33E0DFED2D0AB4EE600AF1EE1F
:1009E00010FA02D5DFED1D0A29E0DFED290AB4EE89
:1009F000600AF1EE10FA02D5DFED190A1FE0DFED13
:100A0000250AB4EE600AF1EE10FA02D5DFED160AFF
:100A100015E0DFED210AB4EE600AF1EE10FA02D51E
:100A2000DFED120A0BE0DFED1D0AB4EE600AF1EE15
:100A300010FA02D5DFED0F0A01E0DFED0F0AC3ED7A
:100A4000000A002070470000000080BF00005041F5
:100A50000000D04100005042000050430000D0434D
:100A600000405044010050410080CF4400205045D8
:100A70000100D0410020D0450048504601005042BE
:100A80000100D042010050430000D0420100D04399
:100A9000014050440180CF44012050450120D04501
:100AA00010B504009FED220A2000FFF740FD012849
:100AB00001D1012038E00021200000F03DFD002898
:100AC00001D1012030E00621200001F0F5F90028D5
:100AD00001D1012028E00021200001F0A4F9002824
:100AE00001D1012020E00021200001F079F9002847
:100AF00001D1012018E00021200001F04CF900286C
:100B000001D1012010E00321200000F04AF8012863
:100B100001D1012008E01021200001F083FA002813
:100B200001D1012000E0002010BD00000000D042F3
:100B30000000D04310B504000021200001F072FA3B
:100B4000002801D1012010E00021200001F0B4F9BB
:100B5000002801D1012008E00021200001F089F9DE
:100B6000002801D1012000E0002010BD38B50400AC
:100B70000D0000A9200000F086FE002801D1012010
:100B80000EE09DF80000002804D0202805D10120A7
:100B9000287004E00020287001E0012000E000201F
:100BA00032BD38B504000D002900C9B2200001F0A3
:100BB00060F9002801D1012000E0002032BD10B50D
:100BC0000400B3EE0A0A2000FFF7B1FC012801D1AE
:100BD000012028E00021200000F0AEFC002801D117
:100BE000012020E01721200000F082F8012801D127
:100BF000012018E00421200000F010FE002801D19F
:100C0000012010E04021200000F0A1FF002801D1C8
:100C1000012008E08021200000F059FC002801D1CB
:100C2000012000E0002010BD10B5040000212000CC
:100C300000F04DFC002801D1012018E00021200027
:100C400000F085FF002801D1012010E000212000E4
:100C500000F0E4FD002801D1012008E0002120007F
:100C600000F046F8012801D1012000E0002010BD6D
:100C700038B504000D0000A9200000F0B8FE0028DF
:100C800001D101200EE09DF80000002804D01028BA
:100C900005D10120287004E00020287001E0012027
:100CA00000E0002032BD38B504000D00290020000E
:100CB00001F04CFA002801D1012000E0002032BDF3
:100CC00010B504000221200000F085FD002801D1AC
:100CD000012000E0002010BD10B50400002120001C
:100CE00000F079FD002801D1012000E0002010BDB6
:100CF00038B504000D002900C9B2200001F051FAF6
:100D0000002801D1012000E0002032BD10B5040010
:100D1000B3EE0A0A2000FFF70AFC012801D10120E6
:100D200020E00021200000F007FC002801D1012074
:100D300018E00421200000F071FD002801D10120FD
:100D400010E02021200000F0DFFE002801D101206A
:100D500008E00221200001F0FCF8002801D1012068
:100D600000E0002010BD10B504000021200001F0BB
:100D7000F0F8002801D1012010E00021200000F04F
:100D8000C3FE002801D1012008E00021200000F06E
:100D900045FD002801D1012000E0002010BD38B53C
:100DA00004000D0000A9200000F033FE002801D14E
:100DB00001200EE09DF80000002804D0202805D175
:100DC0000120287004E00020287001E0012000E0EC
:100DD000002032BD10B504009FEDB90A2000FFF7D6
:100DE000A6FB012801D1012020E00021200000F015
:100DF000A3FB002801D1012018E00021200001F010
:100E000012F8002801D1012010E00221200000F09A
:100E10007AFF002801D1012008E02021200001F004
:100E200024F9002801D1012000E0002010BD0000BD
:100E300010B504000021200001F017F9002801D1AD
:100E4000012010E00021200000F0EDFF002801D17A
:100E5000012008E00021200000F055FF002801D10A
:100E6000012000E0002010BD38B504000D0000A9ED
:100E7000200000F0F6FC002801D101200EE09DF8D2
:100E80000000002804D0082805D10120287004E0C3
:100E90000020287001E0012000E0002032BD38B5BC
:100EA00004000D002900C9B2200000F02CFF00282A
:100EB00001D1012000E0002032BD000010B5040087
:100EC0009FED7F0A2000FFF732FB012801D10120AE
:100ED00040E00021200000F02FFB002801D101207C
:100EE00038E00821200000F0ECFD002801D10120AD
:100EF00030E00421200000F0C1FD002801D10120D4
:100F000028E00221200000F096FD002801D10120F8
:100F100020E00821200000F03CF9012801D1012047
:100F200018E00221200000F042F9012801D101203F
:100F300010E00121200000F048F9012801D1012032
:100F400008E04021200001F0B3F8002801D1012081
:100F500000E0002010BD10B504000021200001F0C9
:100F6000A7F8002801D1012030E00021200000F086
:100F700010F9012801D1012028E00021200000F013
:100F800016F9012801D1012020E00021200000F005
:100F90001CF9012801D1012018E00021200000F0F7
:100FA0004AFD002801D1012010E00021200000F0BE
:100FB00065FD002801D1012008E00021200000F09B
:100FC00080FD002801D1012000E0002010BD38B5CF
:100FD00004000D0000A9200000F079FC002801D1D8
:100FE00001200EE09DF80000002804D0202805D143
:100FF0000120287004E00020287001E0012000E0BA
:10100000002032BD10B504009FED2D0A2000FFF72F
:101010008EFA012801D1012050E00021200000F0CB
:101020008BFA002801D1012048E00821200000F0BF
:1010300048FD002801D1012040E00421200000F0FB
:101040001DFD002801D1012038E00221200000F020
:10105000F2FC002801D1012030E00821200000F03E
:1010600098F8012801D1012028E00321200000F098
:101070009EF8012801D1012020E00321200000F08A
:10108000A4F8012801D1012018E00821200000F077
:10109000AAF8012801D1012010E08021200000F0F1
:1010A00057FE002801D1012008E00821200000F0AF
:1010B00096FF002801D1012000E0002010BD0000B3
:1010C0000000D04310B504000021200000F087FF8D
:1010D000002801D1012040E00021200000F059F853
:1010E000012801D1012038E00021200000F05FF844
:1010F000012801D1012030E00021200000F065F836
:10110000012801D1012028E00021200000F06BF827
:10111000012801D1012020E00021200000F018FE6C
:10112000002801D1012018E00021200000F083FCFC
:10113000002801D1012010E00021200000F09EFCD9
:10114000002801D1012008E00021200000F0B9FCB6
:10115000002801D1012000E0002010BD38B50400B6
:101160000D0000A9200000F0A0FB002801D1012003
:101170000EE09DF80000002804D0102805D10120C1
:10118000287004E00020287001E0012000E0002029
:1011900032BD38B504000D002900C9B2200000F0AE
:1011A000F9FC002801D1012000E0002032BD38B553
:1011B00004000D002900C9B2200000F033FD002812
:1011C00001D1012000E0002032BD38B504000D003F
:1011D0002900C9B2200000F04AFD002801D10120F9
:1011E00000E0002032BD38B504000D002900C9B26E
:1011F000200000F062FD002801D1012000E0002065
:1012000032BD000010B504009FED110A2000FFF769
:101210008EF9012801D1012018E00021200000F002
:101220008BF9002801D1012010E04021200000F0BE
:10123000D6FC002801D1012008E00421200000F0A4
:10124000ABFE002801D1012000E0002010BD00000D
:101250000000D04310B504000021200000F09CFEE7
:10126000002801D1012008E00021200000F0B7FC97
:10127000002801D1012000E0002010BD38B5040095
:101280000D0000A9200000F0A0FB002801D10120E2
:101290000EE09DF80000002804D0402805D1012070
:1012A000287004E00020287001E0012000E0002008
:1012B00032BD38B504000D0000A9200000F019FB74
:1012C000002801D101200EE09DF80000002804D084
:1012D000012805D10120287004E00020287001E0D9
:1012E000012000E0002032BD38B504000D0000A947
:1012F000200000F010FB002801D101200EE09DF835
:101300000000002804D0022805D10120287004E044
:101310000020287001E0012000E0002032BD38B537
:1013200004000D0000A9200000F007FB002801D1F7
:1013300001200EE09DF80000002804D0042805D10B
:101340000120287004E00020287001E0012000E066
:10135000002032BD38B504000D0000A9200000F0C7
:10136000FEFA002801D101200EE09DF800000028BF
:1013700004D0082805D10120287004E0002028703E
:1013800001E0012000E0002032BD38B504000D006E
:1013900000A9200000F0F5FA002801D101200EE09C
:1013A0009DF80000002804D0102805D101202870E5
:1013B00004E00020287001E0012000E0002032BDA0
:1013C00038B504000D0000A9200000F0ECFA002858
:1013D00001D101200EE09DF80000002804D0202853
:1013E00005D10120287004E00020287001E00120D0
:1013F00000E0002032BD0268531C0360117070478A
:1014000070B504000D001600012332002900C9B296
:10141000200000F052FF002801D0002000E0012051
:1014200070BD34B504000D00012300AA2900C9B223
:10143000200000F02BFF002801D0002000E0012058
:1014400032BD38B504000D0000AA01212000FFF7CD
:10145000D7FF002801D1002015E09DF8000010F012
:101460007F008DF800009DF8000028438DF80000F3
:101470009DF8002001212000FFF7D3FF002801D1B3
:10148000002000E0012032BD38B504000D0000AAA4
:101490000A212000FFF7B4FF002801D1002015E049
:1014A0009DF8000010F0F8008DF800009DF8000095
:1014B00028438DF800009DF800200A212000FFF746
:1014C000B0FF002801D1002000E0012032BD38B576
:1014D00004000D0000AA0D212000FFF791FF002855
:1014E00001D1002015E09DF8000010F07F008DF87C
:1014F00000009DF8000028438DF800009DF80020B2
:101500000D212000FFF78DFF002801D1002000E011
:10151000012032BD38B504000D002A000F21200043
:10152000FFF76EFF002801D1002004E02878287022
:1015300028782870012032BD38B504000D0000AABB
:1015400010212000FFF75CFF002801D1002015E0EA
:101550009DF8000010F0F3008DF800009DF80000E9
:1015600028438DF800009DF8002010212000FFF78F
:1015700058FF002801D1002000E0012032BD38B51D
:1015800004000D002A0010212000FFF739FF002879
:1015900001D1002004E0287810F00C002870012010
:1015A00032BD38B504000D0000AA10212000FFF75D
:1015B00027FF002801D1002015E09DF8000010F061
:1015C0000F008DF800009DF8000028438DF8000002
:1015D0009DF8002010212000FFF723FF002801D1F3
:1015E000002000E0012032BD38B504000D002A00C3
:1015F00010212000FFF704FF002801D1002004E0A3
:10160000287810F0F0002870012032BD38B50400B1
:101610000D0000AA12212000FFF7F2FE002801D1E0
:10162000002015E09DF8000010F0FB008DF8000090
:101630009DF8000028438DF800009DF8002012213D
:101640002000FFF7EEFE002801D1002000E001207D
:1016500032BD38B504000D0000AA12212000FFF7AA
:10166000CFFE002801D1002015E09DF8000010F009
:10167000BF008DF800009DF8000028438DF80000A1
:101680009DF8002012212000FFF7CBFE002801D199
:10169000002000E0012032BD38B504000D0000AA92
:1016A00018212000FFF7ACFE002801D1002015E032
:1016B0009DF8000010F0F7008DF800009DF8000084
:1016C00028438DF800009DF8002018212000FFF726
:1016D000A8FE002801D1002000E0012032BD38B56D
:1016E00004000D002A0018212000FFF789FE0028C1
:1016F00001D1002004E0287810F0080028700120B3
:1017000032BD38B504000D0000AA18212000FFF7F3
:1017100077FE002801D1002015E09DF8000010F0B0
:10172000EF008DF800009DF8000028438DF80000C0
:101730009DF8002018212000FFF773FE002801D13A
:10174000002000E0012032BD38B504000D002A0061
:1017500018212000FFF754FE002801D1002004E0EA
:10176000287810F010002870012032BD38B5040030
:101770000D0000AA18212000FFF742FE002801D129
:10178000002015E09DF8000010F0DF008DF800004B
:101790009DF8000028438DF800009DF800201821D6
:1017A0002000FFF73EFE002801D1002000E00120CC
:1017B00032BD38B504000D002A0018212000FFF7C3
:1017C0001FFE002801D1002004E0287810F020003E
:1017D0002870012032BD38B504000D0000AA19217F
:1017E0002000FFF70DFE002801D1002015E09DF834
:1017F000000010F0FD008DF800009DF80000284367
:101800008DF800009DF8002019212000FFF709FE47
:10181000002801D1002000E0012032BD38B50400CD
:101820000D0000AA19212000FFF7EAFD002801D1D0
:10183000002015E09DF8000010F0FB008DF800007E
:101840009DF8000028438DF800009DF80020192124
:101850002000FFF7E6FD002801D1002000E0012074
:1018600032BD38B504000D002A001B212000FFF70F
:10187000C7FD002801D1002004E0287810F00800FE
:101880002870012032BD38B504000D002A001B214C
:101890002000FFF7B5FD002801D1002004E02878E2
:1018A00010F020002870012032BD38B504000D0072
:1018B0002A001C212000FFF7A3FD002801D10020F1
:1018C00004E0287810F010002870012032BD38B5EF
:1018D00004000D002A001C212000FFF791FD0028C4
:1018E00001D1002004E0287810F0200028700120A9
:1018F00032BD38B504000D002A001D212000FFF77D
:101900007FFD002801D1002004E0287810F00100BC
:101910002870012032BD38B504000D002A001D21B9
:101920002000FFF76DFD002801D1002004E0287899
:1019300010F002002870012032BD38B504000D00FF
:101940002A001D212000FFF75BFD002801D10020A7
:1019500004E0287810F004002870012032BD38B56A
:1019600004000D002A001D212000FFF749FD00287A
:1019700001D1002004E0287810F008002870012030
:1019800032BD38B504000D002A001D212000FFF7EC
:1019900037FD002801D1002004E0287810F0100065
:1019A0002870012032BD38B504000D002A001D2129
:1019B0002000FFF725FD002801D1002004E0287851
:1019C00010F020002870012032BD38B504000D0051
:1019D0002A001D212000FFF713FD002801D100205F
:1019E00004E0287810F040002870012032BD38B59E
:1019F00004000D002A0053212000FFF701FD0028FC
:101A000001D1002004E0287810F010002870012097
:101A100032BD38B504000D002A0053212000FFF725
:101A2000EFFC002801D1002004E0287810F020000D
:101A30002870012032BD38B504000D0000AA5821DD
:101A40002000FFF7DDFC002801D1002015E09DF803
:101A5000000010F0FD008DF800009DF80000284304
:101A60008DF800009DF8002058212000FFF7D9FCD8
:101A7000002801D1002000E0012032BD38B504006B
:101A80000D0000AA58212000FFF7BAFC002801D160
:101A9000002015E09DF8000010F0FB008DF800001C
:101AA0009DF8000028438DF800009DF80020582183
:101AB0002000FFF7B6FC002801D1002000E0012043
:101AC00032BD38B504000D0000AA58212000FFF7F0
:101AD00097FC002801D1002015E09DF8000010F0CF
:101AE000F7008DF800009DF8000028438DF80000F5
:101AF0009DF8002058212000FFF793FC002801D119
:101B0000002000E0012032BD38B504000D0000AA1D
:101B100058212000FFF774FC002801D1002015E0B7
:101B20009DF8000010F0DF008DF800009DF8000027
:101B300028438DF800009DF8002058212000FFF771
:101B400070FC002801D1002000E0012032BD38B532
:101B500004000D0000AA58212000FFF751FC0028C6
:101B600001D1002015E09DF8000010F0BF008DF8B5
:101B700000009DF8000028438DF800009DF800202B
:101B800058212000FFF74DFC002801D1002000E083
:101B9000012032BD38B504000D0015F01F0500AA64
:101BA00059212000FFF72CFC002801D1002015E06E
:101BB0009DF8000010F0E0008DF800009DF8000096
:101BC00028438DF800009DF8002059212000FFF7E0
:101BD00028FC002801D1002000E0012032BD38B5EA
:101BE00004000D0000AA59212000FFF709FC00287D
:101BF00001D1002015E09DF8000010F09F008DF845
:101C000000009DF8000028438DF800009DF800209A
:101C100059212000FFF705FC002801D1002000E039
:101C2000012032BD38B504000D0015F0030500AAEF
:101C30005A212000FFF7E4FB002801D1002015E025
:101C40009DF8000010F0FC008DF800009DF80000E9
:101C500028438DF800009DF800205A212000FFF74E
:101C6000E0FB002801D1002000E0012032BD38B5A2
:101C700004000D00AD0015F00C0500AA5A2120004B
:101C8000FFF7BEFB002801D1002015E09DF8000001
:101C900010F0F3008DF800009DF8000028438DF847
:101CA00000009DF800205A212000FFF7BAFB002811
:101CB00001D1002000E0012032BD38B504000D0044
:101CC0002D0115F0F00500AA5A212000FFF798FB1E
:101CD000002801D1002015E09DF8000010F00F0051
:101CE0008DF800009DF8000028438DF800009DF855
:101CF00000205A212000FFF794FB002801D100208A
:101D000000E0012032BD38B504000D0015F03F059C
:101D100000AA5B212000FFF773FB002801D10020FF
:101D200015E09DF8000010F0C0008DF800009DF84F
:101D3000000028438DF800009DF800205B21200062
:101D4000FFF76FFB002801D1002000E0012032BD29
:101D500038B504000D0000AA5B212000FFF750FBFE
:101D6000002801D1002015E09DF8000010F07F0050
:101D70008DF800009DF8000028438DF800009DF8C4
:101D800000205B212000FFF74CFB002801D1002040
:101D900000E0012032BD38B504000D0015F00F053C
:101DA00000AA5C212000FFF72BFB002801D10020B6
:101DB00015E09DF8000010F0F0008DF800009DF88F
:101DC000000028438DF800009DF800205C212000D1
:101DD000FFF727FB002801D1002000E0012032BDE1
:101DE00038B504000D0000AA5C212000FFF708FBB5
:101DF000002801D1002015E09DF8000010F0EF0050
:101E00008DF800009DF8000028438DF800009DF833
:101E100000205C212000FFF704FB002801D10020F6
:101E200000E0012032BD38B504000D006D0115F051
:101E3000600500AA5C212000FFF7E2FA002801D12A
:101E4000002015E09DF8000010F09F008DF80000C4
:101E50009DF8000028438DF800009DF800205C21CB
:101E60002000FFF7DEFA002801D1002000E0012069
:101E700032BD38B504000D0000AA5D212000FFF737
:101E8000BFFA002801D1002015E09DF8000010F0F5
:101E9000F8008DF800009DF8000028438DF8000040
:101EA0009DF800205D212000FFF7BBFA002801D13A
:101EB000002000E0012032BDF8B504000D0015F04F
:101EC0001F000700C5F340100600FF0017F0F807D9
:101ED00000AA5D212000FFF793FA002801D100201D
:101EE00036E09DF8000010F007008DF800009DF826
:101EF000000038438DF800009DF800205D2120008F
:101F0000FFF78FFA002801D1002021E0F60116F03A
:101F1000800600AA5C212000FFF772FA002801D198
:101F2000002015E09DF8000010F07F008DF8000003
:101F30009DF8000030438DF800009DF800205C21E2
:101F40002000FFF76EFA002801D1002000E00120F8
:101F5000F2BD38B504000D0000AA5E212000FFF795
:101F60004FFA002801D1002015E09DF8000010F084
:101F7000FD008DF800009DF8000028438DF800005A
:101F80009DF800205E212000FFF74BFA002801D1C8
:101F9000002000E0012032BD38B504000D0000AA89
:101FA0005E212000FFF72CFA002801D1002015E067
:101FB0009DF8000010F0FB008DF800009DF8000077
:101FC00028438DF800009DF800205E212000FFF7D7
:101FD00028FA002801D1002000E0012032BD38B5E8
:101FE00004000D0000AA5E212000FFF709FA002876
:101FF00001D1002015E09DF8000010F0F7008DF8E9
:1020000000009DF8000028438DF800009DF8002096
:102010005E212000FFF705FA002801D1002000E032
:10202000012032BD38B504000D0000AA5E21200059
:10203000FFF7E6F9002801D1002015E09DF8000027
:1020400010F0EF008DF800009DF8000028438DF897
:1020500000009DF800205E212000FFF7E2F9002833
:1020600001D1002000E0012032BD38B504000D0090
:1020700000AA5E212000FFF7C3F9002801D100204B
:1020800015E09DF8000010F0DF008DF800009DF8CD
:10209000000028438DF800009DF800205E212000FC
:1020A000FFF7BFF9002801D1002000E0012032BD78
:1020B00038B504000D0000AA5E212000FFF7A0F94A
:1020C000002801D1002015E09DF8000010F0BF00AD
:1020D0008DF800009DF8000028438DF800009DF861
:1020E00000205E212000FFF79CF9002801D100208C
:1020F00000E0012032BD2DE9F84304000D0002206C
:1021000081460020804600200600F6B2032E1ADA2F
:1021100000200700FFB25FFA89F94F4511D25FFA3C
:1021200088F818EB050218F12801C9B22000FFF762
:1021300067F9002801D1002006E018F101087F1C92
:10214000E8E7761CE1E70120BDE8F2832DE9F843DA
:1021500004000D0002208146002080460020060079
:10216000F6B2002E1AD100200700FFB25FFA89F9FB
:102170004F4511D25FFA88F818EB050218F14B01B0
:10218000C9B22000FFF73CF9002801D1002006E089
:1021900018F101087F1CE8E7761CE1E70120BDE8A3
:1021A000F28338B504000D0080212000FFF749F9C3
:1021B00000AA0F212000FFF723F99DF8000010F07E
:1021C000E0008DF800009DF8000015F01F010843A5
:1021D0008DF800009DF800200F212000FFF721F965
:1021E00000212000FFF72DF9012032BD80B500F05D
:1021F0007BF8002801D0012000E0002002BD002073
:10220000704700B58BB09C48006850F001009A49B7
:1022100008609948006810F00100009000981020B4
:10222000069096480790022009900020089006A981
:10223000934800F035F9002200210A2000F0BCFA92
:102240000A2000F0CCFA8C48006850F002008A495D
:1022500008608948006810F0020000900098012092
:10226000019086480290022004900020039001A96A
:10227000844800F015F900220021062000F09CFAA5
:10228000062000F0ACFA00200BB000BD2DE9F041B3
:1022900004000D0016001F00A0463B009BB2320058
:1022A0002900C9B298F8010000F042F8002801D0D6
:1022B000012000E00020BDE8F0812DE9F04104009C
:1022C0000D0016001F00A0463B009BB23200290003
:1022D000C9B298F8010000F055F8002801D001209B
:1022E00000E00020BDE8F08180B5674800F004FD03
:1022F000002814D16548644948600020624988601C
:1023000033206149C8604FF480405F4908616048EC
:102310005D49086000F068F85B4800F07DFA5A48B3
:1023200000F0EAFC012801D1002000E0012002BDFC
:102330002DE9F04184B004000D0016001F005FF08D
:102340000008544800680290380080B2019000965E
:102350000123EDB22A0092B2E4B2210089B24A48C8
:1023600000F00CFB80465FFA88F8B8F1000F05D04A
:102370002000C0B200F030F8012000E0002004B0DE
:10238000BDE8F0812DE9F04184B004000D00160095
:102390001F005FF000083F4800680290380080B2DC
:1023A000019000960123EDB22A0092B2E4B221001E
:1023B00089B2354800F074FB80465FFA88F8B8F1BE
:1023C000000F05D02000C0B200F006F8012000E0A8
:1023D000002004B0BDE8F08110B504002A4800F0E8
:1023E000AAFAFFF781FF10BD00B587B02248006848
:1023F00050F00200204908601F48006810F00200F9
:10240000009000984FF4407001901220029002203A
:102410000490002003900420059001A9194800F0C1
:102420003FF81D48006850F400101B4908601A4826
:10243000006810F40010009000981848006850F4EC
:102440000010164908601548006830F40010134960
:102450000860002200211F2000F0AEF91F2000F0CC
:10246000BEF900220021202000F0A6F9202000F073
:10247000B6F907B000BD000030380240000011106E
:102480000000024000040240E8030020801A060019
:1024900000540040A401002040380240203802408F
:1024A000F8B400230024002500263200102A80F012
:1024B000D6800126964033000E681E4034009C42B0
:1024C00040F0CB804E68022E02D04E68122E16D1FC
:1024D000D60810EB8606366A35000F2612F007077D
:1024E000FFB2BF00BE40B5430E6912F00707FFB24E
:1024F000BF00BE403543D60810EB8606356206683D
:10250000350003261700FFB27F00BE40B5430E79A9
:1025100016F003061700FFB27F00BE40354305608A
:102520004E68012E08D04E68022E05D04E68112E3E
:1025300002D04E68122E19D1866835000326170086
:10254000FFB27F00BE40B543CE681700FFB27F00E8
:10255000BE40354385604668350001269640B54348
:102560004E68C6F30016964035434560C668350090
:1025700003261700FFB27F00BE40B5438E681700E8
:10258000FFB27F00BE403543C5604E68F60064D59B
:10259000464E366856F48046444F3E60434E366899
:1025A00016F480460096009E414E970856F8276024
:1025B00035000F2612F00307FFB2BF00BE40B5433F
:1025C0003C4EB04201D1002614E03B4EB04201D156
:1025D00001260FE0394EB04201D102260AE0384E02
:1025E000B04201D1032605E0364EB04201D10426A7
:1025F00000E00526F6B212F00307FFB2BF00BE40AE
:1026000035432B4E970846F827502F4E3668350035
:10261000A5434E68F60300D525432B4E35602B4E5F
:1026200036683500A5434E68B60300D52543274ECE
:102630003560274E36683500A5434E68F60200D552
:102640002543234E3560234E36683500A5434E683A
:10265000B60200D525431F4E3560521C26E7F1BC5B
:1026600070470200136989B20B4202D0012318009F
:1026700001E000231800C0B27047D2B2002A02D095
:1026800089B2816102E089B20B048361704710B5A1
:10269000040011480068A4B2204206D0A4B20E483B
:1026A0000460200080B200F0FBFD10BD4438024001
:1026B00008380140000002400004024000080240C7
:1026C000000C024000100240003C0140043C01406C
:1026D000083C01400C3C0140143C014010F0070252
:1026E000454B1B6819004FF6FF031940434B53EA53
:1026F00002231943404B196070473F480068C0F3FC
:1027000002207047012110F01F0291403C4A40B264
:10271000430942F82310704710B440B2002808D58E
:102720000A01384B40B210F00F04E31803F8042CF0
:1027300003E00A01344B40B2C25410BC704770B47D
:10274000030013F00704D4F10706052E01D304207B
:1027500001E0D4F10700261D072E01D2002500E07C
:10276000E51E012616FA00F0401E0840A84001218F
:10277000A940491E1140084370BC704710B50400C1
:10278000601EB0F1807F01D301200EE0601E1F4962
:1027900008600F215FF0FF30FFF7BEFF00201C49EB
:1027A000086007201B490860002010BD10B5040018
:1027B0002000FFF793FF10BDF8B504000D001600D0
:1027C0000027FFF79AFF0700320029003800FFF7C3
:1027D000B6FF0100200040B2FFF79EFFF1BD10B52B
:1027E0000400200040B2FFF78DFF10BD10B50400BB
:1027F0002000FFF7C3FF10BD0CED00E00000FA055C
:1028000000E100E018ED00E000E400E014E000E08A
:1028100018E000E010E000E070B50400002500269C
:10282000002C01D1012085E094F83500002805D165
:10283000002084F83400200000F099F8022084F889
:10284000350020680068400840002168086001F0F9
:10285000DCF80600DFF81C01B6FBF0F0050020688C
:1028600045606068DFF81011884201D2681C08E0FA
:102870004FF4967000FB05F04FF47A71B0FBF1F065
:10288000401C216808626068DFF8EC1088420ED2B4
:1028900060684000B6FBF0F00005000D042801D28E
:1028A00004202AE060684000B6FBF0F025E0A06854
:1028B000002805D1606803214843B6FBF0F006E02C
:1028C000606819214843B6FBF0F050F480400005E1
:1028D00001D1012011E0A068002805D16068032122
:1028E0004843B6FBF0F006E0606819214843B6FBA8
:1028F000F0F050F4804050F400402168C861E06975
:10290000216A0843216808602069E168084321685A
:1029100088606069A16908432168C8602068006810
:1029200050F00100216808600020A063012084F8B5
:102930003500002070BD10B50400002C01D101202D
:1029400014E0022084F83500206800684008400048
:1029500021680860200000F00BF80020A063002030
:1029600084F83500002084F83400002010BD704742
:102970007047000040420F00A18601002DE9F0479A
:1029800082B005000E0017009846DDF828900B9CD9
:10299000DDF830A095F8350001287CD1B9F1000FA1
:1029A00002D0A4B2002C01D1012075E042F21073D4
:1029B0000122DFF84013280000F092FA002801D02D
:1029C000022069E095F83400012801D1022063E07B
:1029D000012085F834002868006830F40060296818
:1029E0000860322085F835000020A863CDF800A0EB
:1029F00043469BB23A0092B2310089B2280000F0FF
:102A000081F900280CD0A86B042804D1002085F897
:102A10003400012040E0002085F8340003203BE032
:102A2000A4B2002C1FD0534600221C49280000F0FD
:102A300057FA002801D003202EE099F800002968F9
:102A4000086119F10109641E286840694007E7D54B
:102A5000A4B2002CE4D099F800002968086119F1AB
:102A60000109641EDCE7534600220C49280000F0EF
:102A700037FA002801D003200EE02868006850F4DF
:102A8000007029680860012085F83500002085F86D
:102A90003400002000E00220BDE8F687800001003D
:102AA0002DE9F04782B005000E0017009846DDF8CA
:102AB00028900B9CDDF830A095F83500012840F0F7
:102AC0001481B9F1000F02D0A4B2002C01D1012071
:102AD0000CE142F210730122DFF81812280000F016
:102AE000FFF9002801D0022000E195F83400012808
:102AF00001D10220FAE0012085F83400286800683E
:102B000030F4006029680860422085F83500002014
:102B1000A863CDF800A043469BB23A0092B23100C0
:102B200089B2280000F049F900280CD0A86B0428CD
:102B300004D1002085F834000120D7E0002085F87A
:102B400034000320D2E0A4B2012C13D1286800681D
:102B500030F480602968086028684069009028681F
:102B60008069009000982868006850F40070296817
:102B700008601DE0A4B2022C13D12868006830F46C
:102B80008060296808602868006850F4006029683F
:102B90000860286840690090286880690090009863
:102BA00006E02868406900902868806900900098D5
:102BB000A4B2002C00F09180A4B2042C6FDAA4B26D
:102BC000012C11D1534600224949280000F088F910
:102BD000002801D0032089E02868006989F80000F6
:102BE00019F10109641EE3E7A4B2022C1FD1534678
:102BF0000022DFF80C11280000F072F9002801D043
:102C0000032073E02868006850F4007029680860A9
:102C10002868006989F8000019F10109641E286814
:102C2000006989F8000019F10109641EC0E75346E4
:102C30000022DFF8CC10280000F052F9002801D063
:102C4000032053E02868006830F480602968086039
:102C50002868006989F8000019F10109641E5346CB
:102C60000022DFF89C10280000F03AF9002801D07B
:102C700003203BE02868006850F400702968086071
:102C80002868006989F8000019F10109641E2868A4
:102C9000006989F8000019F10109641E88E75346AC
:102CA00000221349280000F01BF9002801D003205E
:102CB0001CE02868006989F8000019F10109641E08
:102CC0002868406940077FF573AF2868006989F874
:102CD000000019F10109641E6AE7012085F835003A
:102CE000002085F83400002000E00220BDE8F687CF
:102CF000400001000200100090F83500704700000D
:102D0000040001002DE9F04182B004000D0016001E
:102D10001F00DDF820802068006850F48070216872
:102D20000860434600225FF00111200000F0D8F84F
:102D3000002801D003203EE015F0FE002168086164
:102D400042466549200000F038F9002806D0A06B03
:102D5000042801D101202EE003202CE020684069E6
:102D600000902068806900900098434600225B49EB
:102D7000200000F0B5F8002801D003201BE0BFB20E
:102D8000012F04D13000C0B22168086112E0B6B250
:102D9000300AC0B221680861434600224F49200032
:102DA00000F09EF8002801D0032004E03000C0B2FB
:102DB000216808610020BDE8F6812DE9F04182B06C
:102DC00004000D0016001F00DDF820802068006858
:102DD00050F48060216808602068006850F48070BA
:102DE00021680860434600225FF00111200000F0D6
:102DF00077F8002801D003206CE015F0FE00216870
:102E0000086142463449200000F0D7F8002806D077
:102E1000A06B042801D101205CE003205AE0206867
:102E20004069009020688069009000984346002225
:102E30002A49200000F054F8002801D0032049E07E
:102E4000BFB2012F04D13000C0B22168086112E086
:102E5000B6B2300AC0B221680861434600221F4959
:102E6000200000F03DF8002801D0032032E03000BF
:102E7000C0B221680861434600221849200000F0D2
:102E80002FF8002801D0032024E02068006850F4C7
:102E9000807021680860434600225FF00111200025
:102EA00000F01EF8002801D0032013E055F00100C7
:102EB000C0B22168086142460749200000F07DF851
:102EC000002806D0A06B042801D1012002E00320D5
:102ED00000E00020BDE8F681020001008000010052
:102EE0002DE9F04104000D0016001F005FF00008FE
:102EF00000F00AFE8046F6B2002E2DD1280CC0B29A
:102F000001280AD120684069284080B2A9B28842CD
:102F100001D101200BE0002009E0206880692840F1
:102F200080B2A9B2884201D1012000E0002000282F
:102F300040D117F1010FE1D0002F05D000F0E4FDE2
:102F4000B0EB08008742D9D2012084F83500002078
:102F500084F8340003202EE0280CC0B201280AD1E6
:102F600020684069284080B2A9B2884201D101207E
:102F70000BE0002009E020688069284080B2A9B2F7
:102F8000884201D1012000E00020002812D017F172
:102F9000010FE1D0002F05D000F0B6FDB0EB080026
:102FA0008742D9D2012084F83500002084F834000B
:102FB000032000E00020BDE8F081F8B504000D001A
:102FC0001600002700F0A0FD0700280CC0B2012861
:102FD0000AD120684069284080B2A9B2884201D154
:102FE00001200BE0002009E020688069284080B2C1
:102FF000A9B2884201D1012000E00020002829D197
:1030000020684069400513D52068006850F40070BE
:10301000216808607FF48060216848610420A06313
:10302000012084F83500002084F83400012012E0EB
:1030300016F1010FC9D0002E04D000F065FDC01BB1
:103040008642C2D2012084F83500002084F8340082
:10305000032000E00020F2BD10B582B000208DF802
:103060000000002400F01AFD00F062FD002000F0D6
:10307000A7FD0121002000F0FBFD00F06BFE00F039
:10308000BEF800F0DBF800F080F800F08AF8914814
:10309000006800F0F1FF00F034F904008E48007879
:1030A000002818D000A98B48006801F000F800281B
:1030B0000ED19DF8000000280AD000F078F800201A
:1030C00000F0B6FD642000F022FD002000F0C0FDFD
:1030D00000208149087081480078002808D07D4888
:1030E000006801F026F8002802D100207B49087012
:1030F000200000F00AF940F6B8318842CED300F043
:1031000056F800F0FEF80400C8E710B588B00024B7
:10311000002203A9724801F01FF9002202A9704899
:1031200001F0CFF90498D0F598706421484340F23B
:10313000311190FBF1F0040065A16A4801F03EFAFC
:10314000684801F055FA020041F2883392B26549AD
:10315000654801F0A2FAE4B201949DF80E000090D7
:103160009DF80D309DF80C2060495E4801F026FA6C
:103170005C4801F03DFA41F28833020092B25949AD
:10318000594801F08AFA08B010BD80B551490120B4
:1031900000F052FE012803D1002000F049FDFEE7B7
:1031A00001BD80B54B48006800F040FF01BD80B50F
:1031B000FFF7ABFF00A94748006800F04FFF4C49FC
:1031C0004448006800F094FF012806D19DF80020D3
:1031D0004849444801F0F2F905E04548028846496B
:1031E000404801F0EBF93F4801F002FA41F2883320
:1031F000020092B23B493C4801F04FFA01BD80B554
:103200003E48374908604020354948607F203449AE
:1032100088604FF498703249C860002030490861D6
:1032200000202F49486100202D4988612C4800F07A
:10323000ADFF002801D000F063F801BD00B587B0F4
:1032400000208DF8030001208DF8010001208DF889
:10325000020001208DF80000012200A9204801F0A1
:10326000ADF8002801D000F04BF800208DF80400E4
:1032700000208DF8050000208DF8060000208DF854
:1032800007000020049000200590012201A91448A5
:1032900000F0D2FF002801D000F032F807B000BDE6
:1032A00010B50400A4B2B4F5005F08D1002000F00E
:1032B00034FD002809D101200849087005E0A4B2B6
:1032C000102C02D101200449087010BD000000003C
:1032D0000A00000094040020A6040020A704002097
:1032E0004C040020A8020020A8030020546300081A
:1032F000A40400208C620008286400080028004014
:10330000FEE780B500F000FC02BD70B5040000F0DF
:10331000FBFB0600301B0500280070BD70B582B0B5
:10332000040000252078C0075AD5DFF82C07006874
:1033300010F00C0004280BD0DFF81C07006810F018
:103340000C0008280ED1DFF814070068400209D5E8
:10335000DFF80C070068800342D5606800283FD181
:103360000120A2E10020DFF8FC16087000F0CCFB81
:103370000500DFF8EC060068800308D500F0C4FB08
:10338000401B41F289318842F3D303208DE160680C
:10339000DFF8D01608706068002810D000F0B4FB89
:1033A0000500DFF8BC060068800319D400F0ACFB10
:1033B000401B41F289318842F3D3032075E100F0CC
:1033C000A3FB0500DFF898060068800308D500F02D
:1033D0009BFB401B41F289318842F3D3032064E117
:1033E0002078800766D5DFF87006006810F00C0FB3
:1033F0000BD0DFF86406006810F00C0008281FD11D
:10340000DFF85806006840021AD4DFF85406006856
:10341000800704D5E068012801D0012045E1DFF8EC
:10342000400600685FF0F851B1FA81F130F0F80021
:10343000226912FA01F10843DFF82416086039E026
:10344000E068002823D00120DFF81C16086000F097
:103450005BFB0500DFF808060068800706D400F073
:1034600053FB401B6528F5D303201EE1DFF8F00570
:1034700000685FF0F851B1FA81F130F0F80022698C
:1034800012FA01F10843DFF8D815086012E00020B5
:10349000DFF8D415086000F037FB0500DFF8C00541
:1034A0000068800706D500F02FFB401B6528F5D388
:1034B0000320FAE02078000728D56069002812D0A0
:1034C0000120DFF8A815086000F01EFB0500DFF8FA
:1034D000A0050068800719D400F016FB401B652882
:1034E000F5D30320E1E00020DFF88015086000F04C
:1034F0000BFB0500DFF878050068800706D500F0B3
:1035000003FB401B6528F5D30320CEE0207840075D
:1035100063D5DFF86005006850F08050DFF854157F
:103520000860DFF85005006810F0805000900098A7
:10353000DFF84405006850F48070DFF83C1508603F
:1035400000F0E2FA0500DFF830050068C00506D497
:1035500000F0DAFA401B6528F5D30320A5E000202F
:10356000DFF81815087000F0CFFA0500DFF80C0539
:103570000068800708D500F0C7FA401B41F2893186
:103580008842F3D3032090E0A068DFF8F0140870BD
:10359000A068002810D000F0B7FA0500DFF8DC04BE
:1035A0000068800719D400F0AFFA401B41F289315E
:1035B0008842F3D3032078E000F0A6FA0500DFF894
:1035C000BC040068800708D500F09EFA401B41F259
:1035D00089318842F3D3032067E0A069002863D0D3
:1035E000DFF87404006810F00C0008285AD0A069B5
:1035F000022844D10020DFF88814086000F084FA23
:103600000500DFF85C040068800106D500F07CFA54
:10361000401B6528F5D3032047E0DFF86804B0FAC3
:1036200080F24FF44040B0FA80F0F021B1FA81F11D
:10363000E369266A3343666A16FA02F21A43A36AFA
:103640005B085B1E13FA00F01043E26A12FA01F104
:103650000843DFF8081408600120DFF8241408602C
:1036600000F052FA0500DFF8F803006880011BD46F
:1036700000F04AFA401B6528F5D3032015E000202E
:10368000DFF8FC13086000F03FFA0500DFF8D00314
:103690000068800108D500F037FA401B6528F5D393
:1036A000032002E0012000E0002076BD70B5040098
:1036B0000D000026DFF8D003006810F00F00A842CC
:1036C00080F08F80DFF8C0030570DFF8BC0300686E
:1036D00010F00F00A84201D001202AE120788007D5
:1036E00009D5DFF87403006830F0F000A1680843E2
:1036F000DFF8641308602078C00740F1FD8060683F
:10370000012806D1DFF858030068800315D4012092
:103710000FE16068022802D06068032806D1DFF854
:1037200040030068800108D4012002E1DFF8300383
:103730000068800701D40120FBE0DFF81C0300686B
:103740008008800061680843DFF80C13086000F00F
:10375000DBF906006068012810D1DFF8FC02006880
:1037600010F00C00042800F0C78000F0CDF9801B99
:1037700041F289318842F0D30320DAE06068022800
:1037800010D1DFF8D402006810F00C00082800F017
:10379000B38000F0B9F9801B41F289318842F0D33F
:1037A0000320C6E0606803280BD1DFF8AC02006894
:1037B00000F0AAF9801B41F289318842F5D3032039
:1037C000B7E0DFF89402006810F00C0F00F094806E
:1037D00000F09AF9801B41F289318842F1D303202D
:1037E000A7E02078800709D5DFF86C02006830F088
:1037F000F000A1680843DFF8601208602078C00775
:103800006ED56068012806D1DFF854020068800395
:1038100015D401208DE06068022802D0606803287A
:1038200006D1DFF83C020068800108D4012080E066
:10383000DFF82C020068800701D4012079E0DFF86E
:10384000180200688008800061680843DFF80812E9
:10385000086000F059F90600606801280FD1DFF810
:10386000F801006810F00C00042839D000F04CF981
:10387000801B41F289318842F1D3032059E060680E
:1038800002280FD1DFF8D001006810F00C000828E2
:1038900026D000F039F9801B41F289318842F1D3FA
:1038A000032046E0606803280BD1DFF8AC01006814
:1038B00000F02AF9801B41F289318842F5D30320B8
:1038C00037E0DFF89401006810F00C0F08D000F02A
:1038D0001BF9801B41F289318842F2D3032028E092
:1038E000DFF8A4010570DFF8A001006810F00F00F8
:1038F000A84201D001201CE02078400709D5DFF85C
:103900005801006830F4E050E1680843DFF84811DE
:1039100008602078000708D54F48006830F4604000
:10392000216950EAC1004C4908600F2000F0D4F82A
:10393000002070BDF0B40021002200230020464C7E
:10394000246814F00C04002C04D0042C05D0082C9E
:1039500006D040E04D4C20003FE04D4C20003CE0C4
:103960003E4C246814F03F0421003C4C246864025F
:1039700010D53A4C2468464DB5FBF1F547F6C076B4
:103980003440404EB6FA86F62700F74007FB05F4B0
:1039900022000FE0314C24683C4DB5FBF1F547F6B1
:1039A000C0763440374EB6FA86F62700F74007FB5C
:1039B00005F42200294C246814F440344FF44045A7
:1039C000B5FA85F52600EE40741C64002300B2FBB6
:1039D000F3F4200001E02D4C2000F0BC704710B53E
:1039E000FFF7A8FF1C4909685FF07062B2FA82F223
:1039F000284B11F0F0010C00D440E15C0200CA40F9
:103A0000254802602448006810BD10B5FFF7E7FFA5
:103A10000100114800685FF46012B2FA82F21D4B97
:103A200010F4E0500400D440E25C0800D04010BD27
:103A300010B5FFF7D4FF0100074800685FF4E022EB
:103A4000B2FA82F2134B10F460400400D440E25CFE
:103A50000800D04010BD0000083802400438024081
:103A6000003802400238024000004742800E4742C0
:103A70007438024040380240007000407038024004
:103A8000600047420000FE03003C02400024F400B6
:103A900000127A0038640008A001002080B5224896
:103AA000006850F40070204908601F48006850F416
:103AB00080601D4908601C48006850F480701A49F5
:103AC00008600320FEF772FE0F2000F005F800F0FA
:103AD00002F8002002BD704710B50400FFF77FFF19
:103AE0004FF47A71B0FBF1F0FEF780FE0022210066
:103AF0005FF0FF30FEF760FE002010BD0B4800684D
:103B0000401C0A490860704708480068704711B5B2
:103B100081B00024FFF7F8FF0400FFF7F5FF001B5A
:103B200001998842F9D313BD003C0240980400205B
:103B300000B593B02048006850F080501E490860DE
:103B40001D48006810F08050009000981B480068E5
:103B500030F4404050F400401849086017480068AD
:103B600010F4404000900098022006900120099037
:103B700010200A9002200C9000200D9010200E9032
:103B80004FF4A8700F90042010900720119006A801
:103B9000FFF7C4FB0F200190022002900020039049
:103BA0004FF48050049000200590022101A8FFF7F7
:103BB0007DFD13B000BD00BF4038024000700040E2
:103BC00010B586B00400E4B2002C0ED1DFF8680115
:103BD000006850F00100DFF860110860DFF858015C
:103BE000006810F0010000900098DFF85001E4B286
:103BF00030F814000190012002900120039002206F
:103C0000049001A9DFF83801E4B250F82400FEF76F
:103C100047FC0022DFF82401E4B230F81410DFF88A
:103C20002001E4B250F82400FEF727FD06B010BDD5
:103C300010B504000122DFF80401E4B230F81410DA
:103C4000DFF8FC00E4B250F82400FEF716FD10BDCA
:103C500010B504000022DFF8E400E4B230F81410DC
:103C6000DFF8DC00E4B250F82400FEF706FD10BDDA
:103C700030B587B004000D00E4B2002C0ED1DFF89F
:103C8000B800006850F00400DFF8AC100860DFF8FE
:103C9000A800006810F0040000900098EDB2002D1C
:103CA00013D1DFF8A000E4B230F814000190002036
:103CB0000290022003900220049001A9DFF88800FE
:103CC000E4B250F82400FEF7EBFBEDB2012D22D157
:103CD000DFF87000E4B230F8140001900020039087
:103CE000DFF86800029001A9DFF85C00E4B250F848
:103CF0002400FEF7D5FB00220F21DFF85400E4B2C8
:103D0000205640B2FEF758FDDFF84400E4B22056DA
:103D100040B2FEF764FD07B030BD10B50400DFF817
:103D20002400E4B230F81410DFF81C00E4B250F8BC
:103D30002400FEF796FC10BD3038024026460008ED
:103D400098010020E24A00089C0100200000211098
:103D50008E54000800B587B03048006850F001006C
:103D60002E4908602D48006810F00100009000986E
:103D70002A48006850F00100284908602748006878
:103D800010F00100009000982548006850F40030C1
:103D9000234908602248006810F400300090009821
:103DA0000420019002200290002003900220049041
:103DB0000720059001A91B48FEF772FB082001901F
:103DC0000720059001A91748FEF76AFB1648174916
:103DD000086017480068154948600020134988604A
:103DE00000201249C86000201049086100200F49D6
:103DF00088610C200D4948610C4800F015FC002832
:103E000000D0FEE70B48094988624FF480700749EB
:103E1000888500200549C86307B000BD30380240DE
:103E2000403802400000024000440040A803002047
:103E300064640008A801002038B504000D000020CB
:103E4000286064B2002C0ED0012C14D0280000F0A1
:103E50007BF8012806D1280000F016F8012801D1CE
:103E6000012010E00EE0280000F00EF8012801D13A
:103E7000012008E006E0280000F066F8012801D1E2
:103E8000012000E0002032BD2DE9F04104000025B2
:103E90005C48C078012801D1012053E0FEF7A6F963
:103EA000012801D101204DE0682056490870D62034
:103EB0005449487000205349887000205149C87007
:103EC00000205049087101204E4948714E484D4923
:103ED00088604E484B49C86000204A4908614C48F8
:103EE0004C4948604B4848490860002046494860B2
:103EF000444820602068C0680500286800280CD16C
:103F000014260027D4F800803A003100404600F023
:103F1000B5FD00202060012014E020682968884752
:103F200001280CD114260027D4F800803A00310073
:103F3000404600F0A3FD00202060012002E0FEF7D3
:103F40005EF90020BDE8F0812DE9F0410400002574
:103F50002C48C07D012801D1012050E0FEF746F930
:103F6000012801D101204AE0692026490875D420A2
:103F70002449487501202349887500202149C875C6
:103F800000202049087601201E49487622481D4914
:103F9000C86122481B49086221481A4948622148E1
:103FA0001949886000201849C8601F4820602068AF
:103FB000C0680500286800280CD114260027D4F812
:103FC00000803A003100404600F058FD002020609B
:103FD000012014E020682968884701280CD11426A4
:103FE0000027D4F800803A003100404600F046FD3A
:103FF00000202060012002E0FEF703F90020BDE868
:10400000F0810000240400206C040020080100203E
:104010007C04002084040020740400204C01002053
:10402000000000209C0400203804002070B504002B
:1040300025000026002D01D101200EE0E8680600D1
:10404000B068002801D1012007E02800B168884746
:10405000012801D1012000E0002070BD0200130002
:10406000002B01D1012006E0002901D1012002E04E
:10407000987808700020704770B504002500002D66
:1040800001D1012012E02869002801D101200DE0B2
:104090002878692809D12E693069002801D10120CA
:1040A00004E028003169884700E0012070BDF8B5C0
:1040B00004000D002600002E01D1012017E0306918
:1040C000002801D1012012E0002D01D101200EE0D5
:1040D000307869280AD13769B869002801D10120F0
:1040E00005E029003000BA69904700E00120F2BDE8
:1040F000F8B504000D002600002E01D1012017E0C4
:104100003069002801D1012012E0002D01D10120E9
:104110000EE0307869280AD13769F869002801D1A2
:10412000012005E029003000FA69904700E00120F5
:10413000F2BD70B504002500002D01D1012024E05E
:104140002869002801D101201FE0287869281BD1A7
:104150002E69306A002802D0706A002801D101203F
:1041600013E02800316A8847012801D101200CE0C2
:104170000A20FFF7CCFC2800716A8847012801D18A
:10418000012002E0002000E0012070BD10B5040015
:10419000002C01D101204EE0607F002804D10020D6
:1041A0002077200000F09EFC02206077CA20216862
:1041B0004862532021684862200000F0CBF90028B3
:1041C00006D0FF202168486204206077012032E099
:1041D00020688068DFF83C13084021688860206808
:1041E000806861682269114362691143084321684C
:1041F0008860E0682168086120680069A16850EA69
:104200000140216808612068C06830F080002168A2
:10421000C8602068006C30F4802021680864206841
:10422000006CA169084321680864FF202168486286
:1042300001206077002010BD2DE9F84304000D0037
:1042400016000027207F012801D1022082E00120F2
:10425000207702206077002E1FD1206880684006FA
:1042600001D40020E870287800F090F98046687842
:1042700000F08CF98146A87800F088F95FFA88F898
:104280005FFA89F95FEA092151EA0841C0B208439F
:10429000E97850EA0140070015E020688068400690
:1042A00004D5287800F07DF9070001E00020E870CF
:1042B00028786978090251EA0040A9780843E9782A
:1042C00050EA01400700CA20216848625320216853
:1042D0004862200000F03EF9002808D0FF20216845
:1042E00048620420607700202077012032E0DFF868
:1042F00028023840216808602068806830F48020F7
:104300002168886020688068E9682A691143084349
:10431000216888602068C06830F080002168C8602B
:104320002068806880060DD4200000F0F9F800288D
:1043300008D0FF20216848620420607700202077A1
:10434000012007E0FF2021684862012060770020FB
:1043500020770020BDE8F283F8B504000D001600B8
:1043600000272068806A6860206800694004400C6B
:10437000A86020680068DFF8A01108400700380C2A
:1043800010F03F002870380A10F07F00687017F0B6
:104390007F00A870380C10F04000E870002E0BD1A0
:1043A000287800F0FEF82870687800F0FAF8687055
:1043B000A87800F0F6F8A8700020F2BD2DE9F843C7
:1043C00004000D0016000027207F012801D10220E3
:1043D00075E00120207702206077002E07D16878F1
:1043E000C00604D5687810F0EF000A306870002E1F
:1043F00019D1E87800F0CAF88046687800F0C6F86D
:104400008146A87800F0C2F85FFA88F85FFA89F967
:104410005FEA092151EA0841C0B20843297850EA0D
:104420004130070012E0687800F0BBF80700A87878
:1044300000F0B7F80700E8786978090251EA00400F
:10444000A9780843297850EA41300700CA2021683A
:104450004862532021684862200000F07BF8002861
:1044600008D0FF2021684862042060770020207770
:10447000012024E0DFF8A40038402168486020686B
:10448000C06830F080002168C860206880688006BD
:104490000DD4200000F044F8002808D0FF20216847
:1044A00048620420607700202077012007E0FF2089
:1044B0002168486201206077002020770020BDE855
:1044C000F283F8B504000D0016000027206840684C
:1044D000DFF8481008400700380CE870380A10F080
:1044E0001F00687017F03F00A870780B10F00700ED
:1044F0002870002E0BD1E87800F053F8E870687847
:1045000000F04FF86870A87800F04BF8A870002011
:10451000F2BD0000BFFF8FFF7F7F7F003FFFFF00E6
:1045200038B5040000252068C06830F0A00021687C
:10453000C860FFF7E9FA05002068C068800607D464
:10454000FFF7E2FA401BB0F57A7FF5D9032000E0CF
:10455000002032BD38B5040000252068C068400640
:1045600012D45FF0FF302168C860FFF7CDFA050074
:104570002068C068400607D4FFF7C6FA401BB0F5B4
:104580007A7FF5D9032000E0002032BD0021C0B2BF
:104590000A2802DB491C0A38F9E750EA0110C0B2C8
:1045A00070470021C0B20209D2B20A235A43110057
:1045B000C0B210F00F004018C0B270470CB41CB568
:1045C000044604A801900A46009401AB00A90748DC
:1045D0007844183000F0B4FA009A002111700028D5
:1045E0005CBF0098001B16BC5DF80CFB0BCEFFFFF8
:1045F00000F10103810704D010F8011B89B1810784
:10460000FAD10268B2F10131914311F0803F04BF49
:1046100050F8042FF6E710F8011B11B110F8011B38
:10462000FBE7C01A7047200010B50400002C01D130
:10463000012030E0A0690028FFD194F8390000285B
:1046400005D1002084F83800200000F025F8022071
:1046500084F839002068C06830F400502168C860D0
:10466000200000F009F92068006930F490402168CA
:1046700008612068406930F02A002168486120689C
:10468000C06850F400502168C8600020E063012039
:1046900084F83900002010BD70472DE9F84304006C
:1046A0000D0016001F005FF0000994F839008146E4
:1046B000B9F1010F02D0B9F1220F69D1002D02D05A
:1046C000B6B2002E01D1012063E094F83800012831
:1046D00001D102205DE0012084F838000020E06371
:1046E00094F83900222803D1322084F8390002E0FE
:1046F000122084F83900A684E684E08C00282DD0AE
:10470000E08C401EE084A068B0F5805F17D13B00CC
:1047100000228021200000F03EF8002801D0032074
:1047200037E0A846B8F80000C005C00D2168486011
:104730002069002801D1AD1CDFE76D1CDDE73B00DF
:1047400000228021200000F026F8002801D003205C
:104750001FE02878216848606D1CCEE73B000022EE
:104760004021200000F017F8002801D0032010E0BD
:1047700094F83900322803D1222084F8390002E06D
:10478000012084F83900002084F83800002000E07F
:104790000220BDE8F2832DE9F04104000D0016006F
:1047A0001F005FF00008FFF7AFF98046F6B2002E59
:1047B0002FD1206800682840A8425AD017F1010F75
:1047C000F7D0002F05D0FFF79FF9B0EB0800874224
:1047D000EFD22068C06830F080002168C86020688F
:1047E000C06830F020002168C8602068C06830F4DC
:1047F00080702168C86020684069400840002168D6
:104800004861012084F83900002084F83800032032
:1048100030E0206800682840A8422AD117F1010F33
:10482000F7D0002F05D0FFF76FF9B0EB08008742F3
:10483000EFD22068C06830F080002168C86020682E
:10484000C06830F020002168C8602068C06830F47B
:1048500080702168C8602068406940084000216875
:104860004861012084F83900002084F838000320D2
:1048700000E00020BDE8F081F8B5040000252068C4
:104880000069050035F44055E0680543206805617E
:104890002068C068050076480540A0682169084383
:1048A00061690843E169084305432068C5602068E1
:1048B0004069050035F44075A069054320684561ED
:1048C000E069B0F5004F69D120686A49884203D099
:1048D00020686949884230D1FFF7AAF80700FFF73E
:1048E000A7F80600FFF7A4F8192101FB07F1626899
:1048F0005200B1FBF2F16422B1FBF2F1192202FB8A
:1049000006F263685B00B2FBF3F219235843636855
:104910005B00B0FBF3F06423B0FBF3F0642303FB14
:104920001020000132306422B0FBF2F010F00F00D2
:1049300050EA01102168886099E0FFF766F80700E7
:10494000FFF763F80600FFF760F8192101FB07F194
:1049500062685200B1FBF2F16422B1FBF2F119225C
:1049600002FB06F263685B00B2FBF3F219235843C3
:1049700063685B00B0FBF3F06423B0FBF3F06423E7
:1049800003FB1020000132306422B0FBF2F010F083
:104990000F0050EA01102168886068E020683549FE
:1049A000884203D020683449884230D1FFF740F86C
:1049B0000700FFF73DF80600FFF73AF8192101FB61
:1049C00007F162689200B1FBF2F16422B1FBF2F1EF
:1049D000192202FB06F263689B00B2FBF3F2192373
:1049E000584363689B00B0FBF3F06423B0FBF3F023
:1049F000642303FB1020000132306422B0FBF2F08C
:104A000010F00F0050EA0110216888602FE0FEF7D7
:104A1000FCFF0700FEF7F9FF0600FEF7F6FF19217D
:104A200001FB07F162689200B1FBF2F16422B1FB75
:104A3000F2F1192202FB06F263689B00B2FBF3F26B
:104A40001923584363689B00B0FBF3F06423B0FB69
:104A5000F3F0642303FB1020000132306422B0FB2A
:104A6000F2F010F00F0050EA011021688860F1BDEB
:104A7000F369FFFF001001400014014062F30F22B0
:104A800062F31F42401810F0030308D0C91A1FD365
:104A9000DB0748BF00F8012D28BF20F8022D1300C6
:104AA00030B414461546103928BF20E93C00FAD826
:104AB000490728BF20E90C0048BF40F8042D8900B1
:104AC00028BF20F8022D48BF00F8012D30BC7047E8
:104AD000C91818BF00F8012DCB0728BF00F8012D19
:104AE0007047002010B590B004000C200490002006
:104AF0000A90012009900020069004A8FEF70EFC01
:104B0000002801D0FEF7FCFB022000904FF400705B
:104B1000039000A800F0E6FB002801D0FEF7F0FBB0
:104B200001200649086000220F210220FDF744FE03
:104B30000220FDF754FE10B010BD00003C0E4742AD
:104B40002DE9F04F80460FF2847095B092461D46D5
:104B5000D0E90023CDE9132303AE00200391B06117
:104B60000DF1340900E0A2440020ADF8020013ABBF
:104B70004FF0FF3251460DF1020000F06DFC04468B
:104B8000012C05DA9AF80000441EA441E443E40F26
:104B9000BDF8020025280CBFA4F1010BA346BBF110
:104BA000010F0EDB574617F8011B0398C04700287A
:104BB000039000F0CE81B069401CBBF1010BB061E5
:104BC000F1D1BDF80200252804D10020F060306149
:104BD000706105E00028C6D1B069BCE140F0010079
:104BE0001AF8011F2029F9D023290DD02B2904D030
:104BF0002D2906D030290AD00CE040F0020080B206
:104C0000EEE740F00400FAE740F00800F7E740F074
:104C10001000F4E72A290FD12968296051F8042BE4
:104C20002960002A326204D5514240F0040031620A
:104C300080B20AF1010A15E0002131620CE0316A0C
:104C40006FF00043994205D001EB810302EB430171
:104C5000303931620AF1010A9AF80020A2F13001DC
:104C60000A29ECD39AF800102E2903D04FF0FF3117
:104C7000F16122E01AF8011F2A2908D12968296068
:104C80000AF1010A51F8042B2960F26115E00021B4
:104C9000F1610CE0F1696FF00043994205D001EB3E
:104CA000810302EB43013039F1610AF1010A9AF8FC
:104CB0000020A2F130010A29ECD3B0840FF2146075
:104CC0009AF8001000F0D8FB08B11AF8010B8DF823
:104CD00032009DF83200682804BF9AF80000682866
:104CE00004D162208DF832000AF1010A0DA8B060EB
:104CF0001AF8014B252C13D0582C40D0632C00F00F
:104D00009880642C18BF692C71D06F2C37D0702C10
:104D10002BD0732C0AD0752C18BF782C2FD0ABE079
:104D20000120F06025208DF83400AFE09DF83200BE
:104D30006C282868286014D050F8044B28607460F0
:104D4000F769002F04D52046FFF752FC074606E01E
:104D50003A460021204600F09BFB00B1071B37615B
:104D600094E050F8042B28607FE02868286050F811
:104D7000041B286002910DA87060782155E09DF811
:104D800032006C280DD0712818BF6A2809D1286814
:104D9000C01D20F007022A60D2E9000108322A6013
:104DA00004E02968296051F8040B296002909DF8FD
:104DB0003200682802D102A8008803E0622802D1EC
:104DC00002A80078029096F82400000728D50298DF
:104DD00030B344F02000782822D1F068302100F868
:104DE0000910401C411CF16000F8094018E09DF8D2
:104DF0003200294600F0B2F80028029002D5F0688F
:104E00002D2109E0B08C810702D5F0682B2103E049
:104E1000C00705D5F068202100F80910401CF0609B
:104E20000DA8F16808187060214602A800F0CFF9BB
:104E30002CE09DF832006C2809D00120F060286831
:104E4000286050F8041B28608DF834101EE0286894
:104E5000286001AA50F8041B2860ADF80410002057
:104E6000ADF806004FF0FF30F06102A9404600F0B7
:104E70009BF800280AD56CE00120F06025208DF811
:104E800034001CB10220F06089F80140306AF168FA
:104E9000401A7169401A3169441A96F82400400793
:104EA0000FD420208DF80000002708E0012300AA7D
:104EB00002A9404600F0F2F900284AD17F1CA7421F
:104EC000F4DBF7680DF1340B0AE01BF8011B0398C3
:104ED000C047002803903CD0B069401CB0617F1EE1
:104EE000002FF2D130208DF800004FF0000B7769D1
:104EF00008E0012300AA02A9404600F0CFF940BB18
:104F00000BF1010BBB45F4DB3769D6F804B009E0BF
:104F10001BF8011B0398C0470390D0B1B069401C37
:104F2000B0617F1E002FF3D196F8240040077FF573
:104F30001BAE20208DF8000000E07F1CA742BFF6CA
:104F400013AE012300AA02A9404600F0A7F90028E9
:104F5000F3D04FF0FF3015B0BDE8F08F622815D0C8
:104F600068280CD06C2818BF742816D07A2814D161
:104F70000A680A6052F8040B0A60002170470A6848
:104F80000A6052F8040B0A6000B20BE00A680A607B
:104F900052F8040B0A6040B204E00A680A6052F852
:104FA000040B0A60C11770472DE9F44F0D4694B009
:104FB000D5F820A0BAF1000F804648BF6FF0004A34
:104FC00000F092FA696A401801900FF21030D0E9AF
:104FD0000023CDE9022395F82800400702D4019868
:104FE000412805D240200DF110090190002607E06C
:104FF00000F080FA5FEA0009F8D1AAE7AAEB040AF8
:10500000BAF1010FC0F28B801498018802AA0DF149
:10501000010000F0C7FA0028044600F18E801498C1
:10502000008810B9641E00F18880A24577DB2869EA
:1050300001992218914260D26E624042A969401AD9
:105040006969461A95F8280040070FD420208DF88A
:105050000000002708E0012300AA2946404600F08E
:105060001DF9002869D17F1CB742F4DB2F69CB46BC
:105070000AE01BF8011B6868C047002868605CD024
:10508000E869401CE8617F1E002FF2D130208DF8C6
:1050900000004FF0000BAF6909E0012300AA294688
:1050A000404600F0FBF8002847D10BF1010BBB454F
:1050B000F3DB6F69D5F808B009E01BF8011B6868DD
:1050C000C0476860C8B3E869401CE8617F1E002FD4
:1050D000F3D195F8280040070DD520208DF8000069
:1050E00007E0012300AA2946404600F0D7F820BB7C
:1050F0007F1CB742F5DB00262E61224628690DF1A0
:105100000101484400F05CFA2869201828611498CD
:10511000801C1490801E008800287FF46FAF686A9E
:105120002969401AA969401A6969A0EB010A95F832
:105130002800400710D400240CE04FF0FF363EE07A
:1051400068682021C04700286860F6D0E869401CE4
:10515000E861641C5445F3DB2B694A462946404606
:1051600000F09CF80028E8D1AC69002709E06868E5
:105170003021C04700286860DFD0E869401CE86142
:105180007F1CA742F3DB6B69AA682946404600F002
:1051900085F80028D1D195F8280040070DD50024C6
:1051A00009E068682021C04700286860C5D0E86928
:1051B000401CE861641C5445F3DB2E616E6204A858
:1051C00081451CBF484600F037FA3046C3E6F0B4CC
:1051D000C2686F2908BF082405D041F02003782B4E
:1051E00014BF0A24102418230668642918BF6929EB
:1051F000374602D1002E48BF7F425FB9056A4DB9DC
:10520000082C27D190F82810090723D5302117231F
:10521000D1751FE0B7FBF4F604FB16773037FFB209
:105220005D1E3A2FA4BFA1F1510C6744AF542B4629
:10523000370003D085689E18B542EBD3082C09D1FE
:1052400090F82810090705D5995C302902D05B1E1B
:10525000302199549A188260C3F11801026A4161A1
:10526000914208DA511A81614FF6EF72018D1140B7
:105270000185F0BC7047002A0ED590F8282002F076
:105280001402102A08D1426A0369D21A8369D21A19
:10529000531A012BA8BF8361F0BC7047F8B50446D0
:1052A0000D4616461F46002004E0E869401CE861F0
:1052B0007F1E002047B116F8011B6868A047002830
:1052C0006860F2D14FF0FF30F2BD00000000000036
:1052D00000000000686C747A4C00000000000000C0
:1052E0000000000070B582B0040000250026207880
:1052F000C00730D5002051490860FEF705FC0500C5
:105300004B480068000106D5FEF7FEFB401B6528F0
:10531000F6D303208AE04A48B0FA80F00E21B1FAB1
:1053200081F1626812FA00F0A26812FA01F10843F2
:1053300041490860012041490860FEF7E5FB05008E
:105340003B480068000106D4FEF7DEFB401B6528E1
:10535000F6D303206AE02078800766D539480068D4
:1053600050F08050374908603648006810F080508F
:10537000009000983448006850F48070324908600A
:10538000FEF7C2FB050030480068C00506D4FEF7F2
:10539000BBFB401B6528F6D3032047E02B48006881
:1053A00010F44070E16811F4407188423DD0274804
:1053B000006830F440700600012025490860002094
:1053C0002349086021480660B0070FD5FEF79CFB13
:1053D00005001E480068800708D4FEF795FB401BB7
:1053E00041F289318842F4D303201FE0E06810F4D1
:1053F0004070B0F5407F0AD10E48006830F4F810D4
:10540000E168144A114008430A49086005E0094868
:10541000006830F4F810074908600C480068E1683B
:105420000905090D084309490860002076BD000000
:105430000038024008380240843802406800474281
:105440000000FE0340380240007000407038024007
:10545000400E4742FFFCFF0FF8B504460D461646C6
:105460001F4600F029F93B4632462946204601B046
:10547000BDE8F04000F037B90278C9B28A421AB1EB
:105480001CBF10F8012FF9E718BF00207047280053
:10549000C9B2830706D0521E22D310F8013B9942AD
:1054A000F7D11FE0083A13D302F1040241EA0121C7
:1054B00041EA014150F8043B121F21BF4B40A3F1C8
:1054C000013C2CEA030C1CF0803FF3D0C9B2001F52
:1054D000083210F8013B521E28BF91EA030FF8D89A
:1054E00018BF0120401E704780B500F0E5F801208C
:1054F00002BD000070B5054605F10F00C408C046A6
:10550000C046E400A54232D2082C04D2082402E0AE
:10551000083000F091F82248026811000CD1011DFA
:105520000A6802B31368A34238BF111DF8D310E014
:105530001D68A5420DD2191D0B68002BF8D1126809
:10554000011D00E0191D0B6893420CD01D68A54297
:10555000F8D361B10D682A68A2F10803A3420AD208
:105560006A680A600FE000F0E1F80028D0D1C04678
:10557000C046002070BD63190B60121B6E685E6030
:105580000B681A602C60096800291DBF4A68002A50
:10559000091D00210160C046C04605F1080070BD2C
:1055A0008C04002070B504460D46164600F084F8C1
:1055B000324629462046BDE8704000F087B800001A
:1055C00062B38B0708D0521E11F8013B00F8013B73
:1055D00000F024808B07F6D1830740F0208000BFC5
:1055E000103A07D330B4B1E83810103AA0E83810B8
:1055F000F9D230BC530724BFB1E80810A0E8081066
:1056000044BF51F8043B40F8043BD20724BF31F8B3
:10561000022B20F8022B44BF0B7803707047083A26
:1056200007D3B1E80810083A40F8043B40F804CB2F
:10563000F7D25307E4E7000000B9704738B5A0F18E
:1056400008042068082833D310F0070F30D1C04673
:10565000C0461848416809B18C4203D26160446079
:1056600017E019464B680BB1A342FAD30B685D18DB
:10567000AC421BD3A54204D12268D2180A600C4662
:1056800007E04A681AB123681B199A420ED3626078
:105690004C60616851B1226813198B4206D1002316
:1056A000036008688018206048686060C046C04693
:1056B00031BD00008C04002080B5DFF80C0000F044
:1056C0004BF8806902BD00009C00002030B430B966
:1056D0000FF24800D0E90045C2E900451BE0017027
:1056E000012030BC704730B431B90FF23800D0E936
:1056F0000045C3E900450EE01AB930BC6FF0010067
:10570000704708B10A7802800978481E804130BC91
:10571000C043C00F7047002030BC7047000000003D
:1057200000000000000000000000000007490868B9
:1057300008B1002070470648C008C000086005494D
:10574000C908C900091A0160704700BFA004002001
:10575000AF080020A80A00207047000070B582B092
:10576000040000A8DFF8A8160A680260A5682E6881
:10577000200000F07CFA012801D1012025E0DFF8AB
:105780000C0730604021200000F0DCFC002801D133
:1057900001201AE00021200000F09FFC002801D128
:1057A000012012E00021200000F097F9012801D12A
:1057B00001200AE000A9200000F016FA012801D11A
:1057C000012002E00120E070002076BD70B50400E9
:1057D000A5682E68200000F04AFA012801D10120B6
:1057E0000BE0200000F020F8012801D1012004E0A6
:1057F000002030600020E070002070BD70B5040013
:10580000A5682E682079012801D100200BE096EDD3
:10581000000A200000F0BAFA012801D1012002E0BC
:1058200001202071002070BD70B50400A5682E68AD
:105830002079002801D1002012E03100200000F082
:105840009DF8012801D101200AE00021200000F08C
:1058500044FC002801D1012002E00020207100203A
:1058600070BD38B504000D002900200000F0F2F9E9
:1058700032BD10B50400200000F0F9F910BD3EB5AE
:1058800004000D000020009001A9200000F006FA9D
:10589000012801D1012032E000A9200000F047F8E2
:1058A000012801D101202AE0BDF9040000EE100A10
:1058B000B8EEC00ADDED000A20EE200ABDEEC00AF7
:1058C00085ED000ABDF9060000EE100AB8EEC00A28
:1058D000DDED000A20EE200ABDEEC00A85ED010ACA
:1058E000BDF9080000EE100AB8EEC00ADDED000AAE
:1058F00020EE200ABDEEC00A85ED020A00203EBD62
:1059000030B583B004000D0000A9200000F0C6F9F6
:10591000012801D1012009E0BDF800002880BDF870
:1059200002006880BDF80400A88000203EBD38B5A4
:1059300004000D0000A9200000F0BDFB002801D1EB
:1059400001201AE09DF80000002804D0102806D09D
:10595000182808D00BE0DFF8400528600CE0DFF8DD
:105960003C05286008E0DFF83805286004E0DFF82F
:1059700040052860012000E0002032BDF8B5040099
:105980000D00A668376878680078012804D1786827
:1059900040682860002039E000A9200000F0C0FB2A
:1059A000002801D1012031E09DF8000000280CD032
:1059B00020280DD040280FD0602811D0802813D087
:1059C000A02815D0C02817D01AE0002028601CE0BD
:1059D000DFF8E804286018E0DFF8D804286014E055
:1059E000DFF8A804286010E0DFF8CC0428600CE0A1
:1059F000DFF8CC04286008E0DFF8C804286004E081
:105A0000DFF8AC042860012000E00020F2BD38B5CA
:105A100004000D002079012808D12900C9B2200016
:105A200000F067F901280AD1012009E02900C9B274
:105A3000200000F087F9012801D1012000E00020BA
:105A400032BD10B52DED028B0400B0EE408A2079F6
:105A5000012808D1B0EE480A200000F097F901288B
:105A60000AD1012009E0B0EE480A200000F0D2F986
:105A7000012801D1012000E00020BDEC028B10BD07
:105A800038B504000D0000A9200000F014FB002828
:105A900001D1012020E09DF80000002806D0082850
:105AA00010D0102806D0182808D00FE05FF08040F2
:105AB000286010E05FF0814028600CE05FF08240D9
:105AC000286008E05FF08340286004E0DFF8E0032E
:105AD0002860012000E0002032BD70B504000D00F8
