:020000040800F2
:10000000D8080020BD530008A5530008A7530008D6
:10001000D9530008DD530008E15300080000000038
:10002000000000000000000000000000E553000890
:10003000A953000800000000E9530008AB53000872
:10004000ED530008F1530008F5530008F953000878
:10005000FD53000801540008055400080954000825
:100060000D54000811540008AF530008155400083F
:10007000195400081D540008215400082554000894
:10008000295400082D540008315400083554000844
:10009000395400083D5400084154000845540008F4
:1000A000495400084D5400085154000855540008A4
:1000B000595400085D540008615400086554000854
:1000C000695400086D540008715400087554000804
:1000D000795400087D5400088154000885540008B4
:1000E000B5530008895400088D5400089154000845
:1000F00095540008995400089D540008A154000824
:10010000A5540008A9540008AD540008B1540008D3
:10011000B5540008B9540008BD540008C154000883
:10012000C5540008C9540008CD540008D154000833
:10013000D5540008D9540008DD540008E1540008E3
:10014000E5540008E9540008ED540008F154000893
:10015000F5540008F9540008FD5400080155000842
:1001600005550008095500080D55000811550008EF
:1001700015550008195500081D550008000000001D
:10018000215500082555000838B50FF2500100F040
:1001900027F8012821D00421204600F016FF70B175
:1001A0004021204600F023FF48B10021204600F006
:1001B00062FE20B100F036FA00F0D2FE08B901204C
:1001C00032BD0021204600F0B9F9012805D000A970
:1001D000204600F007FA00F03BFA32BD01010100B1
:1001E0000A68044600A80260A0680568204600F07E
:1001F000ABBA38B50446FFF7F7FF012827D02046F1
:1002000000F065FB012822D0204600F08BFD01287C
:100210001DD0204600F0A5FB012818D0204600F094
:10022000ADFC012813D0204600F014FD01280ED0AB
:10023000204600F0F6FB012809D0204600F036FCED
:10024000012804D0204600F012F800F007FA32BD71
:1002500010B504462079012807D000F005FA00F017
:1002600091FA012802D001202071002010BD10B5A4
:100270000446207978B1A0680168204600F046F86D
:10028000012808D00021204600F06AFE08B90120AC
:1002900010BD0020207110BD00F052BA00F054BA19
:1002A0003EB500F015FA00F064FA012805D000A967
:1002B000204600F009F800F0DDF93EBD1CB50C4603
:1002C00000A900F056FA0AE210B582B00C4600A967
:1002D00000F041FEB8B19DF8000030B104280DD007
:1002E000082805D00C2806D00BE09FED860A57E0C1
:1002F0009FED850AFBE79FED850AF8E79FED840AED
:10030000F5E700F0FAF8012016BD000010B582B044
:100310000C4600A900F030FE08B9012016BD9DF87A
:100320000000B0B1102817D0202818D0302819D0DC
:1003300040281AD050281BD060281CD070281DD00F
:1003400080281ED090281FD0A02820D0B02821D0EF
:1003500023E09FED700A23E0B2EE0A0AFBE7B3EE5A
:100360000A0AF8E79FED6C0AF5E79FED6C0AF2E7E1
:100370009FED6B0AEFE79FED6B0AECE79FED6A0AD2
:10038000E9E79FED6A0AE6E79FED690AE3E79FED7B
:10039000690AE0E79FED680ADDE700F0AEF8BCE728
:1003A00084ED000A002016BD80B50279012A13D120
:1003B00061B1022908D009D3042901D002D309E090
:1003C000402104E0302102E0202100E0102100F073
:1003D000C7FDA8B9012002BD8068006869B1022983
:1003E00008D00AD3042901D002D3F3E74B4906E031
:1003F000494904E0DFF8801401E0DFF87417016078
:10040000002002BD80B50179012904D100F0BAF9BC
:1004100001284FD102BD00F075F948BFB2EE0A0ABB
:1004200046D400F079F948BFB3EE0A0A40D4DFEDB4
:10043000800A00F073F948BF9FED370A38D4DFED2A
:100440007D0A00F06BF948BF9FED340A30D4DFED30
:100450007A0A00F063F948BF9FED310A28D4DFED36
:10046000770A00F05BF948BF9FED2E0A20D4DFED3C
:10047000740A00F053F948BF9FED2B0A18D4DFED42
:10048000710A00F04BF948BF9FED280A10D4DFED48
:100490006E0A00F043F948BF9FED250A08D4DFED4E
:1004A0006B0A00F03BF94CBF9FED220A9FED220A38
:1004B00080ED000A002002BD10B582B00C4600A9F4
:1004C00000F049FDB8B19DF8000030B104280DD00E
:1004D000082805D00C2806D00BE0B0EE000A5FE734
:1004E000B1EE000AFBE7B2EE000AF8E7B3EE000A4D
:1004F000F5E700F002F8012016BDDFF8780620606D
:100500007047000023DB793D23DBF93D23DB793E97
:1005100023DBF93E00000000000050420000D04202
:10052000000050430000D043004050440080CF44BE
:10053000002050450020D0450048504680B519B1F4
:10054000022904D001D304E01CE00821FCE70C21BF
:10055000FAE7012002BD0000DFED670A80B500F078
:10056000DDF848BF00210DD4DFED640A00F0D6F8B5
:1005700048BF082106D4DFED620A00F0CFF84CBF77
:100580000C21042100F0D6FC401E8041C00F02BDAA
:1005900038B50D4604460DF1020100F068FD50B17A
:1005A0000DF10101204600F07BFD20B100A920469D
:1005B00000F08DFD08B9012032BD9DF80200082829
:1005C0000CBF0120002028709DF8010010280CBFEE
:1005D0000120002068709DF8000020280CBF012039
:1005E0000020A3E038B50D460446287801280CBF4A
:1005F00008210021204600F025FD40B1687801283F
:100600000CBF10210021204600F035FD08B9012063
:1006100032BDA87801280CBF20210021204600F01F
:1006200044FD86E0DFF80001286000212046704785
:10063000010050420100D042010050430100D0436C
:10064000014050440180CF44012050450120D04555
:10065000012802D00120E07000207047012802D05C
:1006600000202860E0707047A068006890ED000AE4
:100670002046704701282AD0BDF90400DDED000AAC
:1006800000EE100AB8EEC00A20EE200ABDEEC00A45
:1006900085ED000ABDF90600DDED000A00EE100A46
:1006A000B8EEC00A20EE200ABDEEC00A85ED010AB0
:1006B000BDF90800DDED000A00EE100AB8EEC00A30
:1006C00020EE200ABDEEC00A85ED020A0020704728
:1006D0000446002000900D4601A9204670470128DD
:1006E00008D0BDF80000208000A841886180808883
:1006F000A080002016BD00000100004001008040E5
:100700000100004180680068DFED420AB4EE600A33
:10071000F1EE10FA70470000DFED4E0AB4EE600A09
:10072000F1EE10FA704700000000D042A8700020DF
:1007300032BD00F001F832BD401E8041C00F70474D
:1007400080B500F0EFFB1FE710B582B00446002033
:100750008DF8000000A92046FFF7F2FF012807D01E
:100760009DF800002178884201D0012016BD0020AC
:1007700016BD1CB500F066F800F0C4FE08B90120F3
:1007800016BD49E0DFED230A80B5FFF7C7FF48BF7C
:1007900010213CD4FFF7C0FF48BF202137D4DFED44
:1007A0002E0AFFF7BBFF48BF302130D4DFED2B0A04
:1007B000FFF7B4FF48BF402129D4DFED290AFFF736
:1007C000ADFF48BF502122D4DFED260AFFF7A6FF78
:1007D00048BF60211BD4DFED240AFFF79FFF48BF0D
:1007E000702114D4DFED210AFFF798FF48BF802164
:1007F0000DD4DFED1F0AFFF791FF48BF902106D40B
:10080000DFED1C0AFFF78AFF4CBFA021B02100F0EA
:10081000A7FBB9E60100504100A841789DF80020EF
:10082000090251FA82F1218082789DF8031002EBCF
:100830000121618000799DF8051000EB0120A08066
:10084000002016BD0C4600A9002200230CC100A9FF
:10085000704700000100D041010050420100D04229
:10086000010050430100D043014050440180CF4477
:10087000012050450120D0450000D04110B500F0C6
:1008800071F9012822D000F00DF988B10621204627
:1008900000F0BDFD60B100F001F948B10021204633
:1008A00000F080FD20B10021204600F06EFD08B967
:1008B000012010BD0321204600F02BF8012805D0AF
:1008C0001021204600F0F4FDFFF736FF10BD10B5F3
:1008D0000446002100F0ECFD20B10021204600F08C
:1008E00096FD08B9012010BD0021204600F080FDD2
:1008F000A7E010B582B00C4600A900F029FC30B189
:100900009DF8000010B1202801D1012052E0012003
:1009100016BD80B500F06CFDFFF736BE10B500F0D7
:100920007BF8012818D000F0BDF868B117212046E7
:1009300000F054F801280FD000F00FF820B140214A
:10094000204600F091FC08B9012010BD802120460E
:1009500000F0C2FAFFF7F0FE10BD0421204600F0BF
:10096000E3BB10B50446002100F0B6FA40B1002107
:10097000204600F079FC18B10021FFF7EFFF08B91D
:10098000012010BD0021204600F028F8012818BFE2
:10099000002010BD10B582B00C4600A900F020FC6C
:1009A00030B19DF8000010B1102801D1012001E004
:1009B000012016BD2070002016BD80B500F0C1FDDD
:1009C000FFF7E2BD80B5022100F093FBFFF7DCBD2D
:1009D00080B5002100F08DFBFFF7D6BD80B500F09B
:1009E000C0FDFFF7D1BD10B500F016F8012812D0F8
:1009F00000F058F838B1FFF7B0FF20B120212046B1
:100A000000F020FC08B9012010BD0221204600F0B2
:100A10002BFDFFF791FE10BD0446B3EE0A0AFFF767
:100A2000F1BC10B50446002100F01EFD20B10021EC
:100A3000204600F007FC08B9012010BD0021FFF797
:100A40008DFF401E8041C00F10BD10B582B00C4616
:100A500000A900F0CEFB30B19DF8000010B12028B5
:100A600001D10120A6E7012016BD10B500F07AF8EB
:100A7000012812D000F016F838B100F00FF820B1BC
:100A80000221204600F05EFC08B9012010BD2021A3
:100A9000204600F01FFDFFF74FFE10BD002120464D
:100AA00000F092BC0021204600F044BA10B5044684
:100AB000002100F00FFD10B1FFF7F0FF08B9012091
:100AC00010BD0021204600F03DFCBAE710B582B011
:100AD0000C4600A900F034FB30B19DF8000010B1C5
:100AE000082801D1012065E7012016BD80B500F07E
:100AF00029FCFFF749BD10B500F034F8012821D0DA
:100B0000FFF7D0FF40B100F029F828B100F022F83B
:100B100010B100F01BF808B9012010BD00F013F867
:100B200001280FD0022100F050F801280AD001213D
:100B300000F048F8012805D04021204600F0D6FCFE
:100B4000FFF7FAFD10BD08212046C1E00221204632
:100B500000F054BB0421204600F05CBB0821204675
:100B600000F064BB04469FED040AFFF74BBC000095
:100B700000005041000080BF0000D04310B5044683
:100B8000002100F0B3FCA0B10021FFF7DDFF012838
:100B900016D000F019F8012812D000F012F8012840
:100BA0000ED00021FFF7D3FF18B10021FFF7D3FFCC
:100BB00008B9012010BD0021FFF7D1FFFFF7BCFDF0
:100BC00010BD002120468DE00021204685E010B5B3
:100BD00082B00C4600A900F0C9FA30B19DF80000BF
:100BE00010B1202801D10120E4E6012016BD10B586
:100BF000FFF7B8FF01282CD0FFF754FF08B3FFF729
:100C0000ADFFF0B1FFF7A6FFD8B1FFF79FFFC0B16E
:100C1000FFF799FF01281CD00321FFF7D6FF012819
:100C200017D00321FFF7CEFF012812D0082120465C
:100C300000F05DF801280CD08021204600F099FBDF
:100C400008B9012010BD0821204600F025FCFFF75F
:100C500073FD10BD10B50446002100F01DFCF8B175
:100C60000021FFF771FF012821D0FFF7ADFF012818
:100C70001DD0FFF7A6FF012819D00021204600F063
:100C800036F8012813D00021204600F072FB38B15D
:100C90000021FFF75CFF18B10021FFF75CFF08B9E6
:100CA000012010BD0021FFF75AFFFFF745FD10BDE1
:100CB00010B582B00C4600A900F053FA30B19DF88F
:100CC000000010B1102801D1012073E6012016BDEB
:100CD00080B500F0D5FAFFF757BC80B500F0F7FA01
:100CE000FFF752BC80B500F0FFFAFFF74DBC80B5AE
:100CF00000F014FBFFF748BC10B5FFF733FF0128E5
:100D00000FD0FFF7CFFE20B14021204600F0C4FAFB
:100D100008B9012010BD0421204600F0B1FBFFF707
:100D20000BFD10BD10B50446002100F0A9FB08B969
:100D3000012010BD0021204600F0AEFA81E610B57A
:100D400082B00C4600A900F037FA30B19DF80000DF
:100D500010B1402801D101202CE6012016BD10B5AC
:100D600082B00C4600A900F006FA30B19DF80000F0
:100D7000002818BF012800D11CE6012016BD10B5BF
:100D800082B00C4600A900F0FBF930B19DF80000DC
:100D900010B1022801D101200CE6012016BD10B5CA
:100DA00082B00C4600A900F0F0F930B19DF80000C7
:100DB00010B1042801D10120FCE5012016BD10B5B9
:100DC00082B00C4600A900F0E5F930B19DF80000B2
:100DD00010B1082801D10120ECE5012016BD10B5A5
:100DE00082B00C4600A900F0DDF930B19DF800009A
:100DF00010B1102801D10120DCE5012016BD10B58D
:100E000082B00C4600A900F0D2F930B19DF8000084
:100E100010B1202801D10120CCE5012016BD0268C7
:100E2000531C03601170704780B5012305E004B5C1
:100E3000012300AA00F004FC01E000F009FC401EC0
:100E40008041C00F02BD38B500F0BBF90121FFF7AA
:100E5000EBFF30B100F0E9F8012100F0F0F800B14B
:100E6000012032BDFFF7E0FF20B1207800F0400004
:100E70002070012010BD38B500F012F830B100F03C
:100E800006F80A2100F0DBF800B1012032BD9DF820
:100E9000000000F0F80028438DF80000024670477B
:100EA0000D46044600AA0A21BEE70D46044600AAE4
:100EB0000D21B9E7FFF7B8FF20B1207800F010004E
:100EC0002070012010BDFFF7AFFF20B1207800F0A7
:100ED00020002070012010BD38B5FFF7E6FF28B1D3
:100EE00000F0A3F800F0AAF800B1012032BDFFF72E
:100EF0009BFF20B1207800F001002070012010BD80
:100F0000FFF792FF20B1207800F00200207001204E
:100F100010BDFFF789FF20B1207800F00400207099
:100F2000012010BD80B50A460F21FFF77DFF00B1FB
:100F3000012002BD38B500F009F830B100F021F809
:100F4000102100F07CF800B1012032BD0D460446AE
:100F500000AA102168E710B50C462246102119E0BE
:100F600038B5FFF7F3FF30B100F01DF8102100F0A5
:100F700066F800B1012032BD10B50C4622461021A2
:100F80001AE09DF8000000F0F30028438DF80000FF
:100F900002467047FFF748FF20B1207800F00C00B0
:100FA0002070012010BD9DF8000000F00F002843C4
:100FB0008DF8000002467047FFF736FF20B1207819
:100FC00000F0F0002070012010BD38B500F009F8E5
:100FD00030B100F085F8122100F031F800B10120A5
:100FE00032BD0D46044600AA1221FFF71DBF38B5D9
:100FF000FFF7F7FF30B100F00FF8122100F01FF8F3
:1010000000B1012032BD9DF8000000F0DF00284350
:101010008DF80000024670479DF8000000F0BF0008
:1010200028438DF80000024670479DF8000000F04C
:101030007F0028438DF80000024670470D212046AE
:10104000FFF7F5BE38B500F03CF830B100F006F817
:101050001821FFF7F4FF00B1012032BD9DF8000018
:1010600000F0F70028438DF800000246704710B5E5
:1010700000F032F8ABE038B500F023F830B100F002
:1010800006F81821FFF7DBFF00B1012032BD9DF803
:10109000000000F0EF0028438DF800000246704782
:1010A00010B500F019F8FFF705BF38B500F009F8E2
:1010B00030B1FFF7A8FF1821FFF7C1FF00B10120F1
:1010C00032BD0D46044600AA1821FFF7ADBE10B58B
:1010D00000F002F8FFF7F7BE0C46224618217047D1
:1010E0009DF8000000F0FB0028438DF80000024648
:1010F000704738B500F012F830B100F006F8192149
:10110000FFF79DFF00B1012032BD9DF8000000F007
:10111000FD0028438DF80000024670470D46044646
:1011200000AA1921FFF780BE38B5FFF7F7FF30B1ED
:10113000FFF7D6FF1921FFF782FF00B1012032BD72
:1011400010B500F001F842E00C4622461B21704722
:1011500010B5FFF7F9FFFFF7B6BE0C4622461C217B
:10116000704710B5FFF7F9FFFFF7A4BE10B5FFF702
:10117000F4FFFFF7A8BE10B500F010F8FFF7B7BEF8
:1011800010B500F00BF8FFF7BBBE10B500F006F885
:10119000FFF7BFBE10B500F001F818E00C4622467C
:1011A0001D21704710B5FFF7F9FFFFF783BE10B59B
:1011B000FFF7F4FFFFF787BE10B5FFF7EFFFFFF76C
:1011C00051BE0D46044600AA704700F00EF8FFF726
:1011D0002BFE20B1207800F008002070012010BD07
:1011E00010B500F002F8FFF765BE0C462246532109
:1011F000704710B5FFF7F9FFFFF765BE38B500F08F
:101200002DF830B1FFF781FF5821FFF718FF00B12B
:10121000012032BD38B500F021F830B1FFF760FF92
:101220005821FFF70CFF00B1012032BD38B500F0A6
:1012300015F830B1FFF712FF5821FFF700FF00B19A
:10124000012032BD38B500F009F830B1FFF7DBFE00
:101250005821FFF7F4FE00B1012032BD0D460446CF
:1012600000AA5821FFF7E0BD38B5FFF7F7FF30B10E
:10127000FFF7D2FE5821FFF7E2FE00B1012032BD98
:1012800038B500F01EF830B100F078F95921FFF7B9
:10129000D6FE00B1012032BD38B500F012F830B1F1
:1012A00000F006F85921FFF7CAFE00B1012032BD57
:1012B0009DF8000000F09F0028438DF800000246D2
:1012C00070470D46044600AA5921FFF7ADBD38B559
:1012D00000F01EF838B19DF8000065F3010000F041
:1012E00010F800B1012032BD38B500F011F838B166
:1012F0009DF8000065F3830000F003F800B10120C1
:1013000032BD8DF8000002465A212046FFF78FBDFE
:101310000D46044600AA5A21FFF786BD38B5FFF7EF
:10132000F7FF70B19DF8000000F00F0040EA0510D3
:101330008DF800005A219DF80020FFF780FE00B1D3
:10134000012032BD38B500F00EF858B19DF800000C
:1013500065F305008DF8000002465B21FFF76FFE84
:1013600000B1012032BD0D46044600AA5B21FFF703
:101370005BBD38B5FFF7F7FF30B1FFF756FE5B21D5
:10138000FFF75DFE00B1012032BD38B500F016F860
:1013900038B19DF8000065F3030000F022F800B1B9
:1013A000012032BD38B500F009F830B1FFF76FFE0B
:1013B0005C21FFF744FE00B1012032BD0D4604461A
:1013C00000AA5C21FFF730BD38B5FFF7F7FF38B151
:1013D0009DF8000065F3461000F003F800B101200D
:1013E00032BD8DF8000002465C212046FFF71FBD8C
:1013F00038B5FFF7E6FE5D21FFF716FD30B1FFF7C8
:1014000046FD5D21FFF71BFE00B1012032BD70B526
:1014100082B0044600AA0E465D21FFF705FD75095E
:1014200008B39DF8000000F0070040EAC6008DF800
:1014300000005D219DF80020FFF701FE98B100AA91
:101440005C2100F0A4F870B19DF8000000F07F006E
:1014500040EAC5108DF800005C219DF80020FFF7E0
:10146000EEFD00B1012076BD38B500F02DF830B1A9
:10147000FFF74BFE5E21FFF7E2FD00B1012032BD18
:1014800038B500F021F830B1FFF72AFE5E21FFF7F2
:10149000D6FD00B1012032BD38B500F015F830B1ED
:1014A000FFF7DCFD5E21FFF7CAFD00B1012032BD70
:1014B00038B500F009F830B1FFF7E9FD5E21FFF71C
:1014C000BEFD00B1012032BD0D46044600AA5E21DA
:1014D000FFF7AABC38B5FFF7F7FF30B1FFF793FD70
:1014E0005E21FFF7ACFD00B1012032BD38B5FFF73A
:1014F000EBFF30B1FFF790FD5E21FFF7A0FD00B1DB
:10150000012032BD2DE9F04180460D46002603271B
:101510000224F6B206F1280100F009F828B1761C81
:10152000641EF6D17F1EF3D10120BDE8F08172194F
:10153000C9B24046FFF778BC7219C9B22046FFF71E
:1015400073BCF8B504460D4600260227F6B206F134
:101550004B01FFF7F1FF18B1761C7F1EF6D1012079
:10156000F2BD38B500F01AF800AA0F2100F00FF80C
:1015700000F004F80F21FFF762FD0BE09DF800007A
:1015800065F304008DF800000246704707212046ED
:10159000FFF74ABC00F007F8012032BD0D460446B3
:1015A0008021FFF750BC00212046FFF74CBC000013
:1015B00080B500F065F800B1012002BD0020704741
:1015C00030B55E4C5E4D8BB0206840F0010020606D
:1015D00006A9206800F001000090009807951020EF
:1015E000069002200990002008904FF0904000F0F3
:1015F000B3F8002200210A2000F0D0F90A2000F000
:10160000EAF9206840F00200206001A9206800F09B
:1016100002000090009802950120019002200490A1
:1016200000200390474800F097F80022114606205A
:1016300000F0B4F9062000F0CEF900200BB030BD68
:1016400010B5447884B000F011F800F067FA06E0B5
:1016500010B5447884B000F009F800F0C4FA18B16D
:10166000204600F063F8012004B010BD4FF4805014
:101670000092029001930A460123214632487047A6
:1016800030B5314C87B0204600F035FB002844D1FE
:101690002E482F4D606001A93320A0600120E0603A
:1016A0002C482060686940F002006861686900F0B9
:1016B0000200009000984FF44070019012200290B8
:1016C0000220049000200390042005901D4800F0A3
:1016D00043F8286A40F4001028620022286A00F4C7
:1016E0000010009000210098286840F40010286045
:1016F000286820F4001028601F2000F04FF91F20F8
:1017000000F069F900221146202000F047F920205E
:1017100000F061F9204600F089F9204600F0EBFA6C
:1017200001280CBF0020012007B030BD80B506485D
:1017300000F0CAF9BDE80140A2E700004C100240E9
:10174000000011100004004884040020280ED0007E
:1017500038100240005400402DE9F8470022784B31
:10176000DFF8E081DFF8E0914FF00F0A30E005FA92
:101770000EFE4EEA040448F82C406FEA070C1C6881
:101780000CEA040E4C68E40348BF47EA0E0EC3F8A7
:1017900000E05C680CEA040E4C68A40348BF47EA0A
:1017A0000E0EC3F804E09C680CEA040E4C68E402D8
:1017B00048BF47EA0E0EC3F808E0DC680CEA040CE8
:1017C0004C68A40248BF47EA0C0CC3F80CC0521C7A
:1017D0000F6837FA02F400F09B804FF0010C0CFA0E
:1017E00002F42740F3D04D68022D18BF122D11D1FD
:1017F000D50800EB850C02F00706DCF820504FEA14
:10180000860E0AFA0EF6B5430E6906FA0EF6354351
:10181000CCF820504FEA420C0326056806FA0CF675
:101820006FEA060E0E7906F003060EEA050506FAC3
:101830000CF635430560E4434D68012D18BF022DB9
:1018400003D0112D18BF122D0FD18568CE680EEA76
:10185000050506FA0CF63543856045684E68C6F303
:10186000001625409640354345604D6805F0030657
:10187000032E06D1C66AC5F3C005344095402C43FB
:10188000C462C4680EEA040E8C6804FA0CF444EADC
:101890000E04C4604C68E40099D5D9F8004044F0C7
:1018A0000104C9F800404FEA920CD9F8004004F056
:1018B0000104009402F00305009C58F82C404FEA04
:1018C000850E0AFA0EF5AC43B0F1904F08BF002523
:1018D0001DD01E4DA84208BF012518D01C4DA8429E
:1018E00008BF022513D01B4DA84208BF03250ED008
:1018F000194DA84208BF042509D0184DA84208BFB9
:10190000052504D0164DA8420CBF062507252EE755
:10191000BDE8F1870069084018BF0120C0B27047D8
:101920000AB181617047816270470E4A13680342B1
:1019300000D1704780B5106000F0F5FB01BD0000DC
:10194000000401400800014060100240000400480B
:1019500000080048000C004800100048001400482F
:1019600000180048140401400901002806D5294A3E
:1019700000F00F00801800F8041C7047264A8154BC
:10198000704726490A684FF6FF031A4000F0070027
:1019900042EA0020224A10430860704770B51F4B8E
:1019A0001B68C3F302230124C3F10705052D2EBFD5
:1019B0000F2504FA05F56D1E1E1D072E34BF0023EA
:1019C000DB1E2940994004FA03F3BDE870405B1E1A
:1019D0001A401143C8E7012100F01F029140114A4B
:1019E000FFE7400942F82010704710B5401EB0F1E3
:1019F000807F01D3012010BD0B4C60600F214FF0A0
:101A0000FF30FFF7B1FF0020A0600720206000201A
:101A100010BD000018ED00E000E400E00CED00E077
:101A20000000FA0500E100E010E000E038B5050034
:101A300001D1012032BD05F13404607818B920705D
:101A4000284600F055F802206070286801684908AF
:101A5000490001606868296820F0706008612868A2
:101A6000816821F400418160A86840B1E9680129DA
:101A700029680CBF40F4004040F404408860E868E6
:101A8000022803D129684FF4006048602868416843
:101A900041F0007100F038F8286969690843A969C4
:101AA00040EA01202968C860E869296A0843296872
:101AB00008602868016841F0010101600020606051
:101AC00001206070002032BD10B508B9012010BDA2
:101AD00000F134040221617001680A685208520062
:101AE0000A6000F006F8002060606070207010BD91
:101AF000704770471921284600F0B9B928688069F5
:101B0000000470472068416841F40041416070471B
:101B1000534600228021284600F058B92DE9F84F9D
:101B200000F0C4F855D10A9F002F1CBF0B9C002C5D
:101B300050D0FFF7E3FF4CD43078012849D0012082
:101B40003070522000F0CAF800F0DDF840B1706843
:101B5000042802D10020307034E00020307033E0DF
:101B6000FF2C4FF0FF0A009006DD00F035F84946E3
:101B700000F036F8D34606E04FF00073E2B2494673
:101B800000F02EF8A34600F0B2F8C0B9296817F8A3
:101B9000010BABF1010B641EBBF1000F8862A4B214
:101BA00008D14CB14346FFF7B4FF68B9FF2C009051
:101BB000E2DDDAE7002CE6D1FFF79CFF30B1706878
:101BC000042801D1012005E0032003E000F075F8AE
:101BD00000E00220BDE8F28F4FF08073FF227047D3
:101BE000284600F0AEB92DE9F84F00F05FF85AD161
:101BF0000A9F002F1CBF0B9C002C55D0FFF77EFFC7
:101C000051D4307801284ED001203070622000F08D
:101C100065F800F09EF840B17068042802D10020F9
:101C2000307039E00020307038E0FF2C4FF4105055
:101C30004FF0FF0A009006DDFFF7CEFF4946FFF7A1
:101C4000CFFFD34606E04FF00073E2B24946FFF7FC
:101C5000C7FFA346434600220421FFF75CFFE8B913
:101C60002868ABF1010B406A07F8010B641EBBF159
:101C7000000FA4B208D14CB14346FFF74AFF68B940
:101C8000FF2C0090DFDDD7E7002CE3D1FFF732FF18
:101C900030B17068042801D1012005E0032003E081
:101CA00000F00BF800E00220BDE8F28F054605F1D8
:101CB000340689467078012870472968064A202032
:101CC000C86128684168114041600120707000209F
:101CD000307070470000000000E800FE70700020C7
:101CE00070602846DDF83080CDF8008070474146AE
:101CF000284600F0A1B890F835007047416841F4DB
:101D0000804141607047F8B500F04FF84FF08073A4
:101D1000F2B200F048F800F018F818B1A06B0428EF
:101D200011D107E0012E07D000F036F820B1A06BEA
:101D3000042808D10120F2BD2068EDB285623B463F
:101D400000F040F800B10320F2BD069F394620465E
:101D500072E0F8B500F029F80023F2B200F023F8A1
:101D6000FFF7F3FF18B1A06B042813D107E0012E91
:101D700007D000F011F820B1A06B04280AD101208F
:101D8000F2BD2068EDB285623B460022402100F0A2
:101D900016F800B10320F2BD2168280A886239468E
:101DA000204649E029462046CBE004464FF4005047
:101DB000009015461E46704701224FF40041204610
:101DC00004E01923002280212046FFE72DE9F0419D
:101DD00004460D4690461E4600F028FAB8F1000F62
:101DE00007460CD100F01FF81AD016F1010FF9D0F8
:101DF0008EB100F01BFAC01B8642F3D20BE000F05C
:101E000012F80DD116F1010FF9D026B100F00EFA3B
:101E1000C01B8642F3D204F1340000F04DF800E01C
:101E20000020BDE8F081206880692840C003C00B15
:101E3000E903B0EBD13F704770B500F030F80646CB
:101E400020688069800710D42946204600F03AF8BF
:101E500008B1012070BD15F1010FF1D025B100F0DE
:101E6000E5F9801B8542EBD21DE0002070BD70B506
:101E700000F015F806462068806980060DD42946D2
:101E8000204600F01FF808B1012070BD25B100F018
:101E9000CDF9801B8542EED205E0002070BD0446DE
:101EA0000D4600F0C3B904F13400416841F020014F
:101EB000416000F001F870BD012141700021017006
:101EC00003207047F8B5FFF7EAFF064620688169EE
:101ED000C9062FD504F13407797812291FBF797804
:101EE00052297978622904D14168890101D4FFF728
:101EF00005FF2068816989060CD415F1010FF8D01F
:101F000025B100F093F9801B8542F2D200F014F85D
:101F10000320F2BD1021C16120202168114AC8614F
:101F200020684168114041600420786000F004F8A6
:101F30000120F2BD0020F2BD012078700020387031
:101F4000704730B50068084D44682C40890554EA54
:101F5000915141EA0241039A19431143416030BD56
:101F60000000000000E800FE009800FC30B587B0DB
:101F700000208DF8040000F031F900F069F900202C
:101F800000F0C0F90121002000F0F6F900F058FA45
:101F90006F4C704860604020A0607F20E0604FF48C
:101FA0009870206100206061E0612062201D00F0D7
:101FB0009BFA00B1FEE78DF80300012201208DF8A5
:101FC00001008DF802008DF8000000A9201D00F02E
:101FD00050FB00B1FEE78DF808008DF809008DF880
:101FE0000A008DF80B0005900690012202A9201D21
:101FF00000F0CAFA00B1FEE704F12801012000F068
:1020000025FC012803D1002000F0A0F9FEE7A06A1A
:1020100000F0BEFCA06A00F0D3FC00F007F9054612
:102020002078A0B1A06A01A900F0D8FC68B99DF899
:10203000040050B100F01CF8002000F087F9642083
:1020400000F0F7F8002000F08CF900202070607894
:1020500020B1A06A00F0E0FC00B96070284600F0F2
:102060007EF840F6B8318842DAD300F001F8D4E7C0
:10207000F0B589B0364C002204A9201D00F0D4FA36
:10208000002203A9201D00F051FB0598C0F59870AF
:102090006421484340F2311190FBF1F52BA104F18A
:1020A0002C0000F0D9FC00F033F82B4E41F28837B9
:1020B00000F032F89DF812009DF811309DF81020C4
:1020C0000FF2A8010090EDB2019504F12C0000F090
:1020D000C3FC00F01DF800F01FF8A06A02A900F090
:1020E00067FCA06AA11C00F088FC012807BF9DF8CE
:1020F00008200FF29C0162880FF2D00104F12C003D
:1021000000F0AAFC00F004F800F006F809B0F0BDF9
:1021100004F12C0000F0BABC82B23B4604F12C0161
:10212000304600F00DBD10B5B0F5005F084C06D18B
:10213000002000F061F930B90120607010BD102856
:1021400004BF0120207010BD000000000A00000044
:102150001403002000280040A4010020FEE710B571
:10216000044600F063F8001B10BD000054696D6563
:10217000207374616D703A20253032643A25303214
:10218000643A253032642E253032640A00000000A3
:102190004572726F722067657474696E672073741C
:1021A000657020636F756E742066726F6D204C537E
:1021B0004D36445333202D20616363656C65726F27
:1021C0006D657465725B25645D2E0A0053746570DD
:1021D00020636F756E743A2025640A0080B51A4832
:1021E000016841F4807101600320FFF7CAFB0F20F2
:1021F00000F005F800F002F8002002BD704710B5AD
:10220000044601F073FA4FF47A71B0FBF1F0FFF776
:10221000ECFB002221464FF0FF30FFF7BFFB002010
:1022200010BD0A480168491C0160704707480068F2
:10223000704738B50446FFF7F9FF0546FFF7F6FF8C
:10224000401BA042FAD331BD00200240D004002040
:1022500000B595B000A8142101F0CAFA0FF264018C
:1022600005A891EC100B80EC100B102005900120BC
:102270000B9060200D9000200C9002200E90012009
:102280000F90109028201190022014900720129097
:102290000420139005A800F0ADFE08B1FFF75EFF23
:1022A0000F20009004210320019000200290039051
:1022B000049000A801F0B4F808B1FFF74FFF15B083
:1022C00000BD000000000000000000000000000051
:1022D00000000000000000000000000000000000FE
:1022E00000000000000000000000000000000000EE
:1022F00000000000000000000000000000000000DE
:102300000000000010B586B0044600F086F83CB925
:10231000DFF81001016841F00101016000F010F8E0
:102320000FF2101030F8140000F070F80220049042
:10233000DFF8F40050F82400FFF70EFA06B010BDE5
:10234000006800F001000090009870470FF2E4016F
:10235000DFF8D43031F8101053F820000122FFF7D5
:10236000DFBA0FF2D001DFF8C03031F8101053F8A7
:1023700020000022FFF7D4BA30B587B004460D46DE
:1023800000F04BF854B9DFF89C00016841F00401FB
:102390000160006800F0040000900098DFF88C00F5
:1023A0000FF294013DB931F814100191002102910E
:1023B00000F01AF816E0012D14D131F81410019133
:1023C000DFF86C100291002100F00EF80FF26C00A3
:1023D00030F8144000220F2160B2FFF7DFFA60B23C
:1023E000FFF7F9FA07B030BD03910221049101A96A
:1023F00050F82400FFF7B0B90FF23C01DFF82C20B1
:1024000031F8101052F82000FFF784BA019001A9AA
:102410000120029000200390704701A8142101F0D0
:10242000E7B900004C100240980100209C010020F8
:102430000000211020000000002000002800000003
:1024400010B51E481E4C86B000F044F800F042F86B
:10245000C16841F40031C16001A9C06800F40030D6
:102460000090009804200190022002900020039028
:102470000220049000F028F80820019001A900F043
:1024800023F8104820604FF4E13060600020A06025
:10249000E0602061A0610C206061204600F012FB2A
:1024A00000B1FEE704F1700060654FF4807104F143
:1024B000580001800021416106B010BD4C1002405F
:1024C000A401002000440040072005904FF09040F8
:1024D000FFF742B9016841F001010160016801F0B4
:1024E000010100910099704738B5040011D094F8AB
:1024F000210020B984F82000204601F07DF900F089
:1025000038F8FF250028206805D04562042084F8AB
:102510002100012032BD8168DFF89822114000F0CF
:102520007FF8626823691A43A3691A4311438160E3
:102530002168E068086120680169A26841EA0241F7
:1025400001612068C16821F08001C1602068C16C10
:1025500089088900C1642068C16CE26963691A4313
:102560001143C16420684562012084F821000020E5
:1025700032BD022084F82100CA202168486253201D
:1025800021684862204633E1F8B500F0F3F801D144
:102590000220F2BD00F0FAF80FD140065CBF002027
:1025A000E870287800F03EF900F037F800F0DFF826
:1025B000390241EA064108430BE0400603D528787A
:1025C00000F03BF901E00020E8706978287800F01D
:1025D00091F8E97840EA014600F09BF8FF27B0B98E
:1025E0002168DFF8D401304008602068816821F458
:1025F000802100F015F8EA682B691A4311438160C5
:1026000000F07EF806D4204600F0DAF810B1206819
:10261000476286E020684762C4E00646687801E1C8
:10262000816020688168704710B500680C46816A37
:10263000616001694904490CA1600068DFF8781104
:102640000840010C01F03F032370A070030A01F061
:1026500040006370E0703AB9207800F0EEF800F0C6
:1026600005F800F081F8A070002010BD207060789F
:10267000E3E0F8B500F07EF801D10220F2BD0120C0
:1026800084F82000022084F82100002A687826D1EE
:10269000C10603D500F0EF000A306870E87800F05A
:1026A000C1F8FFF7BAFF00F062F8390241EA0641CB
:1026B0000843297840EA413600F02BF8FF2558B945
:1026C0002168DFF8F8003040486000F019F810D4B5
:1026D000204600F075F860B12068456221E000F006
:1026E000ACF8A87800F0A9F86978E87800F002F86A
:1026F000DFE755E0090241EA0040A9780843704746
:102700002068C16821F08001C1602068806880066F
:1027100070472168CA2048625320216848622046D9
:1027200066E0042000F02CF80120F2BD10B500682E
:1027300040680C46DFF884100840010CE170A0707E
:10274000010A01F01F01400B617000F007002070CA
:1027500042B9E07800F071F8E070FFF788FF00F010
:1027600003F8A070002010BD6070A07865E00746F7
:10277000A87857E004460D4694F8200001287047D9
:1027800084F82100002084F820007047012084F89C
:102790002000022084F82100002A20688068704709
:1027A00020684562012084F82100002084F8200080
:1027B000F2BD0000BFFF8FFF7F7F7F003FFFFF0064
:1027C00038B504462068C16821F0A001C160FFF758
:1027D0002DFD05462068C068800607D4FFF726FD5A
:1027E000401BB0F57A7FF5D9032032BD002032BD01
:1027F00038B504462068C168490611D44FF0FF314E
:10280000C160FFF713FD05462068C068400607D485
:10281000FFF70CFD401BB0F57A7FF5D9032032BDE0
:10282000002032BD002101E0491C0A38C0B20A284C
:10283000FADA40EA0110C0B2704701090A2200F03A
:102840000F0012FB0100C0B27047000010B50C462B
:102850000021216068B10128204610D000F04DF819
:10286000012804D1204600F010F801280BD00020E8
:1028700010BD204600F009F80128F8D103E000F06F
:102880003CF80128F3D1012010BD38B5394D04467C
:10289000E878012830D0FEF78BFE01282CD0682084
:1028A0002870D62068700020688028710120687127
:1028B00005F12800A8603048E860002028612F4812
:1028C000E86305F13800A8620020E8622560E86846
:1028D0000168080004D11421284600F089FF07E0B0
:1028E00028468847012804D12068142100F0BCFF45
:1028F0004AE0FEF763FE002032BD38B51D4D0446A8
:10290000E87D012834D0FEF753FE012830D069203D
:102910002875D42068750120A8750020E8752876F0
:102920000120687605F13000E861154828621548F5
:10293000686205F1400028630020686305F1140017
:102940002060286A0168080005D1142105F11400EF
:1029500000F04EFF08E005F114008847012804D17B
:102960002068142100F080FF0EE0FEF729FE002011
:1029700032BD00004004002008010020C0040020F7
:102980004C0100200000002000202060012032BD0A
:1029900080B518B1C16889680A0001D1012002BD63
:1029A0008847012818BF002002BD0870002070472A
:1029B000002818BF002901D1012070478078F4E772
:1029C00000281CBF0169002906D00278692A03D1BA
:1029D00009690A0018BF08470120704700281CBF7A
:1029E0000269002A07D031B10378692B03D19269BB
:1029F000130018BF10470120704700281CBF026950
:102A0000002A07D031B10378692B03D1D2691300B2
:102A100018BF10470120704738B504001CBF256956
:102A2000002D16D02078692813D1296A08001CBF10
:102A3000686A00280DD02046884701280AD00A205D
:102A4000FFF7F7FB696A20468847012802D000207B
:102A500032BD012032BD00000CB41CB5044604A8F0
:102A600001900A46009401AB00A907487844183049
:102A700000F0FEFE009A0021117000285CBF009853
:102A8000001B16BC5DF80CFB97E3FFFF00F1010390
:102A9000810704D010F8011B89B18107FAD10268BF
:102AA000B2F10131914311F0803F04BF50F8042F7F
:102AB000F6E710F8011B11B110F8011BFBE7C01A73
:102AC0007047000038B504000BD004F16805687841
:102AD00018B92870204600F032F800F00DF80128EF
:102AE00001D1012032BD606A08B100F025F800F084
:102AF00014F821F02A0109E00220687020680168BA
:102B0000490849000160204600F06CB8816000F07F
:102B10000CF8BDE8324000F0F6B92068416821F4B5
:102B2000904141602068816870472068016841F0E9
:102B30000101016020467047204600F081B97047CE
:102B4000F8B5044604F150070D46787E01281CBFF5
:102B5000787E22281E4640D1002D18BF002A01D1C0
:102B60000120F2BD387E012837D0012038760020C0
:102B7000F861787E22280CBF3220122078763A80C5
:102B80007A8001E0216808857888A8B1401E7880A5
:102B900033460022802100F022F898B9A068B0F5F1
:102BA000805F04BF2069002811BF15F8010B35F8BC
:102BB000020BC005C00DE5E733460022402100F0BE
:102BC0000EF808B10320F2BD787E32280CBF222017
:102BD0000120787600203876F2BD0220F2BD204632
:102BE00000F0B6B9F8B50446894B22681068184061
:102BF000A36818432369184363691843E3691843BA
:102C0000106010265068E36820F44050184350606C
:102C100000210025A0697F4B9A421CBF276A3843D8
:102C2000976827F43067384390607B4F7B48BA42FF
:102C30001FD1006810F0030004D0022826D035D33D
:102C4000032831E00126E069B0F5004F40F0B9807B
:102C500066B1012E00F09E80022E00F09E80042EB0
:102C600000F09D80082E00F09E80A2E000F04DFD57
:102C700097E06B4FBA420BD1006810F00C005DD0AA
:102C8000042813D0082801D00C280DE002261DE0EE
:102C9000644FBA420CD1006810F030004ED01028BA
:102CA00004D02028F2D030280FD00FE004260DE009
:102CB0005D4FBA4223D1006810F0C0003ED04028DA
:102CC000F4D08028E2D0C02800D108269A42BAD198
:102CD000300006D0022E33D0042E33D0082E34D04C
:102CE00092E000F012FD002800F08F80626802EB95
:102CF0004201884202D31103814229D284E04B4F22
:102D0000BA420CD1006810F4407017D0B0F5807F43
:102D1000CCD0B0F5007FB9D0B0F5407FC4E79A427F
:102D2000D4D1006810F4406008D0B0F5806FBDD0F9
:102D3000B0F5006FAAD0B0F5406FB5E70026C5E743
:102D40003B48D3E700F07BFCCDE74FF40040CDE7F4
:102D500036B1022E07D0042E07D0082E0CD012E078
:102D600000F0D3FC03E0334808E000F068FC010EFB
:102D700062680002002303E04FF4000000210B46CC
:102D800001F048F900E00125A0F540712A4A91427E
:102D90003AD22EE000F0C1FC03E0284805E000F044
:102DA0004EFC400001E04FF480306168B0FBF1F16F
:102DB00000E001254FF6F0700840C1F342010843DE
:102DC00017E046B1012E09D0022E0AD0042E0AD0F7
:102DD000082E11D018E000F098FC06E000F09DFCF1
:102DE00003E013480AE000F02AFC6168B0FBF1F050
:102DF00080B22168C86008E04FF400406168B0FB11
:102E0000F1F080B2D06000E001252846F2BD00005C
:102E1000F369FFEF00800040003801408810024055
:102E20000044004000480040004C0040005000407A
:102E30000024F400000024F400FD0F000048E80125
:102E400090F82410C90706D501684A68836A22F4FD
:102E500000321A434A6090F82410890706D50168A9
:102E60004A68C36A22F480321A434A6090F82410F8
:102E7000490706D501684A68036B22F480221A4389
:102E80004A6090F82410090706D501684A68436B28
:102E900022F400421A434A6090F82410C90606D56D
:102EA00001688A68836B22F480521A438A6090F822
:102EB0002410890606D501688A68C36B22F4005283
:102EC0001A438A6090F82410490610D501684A68B0
:102ED000036C22F480121A434A60026CB2F5801F20
:102EE00005D14A68436C22F4C0021A434A6090F844
:102EF0002410090606D501684A68806C22F4002275
:102F000010434860704770B5044604F1680500201E
:102F100068606FF07E4620680068000706D533467B
:102F200000224FF40011FFF75AFE50B920680068E4
:102F3000400708D5334600224FF48001FFF74FFECB
:102F400008B1032070BD012068700020287070BD9A
:102F50002DE9F84304460E4691461F46FFF766F9F1
:102F6000B9F1000F804604F168050FD12068C069EF
:102F70003040B0422BD017F1010FF7D0AFB1FFF7BF
:102F800055F9A0EB08008742F0D20EE02068C06936
:102F90003040B0421BD117F1010FF7D02FB1FFF72E
:102FA00045F9A0EB08008742F0D2206800F012F843
:102FB00021F0200101602068016821F48071016026
:102FC00000F00FF8687000202870032000E0002057
:102FD000BDE8F283016821F080010160206801688A
:102FE0007047206881684908490081600120704766
:102FF000000000002DE9F047044682B02078DFF899
:10300000B857DFF8B067C00625D5B06810F00C0FD0
:103010003AD13068C0F3400010B1A069002831D027
:10302000306800074EBF30686868000900F0F001A2
:10303000206A814206D200F081FB002822D100F0F4
:10304000DDF905E000F0DAF9206A00F077FBC8B995
:103050000F20FFF7D4F82078C00741F2893876D5E1
:1030600000F0D7FA07D000F0D9FA02BFF06800F0FC
:10307000030003282ED100F0BDF9002867D0606856
:10308000002864D10120A3E1A0690028306811D094
:1030900040F0010000F0A5F907463068C0F3400099
:1030A00028B9FFF7C3F8C01B6528F6D38DE100F0FF
:1030B000A5F9D0E74008400000F093F907463068D2
:1030C000C0F340000028C6D0FFF7B0F8C01B652849
:1030D000F5D37AE100F088F920F4802000F081F93E
:1030E000074600F087F928B1FFF7A0F8C01B40455C
:1030F000F7D36AE16068B0F5803F07D0B0F5A02F44
:1031000000F072F906D140F480203060306840F45D
:10311000803001E020F480203060606858B1FFF713
:1031200085F8074600F066F988B9FFF77FF8C01BFD
:103130004045F7D349E1FFF779F8074600F05AF91F
:1031400028B1FFF773F8C01B4045F7D33DE1207865
:10315000800718D500F058FA07D000F05FFA02BFD8
:10316000F06800F00300022825D13068C0F3802009
:1031700010B1E068002885D07068216920F0F8500F
:1031800040EA016070602078000748D56069002837
:10319000686834D040F001006860FFF747F80746E0
:1031A0006868C0F34000002839D1FFF73FF8C01B22
:1031B0006528F5D309E1E068002830680FD040F4B5
:1031C000807000F00EF907463068C0F380200028B8
:1031D000D2D1FFF72BF8C01B6528F5D3F5E020F41A
:1031E000807000F0FEF807463068C0F380200028A9
:1031F000C9D0FFF71BF8C01B6528F5D3E5E04008F0
:1032000040006860FFF712F807466868C0F34000A6
:1032100028B1FFF70BF8C01B6528F6D3D5E020785E
:10322000400773D5B06DC0004FF000090AD4B06DEF
:1032300040F08050B0654FF00109B06D00F0805053
:1032400000900098DFF874A5DAF80000C00512D4E9
:10325000DAF8000040F48070CAF80000FEF7E6FFDC
:103260000746DAF80000C00505D4FEF7DFFFC01BF3
:103270006528F6D3A9E0286800F0ACF82860FEF7CE
:10328000D5FF07462868C0F3400028B1FEF7CEFFFF
:10329000C01B4045F6D398E0A06801280CD008B9BF
:1032A00028680DE0052828680AD1400840002860F9
:1032B000286840F004002860286840F0010001E020
:1032C00000F088F82860A06860B1FEF7AFFF0746FD
:1032D0002868C0F3400090B9FEF7A8FFC01B404526
:1032E000F6D372E0FEF7A2FF07462868C0F340005D
:1032F00028B1FEF79BFFC01B4045F6D365E0B9F14E
:10330000000F03D0B06D20F08050B065606A0028D7
:103310005DD0B16801F00C010C293FF4B3AE022876
:10332000306820F0807030603AD1FEF77FFF0746AA
:103330003068C0F3406028B1FEF778FFC01B6528F5
:10334000F6D342E0E06A216B401E090241EA001018
:10335000616B090940EA4140A16A0843A16B891EDB
:103360000905490D40EA4150E16B891E090601F04B
:103370007E410843F060306840F080703060F06853
:1033800040F08070F060FEF751FF07463068C0F3F0
:103390004060E0B9FEF74AFFC01B6528F6D314E091
:1033A000F068DFF81C1480088000F060F0680840C6
:1033B000F060FEF73BFF07463068C0F3406030B175
:1033C000FEF734FFC01B6528F6D3032000E0002081
:1033D000BDE8F687400840002860286820F0040017
:1033E00070473060FEF722BF306820F480303060D4
:1033F000306870473068C0F340407047306840F034
:10340000080030603068216A20F0F0000843306026
:103410007068E16920F47F4040EA012070607047E5
:103420002DE9F843DFF89C53DFF8886304462868E9
:103430000F4600F00700B84241F289385BD2002FF6
:1034400018BF012F04D0022F1CBF032F042F04D15B
:103450002868C00847EAC00000E0286800F0C7F804
:1034600016D100F0E0F840F1A9806068022803D18D
:103470003168C1F340410AE0032803D13168C1F348
:10348000406104E00028316803D1C1F3400121B953
:1034900092E0C1F380210029FAD000F0AEF8054691
:1034A0006068022808D100F0B4F809D0FEF7BEFE2B
:1034B000401B4045F7D36BE0032808D100F0AEF87D
:1034C0007CD0FEF7B3FE401B4045F7D360E048B91F
:1034D000B06810F00C0F71D0FEF7A8FE401B4045FD
:1034E000F6D355E000F090F868D0FEF79FFE401B41
:1034F0004045F7D34CE000F096F84BD560680228C1
:1035000003D13168C1F3404109E018B93168C1F312
:10351000400104E00328316803D1C1F3406121B9BF
:103520004AE0C1F38021002946D000F066F88146C8
:103530006068022809D100F06CF82BD0FEF776FE07
:10354000A0EB09004045F6D322E0032809D100F0A2
:1035500065F81FD0FEF76AFEA0EB09004045F6D3E0
:1035600016E060B9B06810F00C0F13D0FEF75EFEE5
:10357000A0EB090041F288318842F3D308E000F063
:1035800043F807D0FEF752FEA0EB09004045F6D302
:1035900003202AE0002F18BF012F04D0022F1CBFE8
:1035A000032F042F04D12868C00847EAC00000E0B8
:1035B000286800F01CF801D0012016E020784007B0
:1035C00005D5B068E16820F4E0600843B060207879
:1035D000000706D5B068216920F4605040EAC100B8
:1035E000B0600F20FEF70BFE0020BDE8F2832860DC
:1035F000286800F00700B8427047B168890840EABF
:103600008100B060FEF712BEB06800F00C00042824
:103610007047B06800F00C0008287047B06800F0F0
:103620000C000C2870472078800705D5B068A16889
:1036300020F0F0000843B0602078C00770475D4973
:103640008B680022002003F00C03042B08BF5F48A6
:1036500027D08B6803F00C03082B08BF5C4820D0F0
:103660008B6813F00C0F09D08B6803F00C030C2B44
:1036700002BFCB6803F00303012B12D10A681207C3
:1036800004D4544A1268C2F3032202E00A68C2F367
:103690000312514B53F822208B6813F00C0F08BF14
:1036A00010468B6803F00C030C2B1ED1C868CB6846
:1036B000C3F302135B1C00F00300022802D00328AE
:1036C00002D005E0414800E04148B0FBF3F001E0E2
:1036D000B2FBF3F0CA68C968C1F34161C2F30622C4
:1036E000491C50434900B0FBF1F0704780B5FFF72B
:1036F000A6FF354B394A1B683949C3F303139A5C5B
:1037000020FA02F30B60086802BD80B5FFF7EEFFF8
:1037100000F00EF8C2F3022206E080B5FFF7E6FFE4
:1037200000F006F8C2F3C222125C21FA02F002BDD8
:10373000254A126801460FF2B000704770B5294E55
:1037400082B0054630680024C00002D500F0DAFCE3
:103750000EE0306840F080503060306800F08050FB
:103760000090009800F0CEFC316821F0805131606B
:10377000B0F5007F04D1812D0DD3A12D06D209E033
:10378000812D28BF032406D2802D01D1022402E01E
:10379000702D00D101240B480168C90844EAC10119
:1037A0000160006800F00700A04201D0012076BD52
:1037B000002076BD001002409010024000700040D2
:1037C000FFFFEEFE00200240081002400024F4003B
:1037D00000127A00941002401C5200080C5200089B
:1037E000A001002058100240000000000102030464
:1037F000002200F08FBC000010B51A4CB0B0206859
:1038000040F080502060206800F0805000900098C8
:1038100000F09AFC0C201F9000202890012024909A
:10382000002021901FA8FFF7E5FB08B1FEF796FCEA
:103830004FF4003001904FF400701E9001A800F08A
:103840008BFC08B1FEF78AFCA06B40F40040A0633B
:1038500000220F212920FEF7A1F82920FEF7BBF84E
:1038600030B010BD58100240002200F027BF000009
:103870002DE9F04F80460FF2847095B092461D46B8
:10388000D0E90023CDE9132303AE00200391B061FA
:103890000DF1340900E0A2440020ADF8020013ABA2
:1038A0004FF0FF3251460DF1020000F036FF0446A2
:1038B000012C05DA9AF80000441EA441E443E40F09
:1038C000BDF8020025280CBFA4F1010BA346BBF1F3
:1038D000010F0EDB574617F8011B0398C04700285D
:1038E000039000F0CE81B069401CBBF1010BB061C8
:1038F000F1D1BDF80200252804D10020F06030612C
:10390000706105E00028C6D1B069BCE140F001005B
:103910001AF8011F2029F9D023290DD02B2904D012
:103920002D2906D030290AD00CE040F0020080B2E8
:10393000EEE740F00400FAE740F00800F7E740F057
:103940001000F4E72A290FD12968296051F8042BC7
:103950002960002A326204D5514240F004003162ED
:1039600080B20AF1010A15E0002131620CE0316AEF
:103970006FF00043994205D001EB810302EB430154
:10398000303931620AF1010A9AF80020A2F13001BF
:103990000A29ECD39AF800102E2903D04FF0FF31FA
:1039A000F16122E01AF8011F2A2908D1296829604B
:1039B0000AF1010A51F8042B2960F26115E0002197
:1039C000F1610CE0F1696FF00043994205D001EB21
:1039D000810302EB43013039F1610AF1010A9AF8DF
:1039E0000020A2F130010A29ECD3B0840FF2146058
:1039F0009AF8001000F0A2FE08B11AF8010B8DF839
:103A000032009DF83200682804BF9AF80000682848
:103A100004D162208DF832000AF1010A0DA8B060CD
:103A20001AF8014B252C13D0582C40D0632C00F0F1
:103A30009880642C18BF692C71D06F2C37D0702CF3
:103A40002BD0732C0AD0752C18BF782C2FD0ABE05C
:103A50000120F06025208DF83400AFE09DF83200A1
:103A60006C282868286014D050F8044B28607460D3
:103A7000F769002F04D52046FFF708F8074606E04F
:103A80003A460021204600F065FE00B1071B376171
:103A900094E050F8042B28607FE02868286050F8F4
:103AA000041B286002910DA87060782155E09DF8F4
:103AB00032006C280DD0712818BF6A2809D12868F7
:103AC000C01D20F007022A60D2E9000108322A60F6
:103AD00004E02968296051F8040B296002909DF8E0
:103AE0003200682802D102A8008803E0622802D1CF
:103AF00002A80078029096F82400000728D50298C2
:103B000030B344F02000782822D1F068302100F84A
:103B10000910401C411CF16000F8094018E09DF8B4
:103B20003200294600F0B2F80028029002D5F06871
:103B30002D2109E0B08C810702D5F0682B2103E02C
:103B4000C00705D5F068202100F80910401CF0607E
:103B50000DA8F16808187060214602A800F0CFF99E
:103B60002CE09DF832006C2809D00120F060286814
:103B7000286050F8041B28608DF834101EE0286877
:103B8000286001AA50F8041B2860ADF8041000203A
:103B9000ADF806004FF0FF30F06102A9404600F09A
:103BA0009BF800280AD56CE00120F06025208DF8F4
:103BB00034001CB10220F06089F80140306AF168DD
:103BC000401A7169401A3169441A96F82400400776
:103BD0000FD420208DF80000002708E0012300AA60
:103BE00002A9404600F0F2F900284AD17F1CA74202
:103BF000F4DBF7680DF1340B0AE01BF8011B0398A6
:103C0000C047002803903CD0B069401CB0617F1EC3
:103C1000002FF2D130208DF800004FF0000B7769B3
:103C200008E0012300AA02A9404600F0CFF940BBFA
:103C30000BF1010BBB45F4DB3769D6F804B009E0A2
:103C40001BF8011B0398C0470390D0B1B069401C1A
:103C5000B0617F1E002FF3D196F8240040077FF556
:103C60001BAE20208DF8000000E07F1CA742BFF6AD
:103C700013AE012300AA02A9404600F0A7F90028CC
:103C8000F3D04FF0FF3015B0BDE8F08F622815D0AB
:103C900068280CD06C2818BF742816D07A2814D144
:103CA0000A680A6052F8040B0A60002170470A682B
:103CB0000A6052F8040B0A6000B20BE00A680A605E
:103CC00052F8040B0A6040B204E00A680A6052F835
:103CD000040B0A60C11770472DE9F44F0D4694B0EC
:103CE000D5F820A0BAF1000F804648BF6FF0004A17
:103CF00000F05CFD696A401801900FF21030D0E9C5
:103D00000023CDE9022395F82800400702D401984A
:103D1000412805D240200DF110090190002607E04E
:103D200000F04AFD5FEA0009F8D1AAE7AAEB040A0D
:103D3000BAF1010FC0F28B801498018802AA0DF12C
:103D4000010000F091FD0028044600F18E801498D7
:103D5000008810B9641E00F18880A24577DB2869CD
:103D600001992218914260D26E624042A969401ABC
:103D70006969461A95F8280040070FD420208DF86D
:103D80000000002708E0012300AA2946404600F071
:103D90001DF9002869D17F1CB742F4DB2F69CB469F
:103DA0000AE01BF8011B6868C047002868605CD007
:103DB000E869401CE8617F1E002FF2D130208DF8A9
:103DC00000004FF0000BAF6909E0012300AA29466B
:103DD000404600F0FBF8002847D10BF1010BBB4532
:103DE000F3DB6F69D5F808B009E01BF8011B6868C0
:103DF000C0476860C8B3E869401CE8617F1E002FB7
:103E0000F3D195F8280040070DD520208DF800004B
:103E100007E0012300AA2946404600F0D7F820BB5E
:103E20007F1CB742F5DB00262E61224628690DF182
:103E30000101484400F026FD2869201828611498E3
:103E4000801C1490801E008800287FF46FAF686A81
:103E50002969401AA969401A6969A0EB010A95F815
:103E60002800400710D400240CE04FF0FF363EE05D
:103E700068682021C04700286860F6D0E869401CC7
:103E8000E861641C5445F3DB2B694A4629464046E9
:103E900000F09CF80028E8D1AC69002709E06868C8
:103EA0003021C04700286860DFD0E869401CE86125
:103EB0007F1CA742F3DB6B69AA682946404600F0E5
:103EC00085F80028D1D195F8280040070DD50024A9
:103ED00009E068682021C04700286860C5D0E8690B
:103EE000401CE861641C5445F3DB2E616E6204A83B
:103EF00081451CBF484600F001FD3046C3E6F0B4E2
:103F0000C2686F2908BF082405D041F02003782B30
:103F100014BF0A24102418230668642918BF6929CD
:103F2000374602D1002E48BF7F425FB9056A4DB9BE
:103F3000082C27D190F82810090723D53021172302
:103F4000D1751FE0B7FBF4F604FB16773037FFB2EC
:103F50005D1E3A2FA4BFA1F1510C6744AF542B460C
:103F6000370003D085689E18B542EBD3082C09D1E1
:103F700090F82810090705D5995C302902D05B1EFE
:103F8000302199549A188260C3F11801026A416184
:103F9000914208DA511A81614FF6EF72018D11409A
:103FA0000185F0BC7047002A0ED590F8282002F059
:103FB0001402102A08D1426A0369D21A8369D21AFC
:103FC000531A012BA8BF8361F0BC7047F8B50446B3
:103FD0000D4616461F46002004E0E869401CE861D3
:103FE0007F1E002047B116F8011B6868A047002813
:103FF0006860F2D14FF0FF30F2BD00000000000019
:1040000000000000686C747A4C00000000000000A2
:10401000000000001B4213D1094236D12AB1844668
:10402000B0FBF2F002FB10C2704700F0A7BCFCD35B
:104030000022002370470B0002000021002070477F
:10404000904271EB030CF6D370B5B1FA81F4B3FA78
:1040500083F52C1BA340C4F1200532FA05F6334347
:10406000A2405FF00046E64002E05B085FEA3202F1
:10407000841A71EB030524BF204629467641F4D308
:1040800002000B003000002170BD012ACFD970B5AD
:10409000140C20D0B1FA81F4B2FA82F5C4F12004F4
:1040A0006419B4F12006D6D3B2405FF00044F44066
:1040B000002502E052085FEA3303C61A71EB020ED4
:1040C00024BF3046714664416D41F3D302000B00BA
:1040D0002000290070BD0C46B1FBF2F102FB114536
:1040E0002D0445EA1045B5FBF2F402FB145580B2ED
:1040F00040EA0545B5FBF2F002FB105240EA0440ED
:1041000070BD0000DFF80800006800F4C060704770
:104110000070004000B500BF130096469446103969
:1041200028BFA0E80C50FAD85FEA417C28BF0CC039
:1041300048BF40F8042BC90728BF20F8022B48BF0E
:1041400000F8012B00BD00000248016841F48071B5
:1041500001607047007000402DE9F84F04460027C9
:104160002068DFF8DC6400250005A84623D5606DD3
:1041700070B1B0F5800F17D0B0F5000F03D0B0F5D7
:10418000400F09D015E0306840F48030306004E022
:10419000201D00F08DF9074667B9F06F616D20F4BE
:1041A00040000843F06706E004F1180000F00FFA41
:1041B000F1E70127B8462068C00423D5A06DA8B157
:1041C000B0F1807F17D0B0F1007F03D0B0F1407F15
:1041D00004D015E0306840F4803030608FB9F06F63
:1041E000A16D20F040700843F0670BE0201D00F047
:1041F0005FF90746F2E704F1180000F0E8F9F8E784
:104200000127B846206880032DD5F06CC000A94670
:104210000AD4F06C40F08050F0644FF00109F06C6B
:1042200000F0805000900098DFF818B4DBF8000030
:1042300040F48070CBF80000FDF7F8FF8246DBF811
:104240000000C00500F18080FDF7F0FFA0EB0A0040
:104250006528F4D30327B846B9F1000F03D0F06CFA
:1042600020F08050F0642078C00705D5F06FA16A77
:10427000800841EA8000F0672078800705D5F06F5C
:10428000E16A20F00C000843F0672078400705D56C
:10429000F06F216B20F030000843F06720780007B2
:1042A00005D5F06F616B20F0C0000843F0672078FF
:1042B000C00605D5F06FA16B20F440700843F0678D
:1042C0002078800605D5F06FE16B20F4406008434C
:1042D000F0672068800505D5F06FE16C20F4402080
:1042E0000843F0672068400505D5F06F216D20F484
:1042F00040100843F0672078400605D5F06F216C28
:1043000020F440500843F0672078000605D5F06F90
:10431000616C20F440400843F0672068C00505D573
:10432000F06FA16C20F440300843F06720688004EF
:1043300043D5F06FE16D00F09EF8E06DB0F1006FD5
:1043400032D100F09DF838E0002F84D1DFF8F87208
:104350003868616F00F4407088420BD0386820F4F0
:104360004075386840F480303860386820F4803018
:1043700038603D60A80710D5FDF758FF054638683E
:10438000C0F3400048B9FDF751FF401B41F28931AD
:104390008842F4D34FF003085EE73868616F20F479
:1043A00040700843386057E7B0F1806F05D1201D99
:1043B00000F0A1F8070018BF80462068000313D55D
:1043C000F06F216E00F057F8206EB0F1006F02D14F
:1043D00000F056F808E0B0F1806F05D1201D00F024
:1043E0008AF8070018BF80462068400313D5F06F95
:1043F000616E00F040F8606EB0F1006F02D100F025
:104400003FF808E0B0F1806F05D1201D00F073F88F
:10441000070018BF80462068400417D5F06FA16ED2
:1044200020F040500843F067A06EB0F1805F03D1E8
:10443000201D00F0A8F806E0B0F1005F06D104F1FD
:10444000180000F005F9070018BF80462068000436
:1044500005D5F06FE16E20F080400843F0672068DA
:10446000C00305D5F06F216F400051EA5000F0679E
:104470004046BDE8F28F20F040600843F067704787
:10448000306840F480103060704708433061306815
:1044900040F080603060FDF7C9BE2846BDE8F0817D
:1044A00008437061306840F080503060FDF7BEBE58
:1044B0002DE9F04100F05EF800F054F800F056F8F5
:1044C00028B1FDF7B3FEC01B4045F7D30EE000F066
:1044D00040F800F0A1F8FFF7D9FF074600F046F8D2
:1044E00030B9FDF7A3FEC01B4045F7D3032501E01B
:1044F00000F02AF8D1E72DE9F04100F03BF800F098
:1045000031F800F033F828B1FDF790FEC01B4045AC
:10451000F7D314E000F01DF8A168891E090520F406
:10452000C000490D40EA4150FFF7B0FF074600F0D8
:104530001DF830B9FDF77AFEC01B4045F7D30325BF
:1045400001E000F001F8A8E7306921690843306113
:1045500070473069216820F4FE4040EA0120306154
:1045600030697047074640F2E93870473068C0F359
:10457000C0607047354E0446306820F0806030607F
:104580000025FDF753BE2DE9F041FFF7F3FFFFF7DC
:10459000E9FFFFF7EBFF28B1FDF748FEC01B4045E0
:1045A000F7D30FE0FFF7D5FFE16800F077F8FFF7EA
:1045B0006CFF0746FFF7DAFF30B9FDF737FEC01B87
:1045C0004045F7D3032501E0FFF7BEFF65E72DE97E
:1045D000F04100F02CF8FFF7C5FF00F024F828B1F7
:1045E000FDF724FEC01B4045F7D30EE000F05DF858
:1045F00000F012F8FFF755FF074600F014F830B945
:10460000FDF714FEC01B4045F7D3032503E0706996
:10461000E1680843706140E7616820F400300909EF
:1046200040EA414070473068C0F340707047074E21
:104630000446306820F0805030600025FDF7F6BD5C
:104640000C10024000700040901002400010024028
:104650002DE9F041FFF7EBFFFFF784FFFFF7E3FFE2
:1046600028B1FDF7E3FDC01B4045F7D30FE000F094
:104670001CF8A16800F012F8FFF712FF0746FFF7D9
:10468000D2FF30B9FDF7D2FDC01B4045F7D303255B
:1046900003E07069E16808437061FEE6891E09065F
:1046A00020F0C06001F07E4170477069216820F4FD
:1046B000FE4040EA0120706170697047401810F0B8
:1046C000030308D0C91A1FD3DB0748BF00F8012D28
:1046D00028BF20F8022D130030B4144615461039B7
:1046E00028BF20E93C00FAD8490728BF20E90C0080
:1046F00048BF40F8042D890028BF20F8022D48BF8C
:1047000000F8012D30BC7047C91818BF00F8012D02
:10471000CB0728BF00F8012D7047F8B504460D46B9
:1047200016461F4600F02CF93B46324629462046E5
:1047300001B0BDE8F04000F03AB900000278C9B21B
:104740008A421AB11CBF10F8012FF9E718BF0020E8
:1047500070470000C9B2830706D0521E22D310F85A
:10476000013B9942F7D11FE0083A13D302F104024A
:1047700041EA012141EA014150F8043B121F21BFE7
:104780004B40A3F1013C2CEA030C1CF0803FF3D01A
:10479000C9B2001F083210F8013B521E28BF91EA2F
:1047A000030FF8D818BF0120401E704780B500F0F5
:1047B000E7F8012002BD000070B5054605F10F00C5
:1047C000C408C046C046E400A54232D2082C04D238
:1047D000082402E0083000F091F822480268110035
:1047E0000CD1011D0A6802B31368A34238BF111D22
:1047F000F8D310E01D68A5420DD2191D0B68002BDF
:10480000F8D11268011D00E0191D0B6893420CD00D
:104810001D68A542F8D361B10D682A68A2F10803AA
:10482000A3420AD26A680A600FE000F0E3F80028A9
:10483000D0D1C046C046002070BD63190B60121B6A
:104840006E685E600B681A602C60096800291DBFE5
:104850004A68002A091D00210160C046C04605F1D2
:10486000080070BDC804002070B504460D46164609
:1048700000F086F8324629462046BDE8704000F038
:1048800089B8000062B38B0708D0521E11F8013BB3
:1048900000F8013B00F024808B07F6D1830740F03D
:1048A000208000BF103A07D330B4B1E83810103A76
:1048B000A0E83810F9D230BC530724BFB1E8081083
:1048C000A0E8081044BF51F8043B40F8043BD2076D
:1048D00024BF31F8022B20F8022B44BF0B78037061
:1048E0007047083A07D3B1E80810083A40F8043B8B
:1048F00040F804CBF7D25307E4E7000000B9704753
:1049000038B5A0F108042068082833D310F0070F49
:1049100030D1C046C0461848416809B18C4203D224
:104920006160446017E019464B680BB1A342FAD3AB
:104930000B685D18AC421BD3A54204D12268D21883
:104940000A600C4607E04A681AB123681B199A42AC
:104950000ED362604C60616851B1226813198B42BA
:1049600006D10023036008688018206048686060F2
:10497000C046C04631BD0000C8040020704700009A
:1049800080B5DFF80C0000F04BF8806902BD000034
:104990009C00002030B430B90FF24800D0E9004547
:1049A000C2E900451BE00170012030BC704730B403
:1049B00031B90FF23800D0E90045C3E900450EE0F7
:1049C0001AB930BC6FF00100704708B10A78028054
:1049D0000978481E804130BCC043C00F704700209A
:1049E00030BC704700000000000000000000000024
:1049F000000000000749086808B100207047064819
:104A0000C008C00008600549C908C900091A01604A
:104A1000704700BFD4040020DF080020D80A00201F
:104A20007047000038B50FF27C5100F01EF80128E5
:104A30001AD0DFF8740428604021204600F091FB72
:104A400020B10021204600F061FB08B9012032BDF1
:104A50000021204600F041F9012805D000A9204698
:104A600000F08EF900F0C0F932BD0A68044600A8D3
:104A70000260A0680568204600F023BA38B50446F5
:104A8000FFF7F7FF012804D0204600F015F800F0EA
:104A9000B1F932BD10B50446207901280AD0A068CA
:104AA000006890ED000A204600F02AFA012802D0A2
:104AB00001202071002010BD10B50446207978B186
:104AC000A0680168204600F041F8012808D00021C4
:104AD000204600F01BFB08B9012010BD002020710A
:104AE00010BD00F0EAB900F0ECB93EB500F0B6F93F
:104AF00000F0FCF9012805D000A9204600F00AF8D2
:104B000000F07EF93EBD1CB50C4600A900F0EEF9A0
:104B1000ABE1000010B582B00C4600A900F0E6FA47
:104B200090B19DF8000020B1102805D0182806D0BB
:104B300008E09FED540ACCE09FED530AFBE79FEDA0
:104B4000530AF8E700F09EF9012016BD10B50C4697
:104B5000816882B0096849680A78012A02D14868E8
:104B6000206019E000A900F0EAFA08B9012016BD9A
:104B70009DF8000060B1202810D0402811D0602896
:104B800012D0802813D0A02814D0C02815D017E048
:104B90009FED8B0A84ED000A002016BDB2EE040AD8
:104BA000F8E79FED880AF5E79FED870AF2E79FEDAA
:104BB000870AEFE79FED860AECE79FED860AE9E7B3
:104BC00000F060F9D2E780B50279012A11D151B124
:104BD000022906D007D3042901D002D307E06021BF
:104BE00002E0402100E0202100F090FA90B901207D
:104BF00002BD8068006851B1022906D007D304299C
:104C000001D002D3F3E7704903E06E4901E0DFF819
:104C10008C130160002002BD80B50179012904D107
:104C200000F06EF901282BD102BD80680068DFED2D
:104C30006A0A00F033F948BFB2EE040A1ED4DFED71
:104C4000670A00F02BF948BF9FED5E0A16D400F00A
:104C500023F948BF9FED5C0A10D4DFED610A00F034
:104C60001DF948BF9FED590A08D4DFED5E0A00F038
:104C700015F94CBF9FED560A9FED560A80ED000ACC
:104C8000002002BD23DB793D23DBF93D23DB793EA8
:104C900010B582B00C4600A900F028FAB8B19DF812
:104CA000000030B108280DD0102805D0182806D0F3
:104CB0000BE0B0EE000A0CE0B1EE000AFBE7B2EE4A
:104CC000000AF8E7B3EE000AF5E700F0DBF8012090
:104CD00016BD84ED000A002016BD80B519B1022969
:104CE00004D001D304E01BE01021FCE71821FAE70F
:104CF000012002BDDFED650A80B500F0CFF848BFA6
:104D000000210DD4DFED620A00F0C8F848BF102181
:104D100006D4DFED600A00F0C1F84CBF182108216D
:104D200000F0C9F9401E8041C00F02BD38B50D46E4
:104D300004460DF1020100F087F950B10DF10101B7
:104D4000204600F09AF920B100A9204600F0ABF906
:104D500008B9012032BD9DF8020008280CBF0120CF
:104D6000002028709DF8010010280CBF01200020B1
:104D700068709DF8000020280CBF0120002095E0FD
:104D800038B50D460446287801280CBF08210021BB
:104D9000204600F044F940B1687801280CBF10218A
:104DA0000021204600F054F908B9012032BDA8784E
:104DB00001280CBF20210021204600F062F978E094
:104DC00000000000000048420000EE4200006E4378
:104DD0000000EE4300006E44010020410100484203
:104DE00001006E430100EE43012802D00120E07073
:104DF00000207047012802D000202860E070704732
:104E000001282AD0BDF90400DDED000A00EE100AE9
:104E1000B8EEC00A20EE200ABDEEC00A85ED000AF9
:104E2000BDF90600DDED000A00EE100AB8EEC00A7A
:104E300020EE200ABDEEC00A85ED010ABDF908008A
:104E4000DDED000A00EE100AB8EEC00A20EE200ADE
:104E5000BDEEC00A85ED020A00207047044600201E
:104E600000900D4601A920467047012808D0BDF8E2
:104E70000000208000A8418861808088A0800020F8
:104E800016BD0000DFF818012060704701000040E7
:104E90000100804001000041DFED2E0AB4EE600AFF
:104EA000F1EE10FA704700000000EE42A8700020FA
:104EB00032BD401E8041C00F32BD80B500F0A2F867
:104EC00030E710B582B0044600208DF8000000A93C
:104ED0002046FFF7F2FF012807D09DF80000217857
:104EE000884201D0012016BD002016BD1CB500F07F
:104EF00049F800F050F908B9012016BD2CE0000077
:104F0000DFED240A80B5FFF7C9FF48BF202119D47F
:104F1000DFED210AFFF7C2FF48BF402112D4FFF79F
:104F2000BBFF48BF60210DD4DFED090AFFF7B6FFD4
:104F300048BF802106D4DFED050AFFF7AFFF4CBF65
:104F4000A021C02100F0E2F8ECE600000100EE43F1
:104F500001006E430100EE4200A841789DF8002058
:104F6000090251FA82F1218082789DF8031002EB48
:104F70000121618000799DF8051000EB0120A080DF
:104F8000002016BD0C4600A9002200230CC100A978
:104F9000704700000100204101004842000020410C
:104FA000000080BF0101010080B50123FCF750FB28
:104FB00004E004B5012300AAFCF742FB401E804137
:104FC000C00F02BDFFF7F0FF00B1012002BDFFF7E7
:104FD000EBFF20B1207800F008002070012010BD08
:104FE000FFF7E2FF20B1207800F0100020700120D0
:104FF00010BDFFF7D9FF20B1207800F0200020700D
:10500000012010BD80B50A460F21DBE79DF80000A6
:1050100000F0DF0028438DF800000246704738B5E5
:1050200000F03BF830B100F006F81F2100F07BF8EB
:1050300000B1012032BD9DF8000000F0F7002843C8
:105040008DF800000246704710B500F030F8BEE75A
:1050500038B500F022F830B100F006F81F2100F05A
:1050600062F800B1012032BD9DF8000000F0EF00B1
:1050700028438DF800000246704710B500F017F87D
:10508000AEE738B500F009F830B1FFF7BFFF1F21D8
:1050900000F049F800B1012032BD0D46044600AAD7
:1050A0001F21FFF781BF10B500F001F8A1E70C4602
:1050B00022461F21704738B500F012F830B100F0D9
:1050C00006F8202100F02FF800B1012032BD9DF834
:1050D000000000F0E70028438DF80000024670470A
:1050E0000D46044600AA2021FFF75EBF10B500F070
:1050F00009F8FFF759FF20B1207800F01800207060
:10510000012010BD0C4622462021704738B5FFF71C
:10511000E7FF30B100F00AF8202100F004F800B1F8
:10512000012032BD06212046FFF743BF9DF8000055
:1051300000F01F0028438DF800000246704710B5AC
:10514000FFF7E0FFFFF730FF20B1207800F0E0002C
:105150002070012010BD0D46044600AA2221FFF751
:1051600023BF38B5FFF7F7FF30B100F006F8222172
:10517000FFF7D9FF00B1012032BD9DF8000000F01B
:10518000BF0028438DF80000024670477219C9B26B
:105190004046FFF709BF2DE9F04180460D46002645
:1051A00003270224F6B206F12801FFF7EFFF28B12A
:1051B000761C641EF6D17F1EF3D10120BDE8F0817C
:1051C0000E480F4A016841F4700101600D48016802
:1051D00041F001010160002181600168114001601E
:1051E0004FF40061C160016821F480210160002159
:1051F00081614FF0006004490860704788ED00E06D
:10520000FFFFF6EA0010024008ED00E00000000099
:10521000000000000102030406070809A08601003F
:10522000400D0300801A060000350C0040420F00BC
:1052300080841E0000093D0000127A000024F40062
:1052400000366E010048E801006CDC0219E050F8FD
:10525000041BCB0744BFA9F101035918121F0023F7
:10526000042A41F8043BF9D25FEA827C0B4604D55C
:105270004FF0000CA1F800C09B1CD10744BF0021D7
:10528000197050F8042B002AE1D1704780B500F066
:1052900015F802000023DB431068984204D0110087
:1052A0000220ABBE002010605068984204D0111D4F
:1052B0000220ABBE0020506001BD000000487047D6
:1052C0009001002010B450F8041B79B102684368C3
:1052D00012180830DC0744BFA9F10104E31852F8A2
:1052E000044B43F8044B091FF9D1ECE710BC70479D
:1052F00010B5074979441831064C7C44163404E053
:105300000A68081D511888470146A142F8D110BD0E
:105310002C0000004C0000004EF68851CEF2000137
:10532000086840F470000860BFF34F8FBFF36F8FC1
:105330004FF00070E1EE100A7047000011FFFFFF10
:1053400034030000A40100200000000079FFFFFFEB
:10535000A4010000D40100000000002000000000B3
:1053600000F00BF8002801D0FFF7C2FF0020C04674
:10537000C046FCF7FBFD00F002F80120704700F08A
:1053800001B800000746384600F002F8FBE70000CD
:1053900080B5FFF77BFF024A11001820ABBEFBE788
:1053A000260002007047FEE77047FCF73ABF102066
:1053B000FCF7BBBA4FF40050FCF7B7BA014880477E
:1053C00001480047C1510008CD530008C046C046FF
:1053D000FFF7A2FFFFF7C4FFFFF7FEBFFFF7FEBF17
:1053E000FFF7FEBFFFF7FEBFFFF7FEBFFFF7FEBFF1
:1053F000FFF7FEBFFFF7FEBFFFF7FEBFFFF7FEBFE1
:10540000FFF7FEBFFFF7FEBFFFF7FEBFFFF7FEBFD0
:10541000FFF7FEBFFFF7FEBFFFF7FEBFFFF7FEBFC0
:10542000FFF7FEBFFFF7FEBFFFF7FEBFFFF7FEBFB0
:10543000FFF7FEBFFFF7FEBFFFF7FEBFFFF7FEBFA0
:10544000FFF7FEBFFFF7FEBFFFF7FEBFFFF7FEBF90
:10545000FFF7FEBFFFF7FEBFFFF7FEBFFFF7FEBF80
:10546000FFF7FEBFFFF7FEBFFFF7FEBFFFF7FEBF70
:10547000FFF7FEBFFFF7FEBFFFF7FEBFFFF7FEBF60
:10548000FFF7FEBFFFF7FEBFFFF7FEBFFFF7FEBF50
:10549000FFF7FEBFFFF7FEBFFFF7FEBFFFF7FEBF40
:1054A000FFF7FEBFFFF7FEBFFFF7FEBFFFF7FEBF30
:1054B000FFF7FEBFFFF7FEBFFFF7FEBFFFF7FEBF20
:1054C000FFF7FEBFFFF7FEBFFFF7FEBFFFF7FEBF10
:1054D000FFF7FEBFFFF7FEBFFFF7FEBFFFF7FEBF00
:1054E000FFF7FEBFFFF7FEBFFFF7FEBFFFF7FEBFF0
:1054F000FFF7FEBFFFF7FEBFFFF7FEBFFFF7FEBFE0
:10550000FFF7FEBFFFF7FEBFFFF7FEBFFFF7FEBFCF
:10551000FFF7FEBFFFF7FEBFFFF7FEBFFFF7FEBFBF
:10552000FFF7FEBFFFF7FEBF7D080008CF080008A9
:10553000F3080008130900081D09000863090008A2
:1055400095090008BB090008C5090008D109000831
:10555000DD090008E7090008230A00084B0A0008D3
:105560006B0A0008AD0A0008CD0A0008ED0A000821
:10557000F70A00087D0B0008CF0B0008EF0B0008AE
:10558000550C0008B10C0008D10C0008DB0C000819
:10559000E50C0008EF0C0008F90C0008250D0008C8
:1055A0003F0D00085F0D00087F0D00089F0D0008EB
:1055B000BF0D0008DF0D0008FF0D0008000000000F
:1055C00000000000000000000000000000000000DB
:1055D00000000000000000000000000000000000CB
:1055E00000000000000000000000000000000000BB
:1055F00000000000000000000000000000000000AB
:10560000000000000000000000000000000000009A
:10561000000000000000000000000000000000008A
:10562000000000000000000000000000000000007A
:10563000254A00087D4A0008954A0008B94A000832
:10564000E34A0008E74A0008EB4A0008074B000855
:10565000154B00084D4B0008C74B0008194C0008BB
:10566000914C0008DB4C0008F54C00082D4D00085B
:10567000814D000889010008F3010008510200086B
:105680006F020008990200089D020008A1020008AC
:10569000BD020008C90200080D030008A9030008A4
:1056A00005040008B90400083D0500085905000874
:1056B00091050008E5050008FFFFFFFFFFFFFFFF62
:0C56C000000000480008004800093D0000
:0400000508000000EF
:00000001FF
