:020000040800F2
:10000000D00500209D480008F9470008FB4700087C
:1000100000000000000000000000000000000000E0
:10002000000000000000000000000000CB1F0008DE
:10003000FF47000800000000F31F00080148000807
:100040002B3D0008833D0008414800086B4800082C
:1000500077480008CD480008CF4800080948000844
:10006000D1480008D3480008D5480008D748000800
:10007000D9480008DB48000800000000DD480008FF
:1000800000000000DF480008000000000000000041
:10009000E148000800000000E3480008E5480008C7
:1000A000E7480008E9480008EB480008ED48000868
:1000B000EF480008F1480008F3480008F548000838
:1000C00038B5040068469A490A680260A068056865
:1000D000200000F09CFA012801D1012034E0042125
:1000E000200001F023F9002801D101202CE040215B
:1000F000200001F03EF9002801D1012024E0002178
:10010000200001F057F8002801D101201CE08948A7
:1001100028600021200001F0D6F8002801D101203C
:1001200012E00021200000F0A5F9012801D10120F2
:100130000AE06946200000F026FA012801D10120DA
:1001400002E00120E070002032BD38B50400A06854
:100150000568200000F05BFA012801D101203CE095
:10016000200000F0CDFB012801D1012035E0200066
:1001700000F022FF012801D101202EE0200000F034
:1001800033FC012801D1012027E0200000F0B0FD60
:10019000012801D1012020E0200000F05AFE0128B2
:1001A00001D1012019E0200000F0B0FC012801D1AC
:1001B000012012E0200000F00DFD012801D10120F6
:1001C0000BE0200000F01FF8012801D1012004E01D
:1001D000002028600020E070002032BD10B504002F
:1001E000A06800682179012901D100200AE0016896
:1001F000200000F087FA012801D1012002E001204F
:100200002071002010BD10B50400A068016820799D
:10021000002801D1002011E0200000F08DF8012815
:1002200001D101200AE00021200001F04CF8002853
:1002300001D1012002E000202071002010BD80B516
:1002400000F0DCF902BD80B500F0E1F902BD3EB579
:1002500005000C000020009001A9280000F0EEF934
:10026000012801D1012028E06946280000F03AF871
:10027000012801D1012020E0019800B201F016FE12
:10028000009901F02CFE01F083FE206001A80221FC
:10029000405E01F00BFE009901F021FE01F078FEB6
:1002A000606001A80421405E01F000FE009901F0A9
:1002B00016FE01F06DFEA06000203EBD1CB50C00D6
:1002C000694600F0BBF9012801D1012009E000983E
:1002D00000B2208068464088608068468088A080A0
:1002E000002016BD10B582B00C00694600F0DBFF9F
:1002F000002801D101200DE068460078002806D0D2
:1003000004280ED0082806D00C2807D00CE0754829
:100310002060002016BD74482060FAE77348206012
:10032000F7E773482060F4E7724820600120F1E7A6
:10033000C84800080000D04210B582B00C006946E1
:1003400000F0E4FF002801D101201DE0684600789C
:10035000002816D0102818D0202819D030281AD0FC
:1003600040281BD050281CD060281DD070281ED0DB
:1003700080281FD0902820D0A02821D0B02822D0BB
:1003800024E000202060002016BD5B482060FAE7D2
:100390005A482060F7E75A482060F4E7594820603F
:1003A000F1E759482060EEE758482060EBE75848ED
:1003B0002060E8E757482060E5E78A482060E2E7E8
:1003C00089482060DFE789482060DCE749482060F1
:1003D0000120D9E780B50279012A06D1C9B200F01F
:1003E00052F9012808D1012007E0C9B200F06AF9EA
:1003F000012801D1012000E0002002BD80B5027972
:10040000012A05D100F07EF9012807D1012006E07C
:1004100000F0C2F9012801D1012000E0002002BD56
:1004200010B582B00C00694600F03DFF002801D1F4
:1004300001200EE068460078002806D0042811D07C
:10044000082807D00C2809D010E08020C0052060C3
:10045000002016BD8120C0052060F9E78220C0057C
:100460002060F5E78320C0052060F1E72148206087
:100470000120EEE780B5C9B2002903D002290BD0D4
:1004800008D30BE00021C9B200F0EAFE002807D132
:10049000012006E00821F6E70C21F4E7012000E046
:1004A000002002BD80B502000800514901F08EFD18
:1004B00001D200210CE04F4901F088FD01D2082152
:1004C00006E04D4901F082FD01D20C2100E004213B
:1004D000C9B2100000F0C4FE002801D1012000E0E4
:1004E000002002BD23DB793D23DBF93D23DB793E90
:1004F00023DBF93E000080BF000050410000D041E6
:10050000000050420000D042000050430000D043A1
:10051000004050440080CF4438B505000C0000A9CD
:10052000891C280000F06BFF002801D1012029E080
:1005300000A9491C280000F095FF002801D10120E6
:1005400020E06946280000F0C0FF002801D101200A
:1005500018E068468078082801D1012000E00020DA
:10056000207068464078102801D1012000E000206A
:10057000607068460078202801D1012000E000204A
:10058000A070002032BD38B504000D002878012885
:1005900001D1082100E00021C9B2200000F00CFFC9
:1005A000002801D101201CE06878012801D1102128
:1005B00000E00021C9B2200000F031FF002801D185
:1005C00001200EE0A878012801D1202100E00021BF
:1005D000C9B2200000F056FF002801D1012000E040
:1005E000002032BD002050450020D0450048504634
:1005F00001000040010080400100004180B500F092
:100600001FFE002801D1012000E0002002BD10B52E
:1006100082B0040000206946087069462000FFF798
:10062000EDFF012801D1012007E06846007821781C
:10063000884201D0012000E0002016BD1CB50C004E
:100640006946002200230CC10839694601F0C7FB46
:10065000002801D1012015E0684640780002694673
:100660000978401820806846C07800026946897879
:100670004018608068464079000269460979401850
:10068000A080002016BD80B5C9B2002906D002297D
:100690000ED00BD304290FD00CD30FE01021C9B218
:1006A00000F011FE00280BD101200AE01021F6E72E
:1006B0002021F4E73021F2E74021F0E7012000E0BB
:1006C000002002BD00B580680068C9B2002906D0CC
:1006D00002290BD007D304290ED00AD30FE05149C9
:1006E0000160002000BD4F490160FAE74E490160FA
:1006F000F7E74E490160F4E74D490160F1E7012059
:10070000F0E7000080B5020008004A4901F05EFCF5
:1007100001D2102136E0484901F058FC01D22021D5
:1007200030E0464901F052FC01D230212AE0444930
:1007300001F04CFC01D2402124E0424901F046FC8A
:1007400001D250211EE0404901F040FC01D260215D
:1007500018E03E4901F03AFC01D2702112E03C4918
:1007600001F034FC01D280210CE03A4901F02EFC6A
:1007700001D2902106E0394901F028FC01D2A021E4
:1007800000E0B021C9B2100000F09DFD002801D1A9
:10079000012000E0002002BD80B502000800916841
:1007A0000A68244901F012FC01D21E4836E02249B1
:1007B00001F00CFC01D21C4830E0204901F006FC9D
:1007C00001D21A482AE01E4901F000FC01D2184863
:1007D00024E01C4901F0FAFB01D21F481EE01A492F
:1007E00001F0F4FB01D21E4818E0184901F0EEFBBD
:1007F00001D21C4812E0164901F0E8FB01D21A4868
:100800000CE0144901F0E2FB01D2184806E013495C
:1008100001F0DCFB01D2164800E0384810600020EF
:1008200002BD0000000050410000D04100005042D5
:100830000000D042010050410100D041010050426F
:100840000100D042010050430100D0430140504418
:100850000180CF4401205045000050430120D04585
:100860000000D043004050440080CF440020504559
:100870000020D04510B50400A3492000FFF7BEFDBD
:10088000012801D1012038E00021200000F0E8FC1F
:10089000002801D1012030E00621200001F080F97C
:1008A000002801D1012028E00021200001F02EF9CC
:1008B000002801D1012020E00021200001F003F9EF
:1008C000002801D1012018E00021200001F0D6F815
:1008D000002801D1012010E00321200000F045F89C
:1008E000012801D1012008E01021200001F00EFABA
:1008F000002801D1012000E0002010BD0048504632
:1009000010B504000021200001F000FA002801D1F8
:10091000012010E00021200001F042F9002801D15F
:10092000012008E00021200001F017F9002801D182
:10093000012000E0002010BD10B582B00C00694617
:1009400000F029FE002801D1012008E06846007867
:10095000002805D0202806D101202070002016BDD7
:1009600000202070FAE70120F9E780B5C9B201F054
:10097000F4F8002801D1012000E0002002BD10B5EC
:10098000040093492000FFF739FD012801D101201F
:1009900028E00021200000F063FC002801D10120A4
:1009A00020E01721200000F079F8012801D1012072
:1009B00018E00421200000F0BBFD002801D1012037
:1009C00010E04021200000F033FF002801D1012079
:1009D00008E08021200000F010FC002801D1012057
:1009E00000E0002010BD000010B504000021200030
:1009F00000F003FC002801D1012018E000212000B4
:100A000000F016FF002801D1012010E00021200095
:100A100000F08EFD002801D1012008E00021200017
:100A200000F03CF8012801D1012000E0002010BDB9
:100A300010B582B00C00694600F04EFE002801D1CE
:100A4000012008E068460078002805D0102806D16B
:100A500001202070002016BD00202070FAE7012040
:100A6000F9E780B501F0DCF9002801D1012000E0B0
:100A7000002002BD80B5022100F037FD002801D121
:100A8000012000E0002002BD80B5002100F02DFD16
:100A9000002801D1012000E0002002BD80B5C9B2CC
:100AA00001F0DFF9002801D1012000E0002002BDA3
:100AB00010B5040046492000FFF7A0FC012801D131
:100AC000012020E00021200000F0CAFB002801D115
:100AD000012018E00421200000F02AFD002801D1A7
:100AE000012010E02021200000F07FFE002801D12D
:100AF000012008E00221200001F09FF8002801D128
:100B0000012000E0002010BD0000D04310B504001B
:100B10000021200001F091F8002801D1012010E00F
:100B20000021200000F061FE002801D1012008E032
:100B30000021200000F0FCFC002801D1012000E091
:100B4000002010BD10B582B00C00694600F0D4FD45
:100B5000002801D1012008E068460078002805D06F
:100B6000202806D101202070002016BD0020207012
:100B7000FAE70120F9E710B504005C492000FFF70F
:100B80003DFC012801D1012020E00021200000F0DF
:100B900067FB002801D1012018E00021200000F0AF
:100BA000B5FF002801D1012010E00221200000F053
:100BB0001DFF002801D1012008E02021200001F0C4
:100BC000C8F8002801D1012000E0002010BD00007D
:100BD0000000D04110B504000021200001F0B9F858
:100BE000002801D1012010E00021200000F08EFF3C
:100BF000002801D1012008E00021200000F0F6FECD
:100C0000002801D1012000E0002010BD10B582B005
:100C10000C00694600F0AFFC002801D1012008E07B
:100C200068460078002805D0082806D101202070E9
:100C3000002016BD00202070FAE70120F9E780B5FA
:100C4000C9B200F0D3FE002801D1012000E000204D
:100C500002BD10B5040025492000FFF7CFFB012895
:100C600001D1012040E00021200000F0F9FA002825
:100C700001D1012038E00821200000F093FD002878
:100C800001D1012030E00421200000F068FD00289F
:100C900001D1012028E00221200000F03DFD0028C4
:100CA00001D1012020E00821200000F037F90128BF
:100CB00001D1012018E00221200000F039F90128BB
:100CC00001D1012010E00121200000F03BF90128B2
:100CD00001D1012008E04021200001F05DF800284A
:100CE00001D1012000E0002010BD00000000D04331
:100CF00010B504000021200001F04EF8002801D1B9
:100D0000012030E00021200000F008F9012801D185
:100D1000012028E00021200000F00AF9012801D17B
:100D2000012020E00021200000F00CF9012801D171
:100D3000012018E00021200000F0EEFC002801D185
:100D4000012010E00021200000F009FD002801D161
:100D5000012008E00021200000F024FD002801D13E
:100D6000012000E0002010BD10B582B00C006946E3
:100D700000F031FC002801D1012008E0684600782D
:100D8000002805D0202806D101202070002016BDA3
:100D900000202070FAE70120F9E710B5040085492A
:100DA0002000FFF72BFB012801D1012050E000219A
:100DB000200000F055FA002801D1012048E0082168
:100DC000200000F0EFFC002801D1012040E00421C8
:100DD000200000F0C4FC002801D1012038E00221ED
:100DE000200000F099FC002801D1012030E008210A
:100DF000200000F093F8012801D1012028E0032110
:100E0000200000F095F8012801D1012020E0032105
:100E1000200000F097F8012801D1012018E00821F6
:100E2000200000F099F8012801D1012010E0802174
:100E3000200000F000FE002801D1012008E0082178
:100E4000200000F040FF002801D1012000E0002038
:100E500010BD10B504000021200000F034FF002870
:100E600001D1012040E00021200000F057F80128C6
:100E700001D1012038E00021200000F059F80128BC
:100E800001D1012030E00021200000F05BF80128B2
:100E900001D1012028E00021200000F05DF80128A8
:100EA00001D1012020E00021200000F0C4FD002835
:100EB00001D1012018E00021200000F02DFC0028C5
:100EC00001D1012010E00021200000F048FC0028A2
:100ED00001D1012008E00021200000F063FC00287F
:100EE00001D1012000E0002010BD10B582B00C003F
:100EF000694600F060FB002801D1012008E0684647
:100F00000078002805D0102806D10120207000208C
:100F100016BD00202070FAE70120F9E780B5C9B2BC
:100F200000F0A9FC002801D1012000E0002002BD52
:100F300080B5C9B200F0E7FC002801D1012000E033
:100F4000002002BD80B5C9B200F002FD002801D129
:100F5000012000E0002002BD80B5C9B200F01FFDF5
:100F6000002801D1012000E0002002BD10B50400DE
:100F700010492000FFF742FA012801D1012018E0B2
:100F80000021200000F06CF9002801D1012010E0C0
:100F90004021200000F094FC002801D1012008E04D
:100FA0000421200000F06CFE002801D1012000E0A7
:100FB000002010BD0000D04310B504000021200027
:100FC00000F05EFE002801D1012008E00021200091
:100FD00000F076FC002801D1012000E0002010BDC7
:100FE00010B582B00C00694600F066FB002801D104
:100FF000012008E068460078002805D0402806D186
:1010000001202070002016BD00202070FAE701208A
:10101000F9E710B582B00C00694600F0ECFA002840
:1010200001D1012008E068460078002805D0012899
:1010300006D101202070002016BD00202070FAE7A4
:101040000120F9E710B582B00C00694600F0E4FA1F
:10105000002801D1012008E068460078002805D06A
:10106000022806D101202070002016BD002020702B
:10107000FAE70120F9E710B582B00C00694600F0EC
:10108000DBFA002801D1012008E06846007800283A
:1010900005D0042806D101202070002016BD0020B4
:1010A0002070FAE70120F9E710B582B00C0069461C
:1010B00000F0D2FA002801D1012008E0684600784B
:1010C000002805D0082806D101202070002016BD78
:1010D00000202070FAE70120F9E710B582B00C007B
:1010E000694600F0C9FA002801D1012008E06846ED
:1010F0000078002805D0102806D10120207000209B
:1011000016BD00202070FAE70120F9E710B582B083
:101110000C00694600F0C0FA002801D1012008E067
:1011200068460078002805D0202806D101202070CC
:10113000002016BD00202070FAE70120F9E720000A
:1011400080B50123C9B200F0B3FF002801D0002010
:1011500000E0012002BD04B501236A46C9B200F0D7
:101160009BFF002801D0002000E0012002BD38B51F
:1011700005000C006A4601212800FFF7E1FF002866
:1011800001D1002015E0684600784006400E69460F
:101190000870684600780443684604706846027820
:1011A00001212800FFF7D7FF002801D1002000E02F
:1011B000012032BD38B505000C006A460A2128001E
:1011C000FFF7BEFF002801D1002015E06846007837
:1011D000F82101406846017068460078044368467B
:1011E0000470684602780A212800FFF7B4FF00283F
:1011F00001D1002000E0012032BD38B505000C000F
:101200006A460D212800FFF79BFF002801D100202E
:1012100015E0684600784006400E6946087068464A
:101220000078044368460470684602780D2128005F
:10123000FFF791FF002801D1002000E0012032BD1E
:1012400010B50C0022000F21FFF77AFF002801D112
:10125000002004E02078207020782070012010BD4C
:1012600038B505000C006A4610212800FFF768FF1A
:10127000002801D1002015E068460078F3210140E4
:101280006846017068460078044368460470684602
:10129000027810212800FFF75EFF002801D100200E
:1012A00000E0012032BD10B50C0022001021FFF734
:1012B00047FF002801D1002004E020780C210140E4
:1012C0002170012010BD38B505000C006A461021C0
:1012D0002800FFF735FF002801D1002015E06846FF
:1012E00000780007000F69460870684600780443DC
:1012F000684604706846027810212800FFF72BFF2B
:10130000002801D1002000E0012032BD10B50C0002
:1013100022001021FFF714FF002801D1002004E073
:101320002078F02101402170012010BD38B5050062
:101330000C006A4612212800FFF702FF002801D1A5
:10134000002015E068460078FB21014068460170E6
:1013500068460078044368460470684602781221A3
:101360002800FFF7F8FE002801D1002000E001204E
:1013700032BD38B505000C006A4612212800FFF77F
:10138000DFFE002801D1002015E068460078BF216B
:10139000014068460170684600780443684604705E
:1013A0006846027812212800FFF7D5FE002801D1F7
:1013B000002000E0012032BD38B505000C006A466F
:1013C00018212800FFF7BCFE002801D1002015E0FD
:1013D00068460078F7210140684601706846007849
:1013E0000443684604706846027818212800FFF715
:1013F000B2FE002801D1002000E0012032BD10B56E
:101400000C0022001821FFF79BFE002801D10020CC
:1014100004E02078082108402070012010BD38B574
:1014200005000C006A4618212800FFF789FE0028F5
:1014300001D1002015E068460078EF2101406846A0
:101440000170684600780443684604706846027874
:1014500018212800FFF77FFE002801D1002000E0BE
:10146000012032BD10B50C0022001821FFF768FEE4
:10147000002801D1002004E02078102108402070CD
:10148000012010BD38B505000C006A46182128005F
:10149000FFF756FE002801D1002015E068460078CD
:1014A000DF210140684601706846007804436846C1
:1014B00004706846027818212800FFF74CFE0028C7
:1014C00001D1002000E0012032BD10B50C00220047
:1014D0001821FFF735FE002801D1002004E0207814
:1014E000202108402070012010BD38B505000C00F7
:1014F0006A4619212800FFF723FE002801D10020A9
:1015000015E068460078FD21014068460170684694
:101510000078044368460470684602781921280060
:10152000FFF719FE002801D1002000E0012032BDA4
:1015300038B505000C006A4619212800FFF700FEA7
:10154000002801D1002015E068460078FB21014009
:10155000684601706846007804436846047068462F
:10156000027819212800FFF7F6FD002801D100209C
:1015700000E0012032BD10B50C0022001B21FFF756
:10158000DFFD002801D1002004E020780821084078
:101590002070012010BD10B50C0022001B21FFF7A8
:1015A000CFFD002801D1002004E020782021084050
:1015B0002070012010BD10B50C0022001C21FFF787
:1015C000BFFD002801D1002004E020781021084050
:1015D0002070012010BD10B50C0022001C21FFF767
:1015E000AFFD002801D1002004E020782021084030
:1015F0002070012010BD10B50C0022001D21FFF746
:101600009FFD002801D1002005E020780100C907D6
:10161000C90F2170012010BD10B50C0022001D2142
:10162000FFF78EFD002801D1002004E02078022180
:1016300008402070012010BD10B50C0022001D21B3
:10164000FFF77EFD002801D1002004E0207804216E
:1016500008402070012010BD10B50C0022001D2193
:10166000FFF76EFD002801D1002004E0207808215A
:1016700008402070012010BD10B50C0022001D2173
:10168000FFF75EFD002801D1002004E02078102142
:1016900008402070012010BD10B50C0022001D2153
:1016A000FFF74EFD002801D1002004E02078202122
:1016B00008402070012010BD10B50C0022001D2133
:1016C000FFF73EFD002801D1002004E020784021F2
:1016D00008402070012010BD10B50C0022005321DD
:1016E000FFF72EFD002801D1002004E02078102112
:1016F00008402070012010BD10B50C0022005321BD
:10170000FFF71EFD002801D1002004E020782021F1
:1017100008402070012010BD38B505000C006A4655
:1017200058212800FFF70CFD002801D1002015E00A
:1017300068460078FD2101406846017068460078DF
:101740000443684604706846027858212800FFF771
:1017500002FD002801D1002000E0012032BD38B593
:1017600005000C006A4658212800FFF7E9FC002814
:1017700001D1002015E068460078FB210140684651
:101780000170684600780443684604706846027831
:1017900058212800FFF7DFFC002801D1002000E0DD
:1017A000012032BD38B505000C006A4658212800DA
:1017B000FFF7C6FC002801D1002015E0684600783C
:1017C000F721014068460170684600780443684686
:1017D00004706846027858212800FFF7BCFC0028F6
:1017E00001D1002000E0012032BD38B505000C0019
:1017F0006A4658212800FFF7A3FC002801D10020E9
:1018000015E068460078DF210140684601706846AF
:10181000007804436846047068460278582128001E
:10182000FFF799FC002801D1002000E0012032BD23
:1018300038B505000C006A4658212800FFF780FCE7
:10184000002801D1002015E068460078BF21014042
:10185000684601706846007804436846047068462C
:10186000027858212800FFF776FC002801D10020DB
:1018700000E0012032BD38B505000C00E406E40E9E
:101880006A4659212800FFF75BFC002801D100209F
:1018900015E068460078E02101406846017068461E
:1018A000007804436846047068460278592128008D
:1018B000FFF751FC002801D1002000E0012032BDDB
:1018C00038B505000C006A4659212800FFF738FC9E
:1018D000002801D1002015E0684600789F210140D2
:1018E000684601706846007804436846047068469C
:1018F000027859212800FFF72EFC002801D1002092
:1019000000E0012032BD38B505000C00A407A40F8B
:101910006A465A212800FFF713FC002801D1002055
:1019200015E068460078FC21014068460170684671
:101930000078044368460470684602785A212800FB
:10194000FFF709FC002801D1002000E0012032BD92
:1019500038B505000C00A40020000C2404406A46A1
:101960005A212800FFF7ECFB002801D1002015E0E8
:1019700068460078F32101406846017068460078A7
:10198000044368460470684602785A212800FFF72D
:10199000E2FB002801D1002000E0012032BD38B573
:1019A00005000C0024012000F02404406A465A215E
:1019B0002800FFF7C5FB002801D1002015E068468C
:1019C00000780007000F69460870684600780443F5
:1019D00068460470684602785A212800FFF7BBFB6E
:1019E000002801D1002000E0012032BD38B50500FB
:1019F0000C00A406A40E6A465B212800FFF7A0FB9A
:101A0000002801D1002015E068460078C02101407F
:101A1000684601706846007804436846047068466A
:101A200002785B212800FFF796FB002801D10020F7
:101A300000E0012032BD38B505000C006A465B218C
:101A40002800FFF77DFB002801D1002015E0684643
:101A500000784006400E69460870684600780443E6
:101A600068460470684602785B212800FFF773FB24
:101A7000002801D1002000E0012032BD38B505006A
:101A80000C002407240F6A465C212800FFF758FB4E
:101A9000002801D1002015E068460078F0210140BF
:101AA00068460170684600780443684604706846DA
:101AB00002785C212800FFF74EFB002801D10020AE
:101AC00000E0012032BD38B505000C006A465C21FB
:101AD0002800FFF735FB002801D1002015E06846FB
:101AE0000078EF21014068460170684600780443A1
:101AF00068460470684602785C212800FFF72BFBDB
:101B0000002801D1002000E0012032BD38B50500D9
:101B10000C0064012000602404406A465C21280017
:101B2000FFF70EFB002801D1002015E06846007881
:101B30009F2101406846017068460078044368466A
:101B40000470684602785C212800FFF704FB002837
:101B500001D1002000E0012032BD38B505000C00A5
:101B60006A465D212800FFF7EBFA002801D100202A
:101B700015E068460078F821014068460170684623
:101B80000078044368460470684602785D212800A6
:101B9000FFF7E1FA002801D1002000E0012032BD6A
:101BA00070B582B00600CD06ED0E0C00A406E40F61
:101BB000ED002800F82505406A465D213000FFF75A
:101BC000BFFA002801D1002036E0684600784007BF
:101BD000400F6946087068460078054368460570FE
:101BE000684602785D213000FFF7B5FA002801D180
:101BF000002021E0E401802004406A465C2130009E
:101C0000FFF79EFA002801D1002015E06846007811
:101C10004006400E694608706846007804436846EE
:101C20000470684602785C213000FFF794FA0028BF
:101C300001D1002000E0012076BD38B505000C0080
:101C40006A465E212800FFF77BFA002801D10020B8
:101C500015E068460078FD2101406846017068463D
:101C60000078044368460470684602785E212800C4
:101C7000FFF771FA002801D1002000E0012032BDF9
:101C800038B505000C006A465E212800FFF758FAB7
:101C9000002801D1002015E068460078FB210140B2
:101CA00068460170684600780443684604706846D8
:101CB00002785E212800FFF74EFA002801D10020AB
:101CC00000E0012032BD38B505000C006A465E21F7
:101CD0002800FFF735FA002801D1002015E06846FA
:101CE0000078F72101406846017068460078044397
:101CF00068460470684602785E212800FFF72BFAD8
:101D0000002801D1002000E0012032BD38B50500D7
:101D10000C006A465E212800FFF712FA002801D164
:101D2000002015E068460078EF2101406846017008
:101D300068460078044368460470684602785E216D
:101D40002800FFF708FA002801D1002000E0012058
:101D500032BD38B505000C006A465E212800FFF749
:101D6000EFF9002801D1002015E068460078DF2156
:101D70000140684601706846007804436846047074
:101D8000684602785E212800FFF7E5F9002801D1B6
:101D9000002000E0012032BD38B505000C006A4685
:101DA0005E212800FFF7CCF9002801D1002015E0C2
:101DB00068460078BF210140684601706846007897
:101DC000044368460470684602785E212800FFF7E5
:101DD000C2F9002801D1002000E0012032BDF3B596
:101DE00081B002270024002600E0761CF6B2032E04
:101DF00014DA002501E0641C6D1CEDB2FFB2BD4297
:101E0000F3D20298E4B2021921002831C9B2019834
:101E1000FFF796F90028EED1002000E00120FEBD7A
:101E2000F3B581B002270024002600E0761CF6B24C
:101E3000002E14D1002501E0641C6D1CEDB2FFB230
:101E4000BD42F3D20298E4B2021921004B31C9B26B
:101E50000198FFF775F90028EED1002000E001207D
:101E6000FEBD38B505000C0080212800FFF77FF982
:101E70006A460F212800FFF763F968460078E021E1
:101E800001406846017068460078E106C90E0143CA
:101E900068460170684602780F212800FFF75BF959
:101EA00000212800FFF763F9012032BD9D210200C7
:101EB00008D5F446524200F005F80122D20710433B
:101EC000604700000AD002D4491E9218FCD5C9050B
:101ED000100A1206524100D3012A4841704730B41B
:101EE00005004D400122D20715404B180418240E5E
:101EF0002ED01B0E32D0FF2C34D0FF2B3AD0E4185A
:101F00000002090210431143000A090A9446C2B2B2
:101F10004A43000AC3B24B43000A4843110A5B1804
:101F20001A43D2B2190A091801D44918641E080AC2
:101F30007F3C23DBFE2C08DAE405090611436346E7
:101F400099416041284330BC7047FF20C005F9E744
:101F500028001B0EFF2BF6D1D043F4E72800FF2CFE
:101F6000F1D1F9E74002F7D1FF2B01D14902F3D1BA
:101F7000E005E7E7D8054902E4D0EDE74302002099
:101F8000641CDFD15B129B1CDCD9D805DAE700208A
:101F90000122D2070118090E7F3910D449421F319E
:101FA0000FD4001805D2C0011043C84000D5D0435B
:101FB0007047C0011043C84005D44042704700201C
:101FC00070470042F3D510007047FEE70CB40122C1
:101FD00012060318DA4207D84B18DA4204D8020076
:101FE0000A43921802D288420CBC7047FCD081424E
:101FF000FAE7FEE780B500F067F8002801D001207D
:1020000000E0002002BD0020704700B58BB07F4883
:102010000068012101437D4801607C48006801009F
:10202000C907C90F009100981020069078480790C2
:10203000022009900020089006A9A020C00500F009
:10204000F9F800220021072000F074FA072000F0C0
:1020500076FA6E480068022101436C4801606B48C3
:102060000068022108400090009801200190684813
:102070000290022004900020039001A9654800F01E
:10208000D9F800220021052000F054FA052000F0C4
:1020900056FA00200BB000BD80B59BB2C9B24078A3
:1020A00000F032F8002801D0012000E0002002BD3D
:1020B00080B59BB2C9B2407800F046F8002801D044
:1020C000012000E0002002BD80B5534800F046FC2E
:1020D000002810D151485049486033204E4988604B
:1020E00001204D49C8604E484B49086000F053F844
:1020F000494800F039FA484800F030FC012801D185
:10210000002000E0012002BD10B584B004000020D2
:102110004448006802909BB2019300920123C9B227
:102120000A0092B2E4B2210089B23B4800F09EFA64
:10213000C0B2002805D02000C0B200F025F8012070
:1021400000E0002004B010BD10B584B004000020F1
:102150003448006802909BB2019300920123C9B2F7
:102160000A0092B2E4B2210089B22B4800F03AFB97
:10217000C0B2002805D02000C0B200F005F8012050
:1021800000E0002004B010BD80B5234800F04AFAFA
:10219000FFF79AFF01BD00B587B01C480068022117
:1021A00001431A4801601948006802210840009064
:1021B0000098C0208000019012200290022004901C
:1021C000002003900420059001A9124800F032F885
:1021D00015480068802189030143134801601348B2
:1021E0000068802189030143104801600F4800689E
:1021F0000F4901400D48016000220021172000F026
:1022000099F9172000F09BF907B000BD2C1002408F
:102210000000111000040050380100202E11B10000
:1022200000540040300100203810024028100240C5
:10223000FFFFDFFFF0B5020000230024002534E09B
:1022400006201E00B607B60F04277E43B040284381
:1022500005006B481E00B60804277E438551674879
:102260000568A5434868C00300D525436348056059
:1022700064480568A5434868800300D52543614844
:10228000056061480568A5434868C00200D525433C
:102290005D4805605D480568A5434868800201D532
:1022A0002C432500594805605B1C0868D84000286D
:1022B00000D1A1E0086801249C400440002CF3D028
:1022C0004868022802D0486812281CD11800C008AB
:1022D000042568431018056A0F201E007607760F44
:1022E00004277E43B040854308691E007607760FB9
:1022F00004277E43B040284305001800C008042688
:102300007043101805624868012808D04868022800
:1023100005D04868112802D0486812281AD195685B
:1023200003201E0002277E43B0408543C8681E007C
:1023300002277E43B0402843050095605568012080
:10234000984085432E0048680500ED06ED0F9D403E
:1023500035435560156803201E0002277E43B040B8
:10236000854308798007800F1E0002277E43B04016
:10237000284305001560D56803201E0002277E4310
:10238000B04085432F008D681E0002204643B540B3
:102390003D43D5604868C00086D52F4800680125B8
:1023A00005432D48056016481D00AD0804267543F9
:1023B00045590F201E00B607B60F04277E43B040D4
:1023C0008543A020C005824201D1002039E723487F
:1023D000824201D1012034E72148824201D102200A
:1023E0002FE72048824201D103202AE71E4882427B
:1023F00000D025E7052024E7F0BD000000040140DF
:102400000800014004040140080401400C0401409C
:1024100000B5006989B20840002801D0012000E021
:102420000020C0B200BD00B5D2B2002A02D089B2ED
:10243000816101E089B2816200BD80B50B49096804
:1024400080B20140002905D080B20849086080B2FE
:1024500000F079FC01BD000034100240000400507F
:1024600000080050000C0050001C005014040140F3
:102470000121C006C00E8140354801607047F0B5AB
:1024800040B2002821D5334B40B20207120F083A60
:102490009208042462432F4C40B205072D0F083DDB
:1024A000AD08042675436459FF258607B60F082733
:1024B0007E43B540AC438901C9B28007800F08252F
:1024C00068438140214399501BE0234A40B20300F6
:1024D0009B0804246343D258FF238407A40F0825D4
:1024E0006C43A3409A438901C9B283079B0F082418
:1024F000634399401143184A40B28008042358436B
:102500001150F0BD80B5411E80225204914201D38A
:1025100001200EE0401E1149086003210020C04345
:10252000FFF7ADFF00200E49086007200D49086045
:10253000002002BD80B540B2FFF7A1FF01BD80B50C
:1025400040B2FFF795FF01BD80B5FFF7DBFF02BD8D
:1025500000E100E01CED00E000E400E014E000E039
:1025600018E000E010E000E010B50400002C01D1FC
:10257000012056E03520205C002805D100203421C0
:102580006054200000F06AF8022035216054206871
:102590000068012188432168086060683049014073
:1025A00020680161206880682E49014020688160B0
:1025B000A06800280FD0E068012806D1A06880211B
:1025C000090201432068816005E0A06884210902B6
:1025D000014320688160E068022803D18020000167
:1025E00021684860206840681F49014320684160B5
:1025F000206961690143A069000208432168C8603D
:10260000E069216A014320680160206800680121B7
:102610000143206801600020A06301203534207050
:10262000002010BD10B50400002C01D1012014E0E1
:102630000220352160542068006801218843216808
:102640000860200000F00BF80020A0630020352176
:102650006054002034342070002010BD7047704753
:10266000FFFFFFF0FF7FFFFF00800002F2B582B0A6
:10267000040000253520205C012800D0AFE0089F31
:10268000002F03D0099EB6B2002E01D10120A7E091
:1026900020688069000401D50220A1E03420205C7C
:1026A000012801D102209BE00120342160545220F6
:1026B000352160540020A0630A9800909BB292B22A
:1026C00068460189200000F04CF900280CD0A06B6E
:1026D000042804D1002034342070012080E0002040
:1026E0003434207003207BE0B6B2FF2E0BDD0020D7
:1026F000009080235B04FF2268460189200000F0DF
:10270000A7FAFF250CE00020009080239B043200F4
:10271000D2B268460189200000F09AFAB6B23500BC
:102720000A99200000F0F0F9002806D0A06B0428D8
:1027300001D1012054E0032052E0387821688862FA
:102740007F1C6D1E761E002D28D1B6B2002E25D01E
:102750000A9B00228021200000F08EF9002801D081
:1027600003203DE0B6B2FF2E0BDD00200090802359
:102770005B04FF2268460189200000F069FAFF250A
:102780000CE00020009080239B043200D2B2684607
:102790000189200000F05CFAB6B23500B6B2002E16
:1027A000BED11921200000F0DAF9002806D0A06B74
:1027B000042801D1012013E0032011E0202021682A
:1027C000C861206840686449014020684160012078
:1027D00035216054002034342070002000E00220B5
:1027E000FEBD0000F2B582B0040000253520205C5B
:1027F000012800D0AEE0089F002F03D0099EB6B29A
:10280000002E01D10120A6E020688069000401D5D6
:102810000220A0E03420205C012801D102209AE0AF
:102820000120342160546220352160540020A063CF
:102830000A9800909BB292B268460189200000F08D
:10284000D6F800280CD0A06B042804D10020343422
:10285000207001207FE000203434207003207AE0D3
:10286000B6B2FF2E0CDD90208001009080235B0427
:10287000FF2268460189200000F0EAF9FF250DE0FB
:1028800090208001009080239B043200D2B26846E1
:102890000189200000F0DCF9B6B235000A9B002265
:1028A0000421200000F0E8F8002801D0032052E0C5
:1028B0002068406A38707F1C6D1E761E002D28D15E
:1028C000B6B2002E25D00A9B00228021200000F005
:1028D000D3F8002801D003203DE0B6B2FF2E0BDD77
:1028E0000020009080235B04FF22684601892000BD
:1028F00000F0AEF9FF250CE00020009080239B043F
:102900003200D2B268460189200000F0A1F9B6B2C7
:102910003500B6B2002EC1D11921200000F01FF9F8
:10292000002806D0A06B042801D1012013E0032069
:1029300011E020202168C8612068406806490140F4
:10294000206841600120352160540020343420701B
:10295000002000E00220FEBD00E800FE35300078D7
:102960007047F8B5040015001F008020800100901A
:1029700080235B043A00D2B289B2200000F068F9EB
:10298000069E3100200000F0BFF8002806D0A06BA2
:10299000042801D1012029E0032027E0BFB2012F44
:1029A00003D1EDB22068856215E0280080B2000AEC
:1029B000C0B2216888623100200000F0A5F800282C
:1029C00006D0A06B042801D101200FE003200DE008
:1029D000EDB220688562330000228021200000F0E3
:1029E0004BF8002801D0032000E00020F2BDF8B52C
:1029F000040015001F0080208001009000233A0091
:102A0000D2B289B2200000F023F9069E31002000E6
:102A100000F07AF8002806D0A06B042801D101202C
:102A200029E0032027E0BFB2012F03D1EDB22068D7
:102A3000856215E0280080B2000AC0B22168886271
:102A40003100200000F060F8002806D0A06B0428B8
:102A500001D101200FE003200DE0EDB22068856276
:102A6000330000224021200000F006F8002801D0A9
:102A7000032000E00020F2BDF2B5040017001D00A5
:102A800000F0B7F90600FFB2002F1DD12068806961
:102A900000990140C803C00B0099C903C90B8842C3
:102AA00030D00020C0438542F0D0002D04D000F08B
:102AB000A0F9801B8542E9D2012035216054002015
:102AC0003434207003201EE02068806900990140A2
:102AD000C803C00B0099C903C90B884212D100205A
:102AE000C0438542F0D0002D04D000F082F9801B55
:102AF0008542E9D201203521605400203434207011
:102B0000032000E00020F2BD70B504000E0000F0CC
:102B100070F905002068806980071ED4310020000C
:102B200000F045F8002801D0012017E00020C04344
:102B30008642EFD0002E04D000F05BF9401B8642A5
:102B4000E8D2A06B20210143A1630120352160540C
:102B5000002034342070032000E0002070BD70B5E8
:102B600004000E00002500F044F90500206880698B
:102B700080061AD43100200000F019F8002801D096
:102B8000012013E0002E04D000F033F9401B8642F0
:102B9000ECD2A06B20210143A163012035216054B8
:102BA000002034342070032000E0002070BD70B598
:102BB00005000C00002600F01CF90600286880695A
:102BC000C00643D53520285C122807D03520285C64
:102BD000522803D03520285C62280AD12868406832
:102BE000800106D4286840688021C9010143286813
:102BF000416028688069800612D40020C043844266
:102C0000F7D0002C04D000F0F4F8801B8442F0D2FE
:102C1000012035216854002034352870032016E047
:102C200010202968C86120202968C8612868406888
:102C300012490140286841600420A8630120352121
:102C40006854002034352870012000E0002070BD59
:102C500030B40024046864682500094C2C40250029
:102C600089B28905890DD2B212040A431343029C2A
:102C70001C432C430068446030BC704700E800FEF1
:102C8000009800FC80B500206946087000F084F8C8
:102C900000F0C4F8002000F048F90121002000F005
:102CA00095F900F03EF800F048F836480078002822
:102CB00016D069463448006800F026FB00280CD185
:102CC00068460078002808D0002000F061F96420F0
:102CD00000F092F8002000F06AF9002029490870FD
:102CE0002A48007800280BD02748006800F0DCFA5A
:102CF000002805D1012026490870002023490870CA
:102D0000244800780028D0D01F48006800F0E4FA7A
:102D10000028CAD100201E49087000201D490870F3
:102D2000C3E780B51849012000F0C4F9012803D198
:102D3000002000F02DF9FEE701BD80B512480068C3
:102D400000F09EFA01BD80B580B2802189018842E1
:102D500010D1002000F08BF9012811D10C48007827
:102D6000002803D001200B49087009E00120074921
:102D7000087005E080B2102802D1012001490870D6
:102D800001BD0000C8010020BC010020340100206A
:102D9000CA010020C901002080B51E4800684021FA
:102DA00001431C4801601B480068022188431949FF
:102DB0000860032000F005F800F002F8002002BDD2
:102DC000704710B5040000F032FFFA21890000F0CE
:102DD00055FFFFF7B9FB002221000020C043FFF799
:102DE000A9FB002010BD0C480068401C0A4908607F
:102DF000704709480068704711B581B00024FFF79B
:102E0000F8FF0400FFF7F5FF001B01998842F9D392
:102E100013BD000000200240C001002000B593B0A7
:102E20001C4800688021490501431A4801601A487E
:102E300000681A49014080200001084316490860D3
:102E400002200590012008901020099002200F9088
:102E5000002010908020C00211908020C0031290AA
:102E600005A800F06DFA0F200090032001900020CB
:102E7000029000200390002004900121684600F099
:102E800031FD07480068012101430548016013B086
:102E900000BD00BF3810024000700040FFE7FFFF98
:102EA00034100240F0B540B2002821D5774B40B233
:102EB0000207120F083A920804246243734C40B28E
:102EC00005072D0F083DAD08042675436459FF25FD
:102ED0008607B60F08277E43B540AC438901C9B2C7
:102EE0008007800F082568438140214399501BE0EB
:102EF000674A40B203009B0804246343D258FF236F
:102F00008407A40F08256C43A3409A438901C9B2E2
:102F100083079B0F08246343994011435C4A40B2E6
:102F20008008042358431150F0BD10B586B004004A
:102F3000584800680121014356480160554800681F
:102F40000100C907C90F009100985348E4B202215B
:102F50006143405A01900120029001200390032018
:102F6000049001A94D48E4B2042262438058FFF75F
:102F700061F900224848E4B202216143415A4748BE
:102F8000E4B204235C430059FFF74DFA06B010BDCC
:102F900010B501224049C0B202234343C95A3F4BF6
:102FA000C0B2042460431858FFF73DFA10BD10B5B5
:102FB00000223949C0B202234343C95A374BC0B239
:102FC000042460431858FFF72EFA10BD30B587B0BF
:102FD00004000D002F480068042101432D480160C2
:102FE0002C48006804210840009000982C48006894
:102FF000012101432A480160EDB2002D13D1294877
:10300000E4B202216143405A019000200290022064
:1030100003900320049001A92348E4B204226243F0
:103020008058FFF707F9EDB2012D1ED11D48E4B21B
:1030300002216143405A0190002003901B480290F6
:1030400001A91948E4B2042262438058FFF7F2F85C
:1030500003211748E4B2005D40B2FFF723FF144894
:10306000E4B2005D40B2FFF76AFA07B030BD80B548
:103070000C49C0B202224243895A0B4AC0B204230F
:1030800058431058FFF7C4F902BD00001CED00E0E2
:1030900000E400E02C1002403E1100082401002052
:1030A000341002408E1F000828010020000011107B
:1030B000F648000810B50C000021216040B200283D
:1030C0000ED0012814D0200000F072F8012806D19B
:1030D000200000F016F8012801D1012010E00EE0D8
:1030E000200000F00EF8012801D1012008E006E0E0
:1030F000200000F05DF8012801D1012000E000204F
:1031000010BD38B5040000215348C078012801D112
:1031100001204CE0FEF76EFF012801D1012046E0BE
:1031200068204D490870D6204B49487000204A4914
:10313000887000204849C870002047490871012064
:103140004549487145484449886045484249C860F6
:1031500000204149086143484349486042483F498B
:10316000086000203D4948603B4820602068C168F5
:103170000868002809D1142100222568280000F0E1
:10318000D5FD00202060012011E0206809688847F3
:10319000012809D1142100222568280000F0C6FD6D
:1031A00000202060012002E0FEF72DFF002032BD4C
:1031B00038B5040000212848C07D012801D1012034
:1031C00049E0FEF717FF012801D1012043E0692003
:1031D00021490875D4202049487501201E49887569
:1031E00000201D49C87500201B49087601201A4996
:1031F00048761E481849C8611D48174908621D488D
:10320000154948621C481549886000201349C86068
:103210001A4820602068C1680868002809D1142174
:1032200000222568280000F081FD00202060012098
:1032300011E0206809688847012809D1142100227B
:103240002568280000F072FD00202060012002E0C7
:10325000FEF7DBFE002032BD740100209C0100203F
:1032600094000020AC010020B4010020A401002043
:10327000D800002000000020C401002088010020A8
:1032800080B50021002801D101200CE0C1688A68C6
:10329000002A01D1012006E089688847012801D170
:1032A000012000E0002002BD80B5002801D10120EE
:1032B00011E00169002901D101200CE001786929A0
:1032C00008D101690A68002A01D1012003E00968D8
:1032D000884700E0012002BD80B5002801D101200F
:1032E00011E00169002901D101200CE00178692970
:1032F00008D101694A68002A01D1012003E0496828
:10330000884700E0012002BD80B5002801D10120DE
:1033100015E00269002A01D1012010E0002901D145
:1033200001200CE00278692A08D102699368002B19
:1033300001D1012003E09268904700E0012002BD26
:10334000F8B5040000262078C0076CD5A4480068B2
:103350000C210140082909D0A14800680C21014036
:103360000C290CD19E480068C00308D59D48006810
:10337000800358D56068002855D1012092E260682A
:1033800080214902884207D196480068802149027D
:1033900001439448016025E06068A021C902884289
:1033A00014D190480068BA4901408E4801608D48A8
:1033B00000688021C90201438A4801608948006889
:1033C000802149020143874801600BE0854800687D
:1033D000AF4901408348016082480068AD4901401F
:1033E00080480160606800280ED0FFF702FD0600EB
:1033F0007C480068800316D4FFF7FBFC801BBC49A7
:103400008842F5D303204DE2FFF7F3FC0600754830
:103410000068800307D5FFF7ECFC801BB4498842A5
:10342000F5D303203EE22078800721D56C48006860
:103430000C210140042909D0694800680C21014091
:103440000C2927D166480068C00323D4654800686A
:10345000400704D5E068012801D0012022E2C148DC
:103460000068C1490140206900020843BD49086065
:103470002078C0065BD55A4800680C21014000291D
:103480006FD15848006880053DD5E06900283AD1E1
:10349000012007E2E06800281FD052480068092197
:1034A0008843E16801434F480160FFF7A2FC060032
:1034B0004C480068400706D4FFF79BFC801B65283A
:1034C000F6D30320EEE1A7480068A7490140206930
:1034D00000020843A3490860CAE74248006809217E
:1034E0008843E16801433F480160FFF782FC060022
:1034F0003C4800684007BBD5FFF77BFC801B652874
:10350000F6D30320CEE197480068AF490140606AD6
:10351000084394490860934800680002000A216A41
:10352000090601438F4801600320FFF74AFC207819
:1035300000076DD56069002856D0A44800680121B5
:103540000143A2480160FFF754FC06009F48006851
:1035500080075DD4FFF74DFC801B6528F6D3032060
:10356000A0E1E069002826D01E48006880214900BB
:1035700001431C480160FFF73CFC06001948006845
:10358000800506D4FFF735FC801B6528F6D30320A1
:1035900088E1744800688C490140606A08437149B9
:1035A0000860704800680002000A216A09060143A9
:1035B0006C480160BBE70B480068BB490140094803
:1035C0000160FFF716FC0600064800688005AED5CE
:1035D000FFF70FFC801B6528F6D3032062E100BFD4
:1035E0000C10024000100240784800680121884316
:1035F00076490860FFF7FDFB060074480068800705
:1036000006D5FFF7F6FB801B6528F6D3032049E1BA
:103610002078800640D5A06900281FD0A348006804
:1036200001210143A1480160A14800680121014333
:103630009F4801609F4800689F4901439D48016081
:10364000FFF7D7FB060099480068800724D4FFF7EE
:10365000D0FB801B6528F6D3032023E19348006844
:1036600001218843914908609248006893490140CC
:1036700090480160FFF7BDFB06008C48006880079A
:103680000AD5FFF7B6FB801B6528F6D3032009E1B6
:10369000FFFFFEFFFFFFFBFF2078400700D4A9E0FB
:1036A0000027002586480068C00007D484480068C9
:1036B0008021490501438248016001278148006853
:1036C000C00517D47F4800688021490001437D4828
:1036D00001600125FFF78DFB06007A480068C005F0
:1036E00008D4FFF786FB801B6528F6D30320D9E0BA
:1036F00089130000A06880214900884207D133481F
:103700000068802149000143304801603AE0A06828
:1037100000280CD12D480068634901402B48016006
:103720002A48006868490140284801602AE0A068EA
:10373000A021C900884219D1244800685A49014093
:1037400022480160214800688021C90001431F48C8
:1037500001601E4800688021490001431B48016048
:1037600010E000BF04100240FFE0FFFF17480068B0
:103770004D49014015480160144800685249014014
:1037800012480160A06800280ED0FFF732FB060047
:103790000E48006880051BD4FFF72BFB801B4B49AC
:1037A0008842F5D303207DE0FFF723FB060007489E
:1037B000006880050CD5FFF71CFB801B434988423D
:1037C000F5D303206EE000BFFF1FFFFF5010024043
:1037D000EDB2012D05D13B4800683349014039481D
:1037E0000160FFB2012F05D135480068384901401A
:1037F00033480160A06A002853D0364800680C2185
:1038000001400C294BD0A06A022834D1324800680C
:103810003249014030480160FFF7EBFA06002E48BC
:103820000068800106D5FFF7E4FA801B6528F6D30F
:10383000032037E02748006829490140206B0843EE
:10384000616B0143E06A084322490860224800682E
:1038500080214904014320480160FFF7CAFA0600AD
:103860001D48006880011CD4FFF7C3FA801B65283F
:10387000F6D3032016E0184800681849014016489E
:103880000160FFF7B6FA060013480068800108D50A
:10389000FFF7AFFA801B6528F6D3032002E0012072
:1038A00000E00020F2BD0000FFFEFFFF0810024014
:1038B000341002402000014001200000FEDFFFFF25
:1038C0003810024000700040FFFBFFFF891300002A
:1038D000FFFFFFEF0C10024000100240FFFFFFFE51
:1038E000FFFF02FF70B505000C0000269F4800682E
:1038F0000100C907C90FA14200D38FE09B480068AF
:1039000001218843204399490860984800680100D4
:10391000C907C90FA14201D0012025E128788007FD
:1039200007D593480068F0218843A968014390486F
:1039300001602878C00700D4FBE06868022805D140
:103940008C480068800319D401200DE168680028C4
:1039500005D188480068800510D4012004E168681A
:10396000032805D183480068800107D40120FBE0CB
:1039700080480068400701D40120F5E07C480068D9
:10398000032188436968014379480160FFF731FAF0
:103990000600686802280ED1754800680C210140B5
:1039A000082900D1C5E0FFF724FA801B724988423C
:1039B000F2D30320D8E0686803280ED16C48006871
:1039C0000C2101400C2900D1B3E0FFF712FA801B53
:1039D00069498842F2D30320C6E0686800280ED106
:1039E000634800680C210140002900D1A1E0FFF7E5
:1039F00000FA801B60498842F2D30320B4E05C489F
:103A000000680C210140042900D192E0FFF7F1F990
:103A1000801B59498842F2D30320A5E0287880070B
:103A200007D553480068F0218843A96801435048EE
:103A300001602878C0076CD56868022805D14D4818
:103A40000068800319D401208EE06868002805D141
:103A500048480068800510D4012085E06868032884
:103A600005D144480068800107D401207CE041482A
:103A70000068400701D4012076E03D48006803213A
:103A80008843696801433A480160FFF7B2F90600CC
:103A9000686802280DD1364800680C2101400829C9
:103AA00037D0FFF7A6F9801B33498842F3D30320B0
:103AB0005AE0686803280DD12D4800680C210140A8
:103AC0000C2926D0FFF795F9801B2B498842F3D3A8
:103AD000032049E0686800280DD1254800680C21C2
:103AE0000140002915D0FFF784F9801B2249884244
:103AF000F3D3032038E01E4800680C21014004295C
:103B000007D0FFF776F9801B1B498842F3D30320C7
:103B10002AE01648006801218843204313490860C1
:103B2000124800680100C907C90FA14201D0012055
:103B30001AE02878400707D50D480068444901403D
:103B4000E86808430A4908602878000708D508484B
:103B50000068404901402869C000084304490860E2
:103B60000320FFF72EF9002070BD00000020024066
:103B70000C100240001002408913000000B5002024
:103B8000002100220021002035480068400B410739
:103B9000490F314800680C220240002A06D0042A4E
:103BA0000BD0082A11D00C2A11D039E00120491C71
:103BB000884080210902484338E028480068C00650
:103BC00001D5284800E0284830E028482EE0224867
:103BD0000168F020800308401F490A68C0210904D9
:103BE0001140234A800C105C890D491C1A4A126846
:103BF00080235B021A40002A0DD1184A1268D206AF
:103C000004D5184A504300F039F808E0164A5043EA
:103C100000F034F803E0154A504300F02FF805E0B7
:103C20000120491C884080210902484300BD80B51D
:103C3000FFF7A4FF0F49084A126812091207120F72
:103C4000895CC8400C4908600B48006802BD000050
:103C5000FFF8FFFFFFC7FFFF0C10024000100240FB
:103C60000410024000093D000024F40000127A0014
:103C7000AC4800088C4800082C0100200022030AF0
:103C80008B420BD203098B4219D243088B422ED2AE
:103C9000411A00D20146524110467047FF220902E4
:103CA0003FD012068B4205D3121209028B4201D378
:103CB0001212090203098B4219D300E0090AC30951
:103CC0008B4201D3CB01C01A524183098B4201D3ED
:103CD0008B01C01A524143098B4201D34B01C01AD8
:103CE000524103098B4201D30B01C01A5241C30850
:103CF0008B4201D3CB00C01A524183088B4201D3BF
:103D00008B00C01A524143088B4201D34B00C01AAA
:103D10005241884200D3401A5241CFD20146104648
:103D2000704708B500F02CF808BDFEE71206130A2C
:103D30001A43130C1A4300BF094205D0830705D06C
:103D40000270401C491EF9D170470000130030B4C6
:103D500014001500103902D310393CC0FCD24907B9
:103D600000D30CC000D504C0890002D30280801C9F
:103D7000002900D5027030BC704700000022E5E742
:103D80007047FEE738B50400684697490A68026044
:103D9000A0680568200000F03AFA012801D101204E
:103DA00024E0924828604021200000F03BFC0028DD
:103DB00001D101201AE00021200000F000FC0028C1
:103DC00001D1012012E00021200000F061F901285A
:103DD00001D101200AE06946200000F0D0F9012855
:103DE00001D1012002E00120E070002032BD38B591
:103DF0000400A0680568200000F009FA012801D13C
:103E000001200BE0200000F01FF8012801D1012063
:103E100004E0002028600020E070002032BD10B5D2
:103E20000400A06800682179012901D100200AE07E
:103E30000168200000F066FA012801D1012002E0AB
:103E400001202071002010BD10B50400A068016899
:103E50002079002801D1002011E0200000F084F832
:103E6000012801D101200AE00021200000F0A7FB79
:103E7000002801D1012002E000202071002010BDA7
:103E800080B500F0BBF902BD80B500F0C0F902BDFD
:103E90003EB505000C000020009001A9280000F0AC
:103EA000CDF9012801D1012028E06946280000F061
:103EB0003AF8012801D1012020E0019800B2FDF775
:103EC000F5FF0099FEF70BF8FEF762F8206001A8F5
:103ED0000221405EFDF7EAFF0099FEF700F8FEF7C9
:103EE00057F8606001A80421405EFDF7DFFF0099EC
:103EF000FDF7F5FFFEF74CF8A06000203EBD1CB5B5
:103F00000C00694600F09AF9012801D1012009E06E
:103F1000009800B2208068464088608068468088AB
:103F2000A080002016BD10B582B00C00694600F0DC
:103F300036FB002801D101200BE0684600780028FC
:103F400004D0102806D0182807D009E06C4820605B
:103F5000002016BD6B482060FAE76B482060F7E749
:103F60006A4820600120F4E710B582B00C00816837
:103F700009684A681278012A04D1486840682060BC
:103F800000201AE0694600F03DFB002801D1012025
:103F900013E06846007800280CD020280ED0402876
:103FA0000FD0602810D0802811D0A02812D0C028AF
:103FB00013D015E000202060002016BD8748206047
:103FC000FAE787482060F7E708482060F4E785486B
:103FD0002060F1E784482060EEE784482060EBE74A
:103FE0004A4820600120E8E7C44800080000EE428B
:103FF00080B50279012A06D1C9B200F044F901283E
:1040000008D1012007E0C9B200F05CF9012801D114
:10401000012000E0002002BD80B50279012A05D10F
:1040200000F070F9012807D1012006E000F096F9B0
:10403000012801D1012000E0002002BD10B582B0AE
:104040000C00694600F0ABFA002801D101200EE017
:1040500068460078002806D0082811D0102807D01C
:10406000182809D010E08020C0052060002016BD6F
:104070008120C0052060F9E78220C0052060F5E7B7
:104080008320C0052060F1E7204820600120EEE792
:1040900080B5C9B2002903D002290BD008D30BE0A8
:1040A0000021C9B200F058FA002807D1012006E02B
:1040B0001021F6E71821F4E7012000E0002002BDFE
:1040C00080B5020008004A49FDF780FF01D20021B7
:1040D0000CE04849FDF77AFF01D2102106E046497D
:1040E000FDF774FF01D2182100E00821C9B21000C9
:1040F00000F032FA002801D1012000E0002002BDCA
:1041000023DB793D23DBF93D23DB793E000080BFD3
:1041100038B505000C0000A9891C280000F0A6F99C
:10412000002801D1012029E000A9491C280000F045
:10413000D0F9002801D1012020E06946280000F0D4
:10414000FBF9002801D1012018E068468078082892
:1041500001D1012000E0002020706846407810283E
:1041600001D1012000E0002060706846007820281E
:1041700001D1012000E00020A070002032BD38B540
:1041800004000D002878012801D1082100E0002159
:10419000C9B2200000F047F9002801D101201CE03D
:1041A0006878012801D1102100E00021C9B2200067
:1041B00000F06CF9002801D101200EE0A878012858
:1041C00001D1202100E00021C9B2200000F091F9C6
:1041D000002801D1012000E0002032BD0000204174
:1041E0000000484200006E430000EE4300006E44B1
:1041F00001000040010080400100004180B500F056
:1042000002F9002801D1012000E0002002BD10B514
:1042100082B0040000206946087069462000FFF75C
:10422000EDFF012801D1012007E0684600782178E0
:10423000884201D0012000E0002016BD1CB50C0012
:104240006946002200230CC10839694600F00DFAC6
:10425000002801D1012015E0684640780002694637
:104260000978401820806846C0780002694689783D
:104270004018608068464079000269460979401814
:10428000A080002016BD80B5C9B2002906D0022941
:104290000ED00BD304290FD00CD30FE02021C9B2CC
:1042A00000F08DF900280BD101200AE02021F6E76B
:1042B0004021F4E74021F2E76021F0E7012000E02F
:1042C000002002BD00B580680068C9B2002906D090
:1042D00002290BD007D304290ED00AD30FE03349AB
:1042E0000160002000BD31490160FAE730490160FA
:1042F000F7E72F490160F4E72E490160F1E701205B
:10430000F0E7000080B5020008002B49FDF75EFED3
:1043100001D2202118E02949FDF758FE01D24021A1
:1043200012E02749FDF752FE01D260210CE0254939
:10433000FDF74CFE01D2802106E02349FDF746FE41
:1043400001D2A02100E0C021C9B2100000F037F96D
:10435000002801D1012000E0002002BD80B502004C
:10436000080091680A681449FDF730FE01D20F4831
:1043700018E01249FDF72AFE01D20D4812E010495B
:10438000FDF724FE01D20B480CE00E49FDF71EFE9E
:1043900001D20E4806E00C49FDF718FE01D20C4888
:1043A00000E00C481060002002BD00000000204129
:1043B000000048420000EE42010020410100484256
:1043C0000100EE4201006E430100EE4300006E4327
:1043D0000000EE4300006E4480B50123C9B2FDF732
:1043E00067FE002801D0002000E0012002BD04B5D6
:1043F00001236A46C9B2FDF74FFE002801D0002014
:1044000000E0012002BD10B50C0022000F21FFF7D3
:10441000E3FF002801D1002004E0207820702078FC
:104420002070012010BD38B505000C006A461F2120
:104430002800FFF7D1FF002801D1002015E06846D1
:104440000078F7210140684601706846007804430F
:1044500068460470684602781F212800FFF7C7FFEE
:10446000002801D1002000E0012032BD10B50C0071
:1044700022001F21FFF7B0FF002801D1002004E037
:104480002078082108402070012010BD38B50500B3
:104490000C006A461F212800FFF79EFF002801D16B
:1044A000002015E068460078EF2101406846017061
:1044B00068460078044368460470684602781F2105
:1044C0002800FFF794FF002801D1002000E0012020
:1044D00032BD10B50C0022001F21FFF77DFF002820
:1044E00001D1002004E02078102108402070012034
:1044F00010BD38B505000C006A461F212800FFF7E3
:104500006BFF002801D1002015E068460078DF210C
:1045100001406846017068460078044368460470AC
:10452000684602781F212800FFF761FF002801D1AB
:10453000002000E0012032BD10B50C0022001F2138
:10454000FFF74AFF002801D1002004E02078202155
:1045500008402070012010BD38B505000C006A46E7
:1045600020212800FFF738FF002801D1002015E0A6
:1045700068460078E7210140684601706846007887
:104580000443684604706846027820212800FFF73B
:104590002EFF002801D1002000E0012032BD10B51F
:1045A0000C0022002021FFF717FF002801D1002076
:1045B00004E02078182101402170012010BD38B599
:1045C00005000C006A4620212800FFF705FF00289F
:1045D00001D1002015E068460078C006C00E69468B
:1045E000087068460078044368460470684602789C
:1045F00020212800FFF7FBFE002801D1002000E069
:10460000012032BD10B50C0022002021FFF7E4FE8E
:10461000002801D1002004E02078E0210140217031
:10462000012010BD38B505000C006A462221280083
:10463000FFF7D2FE002801D1002015E0684600787F
:10464000BF2101406846017068460078044368460F
:1046500004706846027822212800FFF7C8FE00286F
:1046600001D1002000E0012032BDF3B581B0022766
:104670000024002600E0761CF6B2032E14DA002592
:1046800001E0641C6D1CEDB2FFB2BD42F3D2029892
:10469000E4B2021921002831C9B20198FFF79CFE4B
:1046A0000028EED1002000E00120FEBD1648006881
:1046B00080214900014314480160144800681449EE
:1046C00001401248016010480068124901400E483C
:1046D000016011480068012188430F4908600A48B9
:1046E00000680E49014008480160084800680C490C
:1046F00001400648016000200A490860802000054A
:104700000949086070470000001002400C10024088
:104710000C40FF88F6FFF6FE08100240FFFFFBFF8B
:10472000FFFF02FF1010024008ED00E070B401210D
:10473000002313E00468001D0C4202D04D466D1E9C
:1047400064192360241D121F042AFAD2250096073B
:1047500001D52380AD1C0A4000D02B700268001DDB
:10476000002AE7D170BC704780B500F015F8020050
:104770000023DB431068984204D011000220ABBE36
:10478000002010605068984204D0111D0220ABBE7A
:104790000020506001BD0000004870471C0100204F
:1047A00030B401210268001D002A0FD00368C3182D
:1047B000446808300C4202D04D466D1E64191D68D5
:1047C00025601B1D241D121FECD0F8E730BC70477C
:1047D00010B5074979441831064C7C44163404E07E
:1047E000081D0A68891888470100A142F8D110BD48
:1047F0002C0000004C000000704700B5FEE7704739
:1048000080B5FEF7F0FA01BD80B51020FDF715FE6A
:1048100080208001FDF711FE01BD000011FFFFFFA8
:1048200094000000380100200000000075FFFFFF29
:1048300038010000C400000000000020000000005B
:10484000FEE7000000F00BF8002801D0FFF7C0FFE2
:104850000020C046C046FEF715FA00F002F801201D
:10486000704780B500F002F801BDFEE70746384604
:1048700000F002F8FBE7FEE780B5FFF775FF024A9C
:1048800011001820ABBEFBE726000200000000006C
:1048900001020304010203040607080901488047D6
:1048A00001480047AD460008B9480008030406085F
:1048B0000C10182030000000C046C046C046C0465C
:1048C000FFF7C0FF0101010001010100FEE7FEE763
:1048D000FEE7FEE7FEE7FEE7FEE7FEE7FEE7FEE7B0
:1048E000FEE7FEE7FEE7FEE7FEE7FEE7FEE7FEE7A0
:1048F000FEE7FEE7FEE7070075080008010900086B
:10490000390900086B0900087F090008E909000857
:10491000310A0008630A0008750A0008890A0008BD
:104920009D0A0008B10A00080D0B0008450B00089D
:10493000770B0008D50B00080D0C00083F0C000891
:10494000530C0008F10C0008690D00089B0D0008CD
:10495000530E0008EB0E00081D0F0008310F000871
:10496000450F0008590F00086D0F0008B90F000827
:10497000E10F000813100008451000087710000828
:10498000A9100008DB1000080D110008853D000883
:10499000EF3D00081F3E0008493E0008813E000828
:1049A000893E0008913E0008FF3E0008273F0008AE
:1049B000693F0008F13F0008194000083D40000829
:1049C00091400008C1400008114100087F410008E3
:1049D000C10000084B010008DD01000807020008C3
:1049E0003F020008470200084F020008BD0200080D
:1049F000E502000839030008D5030008FD0300089C
:104A00002104000875040008A50400081905000821
:104A100087050008FFFFFFFFFFFFFFFF00000050BA
:104A20000008005080841E000010000001000000FB
:0400000508000000EF
:00000001FF
