:020000040800F2
:10000000D00500202D4B00086D4A00086F4A0008FB
:10001000514B0008554B0008594B000800000000E8
:100020000000000000000000000000005D4B000820
:10003000714A000800000000614B0008734A000884
:10004000654B0008694B00086D4B0008714B0008B8
:10005000754B0008794B00087D4B0008814B000868
:10006000854B0008894B00087B4A00088D4B00082F
:10007000914B0008954B0008994B00089D4B0008D8
:10008000A14B0008A54B0008A94B00080000000088
:10009000000000000000000000000000AD4B000860
:1000A000B14B0008B54B0008B94B0008BD4B000828
:1000B000C14B0008C54B0008C94B0008CD4B0008D8
:1000C000D14B0008D54B0008D94B0008DD4B000888
:1000D000E14B0008E54B0008E94B00080000000078
:1000E000854A0008ED4B0008F14B000800000000B5
:1000F000000000000000000000000000F54B0008B8
:1001000000000000F94B0008FD4B0008014C0008FE
:1001100000000000000000000000000000000000DF
:10012000054C0008094C00080D4C0008114C000853
:10013000154C000800000000000000000000000056
:10014000000000000000000000000000194C000842
:100150001D4C0008214C0008254C0008294C0008C3
:100160002D4C0008314C0008000000000000000089
:10017000000000000000000000000000000000007F
:1001800000000000354C00080000000000000000E6
:10019000394C000870B582B0040000A8DFF8A01543
:1001A0000A680260A5682E68200000F0D8FA0128CD
:1001B00001D1012035E00421200001F023FA0028BC
:1001C00001D101202DE04021200001F03EFA00285D
:1001D00001D1012025E00021200001F051F9002883
:1001E00001D101201DE0DFF89406306000212000DD
:1001F00001F0D3F9002801D1012012E000212000F4
:1002000000F0E1F9012801D101200AE000A9200055
:1002100000F060FA012801D1012002E00120E07025
:10022000002076BD70B50400A5682E68200000F09F
:1002300096FA012801D101203CE0200000F07AFC70
:10024000012801D1012035E0200001F003F8012848
:1002500001D101202EE0200000F0E6FC012801D1B0
:10026000012027E0200000F076FE012801D10120C6
:1002700020E0200000F026FF012801D1012019E034
:10028000200000F070FD012801D1012012E02000C3
:1002900000F0CEFD012801D101200BE0200000F08C
:1002A00020F8012801D1012004E000203060002066
:1002B000E070002070BD70B50400A5682E6820793C
:1002C000012801D100200BE096ED000A200000F08B
:1002D000D7FA012801D1012002E00120207100207D
:1002E00070BD70B50400A5682E682079002801D182
:1002F000002012E03100200000F0A3F8012801D115
:1003000001200AE00021200001F047F9002801D176
:10031000012002E000202071002070BD38B50400EB
:100320000D002900200000F00DFA32BD10B50400C8
:10033000200000F014FA10BD3EB504000D000020AE
:10034000009001A9200000F021FA012801D101202C
:1003500032E000A9200000F047F8012801D1012077
:100360002AE0BDF9040000EE100AB8EEC00ADDED87
:10037000000A20EE200ABDEEC00A85ED000ABDF994
:10038000060000EE100AB8EEC00ADDED000A20EE0D
:10039000200ABDEEC00A85ED010ABDF9080000EE95
:1003A000100AB8EEC00ADDED000A20EE200ABDEE0C
:1003B000C00A85ED020A00203EBD30B583B00400BE
:1003C0000D0000A9200000F0E1F9012801D1012071
:1003D00009E0BDF800002880BDF802006880BDF883
:1003E0000400A88000203EBD38B504000D0000A91F
:1003F000200001F0C0F8002801D1012020E09DF884
:100400000000002806D0042810D0082806D00C28A8
:1004100008D00FE0DFF84405286010E0DFF8400561
:1004200028600CE0DFF83C05286008E0DFF83805BC
:10043000286004E0DFF810062860012000E00020BA
:1004400032BD38B504000D0000A9200001F0C8F845
:10045000002801D101204FE09DF80000002816D0AF
:10046000102817D0202819D030281BD040281DD0A4
:1004700050281FD0602821D0702823D0802825D074
:10048000902827D0A02829D0B0282BD02EE00020FB
:10049000286030E0DFF8B40528602CE0DFF8B00514
:1004A000286028E0DFF8AC05286024E0DFF8CC0302
:1004B000286020E0DFF8A00528601CE0DFF89C053C
:1004C000286018E0DFF89805286014E0DFF8980548
:1004D000286010E0DFF8940528600CE0DFF8940550
:1004E000286008E0DFF89005286004E0DFF8580590
:1004F0002860012000E0002032BD38B504000D0066
:100500002079012808D12900C9B2200000F069F93A
:1005100001280AD1012009E02900C9B2200000F019
:1005200089F9012801D1012000E0002032BD10B579
:100530002DED028B0400B0EE408A2079012808D10D
:10054000B0EE480A200000F09BF901280AD10120F2
:1005500009E0B0EE480A200000F008FA012801D1B5
:10056000012000E00020BDEC028B10BD38B5040076
:100570000D0000A9200000F0FEFF002801D101209D
:1005800020E09DF80000002806D0042810D008289C
:1005900006D00C2808D00FE05FF08040286010E003
:1005A0005FF0814028600CE05FF08240286008E046
:1005B0005FF08340286004E0DFF88C0428600120AD
:1005C00000E0002032BD70B504000D00EDB2002D3A
:1005D00003D0022D07D003D308E00020060007E077
:1005E0000820060004E00C20060001E0012009E0DC
:1005F0003100C9B2200000F09BFF002801D101208A
:1006000000E0002070BD000038B52DED028B040025
:10061000B0EE408A9FED470AB4EE408AF1EE10FA40
:1006200001D5002512E09FED440AB4EE408AF1EEB8
:1006300010FA01D5082509E09FED400AB4EE408A82
:10064000F1EE10FA01D50C2500E004252900C9B20D
:10065000200000F06DFF002801D1012000E0002003
:10066000BDEC028B32BD38B504000D000DF1020166
:10067000200001F030F8002801D1012029E00DF11F
:100680000101200001F05CF8002801D1012020E0E8
:1006900000A9200001F089F8002801D1012018E00C
:1006A0009DF80200082801D1012000E000202870F8
:1006B0009DF80100102801D1012000E000206870A1
:1006C0009DF80000202801D1012000E00020A87042
:1006D000002032BD38B504000D002878012801D172
:1006E000082100E00021C9B2200000F0D1FF00285D
:1006F00001D101201CE06878012801D1102100E01F
:100700000021C9B2200000F0F8FF002801D101202B
:100710000EE0A878012801D1202100E00021C9B213
:10072000200001F01FF8002801D1012000E0002086
:1007300032BD000001000040010080400100004186
:100740004C4B000838B504000D002900200000F0D3
:10075000DDFE002801D1012000E0002032BD10B5EF
:1007600082B0040000208DF8000000A92000FFF7EF
:10077000E9FF012801D1012007E09DF80000217860
:10078000884201D0012000E0002016BD30B583B0C2
:1007900004000D0000A80021002206C0083800A9AE
:1007A000200001F0A4FC002801D1012018E09DF8F0
:1007B000010000029DF8001050FA81F028809DF899
:1007C000030000029DF8021050FA81F068809DF845
:1007D000050000029DF8041050FA81F0A880002066
:1007E0003EBD70B504000D00EDB2002D06D0022D07
:1007F0000AD006D3042D0DD009D30EE01020060038
:100800000DE0102006000AE02020060007E030205E
:10081000060004E04020060001E0012009E031006C
:10082000C9B2200000F0B9FE002801D1012000E08B
:10083000002070BD10B4020093681C68C9B2002982
:1008400006D002290AD006D304290DD009D30FE01F
:100850007E4820600EE07D4820600BE07C482060F0
:1008600008E07C48206005E0DFF8C002206001E07D
:10087000012000E0002010BC704700000000D042C2
:1008800038B52DED028B0400B0EE408A9FED750A5D
:10089000B4EE408AF1EE10FA01D5102551E09FED3B
:1008A000740AB4EE408AF1EE10FA01D5202548E032
:1008B0009FED720AB4EE408AF1EE10FA01D53025B0
:1008C0003FE09FED6F0AB4EE408AF1EE10FA01D5D9
:1008D000402536E09FED6B0AB4EE408AF1EE10FA47
:1008E00001D550252DE09FED690AB4EE408AF1EE66
:1008F00010FA01D5602524E09FED650AB4EE408A28
:10090000F1EE10FA01D570251BE09FED620AB4EEFE
:10091000408AF1EE10FA01D5802512E09FED5E0AC3
:10092000B4EE408AF1EE10FA01D5902509E09FED72
:100930005B0AB4EE408AF1EE10FA01D5A02500E082
:10094000B0252900C9B2200000F027FE002801D1FF
:10095000012000E00020BDEC028B32BD23DB793D9D
:1009600023DBF93D23DB793E23DBF93E01008A6876
:100970001368DFED3C0AB4EE600AF1EE10FA02D51E
:10098000F2EE0A0A5BE0DFED3A0AB4EE600AF1EE3D
:1009900010FA02D5F3EE0A0A51E0DFED380AB4EEA0
:1009A000600AF1EE10FA02D5DFED2A0A47E0DFED2A
:1009B000340AB4EE600AF1EE10FA02D5DFED320A25
:1009C0003DE0DFED300AB4EE600AF1EE10FA02D538
:1009D000DFED210A33E0DFED2D0AB4EE600AF1EE1F
:1009E00010FA02D5DFED1D0A29E0DFED290AB4EE89
:1009F000600AF1EE10FA02D5DFED190A1FE0DFED13
:100A0000250AB4EE600AF1EE10FA02D5DFED160AFF
:100A100015E0DFED210AB4EE600AF1EE10FA02D51E
:100A2000DFED120A0BE0DFED1D0AB4EE600AF1EE15
:100A300010FA02D5DFED0F0A01E0DFED0F0AC3ED7A
:100A4000000A002070470000000080BF00005041F5
:100A50000000D04100005042000050430000D0434D
:100A600000405044010050410080CF4400205045D8
:100A70000100D0410020D0450048504601005042BE
:100A80000100D042010050430000D0420100D04399
:100A9000014050440180CF44012050450120D04501
:100AA00010B504009FED220A2000FFF740FD012849
:100AB00001D1012038E00021200000F039FD00289C
:100AC00001D1012030E00621200001F0F1F90028D9
:100AD00001D1012028E00021200001F0A0F9002828
:100AE00001D1012020E00021200001F075F900284B
:100AF00001D1012018E00021200001F048F9002870
:100B000001D1012010E00321200000F04AF8012863
:100B100001D1012008E01021200001F07FFA002817
:100B200001D1012000E0002010BD00000000D042F3
:100B30000000D04310B504000021200001F06EFA3F
:100B4000002801D1012010E00021200001F0B0F9BF
:100B5000002801D1012008E00021200001F085F9E2
:100B6000002801D1012000E0002010BD38B50400AC
:100B70000D0000A9200000F082FE002801D1012014
:100B80000EE09DF80000002804D0202805D10120A7
:100B9000287004E00020287001E0012000E000201F
:100BA00032BD38B504000D002900C9B2200001F0A3
:100BB0005CF9002801D1012000E0002032BD10B511
:100BC0000400B3EE0A0A2000FFF7B1FC012801D1AE
:100BD000012028E00021200000F0AAFC002801D11B
:100BE000012020E01721200000F082F8012801D127
:100BF000012018E00421200000F00CFE002801D1A3
:100C0000012010E04021200000F09DFF002801D1CC
:100C1000012008E08021200000F055FC002801D1CF
:100C2000012000E0002010BD10B5040000212000CC
:100C300000F049FC002801D1012018E0002120002B
:100C400000F081FF002801D1012010E000212000E8
:100C500000F0E0FD002801D1012008E00021200083
:100C600000F046F8012801D1012000E0002010BD6D
:100C700038B504000D0000A9200000F0B4FE0028E3
:100C800001D101200EE09DF80000002804D01028BA
:100C900005D10120287004E00020287001E0012027
:100CA00000E0002032BD38B504000D00290020000E
:100CB00001F048FA002801D1012000E0002032BDF7
:100CC00010B504000221200000F081FD002801D1B0
:100CD000012000E0002010BD10B50400002120001C
:100CE00000F075FD002801D1012000E0002010BDBA
:100CF00038B504000D002900C9B2200001F04DFAFA
:100D0000002801D1012000E0002032BD10B5040010
:100D1000B3EE0A0A2000FFF70AFC012801D10120E6
:100D200020E00021200000F003FC002801D1012078
:100D300018E00421200000F06DFD002801D1012001
:100D400010E02021200000F0DBFE002801D101206E
:100D500008E00221200001F0F8F8002801D101206C
:100D600000E0002010BD10B504000021200001F0BB
:100D7000ECF8002801D1012010E00021200000F053
:100D8000BFFE002801D1012008E00021200000F072
:100D900041FD002801D1012000E0002010BD38B540
:100DA00004000D0000A9200000F02FFE002801D152
:100DB00001200EE09DF80000002804D0202805D175
:100DC0000120287004E00020287001E0012000E0EC
:100DD000002032BD10B504009FEDB90A2000FFF7D6
:100DE000A6FB012801D1012020E00021200000F015
:100DF0009FFB002801D1012018E00021200001F014
:100E00000EF8002801D1012010E00221200000F09E
:100E100076FF002801D1012008E02021200001F008
:100E200020F9002801D1012000E0002010BD0000C1
:100E300010B504000021200001F013F9002801D1B1
:100E4000012010E00021200000F0E9FF002801D17E
:100E5000012008E00021200000F051FF002801D10E
:100E6000012000E0002010BD38B504000D0000A9ED
:100E7000200000F0F2FC002801D101200EE09DF8D6
:100E80000000002804D0082805D10120287004E0C3
:100E90000020287001E0012000E0002032BD38B5BC
:100EA00004000D002900C9B2200000F028FF00282E
:100EB00001D1012000E0002032BD000010B5040087
:100EC0009FED7F0A2000FFF732FB012801D10120AE
:100ED00040E00021200000F02BFB002801D1012080
:100EE00038E00821200000F0E8FD002801D10120B1
:100EF00030E00421200000F0BDFD002801D10120D8
:100F000028E00221200000F092FD002801D10120FC
:100F100020E00821200000F03CF9012801D1012047
:100F200018E00221200000F042F9012801D101203F
:100F300010E00121200000F048F9012801D1012032
:100F400008E04021200001F0AFF8002801D1012085
:100F500000E0002010BD10B504000021200001F0C9
:100F6000A3F8002801D1012030E00021200000F08A
:100F700010F9012801D1012028E00021200000F013
:100F800016F9012801D1012020E00021200000F005
:100F90001CF9012801D1012018E00021200000F0F7
:100FA00046FD002801D1012010E00021200000F0C2
:100FB00061FD002801D1012008E00021200000F09F
:100FC0007CFD002801D1012000E0002010BD38B5D3
:100FD00004000D0000A9200000F075FC002801D1DC
:100FE00001200EE09DF80000002804D0202805D143
:100FF0000120287004E00020287001E0012000E0BA
:10100000002032BD10B504009FED2D0A2000FFF72F
:101010008EFA012801D1012050E00021200000F0CB
:1010200087FA002801D1012048E00821200000F0C3
:1010300044FD002801D1012040E00421200000F0FF
:1010400019FD002801D1012038E00221200000F024
:10105000EEFC002801D1012030E00821200000F042
:1010600098F8012801D1012028E00321200000F098
:101070009EF8012801D1012020E00321200000F08A
:10108000A4F8012801D1012018E00821200000F077
:10109000AAF8012801D1012010E08021200000F0F1
:1010A00053FE002801D1012008E00821200000F0B3
:1010B00092FF002801D1012000E0002010BD0000B7
:1010C0000000D04310B504000021200000F083FF91
:1010D000002801D1012040E00021200000F059F853
:1010E000012801D1012038E00021200000F05FF844
:1010F000012801D1012030E00021200000F065F836
:10110000012801D1012028E00021200000F06BF827
:10111000012801D1012020E00021200000F014FE70
:10112000002801D1012018E00021200000F07FFC00
:10113000002801D1012010E00021200000F09AFCDD
:10114000002801D1012008E00021200000F0B5FCBA
:10115000002801D1012000E0002010BD38B50400B6
:101160000D0000A9200000F09CFB002801D1012007
:101170000EE09DF80000002804D0102805D10120C1
:10118000287004E00020287001E0012000E0002029
:1011900032BD38B504000D002900C9B2200000F0AE
:1011A000F5FC002801D1012000E0002032BD38B557
:1011B00004000D002900C9B2200000F02FFD002816
:1011C00001D1012000E0002032BD38B504000D003F
:1011D0002900C9B2200000F046FD002801D10120FD
:1011E00000E0002032BD38B504000D002900C9B26E
:1011F000200000F05EFD002801D1012000E0002069
:1012000032BD000010B504009FED110A2000FFF769
:101210008EF9012801D1012018E00021200000F002
:1012200087F9002801D1012010E04021200000F0C2
:10123000D2FC002801D1012008E00421200000F0A8
:10124000A7FE002801D1012000E0002010BD000011
:101250000000D04310B504000021200000F098FEEB
:10126000002801D1012008E00021200000F0B3FC9B
:10127000002801D1012000E0002010BD38B5040095
:101280000D0000A9200000F09CFB002801D10120E6
:101290000EE09DF80000002804D0402805D1012070
:1012A000287004E00020287001E0012000E0002008
:1012B00032BD38B504000D0000A9200000F015FB78
:1012C000002801D101200EE09DF80000002804D084
:1012D000012805D10120287004E00020287001E0D9
:1012E000012000E0002032BD38B504000D0000A947
:1012F000200000F00CFB002801D101200EE09DF839
:101300000000002804D0022805D10120287004E044
:101310000020287001E0012000E0002032BD38B537
:1013200004000D0000A9200000F003FB002801D1FB
:1013300001200EE09DF80000002804D0042805D10B
:101340000120287004E00020287001E0012000E066
:10135000002032BD38B504000D0000A9200000F0C7
:10136000FAFA002801D101200EE09DF800000028C3
:1013700004D0082805D10120287004E0002028703E
:1013800001E0012000E0002032BD38B504000D006E
:1013900000A9200000F0F1FA002801D101200EE0A0
:1013A0009DF80000002804D0102805D101202870E5
:1013B00004E00020287001E0012000E0002032BDA0
:1013C00038B504000D0000A9200000F0E8FA00285C
:1013D00001D101200EE09DF80000002804D0202853
:1013E00005D10120287004E00020287001E00120D0
:1013F00000E0002032BD200070B504000D00160092
:10140000012332002900C9B2200000F052FF002859
:1014100001D0002000E0012070BD34B504000D00B3
:10142000012300AA2900C9B2200000F02BFF0028E8
:1014300001D0002000E0012032BD38B504000D00CD
:1014400000AA01212000FFF7D7FF002801D10020CA
:1014500015E09DF8000010F07F008DF800009DF869
:10146000000028438DF800009DF800200121200095
:10147000FFF7D3FF002801D1002000E0012032BD9A
:1014800038B504000D0000AA0A212000FFF7B4FFC0
:10149000002801D1002015E09DF8000010F0F800B0
:1014A0008DF800009DF8000028438DF800009DF89D
:1014B00000200A212000FFF7B0FF002801D1002002
:1014C00000E0012032BD38B504000D0000AA0D2156
:1014D0002000FFF791FF002801D1002015E09DF8C2
:1014E000000010F07F008DF800009DF800002843F8
:1014F0008DF800009DF800200D212000FFF78DFFE2
:10150000002801D1002000E0012032BD38B50400E0
:101510000D002A000F212000FFF76EFF002801D1E7
:10152000002004E02878287028782870012032BD37
:1015300038B504000D0000AA10212000FFF75CFF61
:10154000002801D1002015E09DF8000010F0F30004
:101550008DF800009DF8000028438DF800009DF8EC
:10156000002010212000FFF758FF002801D10020A3
:1015700000E0012032BD38B504000D002A00102122
:101580002000FFF739FF002801D1002004E028786F
:1015900010F00C002870012032BD38B504000D0099
:1015A00000AA10212000FFF727FF002801D100200A
:1015B00015E09DF8000010F00F008DF800009DF878
:1015C000000028438DF800009DF800201021200025
:1015D000FFF723FF002801D1002000E0012032BDE9
:1015E00038B504000D002A0010212000FFF704FF89
:1015F000002801D1002004E0287810F0F0002870C5
:10160000012032BD38B504000D0000AA12212000CF
:10161000FFF7F2FE002801D1002015E09DF8000040
:1016200010F0FB008DF800009DF8000028438DF8B5
:1016300000009DF8002012212000FFF7EEFE002898
:1016400001D1002000E0012032BD38B504000D00BA
:1016500000AA12212000FFF7CFFE002801D10020B0
:1016600015E09DF8000010F0BF008DF800009DF817
:10167000000028438DF800009DF800201221200072
:10168000FFF7CBFE002801D1002000E0012032BD91
:1016900038B504000D0000AA18212000FFF7ACFEA9
:1016A000002801D1002015E09DF8000010F0F7009F
:1016B0008DF800009DF8000028438DF800009DF88B
:1016C000002018212000FFF7A8FE002801D10020EB
:1016D00000E0012032BD38B504000D002A001821B9
:1016E0002000FFF789FE002801D1002004E02878BF
:1016F00010F008002870012032BD38B504000D003C
:1017000000AA18212000FFF777FE002801D1002051
:1017100015E09DF8000010F0EF008DF800009DF836
:10172000000028438DF800009DF8002018212000BB
:10173000FFF773FE002801D1002000E0012032BD38
:1017400038B504000D002A0018212000FFF754FED0
:10175000002801D1002004E0287810F01000287043
:10176000012032BD38B504000D0000AA1821200068
:10177000FFF742FE002801D1002015E09DF800008F
:1017800010F0DF008DF800009DF8000028438DF870
:1017900000009DF8002018212000FFF73EFE0028E1
:1017A00001D1002000E0012032BD38B504000D0059
:1017B0002A0018212000FFF71FFE002801D1002079
:1017C00004E0287810F020002870012032BD38B5E0
:1017D00004000D0000AA19212000FFF70DFE0028CB
:1017E00001D1002015E09DF8000010F0FD008DF8FB
:1017F00000009DF8000028438DF800009DF80020AF
:1018000019212000FFF709FE002801D1002000E087
:10181000012032BD38B504000D0000AA19212000B6
:10182000FFF7EAFD002801D1002015E09DF8000037
:1018300010F0FB008DF800009DF8000028438DF8A3
:1018400000009DF8002019212000FFF7E6FD002888
:1018500001D1002000E0012032BD38B504000D00A8
:101860002A001B212000FFF7C7FD002801D100201E
:1018700004E0287810F008002870012032BD38B547
:1018800004000D002A001B212000FFF7B5FD0028F1
:1018900001D1002004E0287810F0200028700120F9
:1018A00032BD38B504000D002A001C212000FFF7CE
:1018B000A3FD002801D1002004E0287810F01000DA
:1018C0002870012032BD38B504000D002A001C210B
:1018D0002000FFF791FD002801D1002004E02878C6
:1018E00010F020002870012032BD38B504000D0032
:1018F0002A001D212000FFF77FFD002801D10020D4
:1019000004E0287810F001002870012032BD38B5BD
:1019100004000D002A001D212000FFF76DFD0028A6
:1019200001D1002004E0287810F002002870012086
:1019300032BD38B504000D002A001D212000FFF73C
:101940005BFD002801D1002004E0287810F004009D
:101950002870012032BD38B504000D002A001D2179
:101960002000FFF749FD002801D1002004E028787D
:1019700010F008002870012032BD38B504000D00B9
:101980002A001D212000FFF737FD002801D100208B
:1019900004E0287810F010002870012032BD38B51E
:1019A00004000D002A001D212000FFF725FD00285E
:1019B00001D1002004E0287810F0200028700120D8
:1019C00032BD38B504000D002A001D212000FFF7AC
:1019D00013FD002801D1002004E0287810F0400019
:1019E0002870012032BD38B504000D002A005321B3
:1019F0002000FFF701FD002801D1002004E0287835
:101A000010F010002870012032BD38B504000D0020
:101A10002A0053212000FFF7EFFC002801D100200D
:101A200004E0287810F020002870012032BD38B57D
:101A300004000D0000AA58212000FFF7DDFC00285B
:101A400001D1002015E09DF8000010F0FD008DF898
:101A500000009DF8000028438DF800009DF800204C
:101A600058212000FFF7D9FC002801D1002000E018
:101A7000012032BD38B504000D0000AA5821200015
:101A8000FFF7BAFC002801D1002015E09DF8000006
:101A900010F0FB008DF800009DF8000028438DF841
:101AA00000009DF8002058212000FFF7B6FC002818
:101AB00001D1002000E0012032BD38B504000D0046
:101AC00000AA58212000FFF797FC002801D1002030
:101AD00015E09DF8000010F0F7008DF800009DF86B
:101AE000000028438DF800009DF8002058212000B8
:101AF000FFF793FC002801D1002000E0012032BD57
:101B000038B504000D0000AA58212000FFF774FC2E
:101B1000002801D1002015E09DF8000010F0DF0042
:101B20008DF800009DF8000028438DF800009DF816
:101B3000002058212000FFF770FC002801D1002070
:101B400000E0012032BD38B504000D0000AA582184
:101B50002000FFF751FC002801D1002015E09DF87E
:101B6000000010F0BF008DF800009DF80000284331
:101B70008DF800009DF8002058212000FFF74DFC53
:101B8000002801D1002000E0012032BD38B504005A
:101B90000D0015F01F0500AA59212000FFF72CFCAD
:101BA000002801D1002015E09DF8000010F0E000B1
:101BB0008DF800009DF8000028438DF800009DF886
:101BC000002059212000FFF728FC002801D1002027
:101BD00000E0012032BD38B504000D0000AA5921F3
:101BE0002000FFF709FC002801D1002015E09DF836
:101BF000000010F09F008DF800009DF800002843C1
:101C00008DF800009DF8002059212000FFF705FC09
:101C1000002801D1002000E0012032BD38B50400C9
:101C20000D0015F0030500AA5A212000FFF7E4FB80
:101C3000002801D1002015E09DF8000010F0FC0004
:101C40008DF800009DF8000028438DF800009DF8F5
:101C500000205A212000FFF7E0FB002801D10020DE
:101C600000E0012032BD38B504000D00AD0015F0D4
:101C70000C0500AA5A212000FFF7BEFB002801D165
:101C8000002015E09DF8000010F0F3008DF8000032
:101C90009DF8000028438DF800009DF800205A218F
:101CA0002000FFF7BAFB002801D1002000E001204E
:101CB00032BD38B504000D002D0115F0F00500AA65
:101CC0005A212000FFF798FB002801D1002015E0E1
:101CD0009DF8000010F00F008DF800009DF8000046
:101CE00028438DF800009DF800205A212000FFF7BE
:101CF00094FB002801D1002000E0012032BD38B55E
:101D000004000D0015F03F0500AA5B212000FFF73D
:101D100073FB002801D1002015E09DF8000010F0B1
:101D2000C0008DF800009DF8000028438DF80000E9
:101D30009DF800205B212000FFF76FFB002801D1F8
:101D4000002000E0012032BD38B504000D0000AADB
:101D50005B212000FFF750FB002801D1002015E097
:101D60009DF8000010F07F008DF800009DF8000045
:101D700028438DF800009DF800205B212000FFF72C
:101D80004CFB002801D1002000E0012032BD38B515
:101D900004000D0015F00F0500AA5C212000FFF7DC
:101DA0002BFB002801D1002015E09DF8000010F069
:101DB000F0008DF800009DF8000028438DF8000029
:101DC0009DF800205C212000FFF727FB002801D1AF
:101DD000002000E0012032BD38B504000D0000AA4B
:101DE0005C212000FFF708FB002801D1002015E04E
:101DF0009DF8000010F0EF008DF800009DF8000045
:101E000028438DF800009DF800205C212000FFF79A
:101E100004FB002801D1002000E0012032BD38B5CC
:101E200004000D006D0115F0600500AA5C21200082
:101E3000FFF7E2FA002801D1002015E09DF800002C
:101E400010F09F008DF800009DF8000028438DF8E9
:101E500000009DF800205C212000FFF7DEFA00283A
:101E600001D1002000E0012032BD38B504000D0092
:101E700000AA5D212000FFF7BFFA002801D1002051
:101E800015E09DF8000010F0F8008DF800009DF8B6
:101E9000000028438DF800009DF800205D212000FF
:101EA000FFF7BBFA002801D1002000E0012032BD7D
:101EB000F8B504000D0015F01F000700C5F3401031
:101EC0000600FF0017F0F80700AA5D212000FFF7C9
:101ED00093FA002801D1002036E09DF8000010F0B0
:101EE00007008DF800009DF8000038438DF80000D1
:101EF0009DF800205D212000FFF78FFA002801D116
:101F0000002021E0F60116F0800600AA5C212000E6
:101F1000FFF772FA002801D1002015E09DF80000BB
:101F200010F07F008DF800009DF8000030438DF820
:101F300000009DF800205C212000FFF76EFA0028C9
:101F400001D1002000E00120F2BD38B504000D00F1
:101F500000AA5E212000FFF74FFA002801D10020DF
:101F600015E09DF8000010F0FD008DF800009DF8D0
:101F7000000028438DF800009DF800205E2120001D
:101F8000FFF74BFA002801D1002000E0012032BD0C
:101F900038B504000D0000AA5E212000FFF72CFADE
:101FA000002801D1002015E09DF8000010F0FB0092
:101FB0008DF800009DF8000028438DF800009DF882
:101FC00000205E212000FFF728FA002801D1002020
:101FD00000E0012032BD38B504000D0000AA5E21EA
:101FE0002000FFF709FA002801D1002015E09DF834
:101FF000000010F0F7008DF800009DF80000284365
:102000008DF800009DF800205E212000FFF705FA02
:10201000002801D1002000E0012032BD38B50400C5
:102020000D0000AA5E212000FFF7E6F9002801D18B
:10203000002015E09DF8000010F0EF008DF8000082
:102040009DF8000028438DF800009DF800205E21D7
:102050002000FFF7E2F9002801D1002000E0012074
:1020600032BD38B504000D0000AA5E212000FFF744
:10207000C3F9002801D1002015E09DF8000010F000
:10208000DF008DF800009DF8000028438DF8000067
:102090009DF800205E212000FFF7BFF9002801D144
:1020A000002000E0012032BD38B504000D0000AA78
:1020B0005E212000FFF7A0F9002801D1002015E0E3
:1020C0009DF8000010F0BF008DF800009DF80000A2
:1020D00028438DF800009DF800205E212000FFF7C6
:1020E0009CF9002801D1002000E0012032BD2DE93B
:1020F000F84304000D0002208146002080460020A5
:102100000600F6B2032E1ADA00200700FFB25FFACB
:1021100089F94F4511D25FFA88F818EB050218F1DA
:102120002801C9B22000FFF767F9002801D100207B
:1021300006E018F101087F1CE8E7761CE1E70120C2
:10214000BDE8F2832DE9F84304000D00022081462A
:102150000020804600200600F6B2002E1AD1002092
:102160000700FFB25FFA89F94F4511D25FFA88F88C
:1021700018EB050218F14B01C9B22000FFF73CF93A
:10218000002801D1002006E018F101087F1CE8E7D3
:10219000761CE1E70120BDE8F28338B504000D00AC
:1021A00080212000FFF749F900AA0F212000FFF746
:1021B00023F99DF8000010F0E0008DF800009DF874
:1021C000000015F01F0108438DF800009DF8002065
:1021D0000F212000FFF721F900212000FFF72DF942
:1021E000012032BD80B500F07BF8002801D001202D
:1021F00000E0002002BD0020704700B58BB09C4875
:10220000006850F001009A4908609948006810F091
:102210000100009000981020069096480790022038
:1022200009900020089006A9934800F035F9002293
:1022300000210A2000F0BCFA0A2000F0CCFA8C48F9
:10224000006850F002008A4908608948006810F070
:102250000200009000980120019086480290022020
:1022600004900020039001A9844800F015F9002291
:102270000021062000F09CFA062000F0ACFA0020B5
:102280000BB000BD2DE9F04104000D0016001F0049
:10229000A0463B009BB232002900C9B298F8010069
:1022A00000F042F8002801D0012000E00020BDE845
:1022B000F0812DE9F04104000D0016001F00A0463A
:1022C0003B009BB232002900C9B298F8010000F02F
:1022D00055F8002801D0012000E00020BDE8F08181
:1022E00080B5674800F004FD002814D165486449B2
:1022F000486000206249886033206149C8604FF41B
:1023000080405F49086160485D49086000F068F8F6
:102310005B4800F07DFA5A4800F0EAFC012801D140
:10232000002000E0012002BD2DE9F04184B004004E
:102330000D0016001F005FF000085448006802906E
:10234000380080B2019000960123EDB22A0092B2CB
:10235000E4B2210089B24A4800F00CFB80465FFAE3
:1023600088F8B8F1000F05D02000C0B200F030F8B6
:10237000012000E0002004B0BDE8F0812DE9F0412B
:1023800084B004000D0016001F005FF000083F48F5
:1023900000680290380080B2019000960123EDB2EF
:1023A0002A0092B2E4B2210089B2354800F074FBF1
:1023B00080465FFA88F8B8F1000F05D02000C0B25F
:1023C00000F006F8012000E0002004B0BDE8F08134
:1023D00010B504002A4800F0AAFAFFF781FF10BDEB
:1023E00000B587B02248006850F00200204908601C
:1023F0001F48006810F00200009000984FF44070F1
:1024000001901220029002200490002003900420EA
:10241000059001A9194800F03FF81D48006850F4E4
:1024200000101B4908601A48006810F40010009062
:1024300000981848006850F40010164908601548C4
:10244000006830F4001013490860002200211F20AA
:1024500000F0AEF91F2000F0BEF90022002120207C
:1024600000F0A6F9202000F0B6F907B000BD00008A
:102470003038024000001110000002400004024009
:1024800038010020801A060000540040300100206E
:102490004038024020380240F8B4002300240025D0
:1024A00000263200102A80F0D680012696403300A4
:1024B0000E681E4034009C4240F0CB804E68022ED5
:1024C00002D04E68122E16D1D60810EB8606366A58
:1024D00035000F2612F00707FFB2BF00BE40B5431C
:1024E0000E6912F00707FFB2BF00BE403543D608A1
:1024F00010EB860635620668350003261700FFB22A
:102500007F00BE40B5430E7916F003061700FFB2F8
:102510007F00BE40354305604E68012E08D04E68EE
:10252000022E05D04E68112E02D04E68122E19D1FF
:102530008668350003261700FFB27F00BE40B54312
:10254000CE681700FFB27F00BE4035438560466805
:10255000350001269640B5434E68C6F300169640F6
:1025600035434560C668350003261700FFB27F007B
:10257000BE40B5438E681700FFB27F00BE403543B2
:10258000C5604E68F60064D5464E366856F48046FF
:10259000444F3E60434E366816F480460096009ED7
:1025A000414E970856F8276035000F2612F00307B2
:1025B000FFB2BF00BE40B5433C4EB04201D1002641
:1025C00014E03B4EB04201D101260FE0394EB0423B
:1025D00001D102260AE0384EB04201D1032605E0BF
:1025E000364EB04201D1042600E00526F6B212F0C4
:1025F0000307FFB2BF00BE4035432B4E970846F895
:1026000027502F4E36683500A5434E68F60300D597
:1026100025432B4E35602B4E36683500A5434E685A
:10262000B60300D52543274E3560274E3668350062
:10263000A5434E68F60200D52543234E3560234E50
:1026400036683500A5434E68B60200D525431F4EB7
:102650003560521C26E7F1BC70470200136989B24D
:102660000B4202D00123180001E000231800C0B281
:102670007047D2B2002A02D089B2816102E089B2E9
:102680000B048361704710B5040011480068A4B2C0
:10269000204206D0A4B20E480460200080B200F0B0
:1026A00038FD10BD443802400838014000000240A7
:1026B0000004024000080240000C024000100240EA
:1026C000003C0140043C0140083C01400C3C0140FE
:1026D000143C014010F00702454B1B6819004FF6EF
:1026E000FF031940434B53EA02231943404B19603F
:1026F00070473F480068C0F302207047012110F086
:102700001F0291403C4A40B2430942F823107047EF
:1027100010B440B2002808D50A01384B40B210F07E
:102720000F04E31803F8042C03E00A01344B40B211
:10273000C25410BC704770B4030013F00704D4F106
:102740000706052E01D3042001E0D4F10700261D61
:10275000072E01D2002500E0E51E012616FA00F042
:10276000401E0840A8400121A940491E11400843CD
:1027700070BC704710B50400601EB0F1807F01D3BB
:1027800001200EE0601E1F4908600F215FF0FF303E
:10279000FFF7BEFF00201C49086007201B490860A6
:1027A000002010BD10B504002000FFF793FF10BDFE
:1027B000F8B504000D0016000027FFF79AFF070088
:1027C000320029003800FFF7B6FF0100200040B2B8
:1027D000FFF79EFFF1BD10B50400200040B2FFF7E7
:1027E0008DFF10BD10B504002000FFF7C3FF10BD22
:1027F0000CED00E00000FA0500E100E018ED00E05B
:1028000000E400E014E000E018E000E010E000E088
:1028100070B5040000250026002C01D1012085E0C0
:1028200094F83500002805D1002084F834002000F9
:1028300000F099F8022084F835002068006840080C
:1028400040002168086001F004F80600DFF81C0170
:10285000B6FBF0F00500206845606068DFF81011F5
:10286000884201D2681C08E04FF4967000FB05F026
:102870004FF47A71B0FBF1F0401C21680862606887
:10288000DFF8EC1088420ED260684000B6FBF0F032
:102890000005000D042801D204202AE060684000F1
:1028A000B6FBF0F025E0A068002805D160680321A0
:1028B0004843B6FBF0F006E0606819214843B6FBD8
:1028C000F0F050F48040000501D1012011E0A06833
:1028D000002805D1606803214843B6FBF0F006E00C
:1028E000606819214843B6FBF0F050F4804050F482
:1028F00000402168C861E069216A084321680860D6
:102900002069E1680843216888606069A16908431B
:102910002168C8602068006850F0010021680860E4
:102920000020A063012084F83500002070BD10B5A0
:102930000400002C01D1012014E0022084F83500AD
:10294000206800684008400021680860200000F00E
:102950000BF80020A063002084F83500002084F8E4
:102960003400002010BD70477047000040420F0047
:10297000A18601002DE9F04782B005000E00170086
:102980009846DDF828900B9CDDF830A095F83500CE
:1029900001287CD1B9F1000F02D0A4B2002C01D1E2
:1029A000012075E042F210730122DFF84013280085
:1029B00000F092FA002801D0022069E095F8340076
:1029C000012801D1022063E0012085F83400286845
:1029D000006830F4006029680860322085F835000E
:1029E0000020A863CDF800A043469BB23A0092B203
:1029F000310089B2280000F081F900280CD0A86BC2
:102A0000042804D1002085F83400012040E0002093
:102A100085F8340003203BE0A4B2002C1FD05346BD
:102A200000221C49280000F057FA002801D003209A
:102A30002EE099F800002968086119F10109641E67
:102A4000286840694007E7D5A4B2002CE4D099F883
:102A500000002968086119F10109641EDCE753468A
:102A600000220C49280000F037FA002801D003208A
:102A70000EE02868006850F40070296808600120A2
:102A800085F83500002085F83400002000E00220A1
:102A9000BDE8F687800001002DE9F04782B005000F
:102AA0000E0017009846DDF828900B9CDDF830A04A
:102AB00095F83500012840F01481B9F1000F02D0DB
:102AC000A4B2002C01D101200CE142F210730122CA
:102AD000DFF81812280000F0FFF9002801D00220CA
:102AE00000E195F83400012801D10220FAE001202C
:102AF00085F834002868006830F4006029680860B0
:102B0000422085F835000020A863CDF800A0434698
:102B10009BB23A0092B2310089B2280000F049F924
:102B200000280CD0A86B042804D1002085F83400BC
:102B30000120D7E0002085F834000320D2E0A4B2C1
:102B4000012C13D12868006830F48060296808607F
:102B5000286840690090286880690090009828687B
:102B6000006850F40070296808601DE0A4B2022CCF
:102B700013D12868006830F48060296808602868EC
:102B8000006850F400602968086028684069009077
:102B9000286880690090009806E0286840690090E5
:102BA0002868806900900098A4B2002C00F0918001
:102BB000A4B2042C6FDAA4B2012C11D15346002226
:102BC0004949280000F088F9002801D0032089E055
:102BD0002868006989F8000019F10109641EE3E71B
:102BE000A4B2022C1FD153460022DFF80C1128009A
:102BF00000F072F9002801D0032073E02868006813
:102C000050F40070296808602868006989F800009D
:102C100019F10109641E2868006989F8000019F19A
:102C20000109641EC0E753460022DFF8CC102800DB
:102C300000F052F9002801D0032053E02868006812
:102C400030F48060296808602868006989F800000D
:102C500019F10109641E53460022DFF89C10280078
:102C600000F03AF9002801D003203BE02868006812
:102C700050F40070296808602868006989F800002D
:102C800019F10109641E2868006989F8000019F12A
:102C90000109641E88E7534600221349280000F00A
:102CA0001BF9002801D003201CE02868006989F87E
:102CB000000019F10109641E2868406940077FF58A
:102CC00073AF2868006989F8000019F10109641ED2
:102CD0006AE7012085F83500002085F834000020DF
:102CE00000E00220BDE8F68740000100020010006D
:102CF00090F8350070470000040001002DE9F04114
:102D000082B004000D0016001F00DDF8208020684E
:102D1000006850F4807021680860434600225FF02C
:102D20000111200000F0D8F8002801D003203EE077
:102D300015F0FE002168086142466549200000F058
:102D400038F9002806D0A06B042801D101202EE01C
:102D500003202CE020684069009020688069009082
:102D60000098434600225B49200000F0B5F8002897
:102D700001D003201BE0BFB2012F04D13000C0B24C
:102D80002168086112E0B6B2300AC0B22168086159
:102D9000434600224F49200000F09EF8002801D051
:102DA000032004E03000C0B2216808610020BDE8C3
:102DB000F6812DE9F04182B004000D0016001F00DD
:102DC000DDF820802068006850F480602168086089
:102DD0002068006850F48070216808604346002233
:102DE0005FF00111200000F077F8002801D00320E7
:102DF0006CE015F0FE00216808614246344920006D
:102E000000F0D7F8002806D0A06B042801D10120DB
:102E10005CE003205AE020684069009020688069E7
:102E200000900098434600222A49200000F054F800
:102E3000002801D0032049E0BFB2012F04D13000A7
:102E4000C0B22168086112E0B6B2300AC0B221688F
:102E50000861434600221F49200000F03DF8002889
:102E600001D0032032E03000C0B22168086143463F
:102E700000221849200000F02FF8002801D003207C
:102E800024E02068006850F48070216808604346A0
:102E900000225FF00111200000F01EF8002801D090
:102EA000032013E055F00100C0B2216808614246DA
:102EB0000749200000F07DF8002806D0A06B042808
:102EC00001D1012002E0032000E00020BDE8F681EE
:102ED00002000100800001002DE9F04104000D0016
:102EE00016001F005FF0000800F01EFD8046F6B2DD
:102EF000002E2DD1280CC0B201280AD120684069CB
:102F0000284080B2A9B2884201D101200BE0002004
:102F100009E020688069284080B2A9B2884201D1C6
:102F2000012000E00020002840D117F1010FE1D07E
:102F3000002F05D000F0F8FCB0EB08008742D9D292
:102F4000012084F83500002084F8340003202EE0AE
:102F5000280CC0B201280AD120684069284080B2FC
:102F6000A9B2884201D101200BE0002009E02068CD
:102F70008069284080B2A9B2884201D1012000E0D6
:102F80000020002812D017F1010FE1D0002F05D04A
:102F900000F0CAFCB0EB08008742D9D2012084F8C7
:102FA0003500002084F83400032000E00020BDE854
:102FB000F081F8B504000D001600002700F0B4FC05
:102FC0000700280CC0B201280AD1206840692840B7
:102FD00080B2A9B2884201D101200BE0002009E0B3
:102FE00020688069284080B2A9B2884201D10120BE
:102FF00000E00020002829D120684069400513D551
:103000002068006850F40070216808607FF48060D8
:10301000216848610420A063012084F83500002065
:1030200084F83400012012E016F1010FC9D0002EFF
:1030300004D000F079FCC01B8642C2D2012084F883
:103040003500002084F83400032000E00020F2BDA9
:1030500080B500208DF8000000F030FC00F078FC16
:10306000002000F0BDFC0121002000F011FD00F067
:103070003EF800F048F836480078002816D000A93D
:103080003448006800F0BEFE00280CD19DF8000016
:10309000002808D0002000F0DBFC642000F047FC92
:1030A000002000F0E5FC0020294908702A4800783B
:1030B00000280BD02748006800F06EFE002805D1DC
:1030C0000120264908700020234908702448007810
:1030D0000028D0D01F48006800F079FE0028CAD12F
:1030E00000201E49087000201D490870C3E780B504
:1030F0001849012000F03EFD012803D1002000F016
:10310000A7FCFEE701BD80B51248006800F02CFE68
:1031100001BD10B50400A4B2B4F5005F10D10020C9
:1031200000F00BFD002811D10C480078002803D0D6
:1031300001200B49087009E001200749087005E0EB
:10314000A4B2102C02D101200149087010BD00006A
:10315000C8010020BC01002034010020CA01002069
:10316000C901002070B582B0040000252078C00796
:103170005AD5DFF80407006810F00C0004280BD0C3
:10318000DFF8F406006810F00C0008280ED1DFF814
:10319000EC060068400209D5DFF8E4060068800309
:1031A00042D5606800283FD10120A2E10020DFF86D
:1031B000D416087000F0B8FB0500DFF8C4060068FC
:1031C000800308D500F0B0FB401B41F289318842F2
:1031D000F3D303208DE16068DFF8A81608706068FB
:1031E000002810D000F0A0FB0500DFF8940600686E
:1031F000800319D400F098FB401B41F289318842CA
:10320000F3D3032075E100F08FFB0500DFF87006B3
:103210000068800308D500F087FB401B41F289312C
:103220008842F3D3032064E12078800766D5DFF875
:103230004806006810F00C0F0BD0DFF83C06006861
:1032400010F00C0008281FD1DFF83006006840029B
:103250001AD4DFF82C060068800704D5E06801283E
:1032600001D0012045E1DFF8180600685FF0F85151
:10327000B1FA81F130F0F800226912FA01F1084345
:10328000DFF8FC15086039E0E068002823D0012051
:10329000DFF8F415086000F047FB0500DFF8E005F3
:1032A0000068800706D400F03FFB401B6528F5D37B
:1032B00003201EE1DFF8C80500685FF0F851B1FA9D
:1032C00081F130F0F800226912FA01F10843DFF8C9
:1032D000B015086012E00020DFF8AC15086000F0BF
:1032E00023FB0500DFF898050068800706D500F08D
:1032F0001BFB401B6528F5D30320FAE0207800076C
:1033000028D56069002812D00120DFF880150860F8
:1033100000F00AFB0500DFF878050068800719D483
:1033200000F002FB401B6528F5D30320E1E00020FC
:10333000DFF85815086000F0F7FA0500DFF85005CF
:103340000068800706D500F0EFFA401B6528F5D32A
:103350000320CEE02078400763D5DFF83805006809
:1033600050F08050DFF82C150860DFF82805006861
:1033700010F0805000900098DFF81C05006850F4B1
:103380008070DFF81415086000F0CEFA0500DFF851
:1033900008050068C00506D400F0C6FA401B652881
:1033A000F5D30320A5E00020DFF8F014087000F04A
:1033B000BBFA0500DFF8E4040068800708D500F0D8
:1033C000B3FA401B41F289318842F3D3032090E0E5
:1033D000A068DFF8C8140870A068002810D000F0BA
:1033E000A3FA0500DFF8B4040068800719D400F0E0
:1033F0009BFA401B41F289318842F3D3032078E0E5
:1034000000F092FA0500DFF894040068800708D500
:1034100000F08AFA401B41F289318842F3D303203D
:1034200067E0A069002863D0DFF84C04006810F062
:103430000C0008285AD0A069022844D10020DFF8E7
:103440006014086000F070FA0500DFF834040068CA
:10345000800106D500F068FA401B6528F5D30320EB
:1034600047E0DFF84004B0FA80F24FF44040B0FA91
:1034700080F0F021B1FA81F1E369266A3343666A8C
:1034800016FA02F21A43A36A5B085B1E13FA00F0F5
:103490001043E26A12FA01F10843DFF8E013086012
:1034A0000120DFF8FC13086000F03EFA0500DFF8A9
:1034B000D003006880011BD400F036FA401B652859
:1034C000F5D3032015E00020DFF8D413086000F0E6
:1034D0002BFA0500DFF8A8030068800108D500F08A
:1034E00023FA401B6528F5D3032002E0012000E009
:1034F000002076BD70B504000D000026DFF8A8039B
:10350000006810F00F00A84280F08F80DFF8980369
:103510000570DFF89403006810F00F00A84201D096
:1035200001202AE12078800709D5DFF84C030068E4
:1035300030F0F000A1680843DFF83C130860207801
:10354000C00740F1FD806068012806D1DFF8300334
:103550000068800315D401200FE16068022802D0C2
:103560006068032806D1DFF818030068800108D4DA
:10357000012002E1DFF808030068800701D4012080
:10358000FBE0DFF8F402006880088000616808430F
:10359000DFF8E412086000F0C7F90600606801284F
:1035A00010D1DFF8D402006810F00C00042800F0FD
:1035B000C78000F0B9F9801B41F289318842F0D30D
:1035C0000320DAE06068022810D1DFF8AC0200685E
:1035D00010F00C00082800F0B38000F0A5F9801B63
:1035E00041F289318842F0D30320C6E060680328A5
:1035F0000BD1DFF88402006800F096F9801B41F2DD
:1036000089318842F5D30320B7E0DFF86C02006807
:1036100010F00C0F00F0948000F086F9801B41F24E
:1036200089318842F1D30320A7E02078800709D5AB
:10363000DFF84402006830F0F000A1680843DFF8CA
:10364000381208602078C0076ED56068012806D15E
:10365000DFF82C020068800315D401208DE060683B
:10366000022802D06068032806D1DFF8140200683F
:10367000800108D4012080E0DFF8040200688007A0
:1036800001D4012079E0DFF8F001006880088000B3
:1036900061680843DFF8E011086000F045F90600B2
:1036A000606801280FD1DFF8D001006810F00C002D
:1036B000042839D000F038F9801B41F28931884262
:1036C000F1D3032059E0606802280FD1DFF8A80188
:1036D000006810F00C00082826D000F025F9801BA7
:1036E00041F289318842F1D3032046E06068032823
:1036F0000BD1DFF88401006800F016F9801B41F25D
:1037000089318842F5D3032037E0DFF86C01006887
:1037100010F00C0F08D000F007F9801B41F289313E
:103720008842F2D3032028E0DFF87C010570DFF83F
:103730007801006810F00F00A84201D001201CE0C1
:103740002078400709D5DFF83001006830F4E050F8
:10375000E1680843DFF8201108602078000708D5E9
:103760004548006830F46040216950EAC100424990
:1037700008600F2000F0C0F8002070BDF0B40021F8
:103780000022002300203C4C246814F00C04002C80
:1037900004D0042C05D0082C06D040E0434C200077
:1037A0003FE0434C20003CE0344C246814F03F04DC
:1037B0002100324C2468640210D5304C24683C4D02
:1037C000B5FBF1F547F6C0763440364EB6FA86F6CC
:1037D0002700F74007FB05F422000FE0274C246880
:1037E000324DB5FBF1F547F6C07634402D4EB6FAB2
:1037F00086F62700F74007FB05F422001F4C2468DB
:1038000014F440344FF44045B5FA85F52600EE40F7
:10381000741C64002300B2FBF3F4200001E0234C8D
:103820002000F0BC704710B5FFF7A8FF12490968E7
:103830005FF07062B2FA82F21E4B11F0F0010C00E0
:10384000D440E15C0200CA401B4802601A4800688C
:1038500010BD10B5FFF7E7FF0100074800685FF4EF
:103860006012B2FA82F2134B10F4E0500400D4401C
:10387000E25C0800D04010BD083802400438024025
:10388000003802400238024000004742800E4742A2
:1038900074380240403802400070004070380240E6
:1038A000600047420000FE03003C02400024F40098
:1038B00000127A001C4B00082C01002080B5224821
:1038C000006850F40070204908601F48006850F4F8
:1038D00080601D4908601C48006850F480701A49D7
:1038E00008600320FEF75EFF0F2000F005F800F0EF
:1038F00002F8002002BD704710B50400FFF793FFE7
:103900004FF47A71B0FBF1F0FEF76CFF002221005A
:103910005FF0FF30FEF74CFF002010BD0B48006841
:10392000401C0A490860704708480068704711B594
:1039300081B00024FFF7F8FF0400FFF7F5FF001B3C
:1039400001998842F9D313BD003C0240C001002018
:1039500000B593B02048006850F080501E490860C0
:103960001D48006810F08050009000981B480068C7
:1039700030F4404050F4004018490860174800688F
:1039800010F4404000900098022006900120099019
:1039900010200A9002200C9000200D9010200E9014
:1039A0004FF4A8700F90042010900720119006A8E3
:1039B000FFF7D8FB0F200190022002900020039017
:1039C0004FF48050049000200590022101A8FFF7D9
:1039D00091FD13B000BD00BF4038024000700040B0
:1039E00010B586B00400E4B2002C0ED1DFF86801F7
:1039F000006850F00100DFF860110860DFF858013E
:103A0000006810F0010000900098DFF85001E4B267
:103A100030F8140001900120029001200390022050
:103A2000049001A9DFF83801E4B250F82400FEF751
:103A300033FD0022DFF82401E4B230F81410DFF87F
:103A40002001E4B250F82400FEF713FE06B010BDCA
:103A500010B504000122DFF80401E4B230F81410BC
:103A6000DFF8FC00E4B250F82400FEF702FE10BDBF
:103A700010B504000022DFF8E400E4B230F81410BE
:103A8000DFF8DC00E4B250F82400FEF7F2FD10BDD0
:103A900030B587B004000D00E4B2002C0ED1DFF881
:103AA000B800006850F00400DFF8AC100860DFF8E0
:103AB000A800006810F0040000900098EDB2002DFE
:103AC00013D1DFF8A000E4B230F814000190002018
:103AD0000290022003900220049001A9DFF88800E0
:103AE000E4B250F82400FEF7D7FCEDB2012D22D14C
:103AF000DFF87000E4B230F8140001900020039069
:103B0000DFF86800029001A9DFF85C00E4B250F829
:103B10002400FEF7C1FC00220F21DFF85400E4B2BC
:103B2000205640B2FEF744FEDFF84400E4B22056CF
:103B300040B2FEF750FE07B030BD10B50400DFF80C
:103B40002400E4B230F81410DFF81C00E4B250F89E
:103B50002400FEF782FD10BD30380240F613000845
:103B600024010020463E000828010020000021100A
:103B7000AE3E000838B504000D000020286064B295
:103B8000002C0ED0012C14D0280000F07BF8012866
:103B900006D1280000F016F8012801D1012010E01C
:103BA0000EE0280000F00EF8012801D1012008E005
:103BB00006E0280000F066F8012801D1012000E0AD
:103BC000002032BD2DE9F041040000255C48C0789A
:103BD000012801D1012053E0FEF704FB012801D1A7
:103BE00001204DE0682056490870D620544948709D
:103BF00000205349887000205149C8700020504966
:103C0000087101204E4948714E484D4988604E4820
:103C10004B49C86000204A4908614C484C494860FB
:103C20004B484849086000204649486044482060A5
:103C30002068C0680500286800280CD114260027D9
:103C4000D4F800803A003100404600F0FDF8002032
:103C50002060012014E020682968884701280CD1E1
:103C600014260027D4F800803A003100404600F0C6
:103C7000EBF800202060012002E0FEF7BCFA0020F3
:103C8000BDE8F0812DE9F041040000252C48C07DFD
:103C9000012801D1012050E0FEF7A4FA012801D14A
:103CA00001204AE0692026490875D4202449487536
:103CB00001202349887500202149C875002020492A
:103CC000087601201E49487622481D49C8612248CD
:103CD0001B49086221481A494862214819498860ED
:103CE00000201849C8601F4820602068C06805008F
:103CF000286800280CD114260027D4F800803A0048
:103D00003100404600F0A0F800202060012014E0BF
:103D100020682968884701280CD114260027D4F888
:103D200000803A003100404600F08EF8002020600C
:103D3000012002E0FEF761FA0020BDE8F0810000FA
:103D4000740100209C01002094000020AC010020A0
:103D5000B4010020A4010020D800002000000020B1
:103D6000C40100208801002070B504002500002651
:103D7000002D01D101200EE0E8680600B06800289F
:103D800001D1012007E02800B1688847012801D14E
:103D9000012000E0002070BD70B504002500002D5A
:103DA00001D1012012E02869002801D101200DE095
:103DB0002878692809D12E693068002801D10120AE
:103DC00004E028003168884700E0012070BD70B52C
:103DD00004002500002D01D1012012E028690028EF
:103DE00001D101200DE02878692809D12E69706879
:103DF000002801D1012004E028007168884700E014
:103E0000012070BDF8B504000D002600002E01D180
:103E1000012017E03069002801D1012012E0002DB7
:103E200001D101200EE0307869280AD13769B868DD
:103E3000002801D1012005E029003000BA68904730
:103E400000E00120F2BD002062F30F2262F31F4266
:103E5000401810F0030308D0C91A1FD3DB0748BF6E
:103E600000F8012D28BF20F8022D130030B41446AD
:103E70001546103928BF20E93C00FAD8490728BF69
:103E800020E90C0048BF40F8042D890028BF20F825
:103E9000022D48BF00F8012D30BC7047C91818BF6B
:103EA00000F8012DCB0728BF00F8012D704728002E
:103EB00070B582B0040000A8DFF8A8160A68026096
:103EC000A5682E68200000F07CFA012801D10120AD
:103ED00025E0DFF80C0730604021200000F0DCFC1A
:103EE000002801D101201AE00021200000F09FFCF1
:103EF000002801D1012012E00021200000F097F9F4
:103F0000012801D101200AE000A9200000F016FAE2
:103F1000012801D1012002E00120E070002076BDDF
:103F200070B50400A5682E68200000F04AFA012848
:103F300001D101200BE0200000F020F8012801D180
:103F4000012004E0002030600020E070002070BDFF
:103F500070B50400A5682E682079012801D10020E1
:103F60000BE096ED000A200000F0BAFA012801D11A
:103F7000012002E001202071002070BD70B5040016
:103F8000A5682E682079002801D1002012E03100B8
:103F9000200000F09DF8012801D101200AE0002155
:103FA000200000F044FC002801D1012002E00020A4
:103FB0002071002070BD38B504000D0029002000DC
:103FC00000F0F2F932BD10B50400200000F0F9F95C
:103FD00010BD3EB504000D000020009001A9200096
:103FE00000F006FA012801D1012032E000A92000EA
:103FF00000F047F8012801D101202AE0BDF90400B2
:1040000000EE100AB8EEC00ADDED000A20EE200A2C
:10401000BDEEC00A85ED000ABDF9060000EE100AEB
:10402000B8EEC00ADDED000A20EE200ABDEEC00A9F
:1040300085ED010ABDF9080000EE100AB8EEC00ACD
:10404000DDED000A20EE200ABDEEC00A85ED020A71
:1040500000203EBD30B583B004000D0000A9200053
:1040600000F0C6F9012801D1012009E0BDF80000E7
:104070002880BDF802006880BDF80400A8800020F8
:104080003EBD38B504000D0000A9200000F0BDFBC6
:10409000002801D101201AE09DF80000002804D07A
:1040A000102806D0182808D00BE0DFF8400528605B
:1040B0000CE0DFF83C05286008E0DFF838052860F0
:1040C00004E0DFF840052860012000E0002032BD58
:1040D000F8B504000D00A6683768786800780128F4
:1040E00004D1786840682860002039E000A92000E9
:1040F00000F0C0FB002801D1012031E09DF8000054
:1041000000280CD020280DD040280FD0602811D0D6
:10411000802813D0A02815D0C02817D01AE000207E
:1041200028601CE0DFF8E804286018E0DFF8D80415
:10413000286014E0DFF8A804286010E0DFF8CC0461
:1041400028600CE0DFF8CC04286008E0DFF8C80441
:10415000286004E0DFF8AC042860012000E00020C3
:10416000F2BD38B504000D002079012808D12900DE
:10417000C9B2200000F067F901280AD1012009E046
:104180002900C9B2200000F087F9012801D10120DF
:1041900000E0002032BD10B52DED028B0400B0EE22
:1041A000408A2079012808D1B0EE480A200000F0AA
:1041B00097F901280AD1012009E0B0EE480A200051
:1041C00000F0D2F9012801D1012000E00020BDEC6F
:1041D000028B10BD38B504000D0000A9200000F0CE
:1041E00014FB002801D1012020E09DF800000028E8
:1041F00006D0082810D0102806D0182808D00FE0C4
:104200005FF08040286010E05FF0814028600CE0A3
:104210005FF08240286008E05FF08340286004E09F
:10422000DFF8E0032860012000E0002032BD70B517
:1042300004000D00EDB2002D03D0022D07D003D3F2
:1042400008E00020060007E01020060004E0182027
:10425000060001E0012009E03100C9B2200000F0B1
:10426000B1FA002801D1012000E0002070BD00005B
:1042700038B52DED028B0400B0EE408A9FED470A61
:10428000B4EE408AF1EE10FA01D5002512E09FED60
:10429000440AB4EE408AF1EE10FA01D5102509E087
:1042A0009FED400AB4EE408AF1EE10FA01D51825D0
:1042B00000E008252900C9B2200000F083FA002898
:1042C00001D1012000E00020BDEC028B32BD38B5E9
:1042D00004000D000DF10201200000F0F7F90028A4
:1042E00001D1012029E00DF10101200000F023FAA5
:1042F000002801D1012020E000A9200000F050FAA0
:10430000002801D1012018E09DF80200082801D101
:10431000012000E0002028709DF80100102801D144
:10432000012000E0002068709DF80000202801D1E5
:10433000012000E00020A870002032BD38B5040044
:104340000D002878012801D1082100E00021C9B220
:10435000200000F098F9002801D101201CE06878C5
:10436000012801D1102100E00021C9B2200000F095
:10437000BFF9002801D101200EE0A878012801D161
:10438000202100E00021C9B2200000F0E6F9002859
:1043900001D1012000E0002032BD000001000040FA
:1043A000010080400100004138B504000D002900E3
:1043B000200000F056F9002801D1012000E0002083
:1043C00032BD10B582B0040000208DF8000000A9B5
:1043D0002000FFF7E9FF012801D1012007E09DF847
:1043E00000002178884201D0012000E0002016BDA5
:1043F00030B583B004000D0000A80021002206C0E3
:10440000083800A9200000F06AFA002801D1012034
:1044100018E09DF8010000029DF8001050FA81F0AC
:1044200028809DF8030000029DF8021050FA81F0E8
:1044300068809DF8050000029DF8041050FA81F094
:10444000A88000203EBD70B504000D00EDB2002D27
:1044500006D0022D0AD006D3042D0DD009D30EE0CC
:10446000202006000DE0202006000AE04020060083
:1044700007E04020060004E06020060001E0012083
:1044800009E03100C9B2200000F0D1F9002801D1C3
:10449000012000E0002070BD10B4020093681C6889
:1044A000C9B2002906D002290AD006D304290DD0AA
:1044B00009D30FE0564820600EE0554820600BE01D
:1044C0005148206008E05048206005E0DFF84C01CA
:1044D000206001E0012000E0002010BC70470000D7
:1044E00038B52DED028B0400B0EE408A9FED3D0AF9
:1044F000B4EE408AF1EE10FA01D5202524E09FEDBC
:104500003A0AB4EE408AF1EE10FA01D540251BE0DC
:104510009FED390AB4EE408AF1EE10FA01D560251C
:1045200012E09FED360AB4EE408AF1EE10FA01D5A2
:10453000802509E09FED320AB4EE408AF1EE10FAD0
:1045400001D5A02500E0C0252900C9B2200000F057
:104550006EF9002801D1012000E00020BDEC028BA3
:1045600032BD0000484B000801008A681368DFED87
:104570001D0AB4EE600AF1EE10FA02D5F2EE040A5A
:1045800029E0DFED190AB4EE600AF1EE10FA02D567
:10459000DFED1D0A1FE0DFED180AB4EE600AF1EE50
:1045A00010FA02D5DFED0E0A15E0DFED140AB4EEC5
:1045B000600AF1EE10FA02D5DFED140A0BE0DFED30
:1045C000100AB4EE600AF1EE10FA02D5DFED110A1E
:1045D00001E0DFED110AC3ED000A00207047000082
:1045E0000000EE42010020410100484223DB793DFA
:1045F00023DBF93D23DB793E0100EE4201006E43EF
:104600000100EE43000080BF0000484200006E43FE
:10461000000020410000EE4300006E440000EE4226
:1046200070B504000D001600012332002900C9B244
:104630002000FDF73EFE002801D0002000E0012010
:1046400070BD34B504000D00012300AA2900C9B2D1
:104650002000FDF717FE002801D0002000E0012017
:1046600032BD38B504000D002A000F212000FFF7ED
:10467000D7FF002801D1002004E02878287028788E
:104680002870012032BD38B504000D0000AA1F219A
:104690002000FFF7C5FF002801D1002015E09DF89C
:1046A000000010F0F7008DF800009DF8000028438E
:1046B0008DF800009DF800201F212000FFF7C1FFAA
:1046C000002801D1002000E0012032BD38B50400EF
:1046D0000D002A001F212000FFF7A2FF002801D1B2
:1046E000002004E0287810F008002870012032BD76
:1046F00038B504000D0000AA1F212000FFF790FF2D
:10470000002801D1002015E09DF8000010F0EF0016
:104710008DF800009DF8000028438DF800009DF8FA
:1047200000201F212000FFF78CFF002801D100206E
:1047300000E0012032BD38B504000D002A001F2121
:104740002000FFF76DFF002801D1002004E0287849
:1047500010F010002870012032BD38B504000D00A3
:1047600000AA1F212000FFF75BFF002801D10020D5
:1047700015E09DF8000010F0DF008DF800009DF8B6
:10478000000028438DF800009DF800201F21200024
:10479000FFF757FF002801D1002000E0012032BDC3
:1047A00038B504000D002A001F212000FFF738FF54
:1047B000002801D1002004E0287810F020002870A3
:1047C000012032BD38B504000D0000AA20212000D0
:1047D000FFF726FF002801D1002015E09DF800001A
:1047E00010F0E7008DF800009DF8000028438DF8D8
:1047F00000009DF8002020212000FFF722FF002864
:1048000001D1002000E0012032BD38B504000D00C8
:104810002A0020212000FFF703FF002801D10020FB
:1048200004E0287810F018002870012032BD38B557
:1048300004000D0000AA20212000FFF7F1FE00284F
:1048400001D1002015E09DF8000010F01F008DF848
:1048500000009DF8000028438DF800009DF800201E
:1048600020212000FFF7EDFE002801D1002000E00C
:10487000012032BD38B504000D002A00202120009F
:10488000FFF7CEFE002801D1002004E0287810F0C8
:10489000E0002870012032BD38B504000D0000AAE8
:1048A00022212000FFF7BCFE002801D1002015E0E6
:1048B0009DF8000010F0BF008DF800009DF800008A
:1048C00028438DF800009DF8002022212000FFF7EA
:1048D000B8FE002801D1002000E0012032BD2DE902
:1048E000F84304000D00022081460020804600208D
:1048F0000600F6B2032E1ADA00200700FFB25FFAB4
:1049000089F94F4511D25FFA88F818EB050218F1C2
:104910002801C9B22000FFF783FE002801D1002042
:1049200006E018F101087F1CE8E7761CE1E70120AA
:10493000BDE8F2831248006850F470001049086026
:104940001048006850F001000E49086000200E4930
:1049500008600C4800680D4908400A4908600C4886
:104960000C4908600748006830F480200549086059
:104970000020094908605FF000600849086070473E
:1049800088ED00E00038024008380240FFFFF6FEE4
:1049900010300024043802400C38024008ED00E0DA
:1049A00019E050F8041BCB0744BFA9F101035918C3
:1049B000121F0023042A41F8043BF9D25FEA827CEB
:1049C0000B4604D54FF0000CA1F800C09B1CD1078A
:1049D00044BF0021197050F8042B002AE1D1704720
:1049E00080B500F015F802000023DB431068984200
:1049F00004D011000220ABBE002010605068984225
:104A000004D0111D0220ABBE0020506001BD00008B
:104A1000004870471C01002010B450F8041B79B105
:104A20000268436812180830DC0744BFA9F101048A
:104A3000E31852F8044B43F8044B091FF9D1ECE793
:104A400010BC704710B5074979441831064C7C44B6
:104A5000163404E00A68081D511888470146A1422F
:104A6000F8D110BD50000000700000007047FEE754
:104A7000704780B5FEF752FF01BD80B51020FDF7ED
:104A800002FE01BD80B54FF40050FDF7FCFD01BDF5
:104A90004EF68851CEF20001086840F470000860BC
:104AA000BFF34F8FBFF36F8F4FF00070E1EE100A2E
:104AB00070470000EDFEFFFF940000003801002069
:104AC0000000000055FFFFFF3801000070010000EA
:104AD000000000200000000000F00BF8002801D0CA
:104AE000FFF7B0FF0020C046C046FEF7B1FA00F065
:104AF00002F80120704700F001B800000746384670
:104B000000F002F8FBE7000080B5FFF769FF024AFA
:104B100011001820ABBEFBE72600020000000000D9
:104B20000102030401020304060708090148804743
:104B300001480047354900083D4B0008C046C046C3
:104B4000FFF7A6FFFFF7C8FF010101000101010007
:104B5000FFF7FEBFFFF7FEBFFFF7FEBFFFF7FEBF89
:104B6000FFF7FEBFFFF7FEBFFFF7FEBFFFF7FEBF79
:104B7000FFF7FEBFFFF7FEBFFFF7FEBFFFF7FEBF69
:104B8000FFF7FEBFFFF7FEBFFFF7FEBFFFF7FEBF59
:104B9000FFF7FEBFFFF7FEBFFFF7FEBFFFF7FEBF49
:104BA000FFF7FEBFFFF7FEBFFFF7FEBFFFF7FEBF39
:104BB000FFF7FEBFFFF7FEBFFFF7FEBFFFF7FEBF29
:104BC000FFF7FEBFFFF7FEBFFFF7FEBFFFF7FEBF19
:104BD000FFF7FEBFFFF7FEBFFFF7FEBFFFF7FEBF09
:104BE000FFF7FEBFFFF7FEBFFFF7FEBFFFF7FEBFF9
:104BF000FFF7FEBFFFF7FEBFFFF7FEBFFFF7FEBFE9
:104C0000FFF7FEBFFFF7FEBFFFF7FEBFFFF7FEBFD8
:104C1000FFF7FEBFFFF7FEBFFFF7FEBFFFF7FEBFC8
:104C2000FFF7FEBFFFF7FEBFFFF7FEBFFFF7FEBFB8
:104C3000FFF7FEBFFFF7FEBFFFF7FEBFA10A0008A8
:104C4000350B00086D0B0008A30B0008BF0B000814
:104C5000290C0008710C0008A70C0008C10C000802
:104C6000D90C0008F10C00080D0D0008670D0008B4
:104C70009F0D0008D50D0008310E0008690E0008D0
:104C80009F0E0008BD0E0008570F0008CF0F000848
:104C900005100008C51000085D11000893110008F8
:104CA000AF110008CB110008E71100080512000839
:104CB000551200087D120008B3120008E91200081E
:104CC0001F130008551300088B130008C1130008B8
:104CD000B13E0008213F0008513F00087D3F000819
:104CE000B73F0008C73F0008D33F00085540000801
:104CF00083400008D1400008634100089741000844
:104D0000D54100082F42000871420008CF42000838
:104D10003D4300089501000825020008B70200087D
:104D2000E30200081D0300082D03000839030008F2
:104D3000BB030008E903000843040008FB04000863
:104D40002F0500086D050008C705000809060008C2
:104D500067060008D5060008FFFFFFFFFFFFFFFF03
:104D600000000240000802400024F400001000008F
:044D7000010000003E
:0400000508000000EF
:00000001FF
