:020000040800F2
:1000000088080020196D00087D6C00087F6C0008CE
:10001000516D0008556D0008596D00080000000082
:100020000000000000000000000000005D6D0008FE
:10003000816C000800000000616D0008836C0008FE
:10004000656D0008696D00086D6D0008716D000830
:10005000756D0008796D00087D6D0008816D0008E0
:10006000856D0008896D00088B6C00088D6D000897
:10007000916D0008956D0008996D00089D6D000850
:10008000A16D0008A56D0008A96D0008AD6D000800
:10009000B16D0008B56D0008B96D0008BD6D0008B0
:1000A00000000000C16D0008C56D0008C96D0008A2
:1000B000CD6D0008D16D0008D56D0008D96D000820
:1000C000DD6D0008E16D0008E56D0008E96D0008D0
:1000D000ED6D0008F16D0008F56D0008F96D000880
:1000E000956C0008FD6D0008016E0008056E0008A3
:1000F000096E0008000000000D6E0008116E000877
:10010000156E0008196E00081D6E0008216E0008AB
:10011000256E0008296E00082D6E00080000000002
:10012000316E000870B582B0040000A8DFF85815E1
:100130000A680260A5682E68200000F0B4FA012861
:1001400001D1012035E00421200001F0DDF9002873
:1001500001D101202DE04021200001F0F8F9002814
:1001600001D1012025E00021200001F00BF9002839
:1001700001D101201DE0DFF844063060002120009D
:1001800001F08DF9002801D1012012E000212000AA
:1001900000F0CDF9012801D101200AE000A92000DA
:1001A00000F043FA012801D1012002E00120E070B3
:1001B000002076BD70B50400A5682E68200000F010
:1001C00072FA012801D101203CE0200000F01EFC61
:1001D000012801D1012035E0200000F0B9FF0128FD
:1001E00001D101202EE0200000F08AFC012801D17D
:1001F000012027E0200000F019FE012801D1012094
:1002000020E0200000F0CEFE012801D1012019E0FD
:10021000200000F014FD012801D1012012E020008F
:1002200000F072FD012801D101200BE0200000F058
:100230001FF8012801D1012004E0002030600020D7
:10024000E070002070BD70B50400A5682E682079AC
:10025000012801D100200AE03168200000F0B0FA46
:10026000012801D1012002E001202071002070BD91
:1002700070B50400A5682E682079002801D10020FF
:1002800012E03100200000F097F8012801D1012090
:100290000AE00021200001F002F9002801D101202C
:1002A00002E000202071002070BD38B504000D0070
:1002B0002900200000F0EAF932BD10B5040020004A
:1002C00000F0F1F910BD3EB504000D0000200090D3
:1002D00001A9200000F0FEF9012801D1012026E04B
:1002E00000A9200000F03BF8012801D101201EE008
:1002F000BDF9040001F0F8FE009901F00DFF01F0D6
:1003000077FF2860BDF9060001F0EEFE009901F0CC
:1003100003FF01F06DFF6860BDF9080001F0E4FE25
:10032000009901F0F9FE01F063FFA86000203EBDD6
:1003300030B583B004000D0000A9200000F0CAF918
:10034000012801D1012009E0BDF800002880BDF896
:1003500002006880BDF80400A88000203EBD38B5CA
:1003600004000D0000A9200001F087F8002801D149
:10037000012020E09DF80000002806D0042810D0BD
:10038000082806D00C2808D00FE0DFF8F404286015
:1003900010E0DFF8F00428600CE0DFF8EC042860DF
:1003A00008E0DFF8E804286004E0DFF8980528603A
:1003B000012000E0002032BD38B504000D0000A986
:1003C000200001F08FF8002801D101204FE09DF8B6
:1003D0000000002816D0102817D0202819D0302867
:1003E0001BD040281DD050281FD0602821D0702855
:1003F00023D0802825D0902827D0A02829D0B02825
:100400002BD02EE00020286030E0DFF83C0528608B
:100410002CE0DFF83805286028E0DFF83405286094
:1004200024E0DFF89803286020E0DFF82805286042
:100430001CE0DFF82405286018E0DFF820052860BC
:1004400014E0DFF81C05286010E0DFF818052860CC
:100450000CE0DFF81405286008E0DFF810052860DC
:1004600004E0DFF8E0042860012000E0002032BD55
:1004700038B504000D002079012808D12900C9B23F
:10048000200000F04FF901280AD1012009E02900DD
:10049000C9B2200000F06FF9012801D1012000E06D
:1004A000002032BD38B504000D002079012807D1A5
:1004B0002900200000F084F9012809D1012008E07A
:1004C0002900200000F0E4F9012801D1012000E01A
:1004D000002032BD38B504000D0000A9200000F056
:1004E000CCFF002801D1012020E09DF80000002869
:1004F00006D0042810D0082806D00C2808D00FE019
:100500005FF08040286010E05FF0814028600CE0E0
:100510005FF08240286008E05FF08340286004E0DC
:10052000DFF820042860012000E0002032BD70B513
:1005300004000D00EDB2002D03D0022D07D003D32F
:1005400008E00020060007E00820060004E00C2078
:10055000060001E0012009E03100C9B2200000F0EE
:1005600069FF002801D1012000E0002070BD70B5B6
:1005700004000D002800DFF8FC1301F05BFE01D23F
:10058000002610E02800DFF8F01301F053FE01D23E
:10059000082608E02800DFF8701401F04BFE01D2B5
:1005A0000C2600E004263100C9B2200000F042FF12
:1005B000002801D1012000E0002070BD38B5040002
:1005C0000D000DF10201200001F007F8002801D113
:1005D000012029E00DF10101200001F033F800288D
:1005E00001D1012020E000A9200001F060F80028DE
:1005F00001D1012018E09DF80200082801D1012056
:1006000000E0002028709DF80100102801D1012091
:1006100000E0002068709DF80000202801D1012032
:1006200000E00020A870002032BD38B504000D00A5
:100630002878012801D1082100E00021C9B220005A
:1006400000F0A8FF002801D101201CE068780128F3
:1006500001D1102100E00021C9B2200000F0CFFF3D
:10066000002801D101200EE0A878012801D1202125
:1006700000E00021C9B2200000F0F6FF002801D1FF
:10068000012000E0002032BD486D000838B50400AC
:100690000D002900200000F0BBFE002801D1012040
:1006A00000E0002032BD10B582B0040000208DF8BB
:1006B000000000A92000FFF7E9FF012801D1012077
:1006C00007E09DF800002178884201D0012000E079
:1006D000002016BD30B583B004000D0000A8002135
:1006E000002206C0083800A9200001F082FC002882
:1006F00001D1012015E09DF801009DF8001011EBDB
:10070000002028809DF803009DF8021011EB0020C6
:1007100068809DF805009DF8041011EB0020A8806A
:1007200000203EBD70B504000D00EDB2002D06D0D6
:10073000022D0AD006D3042D0DD009D30EE01020CF
:1007400006000DE0102006000AE02020060007E069
:100750003020060004E04020060001E0012009E00E
:100760003100C9B2200000F09AFE002801D101201A
:1007700000E0002070BD10B4020093681C68C9B28C
:10078000002906D002290AD006D304290DD009D3A6
:100790000FE06D4820600EE06B4820600BE06B4876
:1007A000206008E06A48206005E0DFF880092060EA
:1007B00001E0012000E0002010BC70470000D042A2
:1007C00070B504000D002800DFF8C81701F032FDF5
:1007D00001D2102648E02800DFF8BC1701F02AFDFE
:1007E00001D2202640E02800DFF8B01701F022FDFA
:1007F00001D2302638E02800DFF8A41701F01AFDF6
:1008000001D2402630E02800DFF8241901F012FD63
:1008100001D2502628E02800DFF8181901F00AFD5F
:1008200001D2602620E02800DFF80C1901F002FD5B
:1008300001D2702618E02800DFF8001901F0FAFC58
:1008400001D2802610E02800DFF8F41801F0F2FC55
:1008500001D2902608E02800DFF8E81801F0EAFC51
:1008600001D2A02600E0B0263100C9B2200000F07D
:1008700016FE002801D1012000E0002070BD00001C
:1008800023DB793D23DBF93D23DB793E23DBF93E96
:1008900038B502000B00946825681800DFF8F416DC
:1008A00001F0C8FC01D2284848E01800DFF8E8163B
:1008B00001F0C0FC01D2254840E01800DFF8DC164A
:1008C00001F0B8FC01D2224838E01800DFF8D01659
:1008D00001F0B0FC01D2264830E01800DFF85018D3
:1008E00001F0A8FC01D21B4828E01800DFF84418EA
:1008F00001F0A0FC01D2184820E01800DFF83818F9
:1009000001F098FC01D2154818E01800DFF82C1807
:1009100001F090FC01D2124810E01800DFF8201816
:1009200001F088FC01D20F4808E01800DFF8141825
:1009300001F080FC01D20C4800E00C482860002047
:1009400032BD0000000080BF000050410000D041D7
:1009500000005042000050430000D043004050448B
:100960000080CF44002050450020D045004850462C
:100970000000D042010000400100804010B504009A
:10098000DFF8C8172000FFF78DFD012801D10120F5
:1009900038E00021200000F04DFD002801D10120A9
:1009A00030E00621200001F005FA002801D10120E5
:1009B00028E00021200001F0B4F9002801D1012035
:1009C00020E00021200001F089F9002801D1012058
:1009D00018E00021200001F05CF9002801D101207D
:1009E00010E00321200000F048F8012801D1012087
:1009F00008E01021200001F093FA002801D1012025
:100A000000E0002010BD00000100004110B504000E
:100A10000021200001F084FA002801D1012010E01B
:100A20000021200001F0C6F9002801D1012008E0D2
:100A30000021200001F09BF9002801D1012000E0F5
:100A4000002010BD38B504000D0000A9200000F002
:100A500098FE002801D101200EE09DF8000000283A
:100A600004D0202805D10120287004E0002028703F
:100A700001E0012000E0002032BD38B504000D0087
:100A80002900C9B2200001F072F9002801D101202B
:100A900000E0002032BD10B50400DFF8AC162000E5
:100AA000FFF700FD012801D1012028E000212000EE
:100AB00000F0C0FC002801D1012020E01721200017
:100AC00000F082F8012801D1012018E00421200063
:100AD00000F022FE002801D1012010E0402120007A
:100AE00000F0B3FF002801D1012008E080212000A0
:100AF00000F06BFC002801D1012000E0002010BDB7
:100B000010B504000021200000F05FFC002801D196
:100B1000012018E00021200000F097FF002801D1FB
:100B2000012010E00021200000F0F6FD002801D196
:100B3000012008E00021200000F046F8012801D142
:100B4000012000E0002010BD38B504000D0000A910
:100B5000200000F0CAFE002801D101200EE09DF81F
:100B60000000002804D0102805D10120287004E0DE
:100B70000020287001E0012000E0002032BD38B5DF
:100B800004000D002900200001F05EFA002801D1C8
:100B9000012000E0002032BD10B504000221200039
:100BA00000F097FD002801D1012000E0002010BDD9
:100BB00010B504000021200000F08BFD002801D1B9
:100BC000012000E0002010BD38B504000D00290010
:100BD000C9B2200001F063FA002801D1012000E031
:100BE000002032BD10B50400DFF85C152000FFF7CF
:100BF00059FC012801D1012020E00021200000F053
:100C000019FC002801D1012018E00421200000F087
:100C100083FD002801D1012010E02021200000F0F8
:100C2000F1FE002801D1012008E00221200001F09E
:100C30000EF9002801D1012000E0002010BD10B500
:100C400004000021200001F002F9002801D1012058
:100C500010E00021200000F0D5FE002801D1012085
:100C600008E00021200000F057FD002801D10120FC
:100C700000E0002010BD38B504000D0000A92000E0
:100C800000F045FE002801D101200EE09DF8000093
:100C9000002804D0202805D10120287004E000207D
:100CA000287001E0012000E0002032BD10B50400F2
:100CB000DFF898142000FFF7F5FB012801D101208F
:100CC00020E00021200000F0B5FB002801D1012028
:100CD00018E00021200001F024F8002801D10120B3
:100CE00010E00221200000F08CFF002801D101203B
:100CF00008E02021200001F036F9002801D1012070
:100D000000E0002010BD000010B50400002120000C
:100D100001F029F9002801D1012010E00021200074
:100D200000F0FFFF002801D1012008E00021200091
:100D300000F067FF002801D1012000E0002010BD75
:100D400038B504000D0000A9200000F008FD0028BF
:100D500001D101200EE09DF80000002804D00828F1
:100D600005D10120287004E00020287001E0012056
:100D700000E0002032BD38B504000D002900C9B2E2
:100D8000200000F03EFF002801D1012000E00020FB
:100D900032BD10B50400DFF8B4132000FFF782FB6A
:100DA000012801D1012040E00021200000F042FB99
:100DB000002801D1012038E00821200000F0FFFDCB
:100DC000002801D1012030E00421200000F0D4FDF2
:100DD000002801D1012028E00221200000F0A9FD17
:100DE000002801D1012020E00821200000F041F975
:100DF000012801D1012018E00221200000F047F96C
:100E0000012801D1012010E00121200000F04DF95E
:100E1000012801D1012008E04021200001F0C6F89E
:100E2000002801D1012000E0002010BD10B5040011
:100E30000021200001F0BAF8002801D1012030E0A3
:100E40000021200000F015F9012801D1012028E03F
:100E50000021200000F01BF9012801D1012020E031
:100E60000021200000F021F9012801D1012018E023
:100E70000021200000F05DFD002801D1012010E0DC
:100E80000021200000F078FD002801D1012008E0B9
:100E90000021200000F093FD002801D1012000E096
:100EA000002010BD38B504000D0000A9200000F09E
:100EB0008CFC002801D101200EE09DF800000028E4
:100EC00004D0202805D10120287004E000202870DB
:100ED00001E0012000E0002032BD10B504009B4974
:100EE0002000FFF7DFFA012801D1012050E00021A6
:100EF000200000F09FFA002801D1012048E00821DD
:100F0000200000F05CFD002801D1012040E0042118
:100F1000200000F031FD002801D1012038E002213D
:100F2000200000F006FD002801D1012030E008215A
:100F3000200000F09EF8012801D1012028E00321C3
:100F4000200000F0A4F8012801D1012020E00321B5
:100F5000200000F0AAF8012801D1012018E00821A2
:100F6000200000F0B0F8012801D1012010E080211C
:100F7000200000F06BFE002801D1012008E00821CC
:100F8000200000F0AAFF002801D1012000E000208D
:100F900010BD0000010050410100D041010050424D
:100FA0000100D04210B504000021200000F095FFA0
:100FB000002801D1012040E00021200000F059F874
:100FC000012801D1012038E00021200000F05FF865
:100FD000012801D1012030E00021200000F065F857
:100FE000012801D1012028E00021200000F06BF849
:100FF000012801D1012020E00021200000F026FE80
:10100000002801D1012018E00021200000F091FC0F
:10101000002801D1012010E00021200000F0ACFCEC
:10102000002801D1012008E00021200000F0C7FCC9
:10103000002801D1012000E0002010BD38B50400D7
:101040000D0000A9200000F0AEFB002801D1012016
:101050000EE09DF80000002804D0102805D10120E2
:10106000287004E00020287001E0012000E000204A
:1010700032BD38B504000D002900C9B2200000F0CF
:1010800007FD002801D1012000E0002032BD38B565
:1010900004000D002900C9B2200000F041FD002825
:1010A00001D1012000E0002032BD38B504000D0060
:1010B0002900C9B2200000F058FD002801D101200C
:1010C00000E0002032BD38B504000D002900C9B28F
:1010D000200000F070FD002801D1012000E0002078
:1010E00032BD10B5040019492000FFF7DBF90128D3
:1010F00001D1012018E00021200000F09BF9002818
:1011000001D1012010E04021200000F0E6FC002881
:1011100001D1012008E00421200000F0BBFE0028DE
:1011200001D1012000E0002010BD00000000D042ED
:10113000010050430100D043014050440180CF449E
:10114000012050450120D0450000D0410000D0438F
:1011500010B504000021200000F09CFE002801D101
:10116000012008E00021200000F0B7FC002801D198
:10117000012000E0002010BD38B504000D0000A9DA
:10118000200000F0A0FB002801D101200EE09DF816
:101190000000002804D0402805D10120287004E078
:1011A0000020287001E0012000E0002032BD38B5A9
:1011B00004000D0000A9200000F019FB002801D157
:1011C00001200EE09DF80000002804D0012805D180
:1011D0000120287004E00020287001E0012000E0D8
:1011E000002032BD38B504000D0000A9200000F039
:1011F00010FB002801D101200EE09DF8000000281E
:1012000004D0022805D10120287004E000202870B5
:1012100001E0012000E0002032BD38B504000D00DF
:1012200000A9200000F007FB002801D101200EE0FA
:101230009DF80000002804D0042805D10120287062
:1012400004E00020287001E0012000E0002032BD11
:1012500038B504000D0000A9200000F0FEFA0028B7
:1012600001D101200EE09DF80000002804D00828DC
:1012700005D10120287004E00020287001E0012041
:1012800000E0002032BD38B504000D0000A92000A8
:1012900000F0F5FA002801D101200EE09DF80000D1
:1012A000002804D0102805D10120287004E0002077
:1012B000287001E0012000E0002032BD38B50400B4
:1012C0000D0000A9200000F0ECFA002801D1012057
:1012D0000EE09DF80000002804D0202805D1012050
:1012E000287004E00020287001E0012000E00020C8
:1012F00032BD0268531C03601170704770B5040062
:101300000D001600012332002900C9B2200001F0AF
:101310000AF8002801D0002000E0012070BD34B59B
:1013200004000D00012300AA2900C9B2200000F02A
:10133000E3FF002801D0002000E0012032BD38B5D5
:1013400004000D0000AA01212000FFF7D7FF0028AC
:1013500001D1002015E09DF8000010F07F008DF80D
:1013600000009DF8000028438DF800009DF8002043
:1013700001212000FFF7D3FF002801D1002000E069
:10138000012032BD38B504000D0000AA0A2120005A
:10139000FFF7B4FF002801D1002015E09DF8000000
:1013A00010F0F8008DF800009DF8000028438DF83B
:1013B00000009DF800200A212000FFF7B0FF002860
:1013C00001D1002000E0012032BD38B504000D003D
:1013D00000AA0D212000FFF791FF002801D1002075
:1013E00015E09DF8000010F07F008DF800009DF8DA
:1013F000000028438DF800009DF800200D212000FA
:10140000FFF78DFF002801D1002000E0012032BD50
:1014100038B504000D002A000F212000FFF76EFFF1
:10142000002801D1002004E028782870287828704E
:10143000012032BD38B504000D0000AA10212000A3
:10144000FFF75CFF002801D1002015E09DF80000A7
:1014500010F0F3008DF800009DF8000028438DF88F
:1014600000009DF8002010212000FFF758FF002801
:1014700001D1002000E0012032BD38B504000D008C
:101480002A0010212000FFF739FF002801D1002099
:1014900004E0287810F00C002870012032BD38B527
:1014A00004000D0000AA10212000FFF727FF0028EC
:1014B00001D1002015E09DF8000010F00F008DF81C
:1014C00000009DF8000028438DF800009DF80020E2
:1014D00010212000FFF723FF002801D1002000E0A9
:1014E000012032BD38B504000D002A001021200073
:1014F000FFF704FF002801D1002004E0287810F055
:10150000F0002870012032BD38B504000D0000AA9B
:1015100012212000FFF7F2FE002801D1002015E083
:101520009DF8000010F0FB008DF800009DF8000011
:1015300028438DF800009DF8002012212000FFF7BD
:10154000EEFE002801D1002000E0012032BD38B5B8
:1015500004000D0000AA12212000FFF7CFFE002892
:1015600001D1002015E09DF8000010F0BF008DF8BB
:1015700000009DF8000028438DF800009DF8002031
:1015800012212000FFF7CBFE002801D1002000E04F
:10159000012032BD38B504000D0000AA182120003A
:1015A000FFF7ACFE002801D1002015E09DF80000F7
:1015B00010F0F7008DF800009DF8000028438DF82A
:1015C00000009DF8002018212000FFF7A8FE002849
:1015D00001D1002000E0012032BD38B504000D002B
:1015E0002A0018212000FFF789FE002801D10020E1
:1015F00004E0287810F008002870012032BD38B5CA
:1016000004000D0000AA18212000FFF777FE002833
:1016100001D1002015E09DF8000010F0EF008DF8DA
:1016200000009DF8000028438DF800009DF8002080
:1016300018212000FFF773FE002801D1002000E0F0
:10164000012032BD38B504000D002A001821200009
:10165000FFF754FE002801D1002004E0287810F0A4
:1016600010002870012032BD38B504000D0000AA1A
:1016700018212000FFF742FE002801D1002015E0CC
:101680009DF8000010F0DF008DF800009DF80000CC
:1016900028438DF800009DF8002018212000FFF756
:1016A0003EFE002801D1002000E0012032BD38B507
:1016B00004000D002A0018212000FFF71FFE00285B
:1016C00001D1002004E0287810F0200028700120CB
:1016D00032BD38B504000D0000AA19212000FFF723
:1016E0000DFE002801D1002015E09DF8000010F04B
:1016F000FD008DF800009DF8000028438DF80000E3
:101700009DF8002019212000FFF709FE002801D1D3
:10171000002000E0012032BD38B504000D0000AA11
:1017200019212000FFF7EAFD002801D1002015E073
:101730009DF8000010F0FB008DF800009DF80000FF
:1017400028438DF800009DF8002019212000FFF7A4
:10175000E6FD002801D1002000E0012032BD38B5AF
:1017600004000D002A001B212000FFF7C7FD002800
:1017700001D1002004E0287810F008002870012032
:1017800032BD38B504000D002A001B212000FFF7F0
:10179000B5FD002801D1002004E0287810F02000D9
:1017A0002870012032BD38B504000D002A001C212C
:1017B0002000FFF7A3FD002801D1002004E02878D5
:1017C00010F010002870012032BD38B504000D0063
:1017D0002A001C212000FFF791FD002801D10020E4
:1017E00004E0287810F020002870012032BD38B5C0
:1017F00004000D002A001D212000FFF77FFD0028B6
:1018000001D1002004E0287810F0010028700120A8
:1018100032BD38B504000D002A001D212000FFF75D
:101820006DFD002801D1002004E0287810F00200AE
:101830002870012032BD38B504000D002A001D219A
:101840002000FFF75BFD002801D1002004E028788C
:1018500010F004002870012032BD38B504000D00DE
:101860002A001D212000FFF749FD002801D100209A
:1018700004E0287810F008002870012032BD38B547
:1018800004000D002A001D212000FFF737FD00286D
:1018900001D1002004E0287810F010002870012009
:1018A00032BD38B504000D002A001D212000FFF7CD
:1018B00025FD002801D1002004E0287810F0200048
:1018C0002870012032BD38B504000D002A001D210A
:1018D0002000FFF713FD002801D1002004E0287844
:1018E00010F040002870012032BD38B504000D0012
:1018F0002A0053212000FFF701FD002801D100201C
:1019000004E0287810F010002870012032BD38B5AE
:1019100004000D002A0053212000FFF7EFFC0028EF
:1019200001D1002004E0287810F020002870012068
:1019300032BD38B504000D0000AA58212000FFF781
:10194000DDFC002801D1002015E09DF8000010F01A
:10195000FD008DF800009DF8000028438DF8000080
:101960009DF8002058212000FFF7D9FC002801D164
:10197000002000E0012032BD38B504000D0000AAAF
:1019800058212000FFF7BAFC002801D1002015E003
:101990009DF8000010F0FB008DF800009DF800009D
:1019A00028438DF800009DF8002058212000FFF703
:1019B000B6FC002801D1002000E0012032BD38B57E
:1019C00004000D0000AA58212000FFF797FC002812
:1019D00001D1002015E09DF8000010F0F7008DF80F
:1019E00000009DF8000028438DF800009DF80020BD
:1019F00058212000FFF793FC002801D1002000E0CF
:101A0000012032BD38B504000D0000AA5821200085
:101A1000FFF774FC002801D1002015E09DF80000BC
:101A200010F0DF008DF800009DF8000028438DF8CD
:101A300000009DF8002058212000FFF770FC0028CE
:101A400001D1002000E0012032BD38B504000D00B6
:101A500000AA58212000FFF751FC002801D10020E6
:101A600015E09DF8000010F0BF008DF800009DF813
:101A7000000028438DF800009DF800205821200028
:101A8000FFF74DFC002801D1002000E0012032BD0D
:101A900038B504000D0015F01F0500AA59212000DB
:101AA000FFF72CFC002801D1002015E09DF8000074
:101AB00010F0E0008DF800009DF8000028438DF83C
:101AC00000009DF8002059212000FFF728FC002885
:101AD00001D1002000E0012032BD38B504000D0026
:101AE00000AA59212000FFF709FC002801D100209D
:101AF00015E09DF8000010F09F008DF800009DF8A3
:101B0000000028438DF800009DF800205921200096
:101B1000FFF705FC002801D1002000E0012032BDC4
:101B200038B504000D0015F0030500AA5A21200065
:101B3000FFF7E4FB002801D1002015E09DF800002C
:101B400010F0FC008DF800009DF8000028438DF88F
:101B500000009DF800205A212000FFF7E0FB00283C
:101B600001D1002000E0012032BD38B504000D0095
:101B7000AD0015F00C0500AA5A212000FFF7BEFBAE
:101B8000002801D1002015E09DF8000010F0F300BE
:101B90008DF800009DF8000028438DF800009DF8A6
:101BA00000205A212000FFF7BAFB002801D10020B5
:101BB00000E0012032BD38B504000D002D0115F004
:101BC000F00500AA5A212000FFF798FB002801D158
:101BD000002015E09DF8000010F00F008DF80000C7
:101BE0009DF8000028438DF800009DF800205A2140
:101BF0002000FFF794FB002801D1002000E0012025
:101C000032BD38B504000D0015F03F0500AA5B2178
:101C10002000FFF773FB002801D1002015E09DF89C
:101C2000000010F0C0008DF800009DF8000028436F
:101C30008DF800009DF800205B212000FFF76FFB6E
:101C4000002801D1002000E0012032BD38B5040099
:101C50000D0000AA5B212000FFF750FB002801D1F6
:101C6000002015E09DF8000010F07F008DF80000C6
:101C70009DF8000028438DF800009DF800205B21AE
:101C80002000FFF74CFB002801D1002000E00120DC
:101C900032BD38B504000D0015F00F0500AA5C2117
:101CA0002000FFF72BFB002801D1002015E09DF854
:101CB000000010F0F0008DF800009DF800002843AF
:101CC0008DF800009DF800205C212000FFF727FB25
:101CD000002801D1002000E0012032BD38B5040009
:101CE0000D0000AA5C212000FFF708FB002801D1AD
:101CF000002015E09DF8000010F0EF008DF80000C6
:101D00009DF8000028438DF800009DF800205C211C
:101D10002000FFF704FB002801D1002000E0012093
:101D200032BD38B504000D006D0115F0600500AA44
:101D30005C212000FFF7E2FA002801D1002015E025
:101D40009DF8000010F09F008DF800009DF8000045
:101D500028438DF800009DF800205C212000FFF74B
:101D6000DEFA002801D1002000E0012032BD38B5A4
:101D700004000D0000AA5D212000FFF7BFFA002833
:101D800001D1002015E09DF8000010F0F8008DF85A
:101D900000009DF8000028438DF800009DF8002009
:101DA0005D212000FFF7BBFA002801D1002000E0F0
:101DB000012032BDF8B504000D0015F01F0007002A
:101DC000C5F340100600FF0017F0F80700AA5D21D8
:101DD0002000FFF793FA002801D1002036E09DF89B
:101DE000000010F007008DF800009DF80000384357
:101DF0008DF800009DF800205D212000FFF78FFA8C
:101E0000002801D1002021E0F60116F0800600AA8A
:101E10005C212000FFF772FA002801D1002015E0B4
:101E20009DF8000010F07F008DF800009DF8000084
:101E300030438DF800009DF800205C212000FFF762
:101E40006EFA002801D1002000E00120F2BD38B573
:101E500004000D0000AA5E212000FFF74FFA0028C1
:101E600001D1002015E09DF8000010F0FD008DF874
:101E700000009DF8000028438DF800009DF8002028
:101E80005E212000FFF74BFA002801D1002000E07E
:101E9000012032BD38B504000D0000AA5E212000EB
:101EA000FFF72CFA002801D1002015E09DF8000072
:101EB00010F0FB008DF800009DF8000028438DF81D
:101EC00000009DF800205E212000FFF728FA00287E
:101ED00001D1002000E0012032BD38B504000D0022
:101EE00000AA5E212000FFF709FA002801D1002096
:101EF00015E09DF8000010F0F7008DF800009DF847
:101F0000000028438DF800009DF800205E2120008D
:101F1000FFF705FA002801D1002000E0012032BDC2
:101F200038B504000D0000AA5E212000FFF7E6F995
:101F3000002801D1002015E09DF8000010F0EF000E
:101F40008DF800009DF8000028438DF800009DF8F2
:101F500000205E212000FFF7E2F9002801D10020D7
:101F600000E0012032BD38B504000D0000AA5E215A
:101F70002000FFF7C3F9002801D1002015E09DF8EB
:101F8000000010F0DF008DF800009DF800002843ED
:101F90008DF800009DF800205E212000FFF7BFF9BA
:101FA000002801D1002000E0012032BD38B5040036
:101FB0000D0000AA5E212000FFF7A0F9002801D142
:101FC000002015E09DF8000010F0BF008DF8000023
:101FD0009DF8000028438DF800009DF800205E2148
:101FE0002000FFF79CF9002801D1002000E001202B
:101FF00032BD2DE9F84304000D0002208146002087
:10200000804600200600F6B2032E1ADA00200700F0
:10201000FFB25FFA89F94F4511D25FFA88F818EBE1
:10202000050218F12801C9B22000FFF767F900285E
:1020300001D1002006E018F101087F1CE8E7761CBA
:10204000E1E70120BDE8F2832DE9F84304000D002B
:10205000022081460020804600200600F6B2002EB5
:102060001AD100200700FFB25FFA89F94F4511D25B
:102070005FFA88F818EB050218F14B01C9B220008D
:10208000FFF73CF9002801D1002006E018F1010813
:102090007F1CE8E7761CE1E70120BDE8F28338B554
:1020A00004000D0080212000FFF749F900AA0F214C
:1020B0002000FFF723F99DF8000010F0E0008DF8F4
:1020C00000009DF8000015F01F0108438DF8000086
:1020D0009DF800200F212000FFF721F900212000AA
:1020E000FFF72DF9012032BD002840F10780F446AA
:1020F000404200F003F850F0004060470AD0B0FAC8
:1021000080F18840D1F19D01C905020672F10042BB
:1021100041EB102070472000FF2212EAD05C1DBF67
:1021200012EAD153944593422BE09C44D30780EAB2
:1021300001021A4043EA002043EA0121A1FB0030DA
:10214000410038BF40007CF17F010BDBFE294ADAF9
:102150005B0842EAC15153EA006373F1004C51EB52
:1021600010207047D1F1080CDCF120012FDB5B0857
:1021700010FA01F10B4373F1004120FA0CF05041C9
:10218000704794451CBF02EAD153934280EA010292
:1021900002F000421DD0400019D0490017D05BB9B1
:1021A000634514D00902B1FA81F39940BCEB030CEA
:1021B000C00140F00040C1E70002B0FA80FC10FA14
:1021C0000CF0B3EB0C0CC90141F00041B6E7100074
:1021D000704740000AD0490008D010F1807F94BFBA
:1021E00011F1807F02E042F0FF407047D04370471A
:1021F0004100090E7F3915D4D1F11F0114D44000DC
:1022000007D2C00140F00040C84048BF6FF0004016
:102210007047C00140F00040C8404CBF4FF0004044
:10222000404270470020704700424FF0004058BFC6
:10223000C04370474FF0807C1CEB400F94BF1CEBF9
:10224000410F05E040EA010C5FEA4C0C01D28842E4
:10225000704718BF8142704780B500F07BF80028B6
:1022600001D0012000E0002002BD0020704700B531
:102270008BB09C48006850F001009A49086099486A
:10228000006810F001000090009810200690964819
:102290000790022009900020089006A9934800F0BA
:1022A00035F9002200210A2000F0CAFA0A2000F0C5
:1022B000DAFA8C48006850F002008A4908608948C0
:1022C000006810F0020000900098012001908648FC
:1022D0000290022004900020039001A9844800F09D
:1022E00015F900220021062000F0AAFA062000F0CD
:1022F000BAFA00200BB000BD2DE9F04104000D003A
:1023000016001F00A0463B009BB232002900C9B254
:1023100098F8010000F042F8002801D0012000E008
:102320000020BDE8F0812DE9F04104000D00160009
:102330001F00A0463B009BB232002900C9B298F8AA
:10234000010000F055F8002801D0012000E0002035
:10235000BDE8F08180B5674800F03CFD002814D14D
:1023600065486449486000206249886033206149BB
:10237000C8604FF480405F49086160485D4908606B
:1023800000F068F85B4800F08BFA5A4800F022FD34
:10239000012801D1002000E0012002BD2DE9F0411B
:1023A00084B004000D0016001F005FF000085448C0
:1023B00000680290380080B2019000960123EDB2CF
:1023C0002A0092B2E4B2210089B24A4800F046FBEA
:1023D00080465FFA88F8B8F1000F05D02000C0B23F
:1023E00000F030F8012000E0002004B0BDE8F081EA
:1023F0002DE9F04184B004000D0016001F005FF0CD
:1024000000083F4800680290380080B201900096B2
:102410000123EDB22A0092B2E4B2210089B235481C
:1024200000F0AEFB80465FFA88F8B8F1000F05D0E7
:102430002000C0B200F006F8012000E0002004B047
:10244000BDE8F08110B504002A4800F0DEFAFFF77D
:1024500081FF10BD00B587B02248006850F002002F
:10246000204908601F48006810F0020000900098A2
:102470004FF440700190122002900220049000203E
:1024800003900420059001A9194800F03FF81D4869
:10249000006850F400101B4908601A48006810F4E6
:1024A0000010009000981848006850F40010164979
:1024B00008601548006830F40010134908600022D5
:1024C00000211F2000F0BCF91F2000F0CCF90022F1
:1024D0000021202000F0B4F9202000F0C4F907B05A
:1024E00000BD00001C380240000011100000024036
:1024F00000040240E8030020801A06000054004057
:10250000A4010020243802401838024078B4002288
:10251000002300240D682E00D640002E00F0DE803F
:102520000D680126964035402B00002B00F0D4802A
:102530004D68022D02D04D68122D16D1D50810EB32
:1025400085052D6A2C000F2512F00706F6B2B6009D
:10255000B540AC430D6912F00706F6B2B600B540BF
:102560002C43D50810EB85052C6205682C0003254B
:102570001600F6B27600B540AC430D7915F00305B0
:102580001600F6B27600B5402C4304604D68012D6C
:1025900008D04D68022D05D04D68112D02D04D6830
:1025A000122D19D185682C0003251600F6B276008D
:1025B000B540AC43CD681600F6B27600B5402C436A
:1025C000846045682C0001259540AC434D68C5F3F7
:1025D000001595402C434460C5682C000325160067
:1025E000F6B27600B540AC438D681600F6B27600C0
:1025F000B5402C43C4604D68ED006DD54B4D2D6842
:1026000055F00105494E3560484D2D6815F001051E
:102610000095009D464D960855F826502C000F2534
:1026200012F00306F6B2B600B540AC43414DA842E5
:1026300001D100251EE0404DA84201D1012519E03D
:102640003E4DA84201D1022514E03D4DA84201D1E2
:1026500003250FE03B4DA84201D104250AE03A4D85
:10266000A84201D1052505E0384DA84201D1062533
:1026700000E0072512F00306F6B2B600B5402C4381
:102680002B4D960845F82640314D2D682C009C4373
:102690004D68ED0300D51C432D4D2C602D4D2D684C
:1026A0002C009C434D68AD0300D51C43294D2C6084
:1026B000294D2D682C009C434D68ED0200D51C432C
:1026C000254D2C60254D2D682C009C434D68AD0296
:1026D00000D51C43214D2C60521C1BE771BC704778
:1026E0000200136989B20B4202D00123180001E0F5
:1026F00000231800C0B27047D2B2002A02D089B2BB
:10270000816102E089B20B048361704710B5040057
:1027100013480068A4B2204206D0A4B21048046056
:10272000200080B200F082FE10BD00002038024080
:10273000080001400000024000040240000802407E
:10274000000C024000100240001402400018024039
:102750000004014004040140080401400C0401404D
:102760001404014010F00702454B1B6819004FF696
:10277000FF031940434B53EA02231943404B1960AE
:1027800070473F480068C0F302207047012110F0F5
:102790001F0291403C4A40B2430942F8231070475F
:1027A00010B440B2002808D50A01384B40B210F0EE
:1027B0000F04E31803F8042C03E00A01344B40B281
:1027C000C25410BC704770B4030013F00704D4F176
:1027D0000706052E01D3042001E0D4F10700261DD1
:1027E000072E01D2002500E0E51E012616FA00F0B2
:1027F000401E0840A8400121A940491E114008433D
:1028000070BC704710B50400601EB0F1807F01D32A
:1028100001200EE0601E1F4908600F215FF0FF30AD
:10282000FFF7BEFF00201C49086007201B49086015
:10283000002010BD10B504002000FFF793FF10BD6D
:10284000F8B504000D0016000027FFF79AFF0700F7
:10285000320029003800FFF7B6FF0100200040B227
:10286000FFF79EFFF1BD10B50400200040B2FFF756
:102870008DFF10BD10B504002000FFF7C3FF10BD91
:102880000CED00E00000FA0500E100E018ED00E0CA
:1028900000E400E014E000E018E000E010E000E0F8
:1028A00070B5040000250026002C01D10120ABE00A
:1028B00094F83500002805D1002084F83400200069
:1028C00000F0BFF801F016FD0600DFF87C0186423B
:1028D00001D2012098E0022084F8350020680068C9
:1028E0004008400021680860DFF86001B6FBF0F0A6
:1028F00005002068406880098001284321684860FD
:102900002068006A6168DFF84821914201D2691CA1
:1029100008E04FF4967101FB05F14FF47A72B1FBB8
:10292000F2F1491C8009800108432168086220688F
:10293000C0696168DFF8182191420ED261684900D0
:10294000B6FBF1F10905090D042901D204212AE0A1
:1029500061684900B6FBF1F125E0A168002905D1C5
:10296000616803225143B6FBF1F106E06168192268
:102970005143B6FBF1F151F48041090501D1012128
:1029800011E0A168002905D1616803225143B6FB1B
:10299000F1F106E0616819225143B6FBF1F151F4FF
:1029A000804151F40041DFF8AC2010400843216819
:1029B000C8612068006830F0C000E1690843216AFE
:1029C00008432168086020688068DFF88C100840A0
:1029D00021690843E1680843216888602068C0686D
:1029E000000A0002A1696269114308432168C860B6
:1029F0002068006850F00100216808600020A06392
:102A0000012084F83500002070BD10B50400002CB2
:102A100001D1012014E0022084F83500206800680C
:102A20004008400021680860200000F00BF80020FA
:102A3000A063002084F83500002084F834000020D2
:102A400010BD70477047000080841E0040420F0098
:102A5000A18601000030FFFF007CFFFF2DE9F04759
:102A600082B005000E0017009846DDF828900B9CF8
:102A7000DDF830A095F8350001287CD1B9F1000FC0
:102A800002D0A4B2002C01D1012075E042F21073F3
:102A900001225FF00211280000F08EFA002801D018
:102AA000022069E095F83400012801D1022063E09A
:102AB000012085F834002868006830F40060296837
:102AC0000860322085F835000020A863CDF800A00A
:102AD00043469BB23A0092B2310089B2280000F01E
:102AE0007CF900280CD0A86B042804D1002085F8BC
:102AF0003400012040E0002085F8340003203BE052
:102B0000A4B2002C1FD0534600221C49280000F01C
:102B100053FA002801D003202EE099F8000029681C
:102B2000086119F10109641E286840694007E7D56A
:102B3000A4B2002CE4D099F800002968086119F1CA
:102B40000109641EDCE7534600220C49280000F00E
:102B500033FA002801D003200EE02868006850F402
:102B6000007029680860012085F83500002085F88C
:102B70003400002000E00220BDE8F687800001005C
:102B80002DE9F04782B005000E0017009846DDF8E9
:102B900028900B9CDDF830A095F83500012840F016
:102BA0001281B9F1000F02D0A4B2002C01D1012092
:102BB0000AE142F2107301225FF00211280000F0D6
:102BC000FBF9002801D00220FEE095F8340001282E
:102BD00001D10220F8E0012085F83400286800685F
:102BE00030F4006029680860422085F83500002034
:102BF000A863CDF800A043469BB23A0092B23100E0
:102C000089B2280000F044F900280CD0A86B0428F1
:102C100004D1002085F834000120D5E0002085F89B
:102C200034000320D0E0A4B2012C13D1286800683E
:102C300030F480602968086028684069009028683E
:102C40008069009000982868006850F40070296836
:102C500008601DE0A4B2022C13D12868006830F48B
:102C60008060296808602868006850F4006029685E
:102C70000860286840690090286880690090009882
:102C800006E02868406900902868806900900098F4
:102C9000A4B2002C00F08F80A4B2042C6DDAA4B290
:102CA000012C12D153460022DFF82411280000F035
:102CB00083F9002801D0032086E02868006989F89C
:102CC000000019F10109641EE2E7A4B2022C1ED132
:102CD000534600223D49280000F06EF9002801D03B
:102CE000032071E02868006850F4007029680860CB
:102CF0002868006989F8000019F10109641E286834
:102D0000006989F8000019F10109641EC0E7534603
:102D100000222E49280000F04FF9002801D003209E
:102D200052E02868006830F48060296808602868EC
:102D3000006989F8000019F10109641E5346002258
:102D40002249280000F038F9002801D003203BE098
:102D50002868006850F400702968086028680069D5
:102D600089F8000019F10109641E2868006989F8D2
:102D7000000019F10109641E8AE753460022144934
:102D8000280000F019F9002801D003201CE0286871
:102D9000006989F8000019F10109641E286840697A
:102DA00040077FF575AF2868006989F8000019F1C0
:102DB0000109641E6CE7012085F83500002085F8C4
:102DC0003400002000E00220BDE8F6870400010086
:102DD0004000010090F8350070472DE9F04182B0C5
:102DE00004000D0016001F00DDF820802068006838
:102DF00050F4807021680860434600225FF00111A2
:102E0000200000F0D9F8002801D003203EE015F0A2
:102E1000FE002168086142466549200000F039F94A
:102E2000002806D0A06B042801D101202EE0032049
:102E30002CE020684069009020688069009000982C
:102E4000434600225B49200000F0B6F8002801D07C
:102E500003201BE0BFB2012F04D13000C0B22168B3
:102E6000086112E0B6B2300AC0B221680861434678
:102E700000225049200000F09FF8002801D00320D4
:102E800004E03000C0B2216808610020BDE8F6818E
:102E90002DE9F04182B004000D0016001F00DDF89E
:102EA00020802068006850F48060216808602068F5
:102EB000006850F4807021680860434600225FF08B
:102EC0000111200000F078F8002801D003206CE008
:102ED00015F0FE002168086142463549200000F0E7
:102EE000D8F8002806D0A06B042801D101205CE0AE
:102EF00003205AE0206840690090206880690090B3
:102F00000098434600222B49200000F055F8002885
:102F100001D0032049E0BFB2012F04D13000C0B27C
:102F20002168086112E0B6B2300AC0B221680861B7
:102F3000434600221F49200000F03EF8002801D03F
:102F4000032032E03000C0B221680861434600220D
:102F50001849200000F030F8002801D0032024E0B8
:102F60002068006850F480702168086043460022A1
:102F70005FF00111200000F01FF8002801D00320AD
:102F800013E055F00100C0B22168086142460849CB
:102F9000200000F07EF8002806D0A06B042801D1A4
:102FA000012002E0032000E00020BDE8F6810000DF
:102FB00002000100800001002DE9F04104000D0035
:102FC00016001F005FF0000801F050FA8046F6B2CC
:102FD000002E2DD1280CC0B201280AD120684069EA
:102FE000284080B2A9B2884201D101200BE0002024
:102FF00009E020688069284080B2A9B2884201D1E6
:10300000012000E00020002840D117F1010FE1D09D
:10301000002F05D001F02AFAB0EB08008742D9D280
:10302000012084F83500002084F8340003202EE0CD
:10303000280CC0B201280AD120684069284080B21B
:10304000A9B2884201D101200BE0002009E02068EC
:103050008069284080B2A9B2884201D1012000E0F5
:103060000020002812D017F1010FE1D0002F05D069
:1030700001F0FCF9B0EB08008742D9D2012084F8B6
:103080003500002084F83400032000E00020BDE873
:10309000F081F8B504000D001600002701F0E6F9F4
:1030A0000700280CC0B201280AD1206840692840D6
:1030B00080B2A9B2884201D101200BE0002009E0D2
:1030C00020688069284080B2A9B2884201D10120DD
:1030D00000E00020002829D120684069400513D570
:1030E0002068006850F40070216808607FF48060F8
:1030F000216848610420A063012084F83500002085
:1031000084F83400012012E016F1010FC9D0002E1E
:1031100004D001F0ABF9C01B8642C2D2012084F872
:103120003500002084F83400032000E00020F2BDC8
:1031300080B500208DF8000001F068F901F0AAF9CF
:10314000002001F0FBF90121002001F053FA01F009
:10315000CBFA00F02DF800F037F8BF48006801F016
:1031600055FCBE480078002818D000A9BA4800686D
:1031700001F067FC00280ED19DF8000000280AD05D
:1031800000F028F8002001F015FA642001F071F930
:10319000002001F01FFA0020B0490870B048007804
:1031A0000028DED000F016F80020AD490870D8E7FE
:1031B00080B5A949012001F009FB012803D10020B5
:1031C00001F0F8F9FEE701BD80B5A348006801F001
:1031D000F7FB01BD00B583B000208DF8060000208C
:1031E0008DF8050000208DF8040000208DF8030004
:1031F00000208DF8020000208DF8010000A99648FB
:10320000006801F0F5FB0DF106019348006801F03C
:1032100039FC012805D19DF800209249924801F01F
:1032200001FD0DF105018C48006801F04CFC0128FE
:1032300005D19DF800208D498B4801F0F3FC01A9D0
:103240008548006801F062FC012805D19DF8002046
:103250008749854801F0E6FC0DF103017E480068CE
:1032600001F077FC012805D19DF8002081497E48B6
:1032700001F0D8FC0DF102017748006801F08CFCE8
:10328000012805D19DF800207B49774801F0CAFC50
:103290000DF101017048006801F0A1FC012805D181
:1032A0009DF800207549704801F0BCFC9DF80600AF
:1032B000002818D19DF80400002814D19DF80200C0
:1032C000002810D19DF8050000280CD19DF80300BE
:1032D000012808D19DF80100002804D168496248FE
:1032E00001F0A0FC96E09DF80600012818D19DF899
:1032F0000400002814D19DF80200002810D19DF888
:10330000050000280CD19DF80300002808D19DF885
:103310000100002804D15B49534801F083FC79E0A7
:103320009DF80600002818D19DF80400002814D14B
:103330009DF80200002810D19DF8050001280CD14D
:103340009DF80300002808D19DF80100002804D151
:103350004D49454801F066FC5CE09DF806000028F8
:1033600018D19DF80400012814D19DF8020000280E
:1033700010D19DF8050000280CD19DF8030000280D
:1033800008D19DF80100002804D14049364801F0D9
:1033900049FC3FE09DF80600002818D19DF8040084
:1033A000002814D19DF80200002810D19DF80500D6
:1033B00000280CD19DF80300002808D19DF80100D9
:1033C000012804D13249284801F02CFC22E09DF864
:1033D0000600002818D19DF80400002814D19DF89B
:1033E0000200012810D19DF8050000280CD19DF89D
:1033F0000300002808D19DF80100002804D12549C8
:10340000194801F00FFC05E09DF8002022491648FC
:1034100001F008FC144801F01FFC41F2883302005F
:1034200092B211491D4801F06CFC07BD10B50400B3
:10343000A4B2B4F5005F08D1002001F038F90028EB
:1034400009D101200649087005E0A4B2102C02D170
:1034500001200249087010BD74040020840400207B
:103460008504002048690008A8020020906900082F
:10347000D8690008206A0008686A0008B06A000875
:1034800034660008E06600088C67000838680008A9
:10349000FC6B0008406B0008F86A0008A8030020D5
:1034A000FEE7002038B5040000252078C00740F171
:1034B0000781DFF8F808006810F00C0008280BD02E
:1034C000DFF8E808006810F00C000C2828D1DFF8BD
:1034D000DC080068C00323D54FF48040B0FA80F0C8
:1034E00050F02000C0B24009C0B2012803D1DFF87B
:1034F000B808006802E0DFF8180D00684FF480415A
:10350000B1FA81F111F01F010200CA40D00740F169
:10351000D7806068002840F0D380012000F042BCD2
:10352000DFF88408006830F48030DFF87C18086029
:10353000DFF87408006830F48020DFF86C18086049
:1035400000F094FF05004FF48040B0FA80F050F096
:103550002000C0B24009C0B2012803D1DFF84808FA
:10356000006802E0DFF8A80C00684FF48041B1FA6F
:1035700081F111F01F010200CA40D00709D500F007
:1035800075FF401B41F289318842DCD3032000F0F3
:1035900009BC6068012808D1DFF80C08006850F405
:1035A0008030DFF80418086037E06068002810D128
:1035B000DFF8F407006830F48030DFF8EC170860BB
:1035C000DFF8E407006830F48020DFF8DC170860DB
:1035D00023E06068052810D1DFF8CC07006850F4BC
:1035E0008020DFF8C4170860DFF8BC07006850F4DB
:1035F0008030DFF8B41708600FE0DFF8AC07006830
:1036000030F48030DFF8A0170860DFF89C0700680E
:1036100030F48020DFF8901708606068002827D019
:1036200000F024FF05004FF48040B0FA80F050F025
:103630002000C0B24009C0B2012803D1DFF86807FA
:10364000006802E0DFF8C80B00684FF48041B1FA6F
:1036500081F111F01F010200CA40D00730D400F000
:1036600005FF401B41F289318842DCD3032099E3F6
:1036700000F0FCFE05004FF48040B0FA80F050F0FE
:103680002000C0B24009C0B2012803D1DFF81807FA
:10369000006802E0DFF8780B00684FF48041B1FA6F
:1036A00081F111F01F010200CA40D00708D500F0D7
:1036B000DDFE401B41F289318842DCD3032071E3F7
:1036C0002078800740F1B780DFF8E006006810F04E
:1036D0000C0004280BD0DFF8D406006810F00C00B2
:1036E0000C2836D1DFF8C4060068C00331D45FF07F
:1036F0008040B0FA80F050F02000C0B24009C0B263
:10370000012803D1DFF8A006006802E0DFF8000B13
:1037100000685FF08041B1FA81F111F01F010200F1
:10372000CA40D00704D5E068012801D0012039E360
:10373000DFF87C0600685FF47801B1FA81F130F4BB
:10374000F850226912FA01F10843DFF864160860A4
:1037500071E0E06800283FD001205FF00041B1FA3D
:1037600081F1DFF8DC2B42F8210000F07FFE05003C
:103770005FF08040B0FA80F050F02000C0B2400905
:10378000C0B2012803D1DFF82006006802E0DFF8AC
:10379000800A00685FF08041B1FA81F111F01F01E9
:1037A0000200CA40D00706D400F060FE401B652826
:1037B000DED30320F6E2DFF8F80500685FF4780155
:1037C000B1FA81F130F4F850226912FA01F108439C
:1037D000DFF8DC1508602EE000205FF00041B1FA50
:1037E00081F1DFF85C2B42F8210000F03FFE05007C
:1037F0005FF08040B0FA80F050F02000C0B2400985
:10380000C0B2012803D1DFF8A005006802E0DFF8AC
:10381000000A00685FF08041B1FA81F111F01F01E8
:103820000200CA40D00706D500F020FE401B6528E4
:10383000DED30320B6E22078C00640F1EF80DFF847
:103840006C05006810F00C0F6DD15FF48000B0FAC9
:1038500080F050F02000C0B24009C0B2012803D16E
:10386000DFF84405006802E0DFF8A40900685FF4AF
:103870008001B1FA81F111F01F010200CA40D007A6
:1038800004D5A069002801D101208BE2DFF82005D2
:10389000006810F46040216A884220D2206A00F05B
:1038A00051FD002801D001207CE2DFF8040500680A
:1038B00030F46040216A0843DFF8F4140860DFF850
:1038C000F0040068FF21B1FA81F10002000AE26908
:1038D00012FA01F10843DFF8D81408601FE0DFF89E
:1038E000D004006830F46040216A0843DFF8C01457
:1038F0000860DFF8BC040068FF21B1FA81F1000222
:10390000000AE26912FA01F10843DFF8A414086022
:10391000206A00F017FD002801D0012042E20F20AC
:1039200000F08CFD7AE0A069002848D001205FF407
:103930000001B1FA81F1DFF8082A42F8210000F015
:1039400095FD05005FF48000B0FA80F050F0200093
:10395000C0B24009C0B2012803D1DFF84C040068AE
:1039600002E0DFF8AC0800685FF48001B1FA81F191
:1039700011F01F010200CA40D00706D400F076FD06
:10398000401B6528DED303200CE2DFF82404006826
:1039900030F46040216A0843DFF814140860DFF84F
:1039A00010040068FF21B1FA81F10002000AE26907
:1039B00012FA01F10843DFF8F81308602EE0002046
:1039C0005FF40001B1FA81F1DFF8742942F82100B7
:1039D00000F04CFD05005FF48000B0FA80F050F07C
:1039E0002000C0B24009C0B2012803D1DFF8B803FB
:1039F000006802E0DFF8180800685FF48001B1FA9F
:103A000081F111F01F010200CA40D00706D500F075
:103A10002DFD401B6528DED30320C3E1207800077D
:103A20004AD56069002823D001205FF00041B1FA37
:103A300081F1DFF8A42942F8210000F017FD05000C
:103A40005FF08040B0FA80F0DFF8C40700685FF0F4
:103A50008041B1FA81F111F01F010200CA40D00784
:103A60002AD400F003FD401B6528E9D3032099E127
:103A700000205FF00041B1FA81F1DFF85C2942F8E3
:103A8000210000F0F3FC05005FF08040B0FA80F008
:103A9000DFF87C0700685FF08041B1FA81F111F036
:103AA0001F010200CA40D00706D500F0DFFC401B12
:103AB0006528E9D3032075E12078400740F1D480E0
:103AC000DFF81809006850F08050DFF8101908601E
:103AD000DFF80809006810F0805000900098DFF8C7
:103AE0000009006850F48070DFF8F418086000F0F6
:103AF000BDFC0500DFF8E8080068C00506D400F04A
:103B0000B5FC401B6528F5D303204BE1DFF8000727
:103B1000006830F48070DFF8F8160860DFF8F0060F
:103B2000006830F48060DFF8E816086000F09EFC62
:103B300005005FF48000B0FA80F0DFF8D40600687A
:103B40005FF48001B1FA81F111F01F010200CA4057
:103B5000D00708D500F08AFC401B41F28931884229
:103B6000E7D303201EE1A068012808D1DFF8A006F2
:103B7000006850F48070DFF89816086037E0A0689D
:103B8000002810D1DFF88806006830F48070DFF874
:103B900080160860DFF87806006830F48060DFF88F
:103BA0007016086023E0A068052810D1DFF86006D1
:103BB000006850F48060DFF858160860DFF850069F
:103BC000006850F48070DFF8481608600FE0DFF8F6
:103BD0004006006830F48070DFF834160860DFF8C3
:103BE0003006006830F48060DFF824160860A068B2
:103BF00000281CD000F03AFC05005FF48000B0FA09
:103C000080F0DFF80C0600685FF48001B1FA81F102
:103C100011F01F010200CA40D00725D400F026FC95
:103C2000401B41F289318842E7D30320BAE000F01B
:103C30001DFC05005FF48000B0FA80F0DFF8D005CD
:103C400000685FF48001B1FA81F111F01F010200F8
:103C5000CA40D00708D500F009FC401B41F2893169
:103C60008842E7D303209DE0606A002800F0998035
:103C70004E48006810F00C000C2800F09080606A3C
:103C8000022861D100208021B1FA81F1DFF8B0264D
:103C900042F8210000F0EAFB05004020B0FA80F075
:103CA00050F02000C0B24009C0B2012802D13E4805
:103CB000006802E0DFF8580500684021B1FA81F1A0
:103CC00011F01F010200CA40D00706D500F0CEFB5C
:103CD000401B6528E1D3032064E03448006830F4D9
:103CE0007D00A16A0843E16A0843216B08432F491C
:103CF000086001208021B1FA81F1DFF8442642F802
:103D0000210000F0B3FB05004020B0FA80F050F035
:103D10002000C0B24009C0B2012802D12248006888
:103D200002E0DFF8EC0400684021B1FA81F111F003
:103D30001F010200CA40D00733D400F097FB401B9C
:103D40006528E1D303202DE000208021B1FA81F124
:103D5000DFF8EC2542F8210000F088FB0500402048
:103D6000B0FA80F050F02000C0B24009C0B2012883
:103D700002D10D48006802E0DFF894040068402199
:103D8000B1FA81F111F01F010200CA40D00708D535
:103D900000F06CFB401B6528E1D3032002E001200A
:103DA00000E0002032BD0000003802400838024028
:103DB0000438024070B504000D000026DFF8240628
:103DC000006810F00100A84280F00581012D07D1A4
:103DD000DFF81006006850F00400DFF808160860ED
:103DE000DFF800060068400840002843DFF8F415BB
:103DF0000860DFF8F005006810F00100A84201D06B
:103E0000012004E22078800709D5DFF8DC0500688E
:103E100030F0F000A1680843DFF8CC150860207886
:103E2000C00740F1D581606802281DD14FF4804061
:103E3000B0FA80F050F02000C0B24009C0B20128B2
:103E400003D1DFF8A805006802E0DFF8C4030068CA
:103E50004FF48041B1FA81F111F01F010200CA4014
:103E6000D0075FD40120D2E1606803281BD1402035
:103E7000B0FA80F050F02000C0B24009C0B2012872
:103E800003D1DFF86805006802E0DFF8840300680A
:103E90004021B1FA81F111F01F010200CA40D007A0
:103EA00040D40120B3E1606801281DD15FF080405B
:103EB000B0FA80F050F02000C0B24009C0B2012832
:103EC00003D1DFF82805006802E0DFF8440300684A
:103ED0005FF08041B1FA81F111F01F010200CA4088
:103EE000D0071FD4012092E15FF48000B0FA80F087
:103EF00050F02000C0B24009C0B2012803D1DFF861
:103F0000EC04006802E0DFF8080300685FF4800159
:103F1000B1FA81F111F01F010200CA40D00701D4AB
:103F2000012074E1DFF8C004006880088000616847
:103F30000843DFF8B414086000F098FA06006068DF
:103F4000022810D1DFF8A004006810F00C00082847
:103F500000F03E8100F08AFA801B41F289318842EC
:103F6000F0D3032053E16068032810D1DFF8780410
:103F7000006810F00C000C2800F02A8100F076FA9E
:103F8000801B41F289318842F0D303203FE1606811
:103F9000012810D1DFF85004006810F00C0004284C
:103FA00000F0168100F062FA801B41F289318842EC
:103FB000F0D303202BE1DFF83004006810F00C0F81
:103FC00000F0068100F052FA801B41F289318842EC
:103FD000F1D303201BE12078800709D5DFF808041E
:103FE000006830F0F000A1680843DFF8FC130860B7
:103FF0002078C00740F1D080606802281CD14FF4BF
:104000008040B0FA80F050F02000C0B24009C0B249
:10401000012803D1DFF8D403006801E07C48006880
:104020004FF48041B1FA81F111F01F010200CA4042
:10403000D0075CD40120EAE0606803281AD1402050
:10404000B0FA80F050F02000C0B24009C0B20128A0
:1040500003D1DFF89803006801E06D480068402153
:10406000B1FA81F111F01F010200CA40D0073ED41D
:104070000120CCE0606801281CD15FF08040B0FADC
:1040800080F050F02000C0B24009C0B2012803D136
:10409000DFF85803006801E05D4800685FF0804188
:1040A000B1FA81F111F01F010200CA40D0071ED4FD
:1040B0000120ACE05FF48000B0FA80F050F0200006
:1040C000C0B24009C0B2012803D1DFF82003006864
:1040D00001E04F4800685FF48001B1FA81F111F00E
:1040E0001F010200CA40D00701D401208FE0DFF891
:1040F000F80200688008800061680843DFF8E81271
:10410000086000F0B3F90600606802280FD1DFF8FC
:10411000D802006810F00C0008283DD000F0A6F985
:10412000801B41F289318842F1D303206FE060683F
:1041300003280FD1DFF8B002006810F00C000C2843
:104140002AD000F093F9801B41F289318842F1D3E3
:1041500003205CE0606801280FD1DFF88C02006862
:1041600010F00C00042817D000F080F9801B41F2F9
:1041700089318842F1D3032049E0DFF86C020068FE
:1041800010F00C0F08D000F071F9801B41F289315A
:104190008842F2D303203AE0012D07D1DFF8440230
:1041A000006850F00400DFF83C120860DFF83402C9
:1041B0000068400840002843DFF828120860DFF854
:1041C0002402006810F00100A84201D001201EE086
:1041D0002078400709D5DFF81002006830F4E0606D
:1041E000E1680843DFF800120860207800070AD56C
:1041F000DFF8F401006830F46050216950EAC10032
:10420000DFF8E41108600F2000F018F9002070BDFD
:1042100034380240F0B5002100220023002400259C
:104220000020714E3668310011F00C06042E04D0C7
:10423000082E05D00C2E06D032E06D4E300042E044
:104240006C4E30003FE04FF47056B6FA86F66A4F77
:1042500011F4701CE6463EFA06FE1EF807603200B6
:104260004FF44076B6FA86F6644F11F4400CE646F9
:104270003EFA06FE1EF8076033005B4E3668F60312
:1042800006D55C4E06FB02F6B6FBF3F6340005E0FD
:10429000574E06FB02F6B6FBF3F63400200012E0A0
:1042A000574E366816F460465FF4E027B7FA87F792
:1042B000B4463CFA07FC654601266F1CBE404FF42D
:1042C00000477E433000F0BD10B5FFF7A3FF46491D
:1042D00009685FF07062B2FA82F24A4B11F0F001A5
:1042E0000C00D440E15C0200CA40474802604648E6
:1042F000006810BD10B5FFF7E7FF01003A480068FD
:104300005FF46002B2FA82F23E4B10F4E060040007
:10431000D440E25C0800D04010BD10B5FFF7D4FFD8
:104320000100314800685FF4E012B2FA82F2354BC6
:1043300010F460500400D440E25C0800D04010BD8E
:104340000000474270B582B00400002500262648D0
:10435000006810F0F00F24D120480068C00003D599
:1043600000F0B4FE050014E01C48006850F08050D6
:104370001A4908601948006810F0805000900098B1
:1043800000F0A4FE05001548006830F08050134985
:104390000860B5F5C05F04D1B4F5404F01D10120EC
:1043A0000600012E05D10F48006850F004000D49A9
:1043B00008600C4800684008400030430949086024
:1043C0000848006810F00100B04201D0012000E070
:1043D000002076BD000000008006474224380240DD
:1043E00000700040003C02400838024000380240A3
:1043F0000024F40000127A00286D00084C6D0008BB
:1044000004380240086D0008A001002080B51F4854
:10441000006850F004001D4908601C48006850F016
:1044200002001A4908600320FEF704FA0F2000F08A
:1044300005F800F002F8002002BD704710B5040036
:10444000FFF742FF4FF47A71B0FBF1F0FEF712FA7A
:10445000002221005FF0FF30FEF7F2F9002010BDCE
:104460000B480068401C0A4908607047084800680B
:10447000704711B581B00024FFF7F8FF0400FFF783
:10448000F5FF001B01998842F9D313BD003C02409F
:104490007804002000B593B001A8142100F01EFE9E
:1044A00006A8342100F01AFE02200690012009908F
:1044B00010200A9002200F90002010905FF400203E
:1044C00011905FF40000129006A8FEF7EBFF0028A1
:1044D00001D0FEF7E5FF1648006850F080501449FF
:1044E00008601348006810F0805000900098114850
:1044F000006830F4C05050F400600E4908600E4867
:104500000068C006FBD40F20019003200290002019
:1045100003900020049000200590012101A8FFF7DE
:1045200049FC002801D0FEF7BBFF13B000BD00BF5F
:1045300024380240007000400470004010B586B07E
:10454000040001A8142100F0C9FDE4B2002C0ED132
:10455000DFF87801006850F00100DFF870110860A2
:10456000DFF86801006810F0010000900098DFF8A3
:104570006001E4B230F814000190012002900020A4
:1045800003900320049001A9DFF84801E4B250F839
:104590002400FDF7BBFF0022DFF83401E4B230F85D
:1045A0001410DFF83001E4B250F82400FEF7A4F84C
:1045B00006B010BD10B504000122DFF81401E4B20A
:1045C00030F81410DFF80C01E4B250F82400FEF7C4
:1045D00093F810BD10B504000022DFF8F400E4B237
:1045E00030F81410DFF8EC00E4B250F82400FEF7C5
:1045F00083F810BD30B587B004000D0001A8142168
:1046000000F06CFDE4B2002C0ED1DFF8C0000068B1
:1046100050F00400DFF8B4100860DFF8B000006864
:1046200010F0040000900098EDB2002D13D1DFF8D7
:10463000A800E4B230F8140001900020029000209D
:1046400003900220049001A9DFF89000E4B250F832
:104650002400FDF75BFFEDB2012D26D1DFF87800D5
:10466000E4B230F81400019000200390022004907E
:10467000DFF86C00029001A9DFF86000E4B250F8A6
:104680002400FDF743FF00220F21DFF85800E4B2B9
:1046900030F8140040B2FEF7D3F8DFF84800E4B277
:1046A00030F8140040B2FEF7DEF807B030BD10B5A8
:1046B0000400DFF82400E4B230F81410DFF81C0026
:1046C000E4B250F82400FEF70BF810BD1C3802408D
:1046D0001621000898010020A23400089C01002047
:1046E000000021108E4C000800B587B030480068EB
:1046F00050F001002E4908602D48006810F00100BC
:10470000009000982A48006850F00100284908608D
:104710002748006810F001000090009825480068C4
:1047200050F40030234908602248006810F400303B
:104730000090009804200190022002900020039035
:10474000022004900720059001A91B48FDF7DEFE1A
:10475000082001900720059001A91748FDF7D6FE13
:104760001648174908601748006815494860002036
:104770001349886000201249C86000201049086170
:1047800000200F4988610C200D4948610C4800F059
:104790007FFA002800D0FEE70B48094988624FF4F1
:1047A00080700749888500200549C86307B000BDAF
:1047B0001C380240243802400000024000440040FF
:1047C000A8030020406D0008A801002038B50400AF
:1047D0000D000020286064B2002C0ED0012C14D0F3
:1047E000280000F07BF8012806D1280000F016F818
:1047F000012801D1012010E00EE0280000F00EF8A1
:10480000012801D1012008E006E0280000F066F848
:10481000012801D1012000E0002032BD2DE9F04146
:10482000040000255C48C078012801D1012053E034
:10483000FDF712FD012801D101204DE06820564905
:104840000870D620544948700020534988700020D1
:104850005149C87000205049087101204E494871E3
:104860004E484D4988604E484B49C86000204A492F
:1048700008614C484C4948604B4848490860002052
:1048800046494860444820602068C06805002868A0
:1048900000280CD114260027D4F800803A003100FB
:1048A000404600F01FFC00202060012014E020683A
:1048B0002968884701280CD114260027D4F80080E5
:1048C0003A003100404600F00DFC0020206001203D
:1048D00002E0FDF7CAFC0020BDE8F0812DE9F041BF
:1048E000040000252C48C07D012801D1012050E0A2
:1048F000FDF7B2FC012801D101204AE069202649D8
:104900000875D42024494875012023498875002062
:104910002149C87500202049087601201E494876A3
:1049200022481D49C86122481B49086221481A498A
:10493000486221481949886000201849C8601F480A
:1049400020602068C0680500286800280CD1142663
:104950000027D4F800803A003100404600F0C2FB46
:1049600000202060012014E0206829688847012881
:104970000CD114260027D4F800803A0031004046BC
:1049800000F0B0FB00202060012002E0FDF76FFC8A
:104990000020BDE8F0810000240400204C04002029
:1049A000080100205C04002064040020540400205E
:1049B0004C010020000000207C040020380400206E
:1049C00070B5040025000026002D01D101200EE065
:1049D000E8680600B068002801D1012007E028003F
:1049E000B1688847012801D1012000E0002070BD96
:1049F00002001300002B01D1012006E0002901D1A3
:104A0000012002E0987808700020704770B504001B
:104A10002500002D01D1012012E02869002801D1D4
:104A200001200DE02878692809D12E69306F00280F
:104A300001D1012004E02800316F884700E0012007
:104A400070BDF8B504000D002600002E01D1012034
:104A500017E03069002801D1012012E0002D01D1BA
:104A600001200EE0307869280AD13769B86F002834
:104A700001D1012005E029003000BA6F904700E025
:104A80000120F2BDF8B504000D002600002E01D172
:104A9000012017E03069002801D1012012E0002D2B
:104AA00001D101200EE0307869280AD13769F86F0A
:104AB000002801D1012005E029003000FA6F90475D
:104AC00000E00120F2BDF8B504000D002600002E24
:104AD00001D1012019E03069002801D1012014E042
:104AE000002D01D1012010E0307869280CD1376900
:104AF000D7F88000002801D1012006E0290030000D
:104B0000D7F88020904700E00120F2BDF8B50400FE
:104B10000D002600002E01D1012019E03069002887
:104B200001D1012014E0002D01D1012010E03078E6
:104B300069280CD13769D7F88400002801D10120F9
:104B400006E029003000D7F88420904700E00120DB
:104B5000F2BDF8B504000D002600002E01D10120A1
:104B600019E03069002801D1012014E0002D01D1A5
:104B7000012010E0307869280CD13769D7F8880017
:104B8000002801D1012006E029003000D7F8882054
:104B9000904700E00120F2BDF8B504000D002600AA
:104BA000002E01D1012019E03069002801D1012037
:104BB00014E0002D01D1012010E0307869280CD1DB
:104BC0003769D7F88C00002801D1012006E02900C0
:104BD0003000D7F88C20904700E00120F2BDF8B5F6
:104BE00004000D002600002E01D1012019E03069DB
:104BF000002801D1012014E0002D01D1012010E096
:104C0000307869280CD13769D7F89000002801D195
:104C1000012006E029003000D7F89020904700E0FE
:104C20000120F2BD0CB41CB5044604A801900A464C
:104C3000009401AB00A907487844183000F086FAC8
:104C4000009A0021117000285CBF0098001B16BC60
:104C50005DF80CFB9FC6FFFF00F10103810704D044
:104C600010F8011B89B18107FAD10268B2F1013154
:104C7000914311F0803F04BF50F8042FF6E710F87D
:104C8000011B11B110F8011BFBE7C01A7047280087
:104C900010B50400002C01D1012030E0A0690028EB
:104CA000FFD194F83900002805D1002084F838009D
:104CB000200000F025F8022084F839002068C06840
:104CC00030F400502168C860200000F009F9206825
:104CD000006930F49040216808612068406930F034
:104CE0002A00216848612068C06850F4005021689B
:104CF000C8600020E063012084F83900002010BD66
:104D000070472DE9F84304000D0016001F005FF006
:104D1000000994F839008146B9F1010F02D0B9F1C8
:104D2000220F69D1002D02D0B6B2002E01D1012090
:104D300063E094F83800012801D102205DE00120F1
:104D400084F838000020E06394F83900222803D169
:104D5000322084F8390002E0122084F83900A68459
:104D6000E684E08C00282DD0E08C401EE084A06812
:104D7000B0F5805F17D13B0000228021200000F0B9
:104D80003EF8002801D0032037E0A846B8F800001C
:104D9000C005C00D216848602069002801D1AD1C04
:104DA000DFE76D1CDDE73B0000228021200000F0E2
:104DB00026F8002801D003201FE0287821684860E9
:104DC0006D1CCEE73B0000224021200000F017F8C8
:104DD000002801D0032010E094F83900322803D1D4
:104DE000222084F8390002E0012084F839000020F4
:104DF00084F83800002000E00220BDE8F2832DE9AD
:104E0000F04104000D0016001F005FF00008FFF7DE
:104E10002DFB8046F6B2002E2FD120680068284076
:104E2000A8425AD017F1010FF7D0002F05D0FFF795
:104E30001DFBB0EB08008742EFD22068C06830F05D
:104E400080002168C8602068C06830F020002168B8
:104E5000C8602068C06830F480702168C86020682D
:104E600040694008400021684861012084F8390009
:104E7000002084F83800032030E0206800682840D3
:104E8000A8422AD117F1010FF7D0002F05D0FFF764
:104E9000EDFAB0EB08008742EFD22068C06830F02E
:104EA00080002168C8602068C06830F02000216858
:104EB000C8602068C06830F480702168C8602068CD
:104EC00040694008400021684861012084F83900A9
:104ED000002084F83800032000E00020BDE8F081C5
:104EE000F8B5040000252068006930F44050E168FE
:104EF000084321680861A068216908436169084383
:104F0000E169084305002068C0686E4908402843ED
:104F10002168C8602068406930F44070A169084386
:104F200021684861E069B0F5004F65D120686649A5
:104F3000884230D1FFF7F1F90700FFF7EEF90600DC
:104F4000FFF7EBF9192101FB07F162685200B1FB91
:104F5000F2F16422B1FBF2F1192202FB06F263685E
:104F60005B00B2FBF3F21923584363685B00B0FBAC
:104F7000F3F06423B0FBF3F0642303FB1020000183
:104F800032306422B0FBF2F010F00F0050EA011052
:104F90002168886095E0FFF7ADF90700FFF7AAF9EF
:104FA0000600FFF7A7F9192101FB07F1626852001B
:104FB000B1FBF2F16422B1FBF2F1192202FB06F21D
:104FC00063685B00B2FBF3F21923584363685B002C
:104FD000B0FBF3F06423B0FBF3F0642303FB102079
:104FE000000132306422B0FBF2F010F00F0050EA02
:104FF00001102168886064E020683349884230D11C
:10500000FFF78BF90700FFF788F90600FFF785F92E
:10501000192101FB07F162689200B1FBF2F16422F1
:10502000B1FBF2F1192202FB06F263689B00B2FBAE
:10503000F3F21923584363689B00B0FBF3F0642339
:10504000B0FBF3F0642303FB102000013230642234
:10505000B0FBF2F010F00F0050EA011021688860F8
:105060002FE0FFF747F90700FFF744F90600FFF7C5
:1050700041F9192101FB07F162689200B1FBF2F1DD
:105080006422B1FBF2F1192202FB06F263689B0075
:10509000B2FBF3F21923584363689B00B0FBF3F0B3
:1050A0006423B0FBF3F0642303FB102000013230D3
:1050B0006422B0FBF2F010F00F0050EA01102168FA
:1050C0008860F1BDF369FFFF0038014002480068C5
:1050D00010F4C0507047000000700040002200F043
:1050E00007BC000062F30F2262F31F42401810F069
:1050F000030308D0C91A1FD3DB0748BF00F8012DEE
:1051000028BF20F8022D130030B41446154610397C
:1051100028BF20E93C00FAD8490728BF20E90C0045
:1051200048BF40F8042D890028BF20F8022D48BF51
:1051300000F8012D30BC7047C91818BF00F8012DC8
:10514000CB0728BF00F8012D704700002DE9F04F74
:1051500080460FF2847095B092461D46D0E9002338
:10516000CDE9132303AE00200391B0610DF13409A2
:1051700000E0A2440020ADF8020013AB4FF0FF3274
:1051800051460DF1020000F0CCFB0446012C05DA7B
:105190009AF80000441EA441E443E40FBDF8020065
:1051A00025280CBFA4F1010BA346BBF1010F0EDBB8
:1051B000574617F8011B0398C0470028039000F0DA
:1051C000CE81B069401CBBF1010BB061F1D1BDF8DB
:1051D0000200252804D10020F0603061706105E0F4
:1051E0000028C6D1B069BCE140F001001AF8011FE7
:1051F0002029F9D023290DD02B2904D02D2906D020
:1052000030290AD00CE040F0020080B2EEE740F016
:105210000400FAE740F00800F7E740F01000F4E778
:105220002A290FD12968296051F8042B2960002A06
:10523000326204D5514240F00400316280B20AF17A
:10524000010A15E0002131620CE0316A6FF0004381
:10525000994205D001EB810302EB43013039316201
:105260000AF1010A9AF80020A2F130010A29ECD3D0
:105270009AF800102E2903D04FF0FF31F16122E09F
:105280001AF8011F2A2908D1296829600AF1010AA0
:1052900051F8042B2960F26115E00021F1610CE066
:1052A000F1696FF00043994205D001EB810302EBF5
:1052B00043013039F1610AF1010A9AF80020A2F1A4
:1052C00030010A29ECD3B0840FF214609AF8001070
:1052D00000F038FB08B11AF8010B8DF832009DF888
:1052E0003200682804BF9AF80000682804D16220C0
:1052F0008DF832000AF1010A0DA8B0601AF8014BCE
:10530000252C13D0582C40D0632C00F09880642CAE
:1053100018BF692C71D06F2C37D0702C2BD0732C08
:105320000AD0752C18BF782C2FD0ABE00120F0608C
:1053300025208DF83400AFE09DF832006C282868F5
:10534000286014D050F8044B28607460F769002F6F
:1053500004D52046FFF780FC074606E03A460021C8
:10536000204600F0FBFA00B1071B376194E050F8CB
:10537000042B28607FE02868286050F8041B286010
:1053800002910DA87060782155E09DF832006C28DC
:105390000DD0712818BF6A2809D12868C01D20F0D7
:1053A00007022A60D2E9000108322A6004E0296875
:1053B000296051F8040B296002909DF8320068289A
:1053C00002D102A8008803E0622802D102A8007876
:1053D000029096F82400000728D5029830B344F0D4
:1053E0002000782822D1F068302100F80910401CF4
:1053F000411CF16000F8094018E09DF83200294690
:1054000000F0B2F80028029002D5F0682D2109E0E2
:10541000B08C810702D5F0682B2103E0C00705D5C9
:10542000F068202100F80910401CF0600DA8F16818
:1054300008187060214602A800F0CFF92CE09DF812
:1054400032006C2809D00120F0602868286050F8EC
:10545000041B28608DF834101EE02868286001AA1B
:1054600050F8041B2860ADF804100020ADF80600C9
:105470004FF0FF30F06102A9404600F09BF8002891
:105480000AD56CE00120F06025208DF834001CB1B5
:105490000220F06089F80140306AF168401A7169B1
:1054A000401A3169441A96F8240040070FD420208E
:1054B0008DF80000002708E0012300AA02A9404659
:1054C00000F0F2F900284AD17F1CA742F4DBF7680C
:1054D0000DF1340B0AE01BF8011B0398C0470028AC
:1054E00003903CD0B069401CB0617F1E002FF2D108
:1054F00030208DF800004FF0000B776908E00123A1
:1055000000AA02A9404600F0CFF940BB0BF1010B05
:10551000BB45F4DB3769D6F804B009E01BF8011B82
:105520000398C0470390D0B1B069401CB0617F1EA2
:10553000002FF3D196F8240040077FF51BAE202002
:105540008DF8000000E07F1CA742BFF613AE0123D8
:1055500000AA02A9404600F0A7F90028F3D04FF0B6
:10556000FF3015B0BDE8F08F622815D068280CD048
:105570006C2818BF742816D07A2814D10A680A60DB
:1055800052F8040B0A60002170470A680A6052F85A
:10559000040B0A6000B20BE00A680A6052F8040BC0
:1055A0000A6040B204E00A680A6052F8040B0A601C
:1055B000C11770472DE9F44F0D4694B0D5F820A0DF
:1055C000BAF1000F804648BF6FF0004A00F0F2F9D0
:1055D000696A401801900FF21030D0E90023CDE93C
:1055E000022395F82800400702D40198412805D2EB
:1055F00040200DF110090190002607E000F0E0F9CD
:105600005FEA0009F8D1AAE7AAEB040ABAF1010F90
:10561000C0F28B801498018802AA0DF1010000F0FD
:1056200027FA0028044600F18E801498008810B9EB
:10563000641E00F18880A24577DB28690199221851
:10564000914260D26E624042A969401A6969461A65
:1056500095F8280040070FD420208DF8000000277F
:1056600008E0012300AA2946404600F01DF9002861
:1056700069D17F1CB742F4DB2F69CB460AE01BF8E7
:10568000011B6868C047002868605CD0E869401C5E
:10569000E8617F1E002FF2D130208DF800004FF01E
:1056A000000BAF6909E0012300AA2946404600F03B
:1056B000FBF8002847D10BF1010BBB45F3DB6F6909
:1056C000D5F808B009E01BF8011B6868C04768609E
:1056D000C8B3E869401CE8617F1E002FF3D195F83C
:1056E000280040070DD520208DF8000007E0012399
:1056F00000AA2946404600F0D7F820BB7F1CB742DD
:10570000F5DB00262E61224628690DF1010148448F
:1057100000F0BCF92869201828611498801C1490A6
:10572000801E008800287FF46FAF686A2969401ADC
:10573000A969401A6969A0EB010A95F82800400799
:1057400010D400240CE04FF0FF363EE068682021C2
:10575000C04700286860F6D0E869401CE861641C16
:105760005445F3DB2B694A462946404600F09CF835
:105770000028E8D1AC69002709E068683021C047FB
:1057800000286860DFD0E869401CE8617F1CA74200
:10579000F3DB6B69AA682946404600F085F80028CB
:1057A000D1D195F8280040070DD5002409E068689C
:1057B0002021C04700286860C5D0E869401CE86126
:1057C000641C5445F3DB2E616E6204A881451CBF46
:1057D000484600F097F93046C3E6F0B4C2686F2936
:1057E00008BF082405D041F02003782B14BF0A24F9
:1057F000102418230668642918BF6929374602D186
:10580000002E48BF7F425FB9056A4DB9082C27D1E9
:1058100090F82810090723D530211723D1751FE0F0
:10582000B7FBF4F604FB16773037FFB25D1E3A2F54
:10583000A4BFA1F1510C6744AF542B46370003D0ED
:1058400085689E18B542EBD3082C09D190F8281032
:10585000090705D5995C302902D05B1E3021995487
:105860009A188260C3F11801026A4161914208DA14
:10587000511A81614FF6EF72018D11400185F0BC24
:105880007047002A0ED590F8282002F01402102A42
:1058900008D1426A0369D21A8369D21A531A012BBA
:1058A000A8BF8361F0BC7047F8B504460D461646A4
:1058B0001F46002004E0E869401CE8617F1E0020CC
:1058C00047B116F8011B6868A04700286860F2D14C
:1058D0004FF0FF30F2BD00000000000000000000AB
:1058E000686C747A4C0000000000000000000000AA
:1058F00000B500BF130096469446103928BFA0E8B3
:105900000C50FAD85FEA417C28BF0CC048BF40F871
:10591000042BC90728BF20F8022B48BF00F8012B31
:1059200000BDF8B504460D4616461F4600F02AF99C
:105930003B4632462946204601B0BDE8F04000F023
:1059400038B900000278C9B28A421AB11CBF10F8F7
:10595000012FF9E718BF002070470000C9B2830784
:1059600006D0521E22D310F8013B9942F7D11FE016
:10597000083A13D302F1040241EA012141EA01414C
:1059800050F8043B121F21BF4B40A3F1013C2CEA0D
:10599000030C1CF0803FF3D0C9B2001F083210F88E
:1059A000013B521E28BF91EA030FF8D818BF01200F
:1059B000401E704780B500F0E5F8012002BD0000F0
:1059C00070B5054605F10F00C408C046C046E400A6
:1059D000A54232D2082C04D2082402E0083000F09C
:1059E00091F82248026811000CD1011D0A6802B327
:1059F0001368A34238BF111DF8D310E01D68A542FB
:105A00000DD2191D0B68002BF8D11268011D00E0A2
:105A1000191D0B6893420CD01D68A542F8D361B1E3
:105A20000D682A68A2F10803A3420AD26A680A60D4
:105A30000FE000F0E1F80028D0D1C046C0460020B9
:105A400070BD63190B60121B6E685E600B681A6094
:105A50002C60096800291DBF4A68002A091D002121
:105A60000160C046C04605F1080070BD6C0400200E
:105A700070B504460D46164600F084F832462946B5
:105A80002046BDE8704000F087B8000062B38B0785
:105A900008D0521E11F8013B00F8013B00F02480B1
:105AA0008B07F6D1830740F0208000BF103A07D360
:105AB00030B4B1E83810103AA0E83810F9D230BC50
:105AC000530724BFB1E80810A0E8081044BF51F8FC
:105AD000043B40F8043BD20724BF31F8022B20F8E6
