:020000040800F2
:100000002011002011CF000845CE000847CE00087F
:1000100045CF000849CF00084DCF00080000000080
:1000200000000000000000000000000051CF0008A8
:1000300049CE00080000000055CF00084BCE000854
:1000400059CF00085DCF000861CF000865CF0008D8
:1000500069CF00086DCF000871CF000875CF000888
:1000600079CF00087DCF000881CF000885CF000838
:1000700089CF00088DCF000891CF000895CF0008E8
:1000800099CF00089DCF0008A1CF00080000000014
:10009000000000000000000000000000A5CF0008E4
:1000A000A9CF0008ADCF0008B1CF0008B5CF000838
:1000B000B9CF0008BDCF0008C1CF0008C5CF0008E8
:1000C000C9CF0008CDCF0008D1CF0008D5CF000898
:1000D000D9CF0008DDCF0008E1CF00080000000004
:1000E00053CE0008E5CF0008E9CF0008000000006B
:1000F000000000000000000000000000EDCF00083C
:1001000000000000F1CF0008F5CF0008F9CF00088B
:1001100000000000000000000000000000000000DF
:10012000FDCF000801D0000805D0000809D0000864
:100130000DD00008000000000000000000000000DA
:1001400000000000000000000000000011D00008C6
:1001500015D0000819D000081DD0000821D00008D3
:1001600025D0000829D00008000000000000000091
:10017000000000000000000000000000000000007F
:10018000000000002DD0000800000000000000006A
:1001900031D0000870B582B0040000A8DFF85C1A06
:1001A0000A680260A5682E68200000F09CFD012806
:1001B00001D1012035E00421200001F0E0FE0028FB
:1001C00001D101202DE04021200001F0FBFE00289C
:1001D00001D1012025E00021200001F06FFD002861
:1001E00001D101201DE0DFF81C0C3060002120004F
:1001F00001F0F1FD002801D1012012E000212000D2
:1002000000F0E1F9012801D101200AE000A9200055
:1002100000F060FA012801D1012002E00120E07025
:10022000002076BD70B50400A5682E68200000F09F
:100230005AFD012801D101203CE0200001F086F8A0
:10024000012801D1012035E0200001F01DFC01282A
:1002500001D101202EE0200001F0F2F8012801D1A7
:10026000012027E0200001F08CFA012801D10120B3
:1002700020E0200001F03CFB012801D1012019E021
:10028000200001F07CF9012801D1012012E02000BA
:1002900001F0E4F9012801D101200BE0200000F079
:1002A00020F8012801D1012004E000203060002066
:1002B000E070002070BD70B50400A5682E6820793C
:1002C000012801D100200BE096ED000A200000F08B
:1002D000A3FD012801D1012002E0012020710020AE
:1002E00070BD70B50400A5682E682079002801D182
:1002F000002012E03100200000F0A3F8012801D115
:1003000001200AE00021200001F065FD002801D154
:10031000012002E000202071002070BD38B50400EB
:100320000D002900200000F0D1FC32BD10B5040002
:10033000200000F0D8FC10BD3EB504000D000020E8
:10034000009001A9200000F0E5FC012801D1012066
:1003500032E000A9200000F047F8012801D1012077
:100360002AE0BDF9040000EE100AB8EEC00ADDED87
:10037000000A20EE200ABDEEC00A85ED000ABDF994
:10038000060000EE100AB8EEC00ADDED000A20EE0D
:10039000200ABDEEC00A85ED010ABDF9080000EE95
:1003A000100AB8EEC00ADDED000A20EE200ABDEE0C
:1003B000C00A85ED020A00203EBD30B583B00400BE
:1003C0000D0000A9200000F0A5FC012801D10120AA
:1003D00009E0BDF800002880BDF802006880BDF883
:1003E0000400A88000203EBD38B504000D0000A91F
:1003F000200001F0DEFC002801D1012020E09DF862
:100400000000002806D0042810D0082806D00C28A8
:1004100008D00FE0DFF8DC0A286010E0DFF8D80A27
:1004200028600CE0DFF8D40A286008E0DFF8D00A82
:10043000286004E0DFF8A80B2860012000E000201D
:1004400032BD38B504000D0000A9200001F0E6FC23
:10045000002801D101204FE09DF80000002816D0AF
:10046000102817D0202819D030281BD040281DD0A4
:1004700050281FD0602821D0702823D0802825D074
:10048000902827D0A02829D0B0282BD02EE00020FB
:10049000286030E0DFF84C0B28602CE0DFF8480BD8
:1004A000286028E0DFF8440B286024E0DFF85409D6
:1004B000286020E0DFF8380B28601CE0DFF8340B00
:1004C000286018E0DFF8300B286014E0DFF8300B0C
:1004D000286010E0DFF82C0B28600CE0DFF82C0B14
:1004E000286008E0DFF8280B286004E0DFF8F00A55
:1004F0002860012000E0002032BD38B504000D0066
:100500002079012808D12900C9B2200000F02DFC73
:1005100001280AD1012009E02900C9B2200000F019
:100520004DFC012801D1012000E0002032BD10B5B2
:100530002DED028B0400B0EE408A2079012808D10D
:10054000B0EE480A200000F067FC01280AD1012023
:1005500009E0B0EE480A200000F0D4FC012801D1E7
:10056000012000E00020BDEC028B10BD38B5040076
:100570000D0000A9200001F01CFC002801D1012081
:1005800020E09DF80000002806D0042810D008289C
:1005900006D00C2808D00FE05FF08040286010E003
:1005A0005FF0814028600CE05FF08240286008E046
:1005B0005FF08340286004E0DFF8240A286001200F
:1005C00000E0002032BD70B504000D00EDB2002D3A
:1005D00003D0022D07D003D308E00020060007E077
:1005E0000820060004E00C20060001E0012009E0DC
:1005F0003100C9B2200001F0B9FB002801D101206F
:1006000000E0002070BD000038B52DED028B040025
:10061000B0EE408A9FED6B0AB4EE408AF1EE10FA1C
:1006200001D5002512E09FED680AB4EE408AF1EE94
:1006300010FA01D5082509E09FED640AB4EE408A5E
:10064000F1EE10FA01D50C2500E004252900C9B20D
:10065000200001F08BFB002801D1012000E00020E8
:10066000BDEC028B32BD38B504000D000DF1020166
:10067000200001F0EDFC002801D1012029E00DF15E
:100680000101200001F019FD002801D1012020E026
:1006900000A9200001F046FD002801D1012018E04A
:1006A0009DF80200082801D1012000E000202870F8
:1006B0009DF80100102801D1012000E000206870A1
:1006C0009DF80000202801D1012000E00020A87042
:1006D000002032BD38B504000D002878012801D172
:1006E000082100E00021C9B2200001F08EFC0028A2
:1006F00001D101201CE06878012801D1102100E01F
:100700000021C9B2200001F0B5FC002801D1012070
:100710000EE0A878012801D1202100E00021C9B213
:10072000200001F0DCFC002801D1012000E00020C5
:1007300032BD70B582B0040000A8DFF8381B0A682B
:100740000260A5682E68200000F0CDFA012801D1D2
:10075000012035E00421200001F011FC002801D126
:1007600001202DE04021200001F02CFC002801D1C7
:10077000012025E00021200001F0A0FA002801D18D
:1007800001201DE0DFF87C0B30600021200001F02B
:10079000C1FB002801D1012012E00221200000F05D
:1007A000C7F9012801D101200AE000A9200000F0CA
:1007B0005EFA012801D1012002E00120E070002052
:1007C00076BD0000010000400100804001000041B2
:1007D00070B50400A5682E68200000F084FA012896
:1007E00001D101200BE0200000F020F8012801D108
:1007F000012004E0002030600020E070002070BD87
:1008000070B50400A5682E682079012801D1002068
:100810000BE096ED000A200000F086FC012801D1D3
:10082000012002E001202071002070BD70B504009D
:10083000A5682E682079002801D1002012E031003F
:10084000200000F0B4F8012801D101200AE00021C5
:10085000200001F05FFB002801D1012002E0002010
:100860002071002070BD38B504000D002900200063
:1008700000F02CFA32BD10B50400200000F033FA6D
:1008800010BD3EB504000D000020009001A920001D
:1008900000F0C8FB012801D1012032E000A92000AE
:1008A00000F047F8012801D101202AE0BDF9040039
:1008B00000EE100AB8EEC00ADDED000A20EE200AB4
:1008C000BDEEC00A85ED000ABDF9060000EE100A73
:1008D000B8EEC00ADDED000A20EE200ABDEEC00A27
:1008E00085ED010ABDF9080000EE100AB8EEC00A55
:1008F000DDED000A20EE200ABDEEC00A85ED020AF9
:1009000000203EBD30B583B004000D0000A92000DA
:1009100000F088FB012801D1012009E0BDF80000AA
:100920002880BDF802006880BDF80400A88000207F
:100930003EBD38B504000D000DF10101200001F0AD
:10094000A2FA002801D1012030E09DF80100022820
:1009500003D1DFF8E409286027E000A9200001F0B6
:10096000C7FA002801D1012020E09DF800000028EE
:1009700006D0042808D008280AD00C280CD00FE094
:10098000DFF8B809286010E0DFF8B40928600CE04F
:10099000DFF8B009286008E0DFF8AC09286004E05F
:1009A000DFF83C062860012000E0002032BD38B5A9
:1009B00004000D0000A9200001F0CFFA002801D1A9
:1009C00001203DE09DF80000002810D0102811D033
:1009D000202813D0302815D0402817D0502819D0FF
:1009E00060281BD070281DD080281FD022E0002056
:1009F000286024E0DFF8EC05286020E0DFF8E80557
:100A000028601CE0DFF8E405286018E0DFF8F40354
:100A1000286014E0DFF8D805286010E0DFF8D4057E
:100A200028600CE0DFF8D005286008E0DFF8D0058A
:100A3000286004E0DFF8A8052860012000E000201D
:100A400032BD38B504000D002079012808D12900F5
:100A5000C9B2200000F011FB01280AD1012009E0F1
:100A60002900C9B2200000F031FB012801D101208A
:100A700000E0002032BD10B52DED028B0400B0EE79
:100A8000408A2079012808D1B0EE480A200000F001
:100A90004BFB01280AD1012009E0B0EE480A2000F2
:100AA00000F098FB012801D1012000E00020BDECFE
:100AB000028B10BD38B504000D0000A9200001F024
:100AC000E2F9002801D1012031E00DF101012000FF
:100AD00001F00EFA002801D1012028E09DF8000065
:100AE000022803D1DFF8600B28601FE09DF80100A9
:100AF000002806D0042808D008280AD00C280CD0DA
:100B00000FE0DFF8480B286010E0DFF8440B2860A6
:100B10000CE0DFF8400B286008E0DFF83C0B2860B1
:100B200004E0DFF8BC042860012000E0002032BDB2
:100B300070B504000D00EDB2002D03D0022D07D0DA
:100B400003D308E00020060007E00420060004E0CC
:100B50000C20060001E0012009E03100C9B22000AC
:100B600001F0A3F9002801D1012000E0002070BDB0
:100B700038B52DED028B0400B0EE408A9FEDA20A3D
:100B8000B4EE408AF1EE10FA07D50221200001F000
:100B900057F900282ED101202DE09FED9C0AB4EEDC
:100BA000408AF1EE10FA01D5002512E09FED980A77
:100BB000B4EE408AF1EE10FA01D5042509E09FED6C
:100BC000950AB4EE408AF1EE10FA01D5082500E04E
:100BD0000C250021200001F033F9002801D101206B
:100BE00009E02900C9B2200001F05FF9002801D115
:100BF000012000E00020BDEC028B32BD3CCF00089C
:100C000038B504000D000DF10201200001F0E2FAF8
:100C1000002801D1012029E00DF10101200001F09F
:100C20000EFB002801D1012020E000A9200001F0E6
:100C30003BFB002801D1012018E09DF802000828A4
:100C400001D1012000E0002028709DF8010010284B
:100C500001D1012000E0002068709DF800002028EC
:100C600001D1012000E00020A870002032BD38B57D
:100C700004000D002878012801D1082100E000219E
:100C8000C9B2200001F083FA002801D101201CE044
:100C90006878012801D1102100E00021C9B22000AC
:100CA00001F0AAFA002801D101200EE0A87801285D
:100CB00001D1202100E00021C9B2200001F0D1FAC9
:100CC000002801D1012000E0002032BD38B5040029
:100CD0000D002900200001F037F8002801D1012083
:100CE00000E0002032BD10B582B0040000208DF875
:100CF000000000A92000FFF7E9FF012801D1012031
:100D000007E09DF800002178884201D0012000E032
:100D1000002016BD30B583B004000D0000A80021EE
:100D2000002206C0083800A9200001F067FF002853
:100D300001D1012018E09DF8010000029DF800108B
:100D400050FA81F028809DF8030000029DF80210FF
:100D500050FA81F068809DF8050000029DF80410AB
:100D600050FA81F0A88000203EBD70B504000D004F
:100D7000EDB2002D06D0022D0AD006D3042D0DD0E1
:100D800009D30EE0102006000DE0102006000AE056
:100D90002020060007E03020060004E04020060086
:100DA00001E0012009E03100C9B2200001F013F890
:100DB000002801D1012000E0002070BD10B4020025
:100DC00093681C68C9B2002906D002290AD006D34C
:100DD00004290DD009D30FE0824820600EE081483D
:100DE00020600BE08048206008E08048206005E03B
:100DF000DFF81005206001E0012000E0002010BCB9
:100E0000704700000000D0420100FA420100754323
:100E10000100FA4301007A4438B52DED028B04003D
:100E2000B0EE408A9FED750AB4EE408AF1EE10FAFA
:100E300001D5102551E09FED740AB4EE408AF1EE21
:100E400010FA01D5202548E09FED720AB4EE408AE1
:100E5000F1EE10FA01D530253FE09FED6F0AB4EEB8
:100E6000408AF1EE10FA01D5402536E09FED6B0A7D
:100E7000B4EE408AF1EE10FA01D550252DE09FED39
:100E8000A60AB4EE408AF1EE10FA01D5602524E0FE
:100E90009FEDA20AB4EE408AF1EE10FA01D570255A
:100EA0001BE09FED9F0AB4EE408AF1EE10FA01D5E7
:100EB000802512E09FED9B0AB4EE408AF1EE10FA15
:100EC00001D5902509E09FEDC20AB4EE408AF1EE0B
:100ED00010FA01D5A02500E0B0252900C9B22000F4
:100EE00000F079FF002801D1012000E00020BDECD6
:100EF000028B32BD23DB793D23DBF93D23DB793ED9
:100F000023DBF93E01008A681368DFED3C0AB4EE8A
:100F1000600AF1EE10FA02D5F2EE0A0A5BE0DFEDAC
:100F20003A0AB4EE600AF1EE10FA02D5F3EE0A0ABC
:100F300051E0DFED380AB4EE600AF1EE10FA02D5A6
:100F4000DFED2A0A47E0DFED340AB4EE600AF1EE85
:100F500010FA02D5DFED320A3DE0DFED300AB4EEE3
:100F6000600AF1EE10FA02D5DFED210A33E0DFED81
:100F70006A0AB4EE600AF1EE10FA02D5DFED1D0A3E
:100F800029E0DFED660AB4EE600AF1EE10FA02D550
:100F9000DFED190A1FE0DFED620AB4EE600AF1EE40
:100FA00010FA02D5DFED160A15E0DFED5E0AB4EEA9
:100FB000600AF1EE10FA02D5DFED120A0BE0DFED68
:100FC000840AB4EE600AF1EE10FA02D5DFED0F0AE2
:100FD00001E0DFED0F0AC3ED000A002070470000BA
:100FE000000080BF000050410000D041000050428E
:100FF000000050430000D0430040504401005041E5
:101000000080CF44002050450100D0410020D04551
:1010100000485046010050420100D04201005043B8
:101020000000D04230B583B004000D0000A80021BC
:10103000002206C0083800A9200001F0B4FD0028F5
:1010400001D1012018E09DF8010000029DF8001078
:1010500050FA81F028809DF8030000029DF80210EC
:1010600050FA81F068809DF8050000029DF8041098
:1010700050FA81F0A88000203EBD70B504000D003C
:10108000EDB2002D06D0022D0AD006D3042D0DD0CE
:1010900009D30EE0102006000DE0102006000AE043
:1010A0002020060007E03020060004E04020060073
:1010B00001E0012009E03100C9B2200000F02AFF60
:1010C000002801D1012000E0002070BD10B4020012
:1010D00093681C68C9B2002906D002290CD007D336
:1010E000042910D00CD311E0DFF8940920600FE040
:1010F000DFF88C0920600BE0DFF88809206007E04A
:101100008848206004E07F48206001E0012000E082
:10111000002010BC704700000100D0430140504443
:101120000180CF440120504538B52DED028B0400DD
:10113000B0EE408A9FED740AB4EE408AF1EE10FAE8
:1011400001D5102536E09FED710AB4EE408AF1EE2C
:1011500010FA01D520252DE09FED6D0AB4EE408AEE
:10116000F1EE10FA01D5302524E09FED6A0AB4EEC5
:10117000408AF1EE10FA01D540251BE09FED660A8A
:10118000B4EE408AF1EE10FA01D5502512E09FED41
:10119000630AB4EE408AF1EE10FA01D5602509E049
:1011A0009FED5F0AB4EE408AF1EE10FA01D570258A
:1011B00000E080252900C9B2200000F0ABFE002825
:1011C00001D1012000E00020BDEC028B32BD000007
:1011D0000120D04501008A681368DFED4B0AB4EEA8
:1011E000600AF1EE10FA02D5F2EE0A0A3DE0DFEDF8
:1011F000470AB4EE600AF1EE10FA02D5F3EE0A0ADD
:1012000033E0DFED430AB4EE600AF1EE10FA02D5E6
:10121000DFED440A29E0DFED3F0AB4EE600AF1EEAB
:1012200010FA02D5DFED370A1FE0DFED3B0AB4EE1E
:10123000600AF1EE10FA02D5DFED3B0A15E0DFEDB2
:10124000370AB4EE600AF1EE10FA02D5DFED370A84
:101250000BE0DFED330AB4EE600AF1EE10FA02D5CE
:10126000DFED330A01E0DFED330AC3ED000A0020B1
:101270007047000040CF000810B504009FED2B0A16
:101280002000FFF754F9012801D1012038E00021A6
:10129000200000F06BFD002801D1012030E0062184
:1012A000200001F061FB002801D1012028E000218D
:1012B000200001F010FB002801D1012020E00021D6
:1012C000200001F0E5FA002801D1012018E00021FA
:1012D000200001F0B8FA002801D1012010E003211C
:1012E000200000F06AF8012801D1012008E0102157
:1012F000200001F0EFFB002801D1012000E00020D8
:1013000010BD00000000D042010050410100D0415A
:10131000010050420100D042010050430100D0437F
:101320000140504400005042000050430000D043B0
:10133000004050440080CF4400008C4000000C412D
:1013400000008C4100000C4200008C4210B50400EB
:101350000021200001F0BEFB002801D1012010E097
:101360000021200001F000FB002801D1012008E04D
:101370000021200001F0D5FA002801D1012000E071
:10138000002010BD38B504000D0000A9200000F0B9
:10139000D2FF002801D101200EE09DF800000028B6
:1013A00004D0202805D10120287004E000202870F6
:1013B00001E0012000E0002032BD38B504000D003E
:1013C0002900C9B2200001F0ACFA002801D10120A7
:1013D00000E0002032BD10B50400B3EE0A0A200080
:1013E000FFF7A5F8012801D1012028E00021200005
:1013F00000F0BCFC002801D1012020E017212000D2
:1014000000F082F8012801D1012018E00421200019
:1014100000F05CFF002801D1012010E040212000F5
:1014200001F0EDF8002801D1012008E08021200022
:1014300000F067FC002801D1012000E0002010BD71
:1014400010B504000021200000F05BFC002801D151
:10145000012018E00021200001F0D1F8002801D17E
:10146000012010E00021200000F030FF002801D111
:10147000012008E00021200000F046F8012801D1F9
:10148000012000E0002010BD38B504000D0000A9C7
:10149000200001F004F8002801D101200EE09DF8A1
:1014A0000000002804D0102805D10120287004E095
:1014B0000020287001E0012000E0002032BD38B596
:1014C00004000D002900200001F0C3FB002801D119
:1014D000012000E0002032BD10B5040002212000F0
:1014E00000F032FE002801D1012000E0002010BDF4
:1014F00010B504000021200000F026FE002801D1D4
:10150000012000E0002010BD38B504000D002900C6
:10151000C9B2200001F0C8FB002801D1012000E081
:10152000002032BD10B50400B3EE0A0A2000FEF719
:10153000FEFF012801D1012020E00021200000F061
:1015400015FC002801D1012018E00421200000F042
:10155000BDFE002801D1012010E02021200001F073
:101560002BF8002801D1012008E00221200001F021
:1015700048FA002801D1012000E0002010BD10B57C
:1015800004000021200001F03CFA002801D10120D4
:1015900010E00021200001F00FF8002801D1012007
:1015A00008E00021200000F091FE002801D1012078
:1015B00000E0002010BD38B504000D0000A9200097
:1015C00000F07FFF002801D101200EE09DF800000F
:1015D000002804D0202805D10120287004E0002034
:1015E000287001E0012000E0002032BD10B50400A9
:1015F0009FEDBE0A2000FEF79AFF012801D10120CD
:1016000020E00021200000F0B1FB002801D10120E2
:1016100018E00021200001F05EF9002801D101202E
:1016200010E00221200001F0C6F8002801D10120BD
:1016300008E02021200001F070FA002801D10120EB
:1016400000E0002010BD00000000FA4200007543D9
:101650000000FA4300007A440000FA4410B5040088
:101660000021200001F059FA002801D1012010E0EA
:101670000021200001F02FF9002801D1012008E00D
:101680000021200001F097F8002801D1012000E09E
:10169000002010BD38B504000D0000A9200000F0A6
:1016A00038FE002801D101200EE09DF8000000283E
:1016B00004D0082805D10120287004E000202870FB
:1016C00001E0012000E0002032BD38B504000D002B
:1016D0002900C9B2200001F06EF8002801D10120D4
:1016E00000E0002032BD000010B504009FED7F0A2D
:1016F0002000FEF71CFF012801D1012040E000215D
:10170000200000F033FB002801D1012038E008213F
:10171000200000F02EFF002801D1012030E004213C
:10172000200000F003FF002801D1012028E0022161
:10173000200000F0D8FE002801D1012020E008217F
:10174000200000F03CF9012801D1012018E002211D
:10175000200000F042F9012801D1012010E0012110
:10176000200000F048F9012801D1012008E04021C3
:10177000200001F0F5F9002801D1012000E000204F
:1017800010BD10B504000021200001F0E9F9002887
:1017900001D1012030E00021200000F010F90128E3
:1017A00001D1012028E00021200000F016F90128D5
:1017B00001D1012020E00021200000F01CF90128C7
:1017C00001D1012018E00021200000F08CFE00284B
:1017D00001D1012010E00021200000F0A7FE002828
:1017E00001D1012008E00021200000F0C2FE002805
:1017F00001D1012000E0002010BD38B504000D002B
:1018000000A9200000F0BBFD002801D101200EE05E
:101810009DF80000002804D0202805D10120287060
:1018200004E00020287001E0012000E0002032BD2B
:1018300010B504009FED2D0A2000FEF778FE012868
:1018400001D1012050E00021200000F08FFA002893
:1018500001D1012048E00821200000F08AFE002884
:1018600001D1012040E00421200000F05FFE0028AB
:1018700001D1012038E00221200000F034FE0028D0
:1018800001D1012030E00821200000F098F8012863
:1018900001D1012028E00321200000F09EF801285A
:1018A00001D1012020E00321200000F0A4F801284C
:1018B00001D1012018E00821200000F0AAF8012839
:1018C00001D1012010E08021200000F099FF0028C4
:1018D00001D1012008E00821200001F0D8F80028FB
:1018E00001D1012000E0002010BD00000000D04325
:1018F00010B504000021200001F0C9F8002801D132
:10190000012040E00021200000F059F8012801D119
:10191000012038E00021200000F05FF8012801D10B
:10192000012030E00021200000F065F8012801D1FD
:10193000012028E00021200000F06BF8012801D1EF
:10194000012020E00021200000F05AFF002801D1F2
:10195000012018E00021200000F0C5FD002801D181
:10196000012010E00021200000F0E0FD002801D15E
:10197000012008E00021200000F0FBFD002801D13B
:10198000012000E0002010BD38B504000D0000A9C2
:10199000200000F0E2FC002801D101200EE09DF8BB
:1019A0000000002804D0102805D10120287004E090
:1019B0000020287001E0012000E0002032BD38B591
:1019C00004000D002900C9B2200000F03BFE0028F1
:1019D00001D1012000E0002032BD38B504000D0027
:1019E0002900C9B2200000F075FE002801D10120B5
:1019F00000E0002032BD38B504000D002900C9B256
:101A0000200000F08CFE002801D1012000E0002021
:101A100032BD38B504000D002900C9B2200000F025
:101A2000A4FE002801D1012000E0002032BD00000A
:101A300010B504009FED110A2000FEF778FD012883
:101A400001D1012018E00021200000F08FF90028CA
:101A500001D1012010E04021200000F018FE0028F4
:101A600001D1012008E00421200000F0EDFF002852
:101A700001D1012000E0002010BD00000000D04393
:101A8000000050410000D04110B5040000212000AA
:101A900000F0DAFF002801D1012008E00021200039
:101AA00000F0F5FD002801D1012000E0002010BD6C
:101AB00038B504000D0000A9200000F0DEFC00286D
:101AC00001D101200EE09DF80000002804D040283C
:101AD00005D10120287004E00020287001E00120D9
:101AE00000E0002032BD38B504000D0000A9200040
:101AF00000F057FC002801D101200EE09DF8000005
:101B0000002804D0012805D10120287004E000201D
:101B1000287001E0012000E0002032BD38B504004B
:101B20000D0000A9200000F04EFC002801D101208A
:101B30000EE09DF80000002804D0022805D1012005
:101B4000287004E00020287001E0012000E000205F
:101B500032BD38B504000D0000A9200000F045FC9E
:101B6000002801D101200EE09DF80000002804D0DB
:101B7000042805D10120287004E00020287001E02D
:101B8000012000E0002032BD38B504000D0000A99E
:101B9000200000F03CFC002801D101200EE09DF85F
:101BA0000000002804D0082805D10120287004E096
:101BB0000020287001E0012000E0002032BD38B58F
:101BC00004000D0000A9200000F033FC002801D122
:101BD00001200EE09DF80000002804D0102805D157
:101BE0000120287004E00020287001E0012000E0BE
:101BF000002032BD38B504000D0000A9200000F01F
:101C00002AFC002801D101200EE09DF800000028E8
:101C100004D0202805D10120287004E0002028707D
:101C200001E0012000E0002032BD0268531C036087
:101C30001170704770B504000D00160001233200CA
:101C40002900C9B2200001F0BCF8002801D0002012
:101C500000E0012070BD34B504000D00012300AA8E
:101C60002900C9B2200001F095F8002801D0002019
:101C700000E0012032BD38B504000D0000AA0121AA
:101C80002000FFF7D7FF002801D1002015E09DF8C4
:101C9000000010F07F008DF800009DF80000284340
:101CA0008DF800009DF8002001212000FFF7D3FFF0
:101CB000002801D1002000E0012032BD38B5040029
:101CC0000D0000AA0A212000FFF7B4FF002801D16F
:101CD000002015E09DF8000010F0F8008DF80000DD
:101CE0009DF8000028438DF800009DF800200A218F
:101CF0002000FFF7B0FF002801D1002000E0012004
:101D000032BD38B504000D0000AA0D212000FFF7F8
:101D100091FF002801D1002015E09DF8000010F08F
:101D20007F008DF800009DF8000028438DF800002A
:101D30009DF800200D212000FFF78DFF002801D124
:101D4000002000E0012032BD38B504000D002A005B
:101D50000F212000FFF76EFF002801D1002004E0D2
:101D60002878287028782870012032BD38B5040002
:101D70000D0000AA10212000FFF75CFF002801D110
:101D8000002015E09DF8000010F0F3008DF8000031
:101D90009DF8000028438DF800009DF800201021D8
:101DA0002000FFF758FF002801D1002000E00120AB
:101DB00032BD38B504000D002A0010212000FFF7C5
:101DC00039FF002801D1002004E0287810F00C0031
:101DD0002870012032BD38B504000D0000AA102182
:101DE0002000FFF727FF002801D1002015E09DF813
:101DF000000010F00F008DF800009DF8000028434F
:101E00008DF800009DF8002010212000FFF723FF2F
:101E1000002801D1002000E0012032BD38B50400C7
:101E20000D002A0010212000FFF704FF002801D137
:101E3000002004E0287810F0F0002870012032BD66
:101E400038B504000D0000AA11212000FFF7F2FEB2
:101E5000002801D1002015E09DF8000010F0FD00E1
:101E60008DF800009DF8000028438DF800009DF8D3
:101E7000002011212000FFF7EEFE002801D10020F4
:101E800000E0012032BD38B504000D002A00112108
:101E90002000FFF7CFFE002801D1002004E02878C1
:101EA00010F002002870012032BD38B504000D008A
:101EB00000AA11212000FFF7BDFE002801D100205B
:101EC00015E09DF8000010F0F3008DF800009DF87B
:101ED000000028438DF800009DF80020112120000B
:101EE000FFF7B9FE002801D1002000E0012032BD3B
:101EF00038B504000D002A0011212000FFF79AFEDA
:101F0000002801D1002004E0287810F00C0028708F
:101F1000012032BD38B504000D0000AA11212000B7
:101F2000FFF788FE002801D1002015E09DF8000091
:101F300010F00F008DF800009DF8000028438DF888
:101F400000009DF8002011212000FFF784FE0028EA
:101F500001D1002000E0012032BD38B504000D00A1
:101F60002A0011212000FFF765FE002801D1002082
:101F700004E0287810F0F0002870012032BD38B558
:101F800004000D0000AA12212000FFF753FE0028D4
:101F900001D1002015E09DF8000010F0FB008DF845
:101FA00000009DF8000028438DF800009DF80020F7
:101FB00012212000FFF74FFE002801D1002000E091
:101FC000012032BD38B504000D0000AA1221200006
:101FD000FFF730FE002801D1002015E09DF8000039
:101FE00010F0BF008DF800009DF8000028438DF828
:101FF00000009DF8002012212000FFF72CFE002891
:1020000001D1002000E0012032BD38B504000D00F0
:1020100000AA18212000FFF70DFE002801D10020A2
:1020200015E09DF8000010F0F7008DF800009DF815
:10203000000028438DF800009DF8002018212000A2
:10204000FFF709FE002801D1002000E0012032BD89
:1020500038B504000D002A0018212000FFF7EAFD22
:10206000002801D1002004E0287810F00800287032
:10207000012032BD38B504000D0000AA182120004F
:10208000FFF7D8FD002801D1002015E09DF80000E1
:1020900010F0EF008DF800009DF8000028438DF847
:1020A00000009DF8002018212000FFF7D4FD002833
:1020B00001D1002000E0012032BD38B504000D0040
:1020C0002A0018212000FFF7B5FD002801D10020CB
:1020D00004E0287810F010002870012032BD38B5D7
:1020E00004000D0000AA18212000FFF7A3FD00281E
:1020F00001D1002015E09DF8000010F0DF008DF800
:1021000000009DF8000028438DF800009DF8002095
:1021100018212000FFF79FFD002801D1002000E0DA
:10212000012032BD38B504000D002A00182120001E
:10213000FFF780FD002801D1002004E0287810F08E
:1021400020002870012032BD38B504000D0000AA1F
:1021500019212000FFF76EFD002801D1002015E0B5
:102160009DF8000010F0FD008DF800009DF80000C3
:1021700028438DF800009DF8002019212000FFF76A
:102180006AFD002801D1002000E0012032BD38B5F1
:1021900004000D0000AA19212000FFF74BFD0028C4
:1021A00001D1002015E09DF8000010F0F7008DF837
:1021B00000009DF8000028438DF800009DF80020E5
:1021C00019212000FFF747FD002801D1002000E081
:1021D000012032BD38B504000D002A00192120006D
:1021E000FFF728FD002801D1002004E0287810F036
:1021F00008002870012032BD38B504000D0000AA87
:1022000019212000FFF716FD002801D1002015E05C
:102210009DF8000010F0EF008DF800009DF8000020
:1022200028438DF800009DF8002019212000FFF7B9
:1022300012FD002801D1002000E0012032BD38B598
:1022400004000D002A0019212000FFF7F3FC0028EC
:1022500001D1002004E0287810F01000287001203F
:1022600032BD38B504000D0000AA19212000FFF787
:10227000E1FC002801D1002015E09DF8000010F0DD
:10228000DF008DF800009DF8000028438DF8000065
:102290009DF8002019212000FFF7DDFC002801D166
:1022A000002000E0012032BD38B504000D002A00F6
:1022B00019212000FFF7BEFC002801D1002004E016
:1022C000287810F020002870012032BD38B50400B5
:1022D0000D0000AA19212000FFF7ACFC002801D155
:1022E000002015E09DF8000010F0FB008DF80000C4
:1022F0009DF8000028438DF800009DF8002019216A
:102300002000FFF7A8FC002801D1002000E00120F8
:1023100032BD38B504000D002A001B212000FFF754
:1023200089FC002801D1002004E0287810F0080082
:102330002870012032BD38B504000D002A001B2191
:102340002000FFF777FC002801D1002004E0287866
:1023500010F020002870012032BD38B504000D00B7
:102360002A001C212000FFF765FC002801D1002075
:1023700004E0287810F010002870012032BD38B534
:1023800004000D002A001C212000FFF753FC002848
:1023900001D1002004E0287810F0200028700120EE
:1023A00032BD38B504000D002A001D212000FFF7C2
:1023B00041FC002801D1002004E0287810F0010041
:1023C0002870012032BD38B504000D002A001D21FF
:1023D0002000FFF72FFC002801D1002004E028781E
:1023E00010F002002870012032BD38B504000D0045
:1023F0002A001D212000FFF71DFC002801D100202C
:1024000004E0287810F004002870012032BD38B5AF
:1024100004000D002A001D212000FFF70BFC0028FE
:1024200001D1002004E0287810F008002870012075
:1024300032BD38B504000D002A001D212000FFF731
:10244000F9FB002801D1002004E0287810F01000EA
:102450002870012032BD38B504000D002A001D216E
:102460002000FFF7E7FB002801D1002004E02878D6
:1024700010F020002870012032BD38B504000D0096
:102480002A001D212000FFF7D5FB002801D10020E4
:1024900004E0287810F040002870012032BD38B5E3
:1024A00004000D002A0053212000FFF7C3FB002881
:1024B00001D1002004E0287810F0100028700120DD
:1024C00032BD38B504000D002A0053212000FFF76B
:1024D000B1FB002801D1002004E0287810F0200092
:1024E0002870012032BD38B504000D0000AA582123
:1024F0002000FFF79FFB002801D1002015E09DF888
:10250000000010F0FD008DF800009DF80000284349
:102510008DF800009DF8002058212000FFF79BFB5C
:10252000002801D1002000E0012032BD38B50400B0
:102530000D0000AA58212000FFF77CFB002801D1E4
:10254000002015E09DF8000010F0FB008DF8000061
:102550009DF8000028438DF800009DF800205821C8
:102560002000FFF778FB002801D1002000E00120C7
:1025700032BD38B504000D0000AA58212000FFF735
:1025800059FB002801D1002015E09DF8000010F053
:10259000F7008DF800009DF8000028438DF800003A
:1025A0009DF8002058212000FFF755FB002801D19D
:1025B000002000E0012032BD38B504000D0000AA63
:1025C00058212000FFF736FB002801D1002015E03C
:1025D0009DF8000010F0DF008DF800009DF800006D
:1025E00028438DF800009DF8002058212000FFF7B7
:1025F00032FB002801D1002000E0012032BD38B5B7
:1026000004000D0000AA58212000FFF713FB00284A
:1026100001D1002015E09DF8000010F0BF008DF8FA
:1026200000009DF8000028438DF800009DF8002070
:1026300058212000FFF70FFB002801D1002000E007
:10264000012032BD38B504000D0015F01F0500AAA9
:1026500059212000FFF7EEFA002801D1002015E0F3
:102660009DF8000010F0E0008DF800009DF80000DB
:1026700028438DF800009DF8002059212000FFF725
:10268000EAFA002801D1002000E0012032BD38B56F
:1026900004000D0000AA59212000FFF7CBFA002802
:1026A00001D1002015E09DF8000010F09F008DF88A
:1026B00000009DF8000028438DF800009DF80020E0
:1026C00059212000FFF7C7FA002801D1002000E0BF
:1026D000012032BD38B504000D0015F0030500AA35
:1026E0005A212000FFF7A6FA002801D1002015E0AA
:1026F0009DF8000010F0FC008DF800009DF800002F
:1027000028438DF800009DF800205A212000FFF793
:10271000A2FA002801D1002000E0012032BD38B526
:1027200004000D00AD0015F00C0500AA5A21200090
:10273000FFF780FA002801D1002015E09DF8000085
:1027400010F0F3008DF800009DF8000028438DF88C
:1027500000009DF800205A212000FFF77CFA002895
:1027600001D1002000E0012032BD38B504000D0089
:102770002D0115F0F00500AA5A212000FFF75AFAA2
:10278000002801D1002015E09DF8000010F00F0096
:102790008DF800009DF8000028438DF800009DF89A
:1027A00000205A212000FFF756FA002801D100200E
:1027B00000E0012032BD38B504000D0015F03F05E2
:1027C00000AA5B212000FFF735FA002801D1002084
:1027D00015E09DF8000010F0C0008DF800009DF895
:1027E000000028438DF800009DF800205B212000A8
:1027F000FFF731FA002801D1002000E0012032BDAE
:1028000038B504000D0000AA5B212000FFF712FA82
:10281000002801D1002015E09DF8000010F07F0095
:102820008DF800009DF8000028438DF800009DF809
:1028300000205B212000FFF70EFA002801D10020C4
:1028400000E0012032BD38B504000D0015F00F0581
:1028500000AA5C212000FFF7EDF9002801D100203B
:1028600015E09DF8000010F0F0008DF800009DF8D4
:10287000000028438DF800009DF800205C21200016
:10288000FFF7E9F9002801D1002000E0012032BD66
:1028900038B504000D0000AA5C212000FFF7CAF93A
:1028A000002801D1002015E09DF8000010F0EF0095
:1028B0008DF800009DF8000028438DF800009DF879
:1028C00000205C212000FFF7C6F9002801D100207C
:1028D00000E0012032BD38B504000D006D0115F097
:1028E000600500AA5C212000FFF7A4F9002801D1AF
:1028F000002015E09DF8000010F09F008DF800000A
:102900009DF8000028438DF800009DF800205C2110
:102910002000FFF7A0F9002801D1002000E00120ED
:1029200032BD38B504000D0000AA5D212000FFF77C
:1029300081F9002801D1002015E09DF8000010F079
:10294000F8008DF800009DF8000028438DF8000085
:102950009DF800205D212000FFF77DF9002801D1BE
:10296000002000E0012032BDF8B504000D0015F094
:102970001F000700C5F340100600FF0017F0F8071E
:1029800000AA5D212000FFF755F9002801D10020A1
:1029900036E09DF8000010F007008DF800009DF86B
:1029A000000038438DF800009DF800205D212000D4
:1029B000FFF751F9002801D1002021E0F60116F0BF
:1029C000800600AA5C212000FFF734F9002801D11D
:1029D000002015E09DF8000010F07F008DF8000049
:1029E0009DF8000030438DF800009DF800205C2128
:1029F0002000FFF730F9002801D1002000E001207D
:102A0000F2BD38B504000D0000AA5E212000FFF7DA
:102A100011F9002801D1002015E09DF8000010F008
:102A2000FD008DF800009DF8000028438DF800009F
:102A30009DF800205E212000FFF70DF9002801D14C
:102A4000002000E0012032BD38B504000D0000AACE
:102A50005E212000FFF7EEF8002801D1002015E0EC
:102A60009DF8000010F0FB008DF800009DF80000BC
:102A700028438DF800009DF800205E212000FFF71C
:102A8000EAF8002801D1002000E0012032BD38B56D
:102A900004000D0000AA5E212000FFF7CBF80028FB
:102AA00001D1002015E09DF8000010F0F7008DF82E
:102AB00000009DF8000028438DF800009DF80020DC
:102AC0005E212000FFF7C7F8002801D1002000E0B8
:102AD000012032BD38B504000D0000AA5E2120009F
:102AE000FFF7A8F8002801D1002015E09DF80000AC
:102AF00010F0EF008DF800009DF8000028438DF8DD
:102B000000009DF800205E212000FFF7A4F80028B7
:102B100001D1002000E0012032BD38B504000D00D5
:102B200000AA5E212000FFF785F8002801D10020CF
:102B300015E09DF8000010F0DF008DF800009DF812
:102B4000000028438DF800009DF800205E21200041
:102B5000FFF781F8002801D1002000E0012032BDFC
:102B600038B504000D0000AA5E212000FFF762F8CE
:102B7000002801D1002015E09DF8000010F0BF00F2
:102B80008DF800009DF8000028438DF800009DF8A6
:102B900000205E212000FFF75EF8002801D1002010
:102BA00000E0012032BD2DE9F84304000D000220B1
:102BB00081460020804600200600F6B2032E1ADA75
:102BC00000200700FFB25FFA89F94F4511D25FFA82
:102BD00088F818EB050218F12201C9B22000FFF7AE
:102BE00029F8002801D1002006E018F101087F1C17
:102BF000E8E7761CE1E70120BDE8F2832DE9F84320
:102C000004000D00022081460020804600200600BE
:102C1000F6B2032E1ADA00200700FFB25FFA89F934
:102C20004F4511D25FFA88F818EB050218F1280118
:102C3000C9B22000FEF7FEFF002801D1002006E007
:102C400018F101087F1CE8E7761CE1E70120BDE8E8
:102C5000F2832DE9F84304000D0002208146002094
:102C6000804600200600F6B2002E1AD10020070090
:102C7000FFB25FFA89F94F4511D25FFA88F818EB75
:102C8000050218F14B01C9B22000FEF7D3FF00285E
:102C900001D1002006E018F101087F1CE8E7761C4E
:102CA000E1E70120BDE8F28338B504000D00802182
:102CB0002000FEF7E0FF00AA0F212000FEF7BAFF78
:102CC0009DF8000010F0E0008DF800009DF8000075
:102CD00015F01F0108438DF800009DF800200F211A
:102CE0002000FEF7B8FF00212000FEF7C4FF0120FE
:102CF00032BD200080B500F07BF8002801D0012013
:102D000000E0002002BD0020704700B58BB09C4859
:102D1000006850F001009A4908609948006810F076
:102D2000010000900098102006909648079002201D
:102D300009900020089006A9934800F035F9002278
:102D400000210A2000F0B6FA0A2000F0C6FA8C48EA
:102D5000006850F002008A4908608948006810F055
:102D60000200009000980120019086480290022005
:102D700004900020039001A9844800F015F9002276
:102D80000021062000F096FA062000F0A6FA0020A6
:102D90000BB000BD2DE9F04104000D0016001F002E
:102DA000A0463B009BB232002900C9B298F801004E
:102DB00000F042F8002801D0012000E00020BDE82A
:102DC000F0812DE9F04104000D0016001F00A0461F
:102DD0003B009BB232002900C9B298F8010000F014
:102DE00055F8002801D0012000E00020BDE8F08166
:102DF00080B5674800F0FEFC002814D1654864499E
:102E0000486000206249886033206149C8604FF4FF
:102E100080405F49086160485D49086000F068F8DB
:102E20005B4800F077FA5A4800F0E4FC012801D131
:102E3000002000E0012002BD2DE9F04184B0040033
:102E40000D0016001F005FF0000854480068029053
:102E5000380080B2019000960123EDB22A0092B2B0
:102E6000E4B2210089B24A4800F006FB80465FFACE
:102E700088F8B8F1000F05D02000C0B200F030F89B
:102E8000012000E0002004B0BDE8F0812DE9F04110
:102E900084B004000D0016001F005FF000083F48DA
:102EA00000680290380080B2019000960123EDB2D4
:102EB0002A0092B2E4B2210089B2354800F06EFBDC
:102EC00080465FFA88F8B8F1000F05D02000C0B244
:102ED00000F006F8012000E0002004B0BDE8F08119
:102EE00010B504002A4800F0A4FAFFF781FF10BDD6
:102EF00000B587B02248006850F002002049086001
:102F00001F48006810F00200009000984FF44070D5
:102F100001901220029002200490002003900420CF
:102F2000059001A9194800F03FF81D48006850F4C9
:102F300000101B4908601A48006810F40010009047
:102F400000981848006850F40010164908601548A9
:102F5000006830F4001013490860002200211F208F
:102F600000F0A8F91F2000F0B8F90022002120206D
:102F700000F0A0F9202000F0B0F907B000BD00007B
:102F800030380240000011100000024000040240EE
:102F9000C80A0020801A06000054004004040020E3
:102FA0004038024020380240F8B4002300240025B5
:102FB00000263200102A80F0D68001269640330089
:102FC0000E681E4034009C4240F0CB804E68022EBA
:102FD00002D04E68122E16D1D60810EB8606366A3D
:102FE00035000F2612F00707FFB2BF00BE40B54301
:102FF0000E6912F00707FFB2BF00BE403543D60886
:1030000010EB860635620668350003261700FFB20E
:103010007F00BE40B5430E7916F003061700FFB2DD
:103020007F00BE40354305604E68012E08D04E68D3
:10303000022E05D04E68112E02D04E68122E19D1E4
:103040008668350003261700FFB27F00BE40B543F7
:10305000CE681700FFB27F00BE40354385604668EA
:10306000350001269640B5434E68C6F300169640DB
:1030700035434560C668350003261700FFB27F0060
:10308000BE40B5438E681700FFB27F00BE40354397
:10309000C5604E68F60064D5434E366856F48046E7
:1030A000414F3E60404E366816F480460096009EC2
:1030B0003E4E970856F8276035000F2612F003079A
:1030C000FFB2BF00BE40B543394EB04201D1002629
:1030D00014E0384EB04201D101260FE0364EB04226
:1030E00001D102260AE0354EB04201D1032605E0A7
:1030F000334EB04201D1042600E00526F6B212F0AC
:103100000307FFB2BF00BE403543284E970846F87C
:1031100027502C4E36683500A5434E68F60300D57F
:103120002543284E3560284E36683500A5434E6845
:10313000B60300D52543244E3560244E366835004D
:10314000A5434E68F60200D52543204E3560204E3B
:1031500036683500A5434E68B60200D525431C4E9F
:103160003560521C26E7F1BC7047D2B2002A02D06B
:1031700089B2816102E089B20B04836170474269C0
:1031800089B24A404261704710B504001148006896
:10319000A4B2204206D0A4B20E480460200080B23F
:1031A00001F089F810BD00004438024008380140A1
:1031B000000002400004024000080240000C0240EF
:1031C00000100240003C0140043C0140083C01402A
:1031D0000C3C0140143C014010F00702454B1B68B9
:1031E00019004FF6FF031940434B53EA02231943DA
:1031F000404B196070473F480068C0F30220704799
:10320000012110F01F0291403C4A40B2430942F8AC
:103210002310704710B440B2002808D50A01384B7B
:1032200040B210F00F04E31803F8042C03E00A0185
:10323000344B40B2C25410BC704770B4030013F05A
:103240000704D4F10706052E01D3042001E0D4F1D0
:103250000700261D072E01D2002500E0E51E0126ED
:1032600016FA00F0401E0840A8400121A940491E5E
:103270001140084370BC704710B50400601EB0F1E7
:10328000807F01D301200EE0601E1F4908600F21DE
:103290005FF0FF30FFF7BEFF00201C4908600720E9
:1032A0001B490860002010BD10B504002000FFF786
:1032B00093FF10BDF8B504000D0016000027FFF7BE
:1032C0009AFF0700320029003800FFF7B6FF01001F
:1032D000200040B2FFF79EFFF1BD10B504002000B2
:1032E00040B2FFF78DFF10BD10B504002000FFF7BE
:1032F000C3FF10BD0CED00E00000FA0500E100E0A6
:1033000018ED00E000E400E014E000E018E000E068
:1033100010E000E070B5040000250026002C01D16B
:10332000012085E094F83500002805D1002084F8BC
:103330003400200000F099F8022084F8350020685D
:103340000068400840002168086001F0C8FB0600E2
:10335000DFF81C01B6FBF0F00500206845606068EE
:10336000DFF81011884201D2681C08E04FF4967013
:1033700000FB05F04FF47A71B0FBF1F0401C2168BE
:1033800008626068DFF8EC1088420ED26068400086
:10339000B6FBF0F00005000D042801D204202AE05D
:1033A00060684000B6FBF0F025E0A068002805D179
:1033B000606803214843B6FBF0F006E0606819211D
:1033C0004843B6FBF0F050F48040000501D10120E5
:1033D00011E0A068002805D1606803214843B6FBCE
:1033E000F0F006E0606819214843B6FBF0F050F4B5
:1033F000804050F400402168C861E069216A0843B8
:10340000216808602069E168084321688860606974
:10341000A16908432168C8602068006850F0010075
:10342000216808600020A063012084F83500002096
:1034300070BD10B50400002C01D1012014E0022061
:1034400084F8350020680068400840002168086062
:10345000200000F00BF80020A063002084F8350065
:10346000002084F83400002010BD70477047000031
:1034700040420F00A18601002DE9F04782B005000F
:103480000E0017009846DDF828900B9CDDF830A060
:1034900095F8350001287CD1B9F1000F02D0A4B213
:1034A000002C01D1012075E042F210730122DFF8F7
:1034B0004013280000F092FA002801D0022069E0B1
:1034C00095F83400012801D1022063E0012085F83D
:1034D00034002868006830F40060296808603220F1
:1034E00085F835000020A863CDF800A043469BB2C4
:1034F0003A0092B2310089B2280000F081F9002828
:103500000CD0A86B042804D1002085F834000120D9
:1035100040E0002085F8340003203BE0A4B2002CFA
:103520001FD0534600221C49280000F057FA0028FB
:1035300001D003202EE099F800002968086119F1F4
:103540000109641E286840694007E7D5A4B2002C31
:10355000E4D099F800002968086119F10109641E96
:10356000DCE7534600220C49280000F037FA002817
:1035700001D003200EE02868006850F4007029682C
:103580000860012085F83500002085F8340000200F
:1035900000E00220BDE8F687800001002DE9F04739
:1035A00082B005000E0017009846DDF828900B9CAD
:1035B000DDF830A095F83500012840F01481B9F10C
:1035C000000F02D0A4B2002C01D101200CE142F284
:1035D00010730122DFF81812280000F0FFF900280C
:1035E00001D0022000E195F83400012801D1022029
:1035F000FAE0012085F834002868006830F40060A3
:1036000029680860422085F835000020A863CDF8BD
:1036100000A043469BB23A0092B2310089B2280022
:1036200000F049F900280CD0A86B042804D1002030
:1036300085F834000120D7E0002085F8340003200D
:10364000D2E0A4B2012C13D12868006830F4806065
:10365000296808602868406900902868806900909F
:1036600000982868006850F40070296808601DE020
:10367000A4B2022C13D12868006830F48060296855
:1036800008602868006850F40060296808602868AD
:1036900040690090286880690090009806E02868DA
:1036A000406900902868806900900098A4B2002CBE
:1036B00000F09180A4B2042C6FDAA4B2012C11D1D5
:1036C000534600224949280000F088F9002801D01B
:1036D000032089E02868006989F8000019F10109D0
:1036E000641EE3E7A4B2022C1FD153460022DFF888
:1036F0000C11280000F072F9002801D0032073E0BB
:103700002868006850F4007029680860286800691B
:1037100089F8000019F10109641E2868006989F818
:10372000000019F10109641EC0E753460022DFF8CA
:10373000CC10280000F052F9002801D0032053E0FB
:103740002868006830F4806029680860286800698B
:1037500089F8000019F10109641E53460022DFF8C0
:103760009C10280000F03AF9002801D003203BE02B
:103770002868006850F400702968086028680069AB
:1037800089F8000019F10109641E2868006989F8A8
:10379000000019F10109641E88E75346002213490D
:1037A000280000F01BF9002801D003201CE0286845
:1037B000006989F8000019F10109641E2868406950
:1037C00040077FF573AF2868006989F8000019F198
:1037D0000109641E6AE7012085F83500002085F89C
:1037E0003400002000E00220BDE8F6874000010020
:1037F0000200100090F8350070470000040001003E
:103800002DE9F04182B004000D0016001F00DDF824
:1038100020802068006850F480702168086043466A
:1038200000225FF00111200000F0D8F8002801D03C
:1038300003203EE015F0FE0021680861424665491C
:10384000200000F038F9002806D0A06B042801D130
:1038500001202EE003202CE02068406900902068C1
:10386000806900900098434600225B49200000F0E8
:10387000B5F8002801D003201BE0BFB2012F04D10E
:103880003000C0B22168086112E0B6B2300AC0B29E
:1038900021680861434600224F49200000F09EF84D
:1038A000002801D0032004E03000C0B22168086184
:1038B0000020BDE8F6812DE9F04182B004000D0042
:1038C00016001F00DDF820802068006850F480603A
:1038D000216808602068006850F4807021680860E2
:1038E000434600225FF00111200000F077F8002825
:1038F00001D003206CE015F0FE002168086142460B
:103900003449200000F0D7F8002806D0A06B042826
:1039100001D101205CE003205AE02068406900905A
:103920002068806900900098434600222A492000C0
:1039300000F054F8002801D0032049E0BFB2012F65
:1039400004D13000C0B22168086112E0B6B2300A7A
:10395000C0B221680861434600221F49200000F0E0
:103960003DF8002801D0032032E03000C0B22168C9
:103970000861434600221849200000F02FF8002873
:1039800001D0032024E02068006850F48070216892
:103990000860434600225FF00111200000F01EF88D
:1039A000002801D0032013E055F00100C0B22168C7
:1039B000086142460749200000F07DF8002806D043
:1039C000A06B042801D1012002E0032000E00020C8
:1039D000BDE8F68102000100800001002DE9F04100
:1039E00004000D0016001F005FF0000801F0F6F85B
:1039F0008046F6B2002E2DD1280CC0B201280AD183
:103A000020684069284080B2A9B2884201D10120D3
:103A10000BE0002009E020688069284080B2A9B24C
:103A2000884201D1012000E00020002840D117F198
:103A3000010FE1D0002F05D001F0D0F8B0EB080065
:103A40008742D9D2012084F83500002084F8340060
:103A500003202EE0280CC0B201280AD1206840695A
:103A6000284080B2A9B2884201D101200BE0002099
:103A700009E020688069284080B2A9B2884201D15B
:103A8000012000E00020002812D017F1010FE1D042
:103A9000002F05D001F0A2F8B0EB08008742D9D280
:103AA000012084F83500002084F83400032000E071
:103AB0000020BDE8F081F8B504000D0016000027D5
:103AC00001F08CF80700280CC0B201280AD1206848
:103AD0004069284080B2A9B2884201D101200BE0A0
:103AE000002009E020688069284080B2A9B288429D
:103AF00001D1012000E00020002829D12068406980
:103B0000400513D52068006850F4007021680860F3
:103B10007FF48060216848610420A063012084F85C
:103B20003500002084F83400012012E016F1010F66
:103B3000C9D0002E04D001F051F8C01B8642C2D279
:103B4000012084F83500002084F83400032000E0D0
:103B50000020F2BD00B5C1B001F00AF801F052F842
:103B6000002001F049FA002001F07EFA0121002036
:103B700001F099FA01F0D1FB00F04CFB00F069FB79
:103B800000F059F800F07AF800A801F0EFFA0028E8
:103B90000FD09DF8040032280BD100A801F05CFC86
:103BA000DFF8CC070078002803D00020DFF8C41726
:103BB000087000A800F0C1F800A800F04FFA00A8B3
:103BC00000F096FA00A800F0DCFA00A800F00DF969
:103BD00000A800F071F900A800F0D5F9DFF890070F
:103BE0000078002804D1DFF88C070078002803D083
:103BF000002001F049FA02E0002001F035FADFF878
:103C00007007007800280CD000A801F01BFC3320BE
:103C1000009000A801F060FBDFF85C07006800F08E
:103C2000E0FFDFF8500700780028ADD04FF4FA70BD
:103C300000F0D7FFA8E780B5DFF840175FF0FF304E
:103C400001F04EFDDFF838175FF0FF3001F086FE1F
:103C5000DFF83017002001F0C7FFDFF82C17002035
:103C600002F082F8DFF82417002002F043F9DFF8B1
:103C700020175FF0FF3002F0CDFA01BD80B5DFF80C
:103C8000FC06006801F026FEDFF8F406006801F08B
:103C900059FFDFF8F006006802F022F8DFF8E806C6
:103CA000006802F0E3F8DFF8E406006802F06EFA5C
:103CB000DFF8DC06006802F07BFB01BD70B52DED7E
:103CC000048BB0EE408A04000D001600BDEEC80A59
:103CD00084ED000AB5EE408AF1EE10FA06DB94EDB1
:103CE000000AB8EEC00A38EE408A05E094ED000AFA
:103CF000B8EEC00A30EE488A300002F0ABFB41EC6F
:103D0000110B9FEDD40B02F034FEB0EE409AF0EEB2
:103D1000609A18EE100A03F04BF853EC192B03F0DD
:103D20006FF841EC100B03F03CF951EC100B03F071
:103D300045F92860BDEC048B70BD30B589B0040036
:103D40000025DFF82C060078002804D1DFF82406CF
:103D50000078002815D0002203A9DFF8380603F008
:103D600039FA002202A9DFF82C0603F0E8FA0498D9
:103D7000D0F598706421484340F2311190FBF1F086
:103D80000500DFF8EC05007800280AD09DF80C004B
:103D9000E0719DF80D0020729DF80E006072A57212
:103DA00021E0DFF8D005007800281CD0EDB20195A5
:103DB0009DF80E0000909DF80D309DF80C20DFF866
:103DC000D815DFF8D80503F037FBDFF8D00503F08E
:103DD0004DFB41F28833020092B2DFF8C015DFF8E4
:103DE000C00503F098FB09B030BD10B588B00400E1
:103DF00000208DF8040001A9DFF88005006801F0BB
:103E000081FD002856D19DF80400012852D1DFF829
:103E10009415DFF86805006801F082FDDFF85005B1
:103E2000007800281DD0DFF880050068C00641D565
:103E30000422DFF87005016814F1130003F06CFE32
:103E40000422DFF86005416814F1170003F064FEF6
:103E50000422DFF85005816814F11B0003F05CFEBA
:103E600028E0DFF810050078002823D0DFF83405BB
:103E700000680290DFF82C0540680390DFF8240505
:103E80008068049004980090039B029ADFF81C1548
:103E9000DFF8080503F0D0FADFF8000503F0E6FAD2
:103EA00041F28833020092B2DFF8F014DFF8F00438
:103EB00003F031FB08B010BD10B588B0040000203D
:103EC0008DF8040001A9DFF8B804006801F052FE83
:103ED000002856D19DF80400012852D1DFF8D014F3
:103EE000DFF89C04006801F061FEDFF884040078CC
:103EF00000281DD0DFF8B0040068800641D50422F8
:103F0000DFF8AC04016814F11F0003F005FE042281
:103F1000DFF89C04416814F1230003F0FDFD042246
:103F2000DFF88C04816814F1270003F0F5FD28E028
:103F3000DFF840040078002823D0DFF8740400681C
:103F40000590DFF86C0440680690DFF86404806830
:103F5000079007980090069B059ADFF85814DFF841
:103F60003C0403F069FADFF8340403F07FFA41F20D
:103F70008833020092B2DFF82414DFF8240403F03F
:103F8000CAFA08B010BD10B586B0040000208DF844
:103F9000040001A9DFF8EC03006801F0B9FE002875
:103FA00056D19DF80400012852D1DFF80C14DFF837
:103FB000D403006801F0BAFEDFF8B40300780028EB
:103FC0001DD0DFF8E4030068400641D50422DFF885
:103FD000E803016814F12B0003F09EFD0422DFF8D2
:103FE000D803416814F12F0003F096FD0422DFF896
:103FF000C803816814F1330003F08EFD28E0DFF878
:1040000074030078002823D0DFF8AC030068029026
:10401000DFF8A40340680390DFF89C0380680490F5
:1040200004980090039B029ADFF89013DFF86C036A
:1040300003F002FADFF8640303F018FA41F2883360
:10404000020092B2DFF85413DFF8540303F063FA6E
:1040500006B010BD000000000000244010B584B080
:10406000040000208DF8000000A9C948006802F093
:10407000B7F900283BD19DF80000012837D1DFF8BF
:104080004013C348006802F0C7F9022201A902A840
:10409000CB4B93ED000AFFF711FEB54800780028DE
:1040A00010D0C1480068C00721D50222029914F13E
:1040B0000B0003F01AFD0222019914F10D0003F028
:1040C00014FD14E0AB480078002810D0019B029A40
:1040D000BC49B24803F0B0F9B04803F0C7F941F267
:1040E0008833020092B2AD49AD4803F014FA1FBD07
:1040F00010B584B0040000208DF8000000A9A2488B
:10410000006801F0CBFE00283AD19DF8000001289C
:1041100036D1AD499C48006801F0CEFE022201A9CB
:1041200002A8A94B93ED000AFFF7C8FD904800785C
:10413000002810D09C480068400721D50122029930
:1041400014F1110003F0D1FC0122019914F11200C5
:1041500003F0CBFC14E087480078002810D0019BC6
:10416000029A9A498D4803F067F98C4803F07EF96A
:1041700041F28833020092B28849894803F0CBF9B2
:104180001FBD10B584B0040000208DF8000000A908
:104190007E48006802F012F800283AD19DF800002D
:1041A000012836D18A497948006802F015F80222C0
:1041B00001A902A8864B93ED000AFFF77FFD6C482A
:1041C0000078002810D078480068800721D50122A7
:1041D000029914F10F0003F088FC0122019914F1F7
:1041E000100003F082FC14E062480078002810D030
:1041F000019B029A7749694803F01EF9674803F06A
:1042000035F941F28833020092B26449644803F000
:1042100082F91FBD80B570485E49086040205D4945
:1042200048607F205B4988604FF498705949C860A6
:10423000002058490861002056494861002055492E
:104240008861544802F0E0FE002801D000F0CAF86E
:1042500001BD00B587B014208DF8030002208DF851
:10426000010018208DF8020002208DF800000122C4
:1042700000A9484802F0E0FF002801D000F0B2F8A1
:1042800008208DF8040010208DF8050000208DF81E
:10429000060000208DF80700002004900020059003
:1042A000012201A93B4802F005FF002801D000F0DF
:1042B00099F807B000BD70B50400A4B2B4F5005F72
:1042C00035D100254548006800280AD144480068D7
:1042D000002806D100F087F8404908600120050059
:1042E00012E000F080F83E4908603D480068060092
:1042F0003A480068301AB0F5967F05D9384800680A
:104300003649086001200500002D10D018480078BB
:10431000002803D000201749087008E015480078ED
:10432000002801D0002000E001201249087070BD73
:1043300070B586B004000D00160000208DF8030053
:104340008DF800408DF801508DF80260002001903A
:104350000020039000200490002200A90D4802F0E4
:10436000A9FE002801D000F03DF806B070BD0000A5
:104370001C0D00201E0D0020F4030020D80C00208E
:10438000DC0C0020E00C0020E40C0020E80C0020F5
:10439000EC0C0020B80B002094CE00081008002080
:1043A000880A0020580C0020C00C002088CD00088E
:1043B000640C0020ACCD0008700C0020D0CD0008AB
:1043C000C40C0020D0CE0008C80C0020E0CE0008AD
:1043D000CC0C0020F0CE000800280040D00C0020BB
:1043E000D40C0020FEE780B500F0F8FB02BD0020F1
:1043F00070B582B0040000252078C0075AD5DFF8D8
:104400002C07006810F00C0004280BD0DFF81C0704
:10441000006810F00C0008280ED1DFF814070068BF
:10442000400209D5DFF80C070068800342D56068B8
:1044300000283FD10120A2E10020DFF8FC1608701F
:1044400000F0CCFB0500DFF8EC060068800308D51F
:1044500000F0C4FB401B41F289318842F3D30320B2
:104460008DE16068DFF8D01608706068002810D011
:1044700000F0B4FB0500DFF8BC060068800319D427
:1044800000F0ACFB401B41F289318842F3D303209A
:1044900075E100F0A3FB0500DFF8980600688003D3
:1044A00008D500F09BFB401B41F289318842F3D3D1
:1044B000032064E12078800766D5DFF87006006885
:1044C00010F00C0F0BD0DFF86406006810F00C0041
:1044D00008281FD1DFF85806006840021AD4DFF818
:1044E00054060068800704D5E068012801D0012047
:1044F00045E1DFF8400600685FF0F851B1FA81F15C
:1045000030F0F800226912FA01F10843DFF82416AE
:10451000086039E0E068002823D00120DFF81C168D
:10452000086000F05BFB0500DFF808060068800704
:1045300006D400F053FB401B6528F5D303201EE191
:10454000DFF8F00500685FF0F851B1FA81F130F062
:10455000F800226912FA01F10843DFF8D815086063
:1045600012E00020DFF8D415086000F037FB0500EA
:10457000DFF8C0050068800706D500F02FFB401B60
:104580006528F5D30320FAE02078000728D5606974
:10459000002812D00120DFF8A815086000F01EFBEB
:1045A0000500DFF8A0050068800719D400F016FBAD
:1045B000401B6528F5D30320E1E00020DFF88015DB
:1045C000086000F00BFB0500DFF878050068800745
:1045D00006D500F003FB401B6528F5D30320CEE091
:1045E0002078400763D5DFF86005006850F0805000
:1045F000DFF854150860DFF85005006810F08050AF
:1046000000900098DFF84405006850F48070DFF8EF
:104610003C15086000F0E2FA0500DFF8300500689C
:10462000C00506D400F0DAFA401B6528F5D3032054
:10463000A5E00020DFF81815087000F0CFFA05009B
:10464000DFF80C050068800708D500F0C7FA401BAA
:1046500041F289318842F3D3032090E0A068DFF86B
:10466000F0140870A068002810D000F0B7FA050018
:10467000DFF8DC040068800719D400F0AFFA401BB3
:1046800041F289318842F3D3032078E000F0A6FAA2
:104690000500DFF8BC040068800708D500F09EFA2A
:1046A000401B41F289318842F3D3032067E0A069BF
:1046B000002863D0DFF87404006810F00C000828AC
:1046C0005AD0A069022844D10020DFF8881408607D
:1046D00000F084FA0500DFF85C040068800106D56C
:1046E00000F07CFA401B6528F5D3032047E0DFF893
:1046F0006804B0FA80F24FF44040B0FA80F0F02144
:10470000B1FA81F1E369266A3343666A16FA02F266
:104710001A43A36A5B085B1E13FA00F01043E26AB7
:1047200012FA01F10843DFF8081408600120DFF8ED
:104730002414086000F052FA0500DFF8F80300685E
:1047400080011BD400F04AFA401B6528F5D30320F2
:1047500015E00020DFF8FC13086000F03FFA0500C8
:10476000DFF8D0030068800108D500F037FA401B5D
:104770006528F5D3032002E0012000E0002076BD8B
:1047800070B504000D000026DFF8D003006810F0BB
:104790000F00A84280F08F80DFF8C0030570DFF8BB
:1047A000BC03006810F00F00A84201D001202AE1EC
:1047B0002078800709D5DFF87403006830F0F00036
:1047C000A1680843DFF8641308602078C00740F14F
:1047D000FD806068012806D1DFF858030068800377
:1047E00015D401200FE16068022802D06068032818
:1047F00006D1DFF840030068800108D4012002E1FF
:10480000DFF830030068800701D40120FBE0DFF807
:104810001C0300688008800061680843DFF80C13FF
:10482000086000F0DBF906006068012810D1DFF8AD
:10483000FC02006810F00C00042800F0C78000F0B3
:10484000CDF9801B41F289318842F0D30320DAE0B0
:104850006068022810D1DFF8D402006810F00C0064
:10486000082800F0B38000F0B9F9801B41F28931CB
:104870008842F0D30320C6E0606803280BD1DFF83C
:10488000AC02006800F0AAF9801B41F2893188422D
:10489000F5D30320B7E0DFF89402006810F00C0FA6
:1048A00000F0948000F09AF9801B41F2893188422F
:1048B000F1D30320A7E02078800709D5DFF86C0248
:1048C000006830F0F000A1680843DFF8601208606B
:1048D0002078C0076ED56068012806D1DFF8540241
:1048E0000068800315D401208DE06068022802D0A2
:1048F0006068032806D1DFF83C020068800108D414
:10490000012080E0DFF82C020068800701D401203C
:1049100079E0DFF8180200688008800061680843C9
:10492000DFF80812086000F059F9060060680128F5
:104930000FD1DFF8F801006810F00C00042839D01E
:1049400000F04CF9801B41F289318842F1D30320F9
:1049500059E0606802280FD1DFF8D001006810F03C
:104960000C00082826D000F039F9801B41F289316B
:104970008842F1D3032046E0606803280BD1DFF8BA
:10498000AC01006800F02AF9801B41F289318842AD
:10499000F5D3032037E0DFF89401006810F00C0F26
:1049A00008D000F01BF9801B41F289318842F2D314
:1049B000032028E0DFF8A4010570DFF8A0010068FB
:1049C00010F00F00A84201D001201CE02078400721
:1049D00009D5DFF85801006830F4E050E168084379
:1049E000DFF8481108602078000708D54F480068B4
:1049F00030F46040216950EAC1004C4908600F2042
:104A000000F0D4F8002070BDF0B400210022002393
:104A10000020464C246814F00C04002C04D0042C14
:104A200005D0082C06D040E04D4C20003FE04D4C16
:104A300020003CE03E4C246814F03F0421003C4C34
:104A40002468640210D53A4C2468464DB5FBF1F554
:104A500047F6C0763440404EB6FA86F62700F74057
:104A600007FB05F422000FE0314C24683C4DB5FBF8
:104A7000F1F547F6C0763440374EB6FA86F6270091
:104A8000F74007FB05F42200294C246814F4403455
:104A90004FF44045B5FA85F52600EE40741C6400DD
:104AA0002300B2FBF3F4200001E02D4C2000F0BC09
:104AB000704710B5FFF7A8FF1C4909685FF07062E6
:104AC000B2FA82F2284B11F0F0010C00D440E15C04
:104AD0000200CA40254802602448006810BD10B595
:104AE000FFF7E7FF0100114800685FF46012B2FAB7
:104AF00082F21D4B10F4E0500400D440E25C080048
:104B0000D04010BD10B5FFF7D4FF01000748006882
:104B10005FF4E022B2FA82F2134B10F4604004001A
:104B2000D440E25C0800D04010BD000008380240CC
:104B30000438024000380240023802400000474278
:104B4000800E4742743802404038024000700040F6
:104B500070380240600047420000FE03003C024003
:104B60000024F40000127A0000CF000800040020A6
:104B700080B52248006850F40070204908601F4842
:104B8000006850F480601D4908601C48006850F4BB
:104B900080701A4908600320FEF786FB0F2000F0A2
:104BA00005F800F002F8002002BD704710B50400BF
:104BB000FFF77FFF4FF47A71B0FBF1F0FEF794FB43
:104BC000002221005FF0FF30FEF774FB002010BDD3
:104BD0000B480068401C0A49086070470848006894
:104BE000704711B581B00024FFF7F8FF0400FFF70C
:104BF000F5FF001B01998842F9D313BD003C024028
:104C0000F00C002000B593B0DFF89403006850F07A
:104C10008050DFF88C130860DFF88403006810F020
:104C2000805000900098DFF87C03006830F440402A
:104C300050F40040DFF86C130860DFF86803006888
:104C400010F4404000900098022006900120099046
:104C500010200A9002200C9000200D9010200E9041
:104C60004FF4A8700F90042010900720119006A810
:104C7000FFF7BEFB0F20019002200290002003905E
:104C80004FF48050049000200590022101A8FFF706
:104C900077FD13B000BD0168DFF80C2391425DD3AE
:104CA000DFF8081309680268DFF804339A4202D17A
:104CB000DFF8000350E00268DFF8FC329A4202D1CC
:104CC000DFF8F00248E00268DFF8F0329A4202D1E1
:104CD000DFF8E00240E00268DFF8E4329A4202D1F5
:104CE000DFF8D00238E00268DFF8D8329A4201D10A
:104CF000402031E00268DFF8D0329A4201D14020F2
:104D00002AE00268DFF8C4329A4201D1402023E051
:104D10000268AF4B9A4201D140201DE00268AD4BC2
:104D20009A4202D15FF4803016E00268AA4B9A42A0
:104D300002D15FF480300FE00268A84B9A4202D1A2
:104D40005FF4803008E00068A54A904202D15FF429
:104D5000803001E05FF480000840FCE00168A14A77
:104D6000914251D3A04909680268914B9A4201D1FE
:104D7000904847E00268904B9A4201D18D4841E04B
:104D800002688E4B9A4201D18A483BE002688C4B04
:104D90009A4201D1874835E002688A4B9A4201D194
:104DA00040202FE00268884B9A4201D1402029E040
:104DB0000268864B9A4201D1402023E00268844B6E
:104DC0009A4201D140201DE00268824B9A4202D1F2
:104DD0005FF4803016E002687F4B9A4202D15FF4A4
:104DE00080300FE002687D4B9A4202D15FF4803040
:104DF00008E000687A4A904202D15FF4803001E016
:104E00005FF480000840A6E00168784A914251D3DF
:104E1000774909680268664B9A4201D1654847E0C4
:104E20000268654B9A4201D1624841E00268634BD7
:104E30009A4201D15F483BE00268614B9A4201D13E
:104E40005C4835E002685F4B9A4201D140202FE078
:104E500002685D4B9A4201D1402029E002685B4B19
:104E60009A4201D1402023E00268594B9A4201D175
:104E700040201DE00268574B9A4202D15FF4803017
:104E800016E00268544B9A4202D15FF480300FE082
:104E90000268524B9A4202D15FF4803008E0006809
:104EA0004F4A904202D15FF4803001E05FF480000D
:104EB000084050E04F49096802683D4B9A4201D1D1
:104EC0003C4847E002683C4B9A4201D1394841E0F6
:104ED00002683A4B9A4201D136483BE00268384BAF
:104EE0009A4201D1334835E00268364B9A4201D1EB
:104EF00040202FE00268344B9A4201D1402029E043
:104F00000268324B9A4201D1402023E00268304BC4
:104F10009A4201D140201DE002682E4B9A4202D1F4
:104F20005FF4803016E002682B4B9A4202D15FF4A6
:104F300080300FE00268294B9A4202D15FF4803042
:104F400008E00068264A904202D15FF4803001E018
:104F50005FF48000084070470068406870471B4954
:104F600001605FF000614160002181600021C1604B
:104F70004FF48061016100214161002181614FF4A2
:104F80008071C1615FF480310162002141620321BF
:104F900081625FF40001C1625FF400010163704748
:104FA00040380240007000405964024004640240EE
:104FB00010600240010080001064024070600240F6
:104FC0007064024028600240286402408860024009
:104FD000886402404060024040640240A060024099
:104FE000A0640240B960024000640240596002407F
:104FF000046002400060024010B586B00400E4B2D4
:10500000002C0ED1DFF84801006850F00100DFF8F5
:1050100040110860DFF83801006810F001000090CE
:105020000098DFF83001E4B230F81400019001205C
:105030000290012003900220049001A9DFF81801DA
:10504000E4B250F82400FDF7AFFF0022DFF80401BE
:10505000E4B230F81410DFF80001E4B250F8240094
:10506000FEF783F806B010BD10B504000022DFF88B
:10507000E400E4B230F81410DFF8DC00E4B250F8D9
:105080002400FEF772F810BD10B50400DFF8C4006C
:10509000E4B230F81410DFF8C000E4B250F8240095
:1050A000FEF76DF810BD30B587B004000D00E4B216
:1050B000002C0ED1DFF89800006850F00400DFF8F3
:1050C00090100860DFF88800006810F0040000907D
:1050D0000098EDB2002D13D1DFF88000E4B230F873
:1050E00014000190002002900220039002200490FE
:1050F00001A9DFF86C00E4B250F82400FDF754FF7A
:10510000EDB2012D22D1DFF85400E4B230F81400E2
:10511000019000200390DFF84C00029001A9DFF815
:105120004000E4B250F82400FDF73EFF00220F21BA
:10513000DFF83400E4B2205640B2FEF7BBF8DFF8E7
:105140002800E4B2205640B2FEF7C7F807B030BDE1
:1051500030380240F22C0008F8030020EE4300082B
:10516000FC03002000002110FE6D00082DE9F04F27
:1051700083B004005FF000085FF00009A348FFF768
:105180008AFD002840F0A580A048FFF7E5FED0F595
:105190000070ADF80200BDF802009D498988884280
:1051A00007D3BDF802009A498988401AADF8040077
:1051B00008E0BDF8020010F5007095498988401A92
:1051C000ADF8040092488088824600200600BDF8B1
:1051D0000400B6B2864273D28E481FFA8AFA1AF8D1
:1051E00000008DF806001AF1010A1FFA8AFABAF5D2
:1051F000007F01DB002082469DF80600F0285DD18B
:1052000083488088824600200500ADB2B6B2B54220
:105210003CD21FFA8AFA1AF101004FF4007190FB98
:10522000F1F202FB110217007A481FFA8AFA1AF803
:1052300000008DF801007748BFB2385C8DF800009F
:105240001FFA88F818EB0400001D83465A469DF8A3
:1052500000109DF8010002F00AFC81465FFA89F90E
:10526000B9F1000F03D16A488780002032E05FFA6D
:1052700089F919FA8AF04FF4007190FBF1FA0AFBF0
:10528000110A18F1010855FA89F5BEE71FFA88F8E6
:10529000C4F800801FFA8AFA1AF101004FF4007175
:1052A00090FBF1FA0AFB110A5948A0F804A020006B
:1052B00002F005FC002801D001200BE0761C86E7F7
:1052C000BDF80400B0F5807F03DDBDF80200504951
:1052D00088800020BDE8FE8F38B50400200002F071
:1052E000DDFB21004C4802F0AAFB050041F28833A7
:1052F0002A0092B24849494802F00DF931BD80B503
:105300004248FFF72CFE414802F012FC3F48434957
:10531000486342483D49886301BD00B587B04048B5
:10532000006850F001003E4908603D48006810F0F8
:105330000100009000983A48006850F00100384998
:1053400008603748006810F0010000900098354868
:10535000006850F40030334908603248006810F4A7
:105360000030009000982E48006850F400102C493E
:1053700008602B48006810F400100090009804208A
:105380000190022002900020039002200490072048
:10539000059001A92448FDF707FE08200190072089
:1053A000059001A92048FDF7FFFD20481B49086032
:1053B0001F4800681949486000201849886000208B
:1053C0001649C8600020154908610020134988610A
:1053D0000C2012494861114802F064F8002800D0FE
:1053E000FEE7FFF78CFF0B480C4988624FF4007012
:1053F0000A49888500200949C8634FF400720549AD
:10540000064802F006F907B000BD00009009002030
:105410007C0C00201004002010060020880A0020C8
:105420003038024040380240000002400044004052
:10543000F003002041790171322141718179803975
:10544000817170479F4909780171322141710821AA
:10545000817103210160704738B50400206802287B
:1054600001D200202DE12079322801D0002028E14E
:10547000A079012819D0022832D0042849D0082860
:1054800000F0D580092800F0F4800C2800F0048199
:105490000E2819D0602850D0622877D0762800F0E6
:1054A00089807A2800F0AF800AE12068032801D0C3
:1054B000002006E12000FFF7BDFF03202060200050
:1054C000FFF70AFF0120FCE02068032801D000203C
:1054D000F7E02000FFF7AEFF032020600120F0E09E
:1054E0002068032801D00020EBE02000FFF7A2FF96
:1054F00000200500102D05D27348285C2919C871B9
:105500006D1CF7E7E81C20602000FFF7E5FE012096
:10551000D7E02068032801D20020D2E02000FFF766
:1055200089FF04220021E01D02F0F6FA0720206026
:105530002000FFF7D1FE0120C3E02068032801D23C
:105540000020BEE02000FFF775FF00A95F4800685B
:1055500000F054FF9DF80000002802D0012808D078
:105560000FE004220121E01D02F0D6FA072020609E
:1055700007E004220221E01D02F0CEFA072020609D
:10558000FFE72000FFF7A8FE01209AE0206803282B
:1055900001D2002095E02000FFF74CFF04220121FA
:1055A000E01D02F0B9FA072020602000FFF794FE0A
:1055B000012086E02068032801D2002081E020003D
:1055C000FFF738FF00A94248006800F0E1FA9DF8B3
:1055D0000000002802D0012808D00FE00422012199
:1055E000E01D02F099FA0720206007E00422022162
:1055F000E01D02F091FA07202060FFE72000FFF78E
:105600006BFE01205DE02068032801D2002058E0F5
:105610002000FFF70FFF04220121E01D02F07CFAB9
:10562000072020602000FFF757FE012049E0206896
:10563000032801D2002044E00421E01D02F060FABA
:1056400024490860042114F10B0002F059FA2249A0
:10565000086001202149087060791A49087020000B
:10566000FFF7E8FE032020602000FFF735FE012051
:1056700027E02068032801D2002022E000201549FD
:1056800008600020154908702000FFF7D3FE2000B5
:10569000FFF722FE012014E02068032801D2002039
:1056A0000FE02000FFF7C6FE03202060627A217A17
:1056B000E079FEF73DFE2000FFF70EFE012000E03E
:1056C000002032BD0C040020D4030020EC0C00208C
:1056D000DC0C0020C00C0020F40300201C0D002076
:1056E00038B504000D000020286064B2002C0ED0F4
:1056F000012C14D0280000F07BF8012806D12800E6
:1057000000F016F8012801D1012010E00EE0280079
:1057100000F00EF8012801D1012008E006E0280081
:1057200000F066F8012801D1012000E0002032BD20
:105730002DE9F041040000255C48C078012801D122
:10574000012053E0FDF7D6FA012801D101204DE0F8
:10575000682056490870D6205449487000205349A3
:10576000887000205149C8700020504908710120FC
:105770004E4948714E484D4988604E484B49C86073
:1057800000204A4908614C484C4948604B48484908
:105790000860002046494860444820602068C0688E
:1057A0000500286800280CD114260027D4F80080B2
:1057B0003A003100404602F063FA002020600120E8
:1057C00014E020682968884701280CD11426002796
:1057D000D4F800803A003100404602F051FA00202F
:1057E0002060012002E0FDF78EFA0020BDE8F08184
:1057F0002DE9F041040000252C48C07D012801D18D
:10580000012050E0FDF776FA012801D101204AE09D
:10581000692026490875D420244948750120234968
:10582000887500202149C87500202049087601208C
:105830001E49487622481D49C86122481B49086212
:1058400021481A49486221481949886000201849AE
:10585000C8601F4820602068C068050028680028CC
:105860000CD114260027D4F800803A0031004046BD
:1058700002F006FA00202060012014E02068296868
:10588000884701280CD114260027D4F800803A005C
:105890003100404602F0F4F900202060012002E0CF
:1058A000FDF733FA0020BDE8F0810000400B002036
:1058B000380C0020080100208C0C0020940C0020E3
:1058C000400C00209001002000000020F40C00207B
:1058D000540B002070B5040025000026002D01D1D6
:1058E00001200EE0E8680600B068002801D1012020
:1058F00007E02800B1688847012801D1012000E0B5
:10590000002070BD02001300002B01D1012006E031
:10591000002901D1012002E0D878087000207047EA
:10592000F8B504000D0026000027002E01D101204B
:1059300013E0F0680700002D01D101200DE0B869E7
:10594000002801D1012008E029003000BA69904701
:10595000012801D1012000E00020F2BD38B504008B
:105960000D000020286064B2002C0ED0012C14D051
:10597000280000F079F8012806D1280000F016F878
:10598000012801D1012010E00EE0280000F00EF8FF
:10599000012801D1012008E006E0280000F064F8A9
:1059A000012801D1012000E0002032BD2DE9F041A5
:1059B000040000255A48C078012801D1012051E097
:1059C000FDF798F9012801D101204BE068205449E6
:1059D0000870D62052494870002051498870002034
:1059E0004F49C87000204E49087101204C49487148
:1059F0004C484B4988604C484949C8600020484998
:105A000008614A484A4948604948464908600020B8
:105A100044494860424820602068C0680500286802
:105A200000280CD114260027D4F800803A00310059
:105A3000404602F025F900202060012012E0206895
:105A40002968884701280CD114260027D4F8008043
:105A50003A003100404602F013F900202060012096
:105A600000E00020BDE8F0812DE9F04104000025B0
:105A70002B48C07D012801D101204EE0FDF73AF905
:105A8000012801D1012048E0692025490875D4206A
:105A90002349487501202249887500202049C8758E
:105AA00000201F49087601201D49487621481C49DD
:105AB000C86121481A4908620020194948621F48F4
:105AC0001849886000201749C8601D482060206878
:105AD000C0680500286800280CD114260027D4F8D7
