:020000040800F2
:100000003811002079C50008A5C40008A7C400085D
:1000100000000000000000000000000000000000E0
:10002000000000000000000000000000832900081C
:10003000ABC4000800000000AB290008ADC40008F4
:1000400073490008174D0008774E00085F510008FB
:10005000D35F000803650008BF790008B5C4000835
:10006000F37D0008B3810008DF8900083F8D000898
:10007000B7A80008B3B10008000000001FC00008C6
:1000800000000000E7C100080000000000000000C0
:1000900087C3000800000000E7C40008F7C4000898
:1000A00027C50008B9C50008BBC50008BDC50008C4
:1000B000BFC50008C1C50008C3C50008C5C5000804
:1000C00038B5040068469A490A680260A068056865
:1000D000200000F02EFD012801D1012034E0042190
:1000E000200001F042FD002801D101202CE0402138
:1000F000200001F05DFD002801D1012024E0002155
:10010000200001F0DDFB002801D101201CE089481E
:1001100028600021200001F05CFC002801D10120B2
:1001200012E00021200000F0A5F9012801D10120F2
:100130000AE06946200000F026FA012801D10120DA
:1001400002E00120E070002032BD38B50400A06854
:100150000568200000F0EDFC012801D101203CE001
:10016000200000F041FF012801D1012035E02000EE
:1001700001F0A4FA012801D101202EE0200000F0B6
:10018000B5FF012801D1012027E0200001F032F95C
:10019000012801D1012020E0200001F0DCF9012834
:1001A00001D1012019E0200001F032F8012801D12D
:1001B000012012E0200001F08FF8012801D1012078
:1001C0000BE0200000F01FF8012801D1012004E01D
:1001D000002028600020E070002032BD10B504002F
:1001E000A06800682179012901D100200AE0016896
:1001F000200000F021FD012801D1012002E00120B2
:100200002071002010BD10B50400A068016820799D
:10021000002801D1002011E0200000F08DF8012815
:1002200001D101200AE00021200001F0D2FB0028CA
:1002300001D1012002E000202071002010BD80B516
:1002400000F06EFC02BD80B500F073FC02BD3EB54F
:1002500005000C000020009001A9280000F080FC9F
:10026000012801D1012028E06946280000F03AF871
:10027000012801D1012020E0019800B202F0F0FA3B
:10028000009902F008FB02F05FFB206001A8022148
:10029000405E02F0E5FA009902F0FDFA02F054FB2C
:1002A000606001A80421405E02F0DAFA009902F0D1
:1002B000F2FA02F049FBA06000203EBD1CB50C0024
:1002C000694600F04DFC012801D1012009E00098A9
:1002D00000B2208068464088608068468088A080A0
:1002E000002016BD10B582B00C00694601F061FB1C
:1002F000002801D101200DE068460078002806D0D2
:1003000004280ED0082806D00C2807D00CE0754829
:100310002060002016BD74482060FAE77348206012
:10032000F7E773482060F4E7724820600120F1E7A6
:10033000B0C500080000D04210B582B00C0069467C
:1003400001F06AFB002801D101201DE06846007819
:10035000002816D0102818D0202819D030281AD0FC
:1003600040281BD050281CD060281DD070281ED0DB
:1003700080281FD0902820D0A02821D0B02822D0BB
:1003800024E000202060002016BD5B482060FAE7D2
:100390005A482060F7E75A482060F4E7594820603F
:1003A000F1E759482060EEE758482060EBE75848ED
:1003B0002060E8E757482060E5E7AD482060E2E7C5
:1003C000AC482060DFE7AC482060DCE749482060AB
:1003D0000120D9E780B50279012A06D1C9B200F01F
:1003E000E4FB012808D1012007E0C9B200F0FCFBC2
:1003F000012801D1012000E0002002BD80B5027972
:10040000012A05D100F018FC012807D1012006E0DF
:1004100000F05CFC012801D1012000E0002002BDB9
:1004200010B582B00C00694601F0C3FA002801D172
:1004300001200EE068460078002806D0042811D07C
:10044000082807D00C2809D010E08020C0052060C3
:10045000002016BD8120C0052060F9E78220C0057C
:100460002060F5E78320C0052060F1E72148206087
:100470000120EEE780B5C9B2002903D002290BD0D4
:1004800008D30BE00021C9B201F070FA002807D1AF
:10049000012006E00821F6E70C21F4E7012000E046
:1004A000002002BD80B502000800744902F06AFA1B
:1004B00001D200210CE0724902F064FA01D2082155
:1004C00006E0704902F05EFA01D20C2100E004213E
:1004D000C9B2100001F04AFA002801D1012000E061
:1004E000002002BD23DB793D23DBF93D23DB793E90
:1004F00023DBF93E000080BF000050410000D041E6
:10050000000050420000D042000050430000D043A1
:10051000004050440080CF4438B505000C0000A9CD
:10052000891C280001F08AFB002801D1012029E064
:1005300000A9491C280001F0B4FB002801D10120CA
:1005400020E06946280001F0DFFB002801D10120EE
:1005500018E068468078082801D1012000E00020DA
:10056000207068464078102801D1012000E000206A
:10057000607068460078202801D1012000E000204A
:10058000A070002032BD38B504000D002878012885
:1005900001D1082100E00021C9B2200001F02BFBAD
:1005A000002801D101201CE06878012801D1102128
:1005B00000E00021C9B2200001F050FB002801D169
:1005C00001200EE0A878012801D1202100E00021BF
:1005D000C9B2200001F075FB002801D1012000E024
:1005E000002032BD38B50400684691490A680260AF
:1005F000A0680568200000F09CFA012801D10120C4
:1006000034E00421200001F0B0FA002801D10120DB
:100610002CE04021200001F0CBFA002801D101207C
:1006200024E00021200001F04BF9002801D1012035
:100630001CE0A04828600021200001F063FA002897
:1006400001D1012012E00221200000F092F90128DE
:1006500001D101200AE06946200000F032FA0128A9
:1006600001D1012002E00120E070002032BD000035
:10067000002050450020D045004850460100004071
:10068000010080400100004138B50400A068056801
:10069000200000F04EFA012801D101200BE02000DB
:1006A00000F01FF8012801D1012004E0002028609B
:1006B0000020E070002032BD10B50400A068006882
:1006C0002179012901D100200AE00168200000F011
:1006D000BFFB012801D1012002E001202071002090
:1006E00010BD10B50400A06801682079002801D170
:1006F000002011E0200000F09DF8012801D1012028
:100700000AE00021200001F0FDF9002801D10120BC
:1007100002E000202071002010BD80B500F000FA3A
:1007200002BD80B500F005FA02BD3EB505000C0023
:100730000020009001A9280000F014FB012801D13D
:10074000012028E06946280000F03AF8012801D18C
:10075000012020E0019800B202F082F8009902F036
:100760009AF802F0F1F8206001A80221405E02F040
:1007700077F8009902F08FF802F0E6F8606001A8BF
:100780000421405E02F06CF8009902F084F802F057
:10079000DBF8A06000203EBD1CB50C00694600F0EF
:1007A000E1FA012801D1012009E0009800B220807F
:1007B00068464088608068468088A080002016BD1A
:1007C00038B504000D0000A9491C200001F057F9BC
:1007D000002801D1012006E068464078022803D1B4
:1007E0008A482860002032BD6946200001F07AF96D
:1007F000002801D10120F6E768460078002806D0DD
:10080000042807D0082808D00C2809D00BE080481D
:100810002860E7E77F482860E4E77F482860E1E751
:100820007E482860DEE77E4828600120DBE7000084
:10083000B4C5000810B582B00C00694601F085F916
:10084000002801D1012017E068460078002810D068
:10085000102812D0202813D0302814D0402815D0CA
:10086000502816D0602817D0702818D0802819D0AA
:100870001BE000202060002016BD6A482060FAE7D7
:1008800069482060F7E769482060F4E7094820607C
:10089000F1E767482060EEE766482060EBE76648CE
:1008A0002060E8E765482060E5E75D4820600120BA
:1008B000E2E700000000D04280B50279012A06D1AB
:1008C000C9B200F074FA012808D1012007E0C9B2CA
:1008D00000F08CFA012801D1012000E0002002BDC7
:1008E00080B50279012A05D100F0B2FA012807D1BA
:1008F000012006E000F0E8FA012801D1012000E023
:10090000002002BD38B505000C006946280001F042
:10091000B6F8002801D101200FE000A9491C2800E9
:1009200001F0E0F8002801D1012006E068460078D7
:10093000022803D142482060002032BD684640783A
:10094000002806D0042807D0082808D00C2809D091
:100950000BE03C482060EFE73B482060ECE73B4879
:100960002060E9E73A482060E6E72D482060012052
:10097000E3E780B5C9B2002903D002290BD008D320
:100980000BE00021C9B201F08AF8002807D101204C
:1009900006E00421F6E70C21F4E7012000E0002046
:1009A00002BD38B5040008009F4901F0EBFF07D2F3
:1009B0000221200001F040F8002825D1012024E088
:1009C0009A4901F0DFFF01D200250CE0984901F0BF
:1009D000D9FF01D2042506E0964901F0D3FF01D2E8
:1009E000082500E00C250021200001F025F8002852
:1009F00001D1012009E02900C9B2200001F04FF81F
:100A0000002801D1012000E0002032BD00008C4010
:100A100000000C4100008C4100000C4200008C42A0
:100A2000000080BF000050410000D0410000504253
:100A3000000050430000D043004050440080CF44A9
:100A40000000FA42000075430000FA4300007A44B7
:100A50000000FA4438B505000C0000A9891C2800E4
:100A600001F0A8F9002801D1012029E000A9491CC2
:100A7000280001F0D2F9002801D1012020E06946C8
:100A8000280001F0FDF9002801D1012018E0684696
:100A90008078082801D1012000E0002020706846FD
:100AA0004078102801D1012000E0002060706846E5
:100AB0000078202801D1012000E00020A070002053
:100AC00032BD38B504000D002878012801D1082175
:100AD00000E00021C9B2200001F049F9002801D14D
:100AE00001201CE06878012801D1102100E00021DC
:100AF000C9B2200001F06EF9002801D101200EE0FA
:100B0000A878012801D1202100E00021C9B22000ED
:100B100001F093F9002801D1012000E0002032BD4E
:100B200080B500F013FF002801D1012000E0002073
:100B300002BD10B582B00400002069460870694605
:100B40002000FFF7EDFF012801D1012007E06846F2
:100B500000782178884201D0012000E0002016BDF5
:100B60001CB50C006946002200230CC108396946F7
:100B700001F00EFE002801D1012015E06846407802
:100B8000000269460978401820806846C078000253
:100B90006946897840186080684640790002694655
:100BA00009794018A080002016BD80B5C9B200297F
:100BB00006D002290ED00BD304290FD00CD30FE09E
:100BC0001021C9B200F005FF00280BD101200AE076
:100BD0001021F6E72021F4E73021F2E74021F0E789
:100BE000012000E0002002BD00B580680068C9B2A5
:100BF000002906D002290BD007D304290ED00AD32E
:100C00000FE055490160002000BD53490160FAE73B
:100C100052490160F7E752490160F4E783490160F6
:100C2000F1E70120F0E700000100FA4201007543FE
:100C30000100FA4301007A4480B5020008007C49B3
:100C400001F0A0FE01D2102136E07A4901F09AFEAF
:100C500001D2202130E0784901F094FE01D2302108
:100C60002AE0764901F08EFE01D2402124E0744949
:100C700001F088FE01D250211EE0724901F082FE8F
:100C800001D2602118E0704901F07CFE01D2702190
:100C900012E06E4901F076FE01D280210CE0884915
:100CA00001F070FE01D2902106E0A14901F06AFE38
:100CB00001D2A02100E0B021C9B2100000F089FEED
:100CC000002801D1012000E0002002BD80B5020013
:100CD000080091680A68564901F054FE01D21E4886
:100CE00036E0544901F04EFE01D21C4830E0524932
:100CF00001F048FE01D21A482AE0504901F042FEB4
:100D000001D24A4824E04E4901F03CFE01D26D4830
:100D10001EE04C4901F036FE01D2864818E04A49EF
:100D200001F030FE01D2844812E0484901F02AFE69
:100D300001D282480CE0624901F024FE01D28048D1
:100D400006E07B4901F01EFE01D27E4800E0A0488B
:100D50001060002002BD0000000050410000D041A2
:100D6000000050421CB50C006946002200230CC153
:100D70000839694601F0EBFC002801D1012015E09B
:100D80006846407800026946097840182080684625
:100D9000C0780002694689784018608068464079CA
:100DA0000002694609794018A080002016BD80B570
:100DB000C9B2002906D002290ED00BD304290FD0C6
:100DC0000CD30FE01021C9B200F09CFE00280BD11B
:100DD00001200AE01021F6E72021F4E73021F2E7B4
:100DE0004021F0E7012000E0002002BD00B580684E
:100DF0000068C9B2002906D002290BD007D3042904
:100E00000ED00AD30FE073490160002000BD714984
:100E10000160FAE770490160F7E770490160F4E7A3
:100E2000AB490160F1E70120F0E700000000D0428B
:100E3000010050410100D041010050420100D04268
:100E4000010050430100D043014050440180CF4491
:100E500080B502000800624901F094FD01D2102122
:100E600024E0604901F08EFD01D220211EE0994965
:100E700001F088FD01D2302118E0974901F082FD90
:100E800001D2402112E0954901F07CFD01D25021B0
:100E90000CE0934901F076FD01D2602106E0914912
:100EA00001F070FD01D2702100E08021C9B2100074
:100EB00000F028FE002801D1012000E0002002BD42
:100EC000012050450000504380B5020008009168A1
:100ED0000A68434901F056FD01D23E4824E04149E9
:100EE00001F050FD01D23C481EE07A4901F04AFD74
:100EF00001D23A4818E0784901F044FD01D2744823
:100F000012E0764901F03EFD01D277480CE07449C9
:100F100001F038FD01D2074806E0724901F032FDC8
:100F200001D2054800E005481060002002BD000025
:100F30000120D0450000D043004050440080CF4401
:100F4000002050450020D04510B50400AF492000D6
:100F5000FFF754FA012801D1012038E000212000D8
:100F600000F004FD002801D1012030E0062120001E
:100F700001F0CEFA002801D1012028E00021200054
:100F800001F07CFA002801D1012020E0002120009E
:100F900001F051FA002801D1012018E000212000C1
:100FA00001F024FA002801D1012010E003212000E3
:100FB00000F04FF8012801D1012008E010212000A5
:100FC00001F05CFB002801D1012000E0002010BDF1
:100FD00000485046000050410000D04100005042FF
:100FE000010050410100D04110B504000021200053
:100FF00001F044FB002801D1012010E00021200075
:1010000001F086FA002801D1012008E0002120002B
:1010100001F05BFA002801D1012000E0002010BDA2
:1010200010B582B00C00694600F06DFF002801D1B8
:10103000012008E068460078002805D0202806D165
:1010400001202070002016BD00202070FAE701204A
:10105000F9E780B5C9B201F038FA002801D10120C2
:1010600000E0002002BD10B504009A492000FFF7FF
:10107000C5F9012801D1012028E00021200000F05D
:1010800075FC002801D1012020E01721200000F08C
:1010900087F8012801D1012018E00421200000F088
:1010A000FFFE002801D1012010E04021200001F0C6
:1010B00077F8002801D1012008E08021200000F00D
:1010C00022FC002801D1012000E0002010BD00001A
:1010D0000000D042010050420100D04201005043C4
:1010E0000100D043014050440000504310B50400BB
:1010F0000021200000F007FC002801D1012018E0A9
:101100000021200001F04CF8002801D1012010E05E
:101110000021200000F0C4FE002801D1012008E0D9
:101120000021200000F03CF8012801D1012000E05E
:10113000002010BD10B582B00C00694600F084FF9D
:10114000002801D1012008E068460078002805D079
:10115000102806D101202070002016BD002020702C
:10116000FAE70120F9E780B501F033FB002801D14F
:10117000012000E0002002BD80B5022100F0D4FD76
:10118000002801D1012000E0002002BD80B500212F
:1011900000F0CAFD002801D1012000E0002002BDBE
:1011A00080B5C9B201F036FB002801D1012000E072
:1011B000002002BD10B5040046492000FFF71EF9CB
:1011C000012801D1012020E00021200000F0CEFB09
:1011D000002801D1012018E00421200000F060FE69
:1011E000002801D1012010E02021200000F0B5FFEF
:1011F000002801D1012008E00221200001F0D5F9EA
:10120000002801D1012000E0002010BD0000D043E3
:1012100010B504000021200001F0C7F9002801D119
:10122000012010E00021200000F097FF002801D1EC
:10123000012008E00021200000F032FE002801D14A
:10124000012000E0002010BD10B582B00C006946FE
:1012500000F00AFF002801D1012008E0684600786C
:10126000002805D0202806D101202070002016BDBE
:1012700000202070FAE70120F9E710B504005C496E
:101280002000FFF7BBF8012801D1012020E0002158
:10129000200000F06BFB002801D1012018E00021A4
:1012A000200001F0EBF8002801D1012010E002211C
:1012B000200001F053F8002801D1012008E020218E
:1012C000200001F0FEF9002801D1012000E00020FB
:1012D00010BD00000000D04110B504000021200026
:1012E00001F0EFF9002801D1012010E000212000D9
:1012F00001F0C4F8002801D1012008E000212000FD
:1013000001F02CF8002801D1012000E0002010BDE0
:1013100010B582B00C00694600F0E5FD002801D14F
:10132000012008E068460078002805D0082806D18A
:1013300001202070002016BD00202070FAE7012057
:10134000F9E780B5C9B201F009F8002801D1012000
:1013500000E0002002BD10B5040025492000FFF781
:101360004DF8012801D1012040E00021200000F0CB
:10137000FDFA002801D1012038E00821200000F00A
:10138000C9FE002801D1012030E00421200000F036
:101390009EFE002801D1012028E00221200000F05B
:1013A00073FE002801D1012020E00821200000F078
:1013B00037F9012801D1012018E00221200000F0B6
:1013C00039F9012801D1012010E00121200000F0AD
:1013D0003BF9012801D1012008E04021200001F063
:1013E00093F9002801D1012000E0002010BD000089
:1013F0000000D04310B504000021200001F084F962
:10140000002801D1012030E00021200000F008F97F
:10141000012801D1012028E00021200000F00AF974
:10142000012801D1012020E00021200000F00CF96A
:10143000012801D1012018E00021200000F024FE45
:10144000002801D1012010E00021200000F03FFE23
:10145000002801D1012008E00021200000F05AFE00
:10146000002801D1012000E0002010BD10B582B09D
:101470000C00694600F067FD002801D1012008E05A
:1014800068460078002805D0202806D10120207069
:10149000002016BD00202070FAE70120F9E710B502
:1014A000040085492000FEF7A9FF012801D1012091
:1014B00050E00021200000F059FA002801D101205D
:1014C00048E00821200000F025FE002801D101207D
:1014D00040E00421200000F0FAFD002801D10120A5
:1014E00038E00221200000F0CFFD002801D10120CA
:1014F00030E00821200000F093F8012801D10120FC
:1015000028E00321200000F095F8012801D10120F6
:1015100020E00321200000F097F8012801D10120EC
:1015200018E00821200000F099F8012801D10120DD
:1015300010E08021200000F036FF002801D10120BA
:1015400008E00821200001F076F8002801D10120F0
:1015500000E0002010BD10B504000021200001F0C3
:101560006AF8002801D1012040E00021200000F0AD
:1015700057F8012801D1012038E00021200000F0B7
:1015800059F8012801D1012030E00021200000F0AD
:101590005BF8012801D1012028E00021200000F0A3
:1015A0005DF8012801D1012020E00021200000F099
:1015B000FAFE002801D1012018E00021200000F0EF
:1015C00063FD002801D1012010E00021200000F07F
:1015D0007EFD002801D1012008E00021200000F05C
:1015E00099FD002801D1012000E0002010BD10B5B8
:1015F00082B00C00694600F096FC002801D1012061
:1016000008E068460078002805D0102806D101209F
:101610002070002016BD00202070FAE70120F9E7B5
:1016200080B5C9B200F0DFFD002801D1012000E043
:10163000002002BD80B5C9B200F01DFE002801D116
:10164000012000E0002002BD80B5C9B200F038FEE4
:10165000002801D1012000E0002002BD80B5C9B200
:1016600000F055FE002801D1012000E0002002BD5D
:1016700010B5040010492000FEF7C0FE012801D17A
:10168000012018E00021200000F070F9002801D1AD
:10169000012010E04021200000F0CAFD002801D107
:1016A000012008E00421200000F0A2FF002801D161
:1016B000012000E0002010BD0000D04310B5040060
:1016C0000021200000F094FF002801D1012008E053
:1016D0000021200000F0ACFD002801D1012000E035
:1016E000002010BD10B582B00C00694600F09CFCD3
:1016F000002801D1012008E068460078002805D0C4
:10170000402806D101202070002016BD0020207046
:10171000FAE70120F9E710B582B00C00694600F045
:1017200022FC002801D1012008E06846007800284A
:1017300005D0012806D101202070002016BD002010
:101740002070FAE70120F9E710B582B00C00694675
:1017500000F01AFC002801D1012008E0684600785A
:10176000002805D0022806D101202070002016BDD7
:1017700000202070FAE70120F9E710B582B00C00D4
:10178000694600F011FC002801D1012008E06846FC
:101790000078002805D0042806D101202070002000
:1017A00016BD00202070FAE70120F9E710B582B0DD
:1017B0000C00694600F008FC002801D1012008E077
:1017C00068460078002805D0082806D1012020703E
:1017D000002016BD00202070FAE70120F9E710B5BF
:1017E00082B00C00694600F0FFFB002801D1012007
:1017F00008E068460078002805D0102806D10120AE
:101800002070002016BD00202070FAE70120F9E7C3
:1018100010B582B00C00694600F0F6FB002801D13B
:10182000012008E068460078002805D0202806D16D
:1018300001202070002016BD00202070FAE7012052
:10184000F9E70268531C03601170704780B50123EB
:10185000C9B201F009F9002801D0002000E0012000
:1018600002BD04B501236A46C9B201F0F1F80028AF
:1018700001D0002000E0012002BD38B505000C00B9
:101880006A4601212800FFF7E1FF002801D100206E
:1018900015E0684600784006400E694608706846C4
:1018A00000780443684604706846027801212800E5
:1018B000FFF7D7FF002801D1002000E0012032BD52
:1018C00038B505000C006A460A212800FFF7BEFF64
:1018D000002801D1002015E068460078F821014079
:1018E000684601706846007804436846047068469C
:1018F00002780A212800FFF7B4FF002801D1002058
:1019000000E0012032BD38B505000C006A460D210B
:101910002800FFF79BFF002801D1002015E0684652
:1019200000784006400E6946087068460078044317
:1019300068460470684602780D212800FFF791FF81
:10194000002801D1002000E0012032BD10B50C00BC
:1019500022000F21FFF77AFF002801D1002004E0C8
:101960002078207020782070012010BD38B5050047
:101970000C006A4610212800FFF768FF002801D1FB
:10198000002015E068460078F321014068460170A8
:10199000684600780443684604706846027810215F
:1019A0002800FFF75EFF002801D1002000E00120A1
:1019B00032BD10B50C0022001021FFF747FF0028B0
:1019C00001D1002004E020780C2101402170012089
:1019D00010BD38B505000C006A4610212800FFF73D
:1019E00035FF002801D1002015E068460078000787
:1019F000000F694608706846007804436846047022
:101A00006846027810212800FFF72BFF002801D13B
:101A1000002000E0012032BD10B50C002200102192
:101A2000FFF714FF002801D1002004E02078F02106
:101A300001402170012010BD38B505000C006A4638
:101A400011212800FFF702FF002801D1002015E036
:101A500068460078FD2101406846017068460078BC
:101A60000443684604706846027811212800FFF795
:101A7000F8FE002801D1002000E0012032BD10B5A1
:101A80000C0022001121FFF7E1FE002801D1002007
:101A900004E02078022108402070012010BD38B5F4
:101AA00005000C006A4611212800FFF7CFFE002830
:101AB00001D1002015E068460078F3210140684616
:101AC00001706846007804436846047068460278EE
:101AD00011212800FFF7C5FE002801D1002000E0F9
:101AE000012032BD10B50C0022001121FFF7AEFE1F
:101AF000002801D1002004E020780C210140217051
:101B0000012010BD38B505000C006A4611212800DF
:101B1000FFF79CFE002801D1002015E06846007800
:101B20000007000F6946087068460078044368465D
:101B300004706846027811212800FFF792FE002801
:101B400001D1002000E0012032BD10B50C002200C0
:101B50001121FFF77BFE002801D1002004E020784E
:101B6000F02101402170012010BD38B505000C00A6
:101B70006A4612212800FFF769FE002801D10020E3
:101B800015E068460078FB21014068460170684610
:101B900000780443684604706846027812212800E1
:101BA000FFF75FFE002801D1002000E0012032BDD8
:101BB00038B505000C006A4612212800FFF746FEE2
:101BC000002801D1002015E068460078BF210140BF
:101BD00068460170684600780443684604706846A9
:101BE000027812212800FFF73CFE002801D10020D6
:101BF00000E0012032BD38B505000C006A4618210E
:101C00002800FFF723FE002801D1002015E06846D8
:101C10000078F72101406846017068460078044367
:101C2000684604706846027818212800FFF719FEFC
:101C3000002801D1002000E0012032BD10B50C00C9
:101C400022001821FFF702FE002801D1002004E045
:101C50002078082108402070012010BD38B505000B
:101C60000C006A4618212800FFF7F0FD002801D17A
:101C7000002015E068460078EF21014068460170B9
:101C80006846007804436846047068460278182164
:101C90002800FFF7E6FD002801D1002000E0012028
:101CA00032BD10B50C0022001821FFF7CFFD00282F
:101CB00001D1002004E0207810210840207001208C
:101CC00010BD38B505000C006A4618212800FFF742
:101CD000BDFD002801D1002015E068460078DF2115
:101CE0000140684601706846007804436846047005
:101CF0006846027818212800FFF7B3FD002801D1BB
:101D0000002000E0012032BD10B50C002200182197
:101D1000FFF79CFD002801D1002004E0207820215D
:101D200008402070012010BD38B505000C006A463F
:101D300019212800FFF78AFD002801D1002015E0B5
:101D400068460078FD2101406846017068460078C9
:101D50000443684604706846027819212800FFF79A
:101D600080FD002801D1002000E0012032BD38B5FF
:101D700005000C006A4619212800FFF767FD0028BE
:101D800001D1002015E068460078F721014068463F
:101D9000017068460078044368460470684602781B
:101DA00019212800FFF75DFD002801D1002000E087
:101DB000012032BD10B50C0022001921FFF746FDAD
:101DC000002801D1002004E020780821084020707C
:101DD000012010BD38B505000C006A461921280005
:101DE000FFF734FD002801D1002015E06846007897
:101DF000EF21014068460170684600780443684658
:101E000004706846027819212800FFF72AFD00288F
:101E100001D1002000E0012032BD10B50C002200ED
:101E20001921FFF713FD002801D1002004E02078DC
:101E3000102108402070012010BD38B505000C00AD
:101E40006A4619212800FFF701FD002801D1002072
:101E500015E068460078DF21014068460170684659
:101E60000078044368460470684602781921280007
:101E7000FFF7F7FC002801D1002000E0012032BD6F
:101E800010B50C0022001921FFF7E0FC002801D159
:101E9000002004E02078202108402070012010BD9F
:101EA00038B505000C006A4619212800FFF7CEFC62
:101EB000002801D1002015E068460078FB21014090
:101EC00068460170684600780443684604706846B6
:101ED000027819212800FFF7C4FC002801D1002056
:101EE00000E0012032BD10B50C0022001B21FFF7DD
:101EF000ADFC002801D1002004E020780821084032
:101F00002070012010BD10B50C0022001B21FFF72E
:101F10009DFC002801D1002004E020782021084009
:101F20002070012010BD10B50C0022001C21FFF70D
:101F30008DFC002801D1002004E020781021084009
:101F40002070012010BD10B50C0022001C21FFF7ED
:101F50007DFC002801D1002004E0207820210840E9
:101F60002070012010BD10B50C0022001D21FFF7CC
:101F70006DFC002801D1002005E020780100C90790
:101F8000C90F2170012010BD10B50C0022001D21C9
:101F9000FFF75CFC002801D1002004E0207802213A
:101FA00008402070012010BD10B50C0022001D213A
:101FB000FFF74CFC002801D1002004E02078042128
:101FC00008402070012010BD10B50C0022001D211A
:101FD000FFF73CFC002801D1002004E02078082114
:101FE00008402070012010BD10B50C0022001D21FA
:101FF000FFF72CFC002801D1002004E020781021FC
:1020000008402070012010BD10B50C0022001D21D9
:10201000FFF71CFC002801D1002004E020782021DB
:1020200008402070012010BD10B50C0022001D21B9
:10203000FFF70CFC002801D1002004E020784021AB
:1020400008402070012010BD10B50C002200532163
:10205000FFF7FCFB002801D1002004E020781021CC
:1020600008402070012010BD10B50C002200532143
:10207000FFF7ECFB002801D1002004E020782021AC
:1020800008402070012010BD38B505000C006A46DC
:1020900058212800FFF7DAFB002801D1002015E0C5
:1020A00068460078FD210140684601706846007866
:1020B0000443684604706846027858212800FFF7F8
:1020C000D0FB002801D1002000E0012032BD38B54E
:1020D00005000C006A4658212800FFF7B7FB0028CE
:1020E00001D1002015E068460078FB2101406846D8
:1020F00001706846007804436846047068460278B8
:1021000058212800FFF7ADFB002801D1002000E096
:10211000012032BD38B505000C006A465821280060
:10212000FFF794FB002801D1002015E068460078F5
:10213000F72101406846017068460078044368460C
:1021400004706846027858212800FFF78AFB0028AF
:1021500001D1002000E0012032BD38B505000C009F
:102160006A4658212800FFF771FB002801D10020A2
:1021700015E068460078DF21014068460170684636
:1021800000780443684604706846027858212800A5
:10219000FFF767FB002801D1002000E0012032BDDD
:1021A00038B505000C006A4658212800FFF74EFBA1
:1021B000002801D1002015E068460078BF210140C9
:1021C00068460170684600780443684604706846B3
:1021D000027858212800FFF744FB002801D1002095
:1021E00000E0012032BD38B505000C00E406E40E25
:1021F0006A4659212800FFF729FB002801D1002059
:1022000015E068460078E0210140684601706846A4
:102210000078044368460470684602785921280013
:10222000FFF71FFB002801D1002000E0012032BD94
:1022300038B505000C006A4659212800FFF706FB57
:10224000002801D1002015E0684600789F21014058
:102250006846017068460078044368460470684622
:10226000027859212800FFF7FCFA002801D100204C
:1022700000E0012032BD38B505000C00A407A40F12
:102280006A465A212800FFF7E1FA002801D1002010
:1022900015E068460078FC210140684601706846F8
:1022A0000078044368460470684602785A21280082
:1022B000FFF7D7FA002801D1002000E0012032BD4D
:1022C00038B505000C00A40020000C2404406A4628
:1022D0005A212800FFF7BAFA002801D1002015E0A2
:1022E00068460078F321014068460170684600782E
:1022F000044368460470684602785A212800FFF7B4
:10230000B0FA002801D1002000E0012032BD38B52C
:1023100005000C0024012000F02404406A465A21E4
:102320002800FFF793FA002801D1002015E0684645
:1023300000780007000F694608706846007804437B
:1023400068460470684602785A212800FFF789FA27
:10235000002801D1002000E0012032BD38B5050081
:102360000C00A406A40E6A465B212800FFF76EFA53
:10237000002801D1002015E068460078C021014006
:1023800068460170684600780443684604706846F1
:1023900002785B212800FFF764FA002801D10020B1
:1023A00000E0012032BD38B505000C006A465B2113
:1023B0002800FFF74BFA002801D1002015E06846FD
:1023C00000784006400E694608706846007804436D
:1023D00068460470684602785B212800FFF741FADE
:1023E000002801D1002000E0012032BD38B50500F1
:1023F0000C002407240F6A465C212800FFF726FA08
:10240000002801D1002015E068460078F021014045
:102410006846017068460078044368460470684660
:1024200002785C212800FFF71CFA002801D1002067
:1024300000E0012032BD38B505000C006A465C2181
:102440002800FFF703FA002801D1002015E06846B4
:102450000078EF2101406846017068460078044327
:1024600068460470684602785C212800FFF7F9F995
:10247000002801D1002000E0012032BD38B5050060
:102480000C0064012000602404406A465C2128009E
:10249000FFF7DCF9002801D1002015E0684600783C
:1024A0009F210140684601706846007804436846F1
:1024B0000470684602785C212800FFF7D2F90028F2
:1024C00001D1002000E0012032BD38B505000C002C
:1024D0006A465D212800FFF7B9F9002801D10020E4
:1024E00015E068460078F8210140684601706846AA
:1024F0000078044368460470684602785D2128002D
:10250000FFF7AFF9002801D1002000E0012032BD23
:1025100070B582B00600CD06ED0E0C00A406E40FE7
:10252000ED002800F82505406A465D213000FFF7E0
:102530008DF9002801D1002036E068460078400778
:10254000400F694608706846007805436846057084
:10255000684602785D213000FFF783F9002801D139
:10256000002021E0E401802004406A465C21300024
:10257000FFF76CF9002801D1002015E068460078CB
:102580004006400E69460870684600780443684675
:102590000470684602785C213000FFF762F9002879
:1025A00001D1002000E0012076BD38B505000C0007
:1025B0006A465E212800FFF749F9002801D1002072
:1025C00015E068460078FD210140684601706846C4
:1025D0000078044368460470684602785E2128004B
:1025E000FFF73FF9002801D1002000E0012032BDB3
:1025F00038B505000C006A465E212800FFF726F971
:10260000002801D1002015E068460078FB21014038
:10261000684601706846007804436846047068465E
:1026200002785E212800FFF71CF9002801D1002064
:1026300000E0012032BD38B505000C006A465E217D
:102640002800FFF703F9002801D1002015E06846B3
:102650000078F7210140684601706846007804431D
:1026600068460470684602785E212800FFF7F9F892
:10267000002801D1002000E0012032BD38B505005E
:102680000C006A465E212800FFF7E0F8002801D11F
:10269000002015E068460078EF210140684601708F
:1026A00068460078044368460470684602785E21F4
:1026B0002800FFF7D6F8002801D1002000E0012013
:1026C00032BD38B505000C006A465E212800FFF7D0
:1026D000BDF8002801D1002015E068460078DF2110
:1026E00001406846017068460078044368460470FB
:1026F000684602785E212800FFF7B3F8002801D170
:10270000002000E0012032BD38B505000C006A460B
:102710005E212800FFF79AF8002801D1002015E07B
:1027200068460078BF21014068460170684600781D
:10273000044368460470684602785E212800FFF76B
:1027400090F8002801D1002000E0012032BDF3B54F
:1027500081B002270024002600E0761CF6B2032E8A
:1027600014DA002501E0641C6D1CEDB2FFB2BD421D
:10277000F3D20298E4B2021921002231C9B20198C1
:10278000FFF764F80028EED1002000E00120FEBD34
:10279000F3B581B002270024002600E0761CF6B2D3
:1027A000032E14DA002501E0641C6D1CEDB2FFB2AB
:1027B000BD42F3D20298E4B2021921002831C9B215
:1027C0000198FFF743F80028EED1002000E0012037
:1027D000FEBDF3B581B002270024002600E0761C80
:1027E000F6B2002E14D1002501E0641C6D1CEDB280
:1027F000FFB2BD42F3D20298E4B2021921004B317C
:10280000C9B20198FFF722F80028EED1002000E0BD
:102810000120FEBD38B505000C0080212800FFF71F
:102820002CF86A460F212800FFF710F86846007858
:10283000E02101406846017068460078E106C90E53
:10284000014368460170684602780F212800FFF7AF
:1028500008F800212800FFF710F8012032BD200001
:102860009D2102000AD5F446524200F007F80122E9
:10287000D2071043604700009D2102000AD002D415
:10288000491E9218FCD5C905100A1206524100D300
:10289000012A4841704730B405004D400122D2075B
:1028A00015404B180418240E2ED01B0E32D0FF2CCE
:1028B00034D0FF2B3AD0E418000209021043114330
:1028C000000A090A9446C2B24A43000AC3B24B4303
:1028D000000A4843110A5B181A43D2B2190A0918B0
:1028E00001D44918641E080A7F3C23DBFE2C08DA59
:1028F000E40509061143634699416041284330BC11
:102900007047FF20C005F9E728001B0EFF2BF6D10A
:10291000D043F4E72800FF2CF1D1F9E74002F7D1CA
:10292000FF2B01D14902F3D1E005E7E7D8054902C1
:10293000E4D0EDE743020020641CDFD15B129B1C56
:10294000DCD9D805DAE700200122D2070118090EE8
:102950007F3910D449421F310FD4001805D2C0016D
:102960001043C84000D5D0437047C0011043C84051
:1029700005D440427047002070470042F3D5100054
:102980007047FEE70CB4012212060318DA4207D89A
:102990004B18DA4204D802000A43921802D2884245
:1029A0000CBC7047FCD08142FAE7FEE780B500F02E
:1029B00067F8002801D0012000E0002002BD0020BF
:1029C000704700B58BB07F480068012101437D4806
:1029D00001607C4800680100C907C90F0091009898
:1029E0001020069078480790022009900020089057
:1029F00006A9A020C00500F0F9F800220021072058
:102A000000F06EFA072000F070FA6E4800680221AC
:102A100001436C4801606B48006802210840009047
:102A20000098012001906848029002200490002044
:102A3000039001A9654800F0D9F800220021052083
:102A400000F04EFA052000F050FA00200BB000BD57
:102A500080B59BB2C9B2407800F032F8002801D0AE
:102A6000012000E0002002BD80B59BB2C9B24078D1
:102A700000F046F8002801D0012000E0002002BD4F
:102A800080B5534800F040FC002810D1514850490F
:102A9000486033204E49886001204D49C8604E4847
:102AA0004B49086000F053F8494800F033FA4848B1
:102AB00000F02AFC012801D1002000E0012002BD25
:102AC00010B584B0040000204448006802909BB216
:102AD000019300920123C9B20A0092B2E4B221002C
:102AE00089B23B4800F098FAC0B2002805D0200017
:102AF000C0B200F025F8012000E0002004B010BDB5
:102B000010B584B0040000203448006802909BB2E5
:102B1000019300920123C9B20A0092B2E4B22100EB
:102B200089B22B4800F034FBC0B2002805D0200049
:102B3000C0B200F005F8012000E0002004B010BD94
:102B400080B5234800F044FAFFF79AFF01BD00B5B5
:102B500087B01C480068022101431A4801601948E7
:102B600000680221084000900098C0208000019079
:102B7000122002900220049000200390042005906F
:102B800001A9124800F032F8154800688021890335
:102B90000143134801601348006880218903014301
:102BA000104801600F4800680F4901400D4801605E
:102BB00000220021172000F093F9172000F095F96A
:102BC00007B000BD2C10024000001110000400509E
:102BD000DC0A00202E11B100005400400404002043
:102BE0003810024028100240FFFFDFFFF0B502005E
:102BF00000230024002534E006201E00B607B60F8F
:102C000004277E43B040284305006B481E00B608E9
:102C100004277E43855167480568A5434868C0037B
:102C200000D525436348056064480568A5434868A6
:102C3000800300D525436148056061480568A543C8
:102C40004868C00200D525435D4805605D480568B9
:102C5000A5434868800201D52C43250059480560EA
:102C60005B1C0868D840002800D1A1E00868012456
:102C70009C400440002CF3D04868022802D04868E9
:102C800012281CD11800C008042568431018056AD2
:102C90000F201E007607760F04277E43B040854341
:102CA00008691E007607760F04277E43B04028434C
:102CB00005001800C0080426704310180562486813
:102CC000012808D04868022805D04868112802D099
:102CD000486812281AD1956803201E0002277E43F7
:102CE000B0408543C8681E0002277E43B040284399
:102CF0000500956055680120984085432E0048687E
:102D00000500ED06ED0F9D40354355601568032025
:102D10001E0002277E43B040854308798007800F5C
:102D20001E0002277E43B040284305001560D56889
:102D300003201E0002277E43B04085432F008D688C
:102D40001E0002204643B5403D43D5604868C000A0
:102D500086D52C480068012505432A480560164899
:102D60001D00AD080426754345590F201E00B60707
:102D7000B60F04277E43B0408543A020C0058242A1
:102D800001D1002039E72048824201D1012034E7F7
:102D90001E48824201D102202FE71D48824201D104
:102DA00003202AE71B48824200D025E7052024E7BC
:102DB000F0BD00000004014008000140040401408F
:102DC000080401400C04014000B5D2B2002A02D030
:102DD00089B2816101E089B2816200BD426989B234
:102DE0004A404261704780B50B49096880B2014092
:102DF000002905D080B20849086080B200F09CFF2D
:102E000001BD0000341002400004005000080050D2
:102E1000000C0050001C0050140401400121C006A9
:102E2000C00E8140354801607047F0B540B20028BF
:102E300021D5334B40B20207120F083A92080424FE
:102E400062432F4C40B205072D0F083DAD08042604
:102E500075436459FF258607B60F08277E43B540A2
:102E6000AC438901C9B28007800F082568438140BF
:102E7000214399501BE0234A40B203009B080424DD
:102E80006343D258FF238407A40F08256C43A34053
:102E90009A438901C9B283079B0F08246343994071
:102EA0001143184A40B28008042358431150F0BD22
:102EB00080B5411E80225204914201D301200EE0D0
:102EC000401E1149086003210020C043FFF7ADFFF9
:102ED00000200E49086007200D490860002002BD4F
:102EE00080B540B2FFF7A1FF01BD80B540B2FFF74A
:102EF00095FF01BD80B5FFF7DBFF02BD00E100E0FB
:102F00001CED00E000E400E014E000E018E000E068
:102F100010E000E010B50400002C01D1012056E0C3
:102F20003520205C002805D1002034216054200089
:102F300000F06AF802203521605420680068012101
:102F40008843216808606068304901402068016159
:102F5000206880682E49014020688160A0680028B0
:102F60000FD0E068012806D1A06880210902014342
:102F70002068816005E0A06884210902014320687F
:102F80008160E068022803D1802000012168486048
:102F9000206840681F4901432068416020696169D9
:102FA0000143A069000208432168C860E069216A02
:102FB0000143206801602068006801210143206806
:102FC00001600020A063012035342070002010BD76
:102FD00010B50400002C01D1012014E0022035219D
:102FE000605420680068012188432168086020003F
:102FF00000F00BF80020A063002035216054002071
:1030000034342070002010BD70477047FFFFFFF080
:10301000FF7FFFFF00800002F2B582B004000025B0
:103020003520205C012800D0AFE0089F002F03D09E
:10303000099EB6B2002E01D10120A7E02068806968
:10304000000401D50220A1E03420205C012801D138
:1030500002209BE00120342160545220352160542D
:103060000020A0630A9800909BB292B26846018942
:10307000200000F04CF900280CD0A06B042804D1EB
:10308000002034342070012080E00020343420708F
:1030900003207BE0B6B2FF2E0BDD002000908023E2
:1030A0005B04FF2268460189200000F0A7FAFF2593
:1030B0000CE00020009080239B043200D2B26846CE
:1030C0000189200000F09AFAB6B235000A99200072
:1030D00000F0F0F9002806D0A06B042801D10120EF
:1030E00054E0032052E03878216888627F1C6D1E0E
:1030F000761E002D28D1B6B2002E25D00A9B0022C4
:103100008021200000F08EF9002801D003203DE04E
:10311000B6B2FF2E0BDD0020009080235B04FF225F
:1031200068460189200000F069FAFF250CE00020C4
:10313000009080239B043200D2B2684601892000AF
:1031400000F05CFAB6B23500B6B2002EBED119213D
:10315000200000F0DAF9002806D0A06B042801D185
:10316000012013E0032011E020202168C8612068BD
:103170004068644901402068416001203521605465
:10318000002034342070002000E00220FEBD00004A
:10319000F2B582B0040000253520205C012800D063
:1031A000AEE0089F002F03D0099EB6B2002E01D1D9
:1031B0000120A6E020688069000401D50220A0E07B
:1031C0003420205C012801D102209AE00120342122
:1031D00060546220352160540020A0630A9800905A
:1031E0009BB292B268460189200000F0D6F8002810
:1031F0000CD0A06B042804D10020343420700120AE
:103200007FE000203434207003207AE0B6B2FF2E35
:103210000CDD90208001009080235B04FF22684633
:103220000189200000F0EAF9FF250DE090208001DF
:10323000009080239B043200D2B2684601892000AE
:1032400000F0DCF9B6B235000A9B00220421200010
:1032500000F0E8F8002801D0032052E02068406A1E
:1032600038707F1C6D1E761E002D28D1B6B2002E40
:1032700025D00A9B00228021200000F0D3F80028EE
:1032800001D003203DE0B6B2FF2E0BDD0020009000
:1032900080235B04FF2268460189200000F0AEF91C
:1032A000FF250CE00020009080239B043200D2B266
:1032B00068460189200000F0A1F9B6B23500B6B227
:1032C000002EC1D11921200000F01FF9002806D0DE
:1032D000A06B042801D1012013E0032011E020207D
:1032E0002168C86120684068064901402068416043
:1032F000012035216054002034342070002000E08B
:103300000220FEBD00E800FE353000787047F8B5B9
:10331000040015001F0080208001009080235B04C2
:103320003A00D2B289B2200000F068F9069E31005E
:10333000200000F0BFF8002806D0A06B042801D1BF
:10334000012029E0032027E0BFB2012F03D1EDB215
:103350002068856215E0280080B2000AC0B22168AA
:1033600088623100200000F0A5F8002806D0A06B8C
:10337000042801D101200FE003200DE0EDB2206808
:103380008562330000228021200000F04BF80028E5
:1033900001D0032000E00020F2BDF8B504001500C4
:1033A0001F0080208001009000233A00D2B289B231
:1033B000200000F023F9069E3100200000F07AF88A
:1033C000002806D0A06B042801D1012029E00320A9
:1033D00027E0BFB2012F03D1EDB22068856215E06E
:1033E000280080B2000AC0B2216888623100200043
:1033F00000F060F8002806D0A06B042801D101205D
:103400000FE003200DE0EDB220688562330000225A
:103410004021200000F006F8002801D0032000E041
:103420000020F2BDF2B5040017001D0000F031FDD0
:103430000600FFB2002F1DD120688069009901406D
:10344000C803C00B0099C903C90B884230D00020C3
:10345000C0438542F0D0002D04D000F01AFD801B3F
:103460008542E9D201203521605400203434207097
:1034700003201EE02068806900990140C803C00B4A
:103480000099C903C90B884212D10020C04385426C
:10349000F0D0002D04D000F0FCFC801B8542E9D266
:1034A000012035216054002034342070032000E0D6
:1034B0000020F2BD70B504000E0000F0EAFC05002B
:1034C0002068806980071ED43100200000F045F894
:1034D000002801D0012017E00020C0438642EFD031
:1034E000002E04D000F0D5FC401B8642E8D2A06B31
:1034F00020210143A1630120352160540020343490
:103500002070032000E0002070BD70B504000E00A4
:10351000002500F0BEFC05002068806980061AD4F2
:103520003100200000F019F8002801D0012013E03C
:10353000002E04D000F0ADFC401B8642ECD2A06B04
:1035400020210143A163012035216054002034343F
:103550002070032000E0002070BD70B505000C0055
:10356000002600F096FC060028688069C00643D556
:103570003520285C122807D03520285C522803D03B
:103580003520285C62280AD128684068800106D46A
:10359000286840688021C901014328684160286883
:1035A0008069800612D40020C0438442F7D0002CEA
:1035B00004D000F06EFC801B8442F0D20120352143
:1035C0006854002034352870032016E01020296844
:1035D000C86120202968C8612868406812490140F4
:1035E000286841600420A863012035216854002028
:1035F00034352870012000E0002070BD30B4002474
:10360000046864682500094C2C40250089B28905AE
:10361000890DD2B212040A431343029C1C432C436B
:103620000068446030BC704700E800FE009800FC71
:1036300000B5C1B000F000FC00F040FC002000F03C
:1036400018FD002000F048FD0121002000F061FD80
:1036500000F081FE00F014FB00F036FB00F052F8A1
:1036600000F06DF81AE0002000F036FDAC4800785C
:1036700000280BD0684600F007FF33200090684612
:1036800000F04AFEA748006800F006FCD148007828
:10369000002803D0FA20400000F0FEFB684600F04E
:1036A0009DFD00280DD068460079322809D1684672
:1036B00000F0F4FE9A480078002802D00020C549A6
:1036C0000870684600F08BF8684600F0EFF968462D
:1036D00000F040FA684600F089FA684600F0CBF83E
:1036E000684600F021F9684600F082F98C480078BD
:1036F000002803D1B74800780028B4D0002000F09B
:10370000FAFCB3E780B5B4490020C04301F012F8D9
:10371000B2490020C04301F02DF9B149002001F069
:103720004FFAB049002001F0F7FAAF49002001F04C
:10373000A3FBAE490020C04301F012FD01BD80B5DE
:10374000A548006801F0DCF8A448006801F0F2F92F
:10375000A348006801F0A6FAA248006801F052FBF5
:10376000A148006801F0C2FCA048006801F0BAFD61
:1037700001BDF8B504000E0015001F002000FFF782
:10378000E3F830602000002101F0F2FD08D8306835
:10379000FFF766F80100200001F036FE040006E0A5
:1037A0003068FFF75DF8210001F02EFE04003800BC
:1037B00001F082FE02000B000020B84902F0E4F89C
:1037C00006000F00200002F0F7FA32003B0002F082
:1037D0000CFB02F0CCFB02F0D3FB2860F1BD10B56E
:1037E00088B0040000204E490978002903D17949A6
:1037F0000978002913D0002203A9A94802F0D6FCB9
:10380000002202A9A64802F08BFD982040000499EE
:10381000401A64214843FF21323102F018FE40492A
:10382000097800290AD06946097BE17103A9497822
:10383000217203A989786172A0721AE0654909783A
:10384000002916D0C0B2019003A88078009003A888
:1038500043786846027B9349B84802F053FEB74864
:1038600002F06CFE0200B64B92B2B449B54802F0C9
:10387000ACFE08B010BD10B588B004000020694649
:10388000087101A95448006801F04EF8002845D19C
:1038900068460079012841D1AB494F48006801F0E2
:1038A00050F81F480078002819D0A8480068C006C2
:1038B00034D50422A44801682000133003F0BAFA7A
:1038C0000422A14841682000173003F0B3FA042213
:1038D0009D4881681B34200003F0ACFA1EE03D488F
:1038E000007800281AD098480068029096484068EE
:1038F000039095488068049004980090039B029A76
:1039000093498E4802F0FEFD8C4802F017FE8C4B66
:10391000020092B289498B4802F057FE08B010BDF0
:10392000340D0020F403002010B588B004000020FE
:103930006946087101A92948006801F00FF90028BB
:1039400045D168460079012841D1A649234800683D
:1039500001F01EF9C9480078002819D07B4800689A
:10396000800634D504229F48016820001F3003F0F0
:1039700061FA04229B4841682000233003F05AFA80
:103980000422984881682734200003F053FA1EE08F
:103990001048007800281AD0924800680590914895
:1039A000406806908F488068079007980090069BB3
:1039B000059A8D49614802F0A5FD604802F0BEFD00
:1039C0005F4B020092B25D495E4802F0FEFD08B016
:1039D00010BD0000360D0020F00C0020F40C00207B
:1039E000F80C0020FC0C0020000D0020040D00202D
:1039F00010B586B0040000206946087101A9B048DE
:103A0000006801F063F9002845D168460079012873
:103A100041D1AC49AA48006801F065F9974800789F
:103A2000002819D049480068400634D50422A5482A
:103A3000016820002B3003F0FDF90422A148416801
:103A400020002F3003F0F6F904229E4881683334B9
:103A5000200003F0EFF91EE01348007800281AD088
:103A6000984800680290974840680390954880689D
:103A7000049004980090039B029AAC492F4802F0EE
:103A800041FD2E4802F05AFD2D4B020092B22B4907
:103A90002C4802F09AFD06B010BD00000000244042
:103AA000CC0B0020F8C40008360D002010B584B0FF
:103AB000040000206946087069469D48006801F0CE
:103AC00025FC002838D168460078012834D199496E
:103AD0009748006801F034FC022301AA02A9954826
:103AE0000068FFF746FE65480078002810D01748A8
:103AF0000068C00720D50222029920000B3003F095
:103B000083F9022201990D34200003F07DF913E0BE
:103B1000B548007800280FD0019B029AB3490748A6
:103B200002F0F0FC054802F009FD054B020092B2DC
:103B30000249044802F049FD1FBD000010080020A2
:103B40008813000090090020700C0020D80C002081
:103B50000CC4000810B584B0040000206946087049
:103B60006946A348006801F061F9002838D1684629
:103B70000078012834D19F499D48006801F063F91D
:103B8000022301AA02A99B480068FFF7F2FD3B4807
:103B90000078002810D098480068400720D50122FE
:103BA00002992000113003F02FF9012201991234FB
:103BB000200003F029F913E08B48007800280FD08B
:103BC000019B029A8D498E4802F09CFC8C4802F0C1
:103BD000B5FC8C4B020092B289498B4802F0F5FC8F
:103BE0001FBD00007C0C002030C4000810B584B05C
:103BF000040000206946087069468448006801F0A6
:103C000089FA002838D168460078012834D18049E3
:103C10007E48006801F08BFA022301AA02A97C48C1
:103C20000068FFF7A6FD15480078002810D07248FC
:103C30000068800720D50122029920000F3003F090
:103C4000E3F8012201991034200003F0DDF813E0BD
:103C50006548007800280FD0019B029A6D4968489A
:103C600002F050FC664802F069FC664B020092B21A
:103C70006349654802F0A9FC1FBD0000340D002017
:103C800080B56548654908604020644948607F20E8
:103C900062498860982040006049C86000205F4900
:103CA000086100205D49886100205C49C8615B486B
:103CB00002F090F9002801D000F0B8F801BD000032
:103CC000F80C0020880C002000B587B0142069464D
:103CD000C870022069464870182069468870022022
:103CE00069460870012269464C4802F095FA00289E
:103CF00001D000F09BF8082069460871102001A946
:103D00004870002001A98870002001A9C870002017
:103D1000049000200590012201A9404802F0B6F964
:103D2000002801D000F082F807B000BD54C400089C
:103D3000040D0020DC0C002010B580B28021890128
:103D4000884233D1002436480068002809D135481C
:103D50000068002805D100F06BF8314908600124A3
:103D600011E000F065F82F4908602E4800682C49E2
:103D70000968401AFF212E31884204D3294800687F
:103D8000274908600124002C10D02748007800281B
:103D900003D000201449087008E013480078002878
:103DA00001D0002000E001200F49087010BD10B5BF
:103DB00086B000236C46E3706B461870684641700D
:103DC000684682700020019000200390002004903B
:103DD00000226946114802F059F9002801D000F08C
:103DE00025F806B010BD0000360D002038C50008CB
:103DF000FC0C0020E00C0020D80C002048C5000876
:103E0000100800208813000090090020000D0020F9
:103E1000E40C002058C5000800280040CC0B00200E
:103E2000E80C0020EC0C0020340D002000B5FEE76B
:103E300080B500F02EF802BD80B51E480068402114
:103E400001431C4801601B4800680221884319494E
:103E50000860032000F005F800F002F8002002BD21
:103E6000704710B5040003F066FCFA21890002F0E7
:103E7000F1FAFFF73FF8002221000020C043FFF7CE
:103E80002FF8002010BD0C480068401C0A4908604B
:103E9000704709480068704711B581B00024FFF7EA
:103EA000F8FF0400FFF7F5FF001B01998842F9D3E2
:103EB00013BD000000200240080D002000B593B0A3
:103EC0003F4800688021490501433D4801603D4865
:103ED00000683D49014080200001084339490860DD
:103EE00002200590012008901020099002200F90D8
:103EF000002010908020C00211908020C0031290FA
:103F000005A802F0A1FF0F200090032001900020DF
:103F1000029000200390002004900121684603F0E5
:103F200065FA2A480068012101432848016013B05E
:103F300000BD00B5264909680268264B9A4201D1A6
:103F4000082023E00268244B9A4201D180201DE022
:103F50000268224B9A4202D18020000116E00268DA
:103F60001F4B9A4202D1802000020FE002681D4BD5
:103F70009A4202D18020000308E000681A4A904269
:103F800002D18020000401E080200005084000BD2F
:103F9000006840687047134901600021816000217A
:103FA000C1608021016100214161002181612021E6
:103FB000C161C02189010162042141607047000094
:103FC0003810024000700040FFE7FFFF341002404D
:103FD00000000240080002401C0002403000024085
:103FE00044000240580002406C000240F0B540B26C
:103FF000002821D56F4B40B20207120F083A9208F1
:10400000042462436B4C40B205072D0F083DAD08F8
:10401000042675436459FF258607B60F08277E439B
:10402000B540AC438901C9B28007800F08256843B9
:104030008140214399501BE05F4A40B203009B0836
:1040400004246343D258FF238407A40F08256C433C
:10405000A3409A438901C9B283079B0F0824634395
:1040600099401143544A40B28008042358431150E8
:10407000F0BD10B586B0040050480068012101432E
:104080004E4801604D4800680100C907C90F009102
:1040900000984B48E4B202216143405A019001204C
:1040A0000290012003900320049001A94548E4B246
:1040B000042262438058FEF799FD00224048E4B292
:1040C00002216143415A3F48E4B204235C43005952
:1040D000FEF77AFE06B010BD10B500223849C0B216
:1040E00002234343C95A374BC0B2042460431858D3
:1040F000FEF76AFE10BD80B53149C0B202224243CC
:10410000895A304AC0B2042358431058FEF766FE5D
:1041100001BD30B587B004000D00284800680421B7
:1041200001432648016025480068042108400090AA
:104130000098254800680121014323480160EDB241
:10414000002D13D12148E4B202216143405A01906D
:1041500000200290022003900320049001A91C4833
:10416000E4B2042262438058FEF740FDEDB2012D17
:104170001ED11648E4B202216143405A019000204A
:1041800003901448029001A91148E4B2042262434A
:104190008058FEF72BFD03210F48E4B2005D40B2CA
:1041A000FFF724FF0C48E4B2005D40B2FEF79DFE2D
:1041B00007B030BD1CED00E000E400E02C10024030
:1041C0005E280008F8030020341002404629000849
:1041D000FC03002000001110C6C50008F1B582B034
:1041E000002600279848FFF7A4FE002800D091E0A1
:1041F0008024A4009448FFF7CBFE201A694608806B
:104200006846008891498988884207D3684669468C
:1042100009888E4A9288891A818009E06846694631
:104220000988802292008918884A9288891A818098
:104230008648848800206946488004E068466946CC
:104240004988491C41806846408869468988884277
:1042500056D27F48A4B2005D641CA4B280218900BC
:104260008C4200DB0024C0B2F028E7D17748848874
:1042700000250AE0A4B2FFB2E0198021890002F013
:10428000E6F80C00761CFFB2ED1968464088ADB226
:10429000854221D26F46A4B22000401C80218900B3
:1042A00002F0D5F8F9806A48A4B2005D68496A4610
:1042B000D288895C029AB6B29219121DC9B2C0B2F4
:1042C00002F064FD0700FFB2002FD3D16846C0881A
:1042D0005E49888000201EE0B6B202980660A4B253
:1042E000641C20008021890002F0B1F80C005748BE
:1042F0008480029802F072FD00289FD001200AE01D
:1043000068468088FF21891C884203DB6846008854
:104310004E4988800020FEBD10B50400200002F048
:104320004CFD21004B4802F01CFD4B4B020092B2A9
:1043300048494A4802F049F910BD80B54248FFF7A4
:104340002AFE414803F036FA3F484449486643484C
:104350003D49886201BD00B587B041480068012130
:1043600001433F4801603E4800680100C907C90F8A
:10437000009100983A4800680121014338480160E3
:10438000374800680100C907C90F009100983548F7
:104390000068802189020143324801603248006888
:1043A00001210143304801602F4800680100C9071E
:1043B000C90F009100980420019002200290002073
:1043C0000390022004900420059001A9A020C005BC
:1043D000FEF70CFC082001900420059001A9A02004
:1043E000C005FEF703FC21481C490860204800680E
:1043F0001A49486000201949886000201749C860A0
:104400000020164908610020144988610C201349D6
:104410004861124802F09AF8002800D0FEE7FFF742
:104420008CFF0B480D4948658020800011490880A9
:1044300000200A49C866802292000549074802F018
:1044400034F907B000BD0000A00A0020940C002041
:10445000100400201006002088130000900900209E
:104460002C1002403810024030100240004400403E
:10447000F0030020E80900204179017132214171E7
:104480008179803981717047A3490978017132219E
:1044900041710821817103210160704710B582B01C
:1044A00004002068022801D2002034E1207932285B
:1044B00001D000202FE1A079012819D0022832D0A4
:1044C000042848D0082800D1DAE0092800D1FAE011
:1044D0000C2800D10AE10E2819D0602850D062289B
:1044E00079D0762800D18BE07A2800D1B3E011E1B1
:1044F0002068032801D000200DE12000FFF7BCFF59
:10450000032020602000FFF707FF012003E120685F
:10451000032801D00020FEE02000FFF7ADFF0320BC
:1045200020600120F7E02068032801D00020F2E09D
:104530002000FFF7A1FF002004E07849095C221861
:10454000D171401C1028F8D3C01C20602000FFF758
:10455000E3FE0120DFE02068032801D20020DAE03A
:104560002000FFF789FF042200212000C01D02F077
:1045700061FC072020602000FFF7CEFE0120CAE08A
:104580002068032801D20020C5E02000FFF774FF57
:1045900069466348006800F0C6FE68460078002857
:1045A00002D0012809D011E0042201212000C01D01
:1045B00002F040FC0720206008E0042202212000D5
:1045C000C01D02F037FC07202060FFE72000FFF746
:1045D000A3FE01209FE02068032801D200209AE07A
:1045E0002000FFF749FF042201212000C01D02F036
:1045F00021FC072020602000FFF78EFE01208AE0CA
:104600002068032801D2002085E02000FFF734FF56
:1046100069464448006800F0AEFA68460078002811
:1046200002D0012809D011E0042201212000C01D80
:1046300002F000FC0720206008E004220221200094
:10464000C01D02F0F7FB07202060FFE72000FFF706
:1046500063FE01205FE02068032801D200205AE0B9
:104660002000FFF709FF042201212000C01D02F0F5
:10467000E1FB072020602000FFF74EFE01204AE00A
:104680002068032801D2002045E004212000C01D3D
:1046900002F0C4FB24490860042120000B3002F022
:1046A000BDFB2249086001202149087060791A4940
:1046B00008702000FFF7E0FE032020602000FFF7D5
:1046C0002BFE012027E02068032801D2002022E0F1
:1046D0000020154908600020154908702000FFF7E8
:1046E000CBFE2000FFF718FE012014E0206803280D
:1046F00001D200200FE02000FFF7BEFE0320206063
:10470000627A217AE079FFF752FB2000FFF704FE7E
:10471000012000E0002016BD0C040020D40300207E
:10472000040D0020F40C0020D80C0020F40300201D
:10473000340D002010B50C000021216040B200288B
:104740000ED0012814D0200000F072F8012806D104
:10475000200000F016F8012801D1012010E00EE041
:10476000200000F00EF8012801D1012008E006E049
:10477000200000F05DF8012801D1012000E00020B8
:1047800010BD38B5040000215348C078012801D17C
:1047900001204CE0FEF70AF9012801D1012046E092
:1047A00068204D490870D6204B49487000204A497E
:1047B000887000204849C8700020474908710120CE
:1047C0004549487145484449886045484249C86060
:1047D00000204149086143484349486042483F49F5
:1047E000086000203D4948603B4820602068C1685F
:1047F0000868002809D1142100222568280003F048
:10480000DFF800202060012011E020680968884757
:10481000012809D1142100222568280003F0D0F8CE
:1048200000202060012002E0FEF7C9F8002032BD20
:1048300038B5040000212848C07D012801D101209D
:1048400049E0FEF7B3F8012801D1012043E06920D7
:1048500021490875D4202049487501201E498875D2
:1048600000201D49C87500201B49087601201A49FF
:1048700048761E481849C8611D48174908621D48F6
:10488000154948621C481549886000201349C860D2
:104890001A4820602068C1680868002809D11421DE
:1048A00000222568280003F08BF8002020600120FA
:1048B00011E0206809688847012809D114210022E5
:1048C0002568280003F07CF800202060012002E029
:1048D000FEF777F8002032BD540B0020500C00206A
:1048E00008010020A40C0020AC0C0020580C002073
:1048F00090010020000000200C0D0020680B00201B
:1049000080B50021002801D101200CE0C1688A682F
:10491000002A01D1012006E089688847012801D1D9
:10492000012000E0002002BD00B5002801D10120D7
:1049300006E0002901D1012002E0C07808700020C3
:1049400000BD80B50022002801D1012010E0C2681E
:10495000002901D101200BE09369002B01D1012036
:1049600006E092699047012801D1012000E0002073
:1049700002BDFEE710B50C000021216040B2002806
:104980000ED0012814D0200000F070F8012806D1C4
:10499000200000F016F8012801D1012010E00EE0FF
:1049A000200000F00EF8012801D1012008E006E007
:1049B000200000F05BF8012801D1012000E0002078
:1049C00010BD38B5040000215148C078012801D13C
:1049D00001204AE0FDF7EAFF012801D1012044E06F
:1049E00068204B490870D620494948700020484942
:1049F000887000204649C870002045490871012090
:104A00004349487143484249886043484049C86027
:104A100000203F49086141484149486040483D49BC
:104A2000086000203B494860394820602068C16820
:104A30000868002809D1142100222568280002F006
:104A4000BFFF0020206001200FE020680968884730
:104A5000012809D1142100222568280002F0B0FFA6
:104A600000202060012000E0002032BD38B50400A5
:104A700000212748C07D012801D1012047E0FDF732
:104A800095FF012801D1012041E0692020490875E6
:104A9000D4201F49487501201D49887500201C49F4
:104AA000C87500201A4908760120194948761D4822
:104AB0001749C8611C481649086200201449486219
:104AC0001A481449886000201249C86018482060BC
:104AD0002068C1680868002809D1142100222568CF
:104AE000280002F06DFF0020206001200FE0206808
:104AF00009688847012809D1142100222568280067
:104B000002F05EFF00202060012000E0002032BDA6
:104B10007C0B0020600C00204C010020A40C002025
:104B2000B40C0020680C0020D4010020100D0020DF
:104B3000900B002080B50021002801D101200CE05D
:104B4000C1688A68002A01D1012006E08968884787
:104B5000012801D1012000E0002002BD00B500289D
:104B600001D1012006E0002901D1012002E0C07836
:104B70000870002000BD00B5002801D1012006E02A
:104B8000002901D1012002E080780870002000BDDA
:104B900080B50022002801D1012010E0C268002960
:104BA00001D101200BE09369002B01D1012006E027
:104BB00092699047012801D1012000E0002002BD48
:104BC00080B500220A6040B2002807D0080000F03B
:104BD0000EF8012801D1012008E006E0080000F0ED
:104BE00006F8012801D1012000E0002002BD38B5FF
:104BF000040000212748C078012801D1012047E0A6
:104C0000FDF7D4FE012801D1012041E03D202149DA
:104C100008703C201F49487000201E498870002001
:104C20001C49C87000201B490871002019494871AF
:104C300019481849886019481649C8600020154964
:104C4000086117481449086000201349486011485A
:104C500020602068C1680868002809D1142100225A
:104C60002568280002F0ACFE0020206001200FE043
:104C7000206809688847012809D114210022256885
:104C8000280002F09DFE00202060012000E00020AE
:104C900032BD00003C0C0020C40C0020D8020020D3
:104CA000180D002080B50021002801D101200CE062
:104CB000C1688A68002A01D1012006E08968884716
:104CC000012801D1012000E0002002BD00B500282C
:104CD00001D1012006E0002901D1012002E0C078C5
:104CE0000870002000BD80B50022002801D10120FD
:104CF00010E0C268002901D101200BE09369002B6C
:104D000001D1012006E092699047012801D10120DC
:104D100000E0002002BDFEE780B500220A6040B23C
:104D2000002807D0080000F00EF8012801D101206A
:104D300008E006E0080000F006F8012801D1012093
:104D400000E0002002BD38B5040000212848C078EA
:104D5000012801D101204AE0FDF728FE012801D1F8
:104D6000012044E0BC2022490870BE202049487040
:104D700000201F49887000201D49C87000201C4970
:104D8000087101201A4948711A48194988601A485F
:104D90001749C8600020164908611848184908607A
:104DA00017481449086000201249486010482060E4
:104DB0002068C1680868002809D1142100222568EC
:104DC000280002F0FDFD0020206001200FE0206897
:104DD00009688847012809D1142100222568280084
:104DE00002F0EEFD00202060012000E0002032BD36
:104DF000280C0020BC0C002014030020D40C002040
:104E0000140D002080B50021002801D101200CE004
:104E1000C1688A68002A01D1012006E089688847B4
:104E2000012801D1012000E0002002BD00B50028CA
:104E300001D1012006E0002901D1012002E0C07863
:104E40000870002000BD80B50022002801D101209B
:104E500010E0C268002901D101200BE09369002B0A
:104E600001D1012006E092699047012801D101207B
:104E700000E0002002BDFEE710B50C00002121601B
:104E800040B2002816D0022825D01BD321000220D2
:104E900000F080F801280CD1200000F026F801284D
:104EA00007D12100012000F075F8012801D101206F
:104EB0001AE018E0200000F018F8012801D10120C4
:104EC00012E010E02100012000F064F8012801D177
:104ED000012009E007E02100022000F05BF8012832
:104EE00001D1012000E0002010BD38B504000021F0
:104EF0006B48C078012801D101204AE0FDF756FD3A
:104F0000012801D1012044E0BC2065490870BE2081
:104F10006349487000206249887000206049C87069
:104F200000205F49087101205D4948715D485C4976
:104F300088605D485A49C8600020594908615B484B
:104F40005B4908605A485749086000205549486045
:104F5000534820602068C1680868002809D11421DE
:104F600000222568280002F02BFD0020206001208F
:104F70000FE0206809688847012809D11421002220
:104F80002568280002F01CFD00202060012000E0C0
:104F9000002032BD38B505000C0000214048142126
:104FA00069434018C078012801D1012076E0FDF75F
:104FB000FDFC012801D1012070E0012D02D0022D5D
:104FC00027D04CE0BD2036490875BA2034494875D1
:104FD00001203349887500203149C87500203049C7
:104FE000087601202E49487632482D49C86132485A
:104FF0002B49086200202A4948623048304908603D
:105000002F482849886000202649C8602D48206024
:1050100025E0BD202C490870B8202C4908700220DA
:105020002B49087000202B49087000202A4908707D
:1050300001202A4908702A48194908631E4818495E
:105040004863002016498863264827490860264897
:10505000144908610020134948611B4820602068FA
:10506000C1680868002809D1142100222568280099
:1050700002F0A6FC0020206001200FE020680968F3
:105080008847012809D1142100222568280002F050
:1050900097FC00202060012000E0002032BD0000CD
:1050A000180B0020100C00203C030020D40C002022
:1050B000240D0020180C00208C0300209C0C0020E4
:1050C000280D00202C0B0020400B0020410B00205D
:1050D000420B0020430B0020440B0020450B002016
:1050E000200C0020A00C00202C0D002080B50021F9
:1050F000002801D101200CE0C1688A68002A01D192
:10510000012006E089688847012801D1012000E0DC
:10511000002002BD00B5002801D1012006E00029D1
:1051200001D1012002E0C0780870002000BD80B5E8
:105130000022002801D1012010E0C268002901D11D
:1051400001200BE09369002B01D1012006E0926958
:105150009047012801D1012000E0002002BDFEE7B8
:1051600010B50C000021216040B2002810D00128A9
:1051700017D02100012000F01EF8012807D12100DE
:10518000002000F018F8012801D1012012E010E001
:105190002100002000F00FF8012801D1012009E0D2
:1051A00007E02100012000F006F8012801D10120CC
:1051B00000E0002010BD38B505000C00002140487B
:1051C000142169434018C078012801D1012076E0FC
:1051D000FDF7ECFB012801D1012070E0002D02D089
:1051E000012D27D04CE0BD2035490870BA20344944
:1051F000487000203249887000203149C870002072
:105200002F49087101202E4948712E482C49886089
:105210002D482B49C8600020294908612B482C499A
:1052200008602B482749886000202649C860244828
:10523000206025E0BD2022490875B8202049487526
:1052400001201F49887500201D49C87500201C4990
:10525000087601201A4948761E481949C8611A483B
:10526000174908620020164948621B481B4908601C
:105270001A481449886100201249C8611848206002
:105280002068C1680868002809D114210022256817
:10529000280002F095FB0020206001200FE020682C
:1052A00009688847012809D11421002225682800AF
:1052B00002F086FB00202060012000E0002032BDCB
:1052C000A40B0020F00B0020640300209C0C0020A5
:1052D0001C0D0020000C0020A00C0020200D002040
:1052E000B80B002080B50021002801D101200CE07E
:1052F000C1688A68002A01D1012006E089688847D0
:10530000012801D1012000E0002002BD00B50028E5
:1053100001D1012006E0002901D1012002E0C0787E
:105320000870002000BD00B5002801D1012006E072
:10533000002901D1012002E080780870002000BD22
:1053400080B50022002801D1012010E0C2680029A8
:1053500001D101200BE09369002B01D1012006E06F
:1053600092699047012801D1012000E0002002BD90
:105370000CB4012212060318DA4207D84B18DA429D
:1053800004D802000A43921802D281420CBC704732
:10539000FCD088420CBC70470122D20703004B406E
:1053A0002ED4431A01D2C01AC91830B44B180418AD
:1053B000240E1B0E22D0FF2C20D0E31A182B1DDC4C
:1053C00009021143C40D641E0002104394461925BE
:1053D000ED1A0A00AA40D940451801D36D08A41C53
:1053E000E405D209280A2D062A436546AA416041F0
:1053F00003181B0EFF2B01D3C00DC00530BC704736
:10540000514006E05140CCE70122D20703004B4057
:10541000F8D4431A03D2C01AC9185040514030B4CE
:105420004B18090211430418240E1B0E40D0FF2C08
:105430003AD025009D410BD31ED8C50D4002401A1D
:105440000BD3ED050100400AC90591416841D5E73C
:10545000C50D40024918401AD0D001214008491C0E
:105460000018FCD58C4204D36D1A000AED054019D2
:10547000C4E7E8051040C1E7182DBFDCAC1C0D00E7
:10548000E140E5414D40012D4941C40D000210436A
:10549000451A01D46D199543641EE405280A2D06AA
:1054A0009541604130BC7047FF2BA7D1D843A5E799
:1054B0002442A3D10020A1E7010009D5F4464042CF
:1054C00000F006F80122D20711436047010000BF37
:1054D00042221201D21E004207D002D4521E0018EE
:1054E000FCD5C10A400512058918704770B4012126
:1054F000002313E00468001D0C4202D04D466D1ECF
:1055000064192360241D121F042AFAD2250096076D
:1055100001D52380AD1C0A4000D02B700268001D0D
:10552000002AE7D170BC7047F8B50FB48AB00CA858
:1055300003C804AA03C20B984000400D7849884272
:105540000CD10020694608800B98000304D10A980A
:10555000002801D1012518E0022516E0012808DA0B
:105560000AA802F057FA012803DB002569460D80DE
:105570000BE00B99BE4A0A40C34911430B9169469F
:10558000BC4A801A08800025ED43002104A802F0DF
:1055900063FA04001498002802D0002014990880AF
:1055A000002C06D10CA80CC80020002102F09AFAA9
:1055B00015D0002D16D5009E36B2012E16D10AA8A0
:1055C00003C80022B04B02F08DFA08D0012C0DD197
:1055D0000AA80CC80020A84902F084FA2ED10020A5
:1055E000A649B9E1022D03D10AA804E0012C5CDB35
:1055F000022C02D10CA803C8AEE1012D1CD10B98DE
:1056000000280D9802D400284CD535E0002809D494
:10561000002C47D10021C94304A802F01DFA00283C
:1056200040D53CE0002C27D10021C94304A802F05A
:1056300013FA002820D51BE0012C0AD1009E36B2B7
:105640000D98002802D4012E2CDA15E0012E13DA71
:1056500028E00D98002812D4002C0DD10021C94358
:1056600004A802F0F9F9002806D50B98002803D504
:105670000020802109066FE1002000216CE102F08A
:1056800043FA22210160002C0CD10021C94304A857
:1056900002F0E2F9002805D50B98002802D5002079
:1056A000AE4959E10020B74956E10B98002809D5C9
:1056B000002C07D502F028FA212101600020C04308
:1056C000410849E10AA803C80022002302F024FA95
:1056D00002D269468A800DE00AA803C88022120619
:1056E00051400AAA03C20021C94304A802F0B4F938
:1056F00069468880012E15D10AA803C898A20CCA51
:1057000002F023FA0ED2002400265C4F0AA80CC82F
:1057100000208021C90500F068FB0AAA03C21CE032
:10572000FF0700000AA80CC800208F4900F05DFBAD
:105730000022554B02F022FA00F022FC0400203C2B
:105740002000FFF7B9FE0022884B00F04EFB00223C
:105750004D4B02F013FA06000F0000BF8EA061014E
:10576000401806900AA803C832003B0002F069FA0C
:1057700004000D000AA803C832003B0002F0FEF945
:1057800002000B002000290002F0D2FA04AA03C292
:1057900004A803C804AA0CCA00F027FB08AA03C285
:1057A0000AA830C008A803C802F024FB08AA0CCA43
:1057B00000F01BFB0AAA0CCA02F043FA04000D0019
:1057C00000202E4932003B0002F03BFA00228023E9
:1057D000DB0500F00AFB22002B0002F0CFF904AA3F
:1057E0000CCA00F002FB02000B000AA803C802F07A
:1057F000C5F908AA03C208A803C85FA20CCA02F030
:1058000097FA04AA03C2009800B2FFF755FE0600FB
:105810000F00069803C832003B0002F0AFF904AA5B
:105820000CCA02F0ABF904AA03C20CA80CC804A865
:1058300003C800F0DAFA02AA03C202A803C80022D1
:105840004B4B02F082F973D302A803C80122494BE3
:1058500002F062F96FD902A803C80022002302F007
:1058600074F902A80CC80BD2002003490EE000BF57
:10587000FFFF0F80FE0300000000E0BF0000F03FCC
:105880000020014902E000BF0000E03F02F076F98D
:1058900000F076FB040008A803C80CAA0CCA00F0AC
:1058A000A4FA02AA03C20698083003C8069A103266
:1058B0000CCA02F063F90CAA0CCA00F096FA2EA2E8
:1058C0000CCA00F092FA02AA0CCA02F057F902AA16
:1058D00003C2069803C832003B0002F04FF90CAA3D
:1058E0000CCA00F082FA06000F002000FFF7E4FD6A
:1058F00002000B003000390002F0A3F91EA20CCA0E
:1059000000F073FA02AA0CCA02F038F902AA03C224
:105910001498002801D00480002400940022184B21
:1059200002A802F0B9FA002802D0012803D00AE048
:105930000020002101E00020124902AA03C202F067
:10594000E3F822210160019800B2002802A803C8F0
:1059500002D08022120651400FB0F0BD0000F0FFCF
:10596000CD3B7F669EA0E63F000050400000903F88
:105970000000E0C00000E040EF39FAFE422EE63FB2
:105980000000F03F0000F07F10B582B000240094CA
:10599000FFF7CAFD1CBD0000000000000000F0BFC2
:1059A00000000000000000800000000000000080F7
:1059B0000000000000000000000000C05294EEBF94
:1059C00000000048204E51BE000000F86467BCBCD7
:1059D0000000000000000000000000208133EDBF47
:1059E00000000080B3DB14BE000000506706A3BCBB
:1059F0000000000000000000000000D0E9DCEBBF68
:105A000000000008C39259BE00000080B0D3B8BCAB
:105A1000000000000000000000000070F98FEABFE5
:105A2000000000C0A51028BE000000E8BFC0B0BC48
:105A3000000000000000000000000070284CE9BFDA
:105A400000000060134B42BE000000C03D20B8BC07
:105A5000000000000000000000000050FA10E8BF45
:105A6000000000C05FF62BBE000000905C71A7BC78
:105A7000000000000000000000000020FCDDE6BF88
:105A8000000000C0F8F154BE00000018E9F6B9BCEF
:105A90000000000000000000000000D0C3B2E5BF1D
:105AA00000000070E43254BE00000050DB06B4BCBD
:105AB000000000000000000000000010EF8EE4BFB6
:105AC00000000020F36252BE000000C02A879ABC8A
:105AD0000000000000000000000000B02272E3BFE0
